{
  "contractName": "AbstractHangmanChannel",
  "abi": [
    {
      "inputs": [
        {
          "name": "_maxTries",
          "type": "uint256"
        },
        {
          "name": "_challengePeriod",
          "type": "uint256"
        },
        {
          "name": "_parties",
          "type": "address[]"
        }
      ],
      "payable": true,
      "stateMutability": "payable",
      "type": "constructor"
    },
    {
      "anonymous": false,
      "inputs": [
        {
          "indexed": false,
          "name": "_text",
          "type": "string"
        },
        {
          "indexed": false,
          "name": "_status",
          "type": "uint8"
        }
      ],
      "name": "LogStatus",
      "type": "event"
    },
    {
      "anonymous": false,
      "inputs": [
        {
          "indexed": false,
          "name": "newStage",
          "type": "uint8"
        }
      ],
      "name": "movePerformed",
      "type": "event"
    },
    {
      "constant": false,
      "inputs": [],
      "name": "challenge",
      "outputs": [],
      "payable": false,
      "stateMutability": "nonpayable",
      "type": "function"
    },
    {
      "constant": false,
      "inputs": [],
      "name": "finalizeChallenge",
      "outputs": [],
      "payable": false,
      "stateMutability": "nonpayable",
      "type": "function"
    },
    {
      "constant": false,
      "inputs": [
        {
          "name": "_hashedWord",
          "type": "bytes32"
        },
        {
          "name": "_wordLength",
          "type": "uint8"
        }
      ],
      "name": "commit",
      "outputs": [],
      "payable": false,
      "stateMutability": "nonpayable",
      "type": "function"
    },
    {
      "constant": false,
      "inputs": [
        {
          "name": "_letter",
          "type": "uint8"
        }
      ],
      "name": "guess",
      "outputs": [],
      "payable": false,
      "stateMutability": "nonpayable",
      "type": "function"
    },
    {
      "constant": false,
      "inputs": [
        {
          "name": "_hits",
          "type": "uint8[]"
        }
      ],
      "name": "correct",
      "outputs": [],
      "payable": false,
      "stateMutability": "nonpayable",
      "type": "function"
    },
    {
      "constant": false,
      "inputs": [],
      "name": "wrong",
      "outputs": [],
      "payable": false,
      "stateMutability": "nonpayable",
      "type": "function"
    },
    {
      "constant": false,
      "inputs": [
        {
          "name": "_nonce",
          "type": "bytes32"
        },
        {
          "name": "_opening",
          "type": "bytes"
        }
      ],
      "name": "open",
      "outputs": [],
      "payable": false,
      "stateMutability": "nonpayable",
      "type": "function"
    },
    {
      "constant": false,
      "inputs": [],
      "name": "close",
      "outputs": [],
      "payable": false,
      "stateMutability": "nonpayable",
      "type": "function"
    }
  ],
  "bytecode": "0x6080604052604051620020ab380380620020ab83398181016040526200002991908101906200021e565b826000819055508160018190555080600290805190602001906200004f9291906200008e565b5060006004819055506000600b819055506000600c60006101000a81548160ff021916908360058111156200008057fe5b021790555050505062000356565b8280548282559060005260206000209081019282156200010a579160200282015b82811115620001095782518260006101000a81548173ffffffffffffffffffffffffffffffffffffffff021916908373ffffffffffffffffffffffffffffffffffffffff16021790555091602001919060010190620000af565b5b5090506200011991906200011d565b5090565b6200016091905b808211156200015c57600081816101000a81549073ffffffffffffffffffffffffffffffffffffffff02191690555060010162000124565b5090565b90565b600081519050620001748162000322565b92915050565b600082601f8301126200018c57600080fd5b8151620001a36200019d82620002bb565b6200028d565b91508181835260208401935060208101905083856020840282011115620001c957600080fd5b60005b83811015620001fd5781620001e2888262000163565b845260208401935060208301925050600181019050620001cc565b5050505092915050565b60008151905062000218816200033c565b92915050565b6000806000606084860312156200023457600080fd5b6000620002448682870162000207565b9350506020620002578682870162000207565b925050604084015167ffffffffffffffff8111156200027557600080fd5b62000283868287016200017a565b9150509250925092565b6000604051905081810181811067ffffffffffffffff82111715620002b157600080fd5b8060405250919050565b600067ffffffffffffffff821115620002d357600080fd5b602082029050602081019050919050565b6000620002f182620002f8565b9050919050565b600073ffffffffffffffffffffffffffffffffffffffff82169050919050565b6000819050919050565b6200032d81620002e4565b81146200033957600080fd5b50565b620003478162000318565b81146200035357600080fd5b50565b611d4580620003666000396000f3fe608060405234801561001057600080fd5b50600436106100885760003560e01c806343d726d61161005b57806343d726d6146100eb5780634ba4c16b146100f5578063b78fe73414610111578063d2ef73981461011b57610088565b806304e1df8b1461008d5780632c23d2b4146100a95780633a37bd3f146100b3578063425b9bb9146100cf575b600080fd5b6100a760048036036100a291908101906117bc565b610125565b005b6100b1610506565b005b6100cd60048036036100c89190810190611814565b61073b565b005b6100e960048036036100e49190810190611777565b61094f565b005b6100f3610d4b565b005b61010f600480360361010a9190810190611850565b610dcf565b005b610119611050565b005b61012361129c565b005b600260008154811061013357fe5b9060005260206000200160009054906101000a900473ffffffffffffffffffffffffffffffffffffffff168073ffffffffffffffffffffffffffffffffffffffff163373ffffffffffffffffffffffffffffffffffffffff16146101cc576040517f08c379a00000000000000000000000000000000000000000000000000000000081526004016101c390611b89565b60405180910390fd5b60038060058111156101da57fe5b600c60009054906101000a900460ff1660058111156101f557fe5b14610235576040517f08c379a000000000000000000000000000000000000000000000000000000000815260040161022c90611c29565b60405180910390fd5b600380600381111561024357fe5b600360009054906101000a900460ff16600381111561025e57fe5b1461029e576040517f08c379a000000000000000000000000000000000000000000000000000000000815260040161029590611b69565b60405180910390fd5b600360058111156102ab57fe5b600c60009054906101000a900460ff1660058111156102c657fe5b14610306576040517f08c379a00000000000000000000000000000000000000000000000000000000081526004016102fd90611be9565b60405180910390fd5b600954858590501461031757600080fd5b60008090505b6009548110156104735785858281811061033357fe5b9050013560f81c60f81b7effffffffffffffffffffffffffffffffffffffffffffffffffffffffffffff191660078281546001816001161561010002031660029004811061037d57fe5b81546001161561039c5790600052602060002090602091828204019190065b9054901a7f0100000000000000000000000000000000000000000000000000000000000000027effffffffffffffffffffffffffffffffffffffffffffffffffffffffffffff19161415801561042f5750600660418787848181106103fd57fe5b9050013560f81c60f81b60f81c0360ff16601a811061041857fe5b602091828204019190069054906101000a900460ff165b15610466576005600c60006101000a81548160ff0219169083600581111561045357fe5b02179055506104606114aa565b506104fe565b808060010191505061031d565b5060055486868660405160200161048c93929190611b1c565b60405160208183030381529060405280519060200120146104d0576005600c60006101000a81548160ff021916908360058111156104c657fe5b02179055506104f5565b6004600c60006101000a81548160ff021916908360058111156104ef57fe5b02179055505b6104fd6114aa565b5b505050505050565b600260008154811061051457fe5b9060005260206000200160009054906101000a900473ffffffffffffffffffffffffffffffffffffffff168073ffffffffffffffffffffffffffffffffffffffff163373ffffffffffffffffffffffffffffffffffffffff16146105ad576040517f08c379a00000000000000000000000000000000000000000000000000000000081526004016105a490611b89565b60405180910390fd5b60028060058111156105bb57fe5b600c60009054906101000a900460ff1660058111156105d657fe5b14610616576040517f08c379a000000000000000000000000000000000000000000000000000000000815260040161060d90611c29565b60405180910390fd5b600380600381111561062457fe5b600360009054906101000a900460ff16600381111561063f57fe5b1461067f576040517f08c379a000000000000000000000000000000000000000000000000000000000815260040161067690611b69565b60405180910390fd5b600160066041600860009054906101000a900460ff160360ff16601a81106106a357fe5b602091828204019190066101000a81548160ff021916908315150217905550600b60008154809291906001019190505550600054600b541415610709576003600c60006101000a81548160ff021916908360058111156106ff57fe5b021790555061072e565b6001600c60006101000a81548160ff0219169083600581111561072857fe5b02179055505b6107366114aa565b505050565b600260008154811061074957fe5b9060005260206000200160009054906101000a900473ffffffffffffffffffffffffffffffffffffffff168073ffffffffffffffffffffffffffffffffffffffff163373ffffffffffffffffffffffffffffffffffffffff16146107e2576040517f08c379a00000000000000000000000000000000000000000000000000000000081526004016107d990611b89565b60405180910390fd5b60008060058111156107f057fe5b600c60009054906101000a900460ff16600581111561080b57fe5b1461084b576040517f08c379a000000000000000000000000000000000000000000000000000000000815260040161084290611c29565b60405180910390fd5b600380600381111561085957fe5b600360009054906101000a900460ff16600381111561087457fe5b146108b4576040517f08c379a00000000000000000000000000000000000000000000000000000000081526004016108ab90611b69565b60405180910390fd5b846005819055508360ff166009819055506001600c60006101000a81548160ff021916908360058111156108e457fe5b02179055508360ff16600a819055508360ff166040519080825280601f01601f1916602001820160405280156109295781602001600182028038833980820191505090505b506007908051906020019061093f929190611614565b506109486114aa565b5050505050565b600260008154811061095d57fe5b9060005260206000200160009054906101000a900473ffffffffffffffffffffffffffffffffffffffff168073ffffffffffffffffffffffffffffffffffffffff163373ffffffffffffffffffffffffffffffffffffffff16146109f6576040517f08c379a00000000000000000000000000000000000000000000000000000000081526004016109ed90611b89565b60405180910390fd5b6002806005811115610a0457fe5b600c60009054906101000a900460ff166005811115610a1f57fe5b14610a5f576040517f08c379a0000000000000000000000000000000000000000000000000000000008152600401610a5690611c29565b60405180910390fd5b6003806003811115610a6d57fe5b600360009054906101000a900460ff166003811115610a8857fe5b14610ac8576040517f08c379a0000000000000000000000000000000000000000000000000000000008152600401610abf90611b69565b60405180910390fd5b60008585905011610ad857600080fd5b60008090505b85859050811015610c9057600954868683818110610af857fe5b9050602002016020610b0d9190810190611850565b60ff16101580610bc5575060006007878784818110610b2857fe5b9050602002016020610b3d9190810190611850565b60ff16815460018160011615610100020316600290048110610b5b57fe5b815460011615610b7a5790600052602060002090602091828204019190065b9054901a7f0100000000000000000000000000000000000000000000000000000000000000027effffffffffffffffffffffffffffffffffffffffffffffffffffffffffffff191614155b15610bd857610bd26114aa565b50610d44565b600860009054906101000a900460ff1660f81b6007878784818110610bf957fe5b9050602002016020610c0e9190810190611850565b60ff16815460018160011615610100020316600290048110610c2c57fe5b815460011615610c4b5790600052602060002090602091828204019190065b601f036101000a81548160ff021916907f0100000000000000000000000000000000000000000000000000000000000000840402179055508080600101915050610ade565b5084849050600a5403600a81905550600160066041600860009054906101000a900460ff160360ff16601a8110610cc357fe5b602091828204019190066101000a81548160ff0219169083151502179055506001600a541015610d16576005600c60006101000a81548160ff02191690836005811115610d0c57fe5b0217905550610d3b565b6001600c60006101000a81548160ff02191690836005811115610d3557fe5b02179055505b610d436114aa565b5b5050505050565b6003806003811115610d5957fe5b600360009054906101000a900460ff166003811115610d7457fe5b14610db4576040517f08c379a0000000000000000000000000000000000000000000000000000000008152600401610dab90611b69565b60405180910390fd5b610dcc600c60009054906101000a900460ff166114fa565b50565b6002600181548110610ddd57fe5b9060005260206000200160009054906101000a900473ffffffffffffffffffffffffffffffffffffffff168073ffffffffffffffffffffffffffffffffffffffff163373ffffffffffffffffffffffffffffffffffffffff1614610e76576040517f08c379a0000000000000000000000000000000000000000000000000000000008152600401610e6d90611b89565b60405180910390fd5b6001806005811115610e8457fe5b600c60009054906101000a900460ff166005811115610e9f57fe5b14610edf576040517f08c379a0000000000000000000000000000000000000000000000000000000008152600401610ed690611c29565b60405180910390fd5b6003806003811115610eed57fe5b600360009054906101000a900460ff166003811115610f0857fe5b14610f48576040517f08c379a0000000000000000000000000000000000000000000000000000000008152600401610f3f90611b69565b60405180910390fd5b6000604185039050601a8160ff1610610f96576040517f08c379a0000000000000000000000000000000000000000000000000000000008152600401610f8d90611bc9565b60405180910390fd5b6000151560068260ff16601a8110610faa57fe5b602091828204019190069054906101000a900460ff16151514611002576040517f08c379a0000000000000000000000000000000000000000000000000000000008152600401610ff990611c09565b60405180910390fd5b84600860006101000a81548160ff021916908360ff1602179055506002600c60006101000a81548160ff0219169083600581111561103c57fe5b02179055506110496114aa565b5050505050565b600380600381111561105e57fe5b600360009054906101000a900460ff16600381111561107957fe5b146110b9576040517f08c379a00000000000000000000000000000000000000000000000000000000081526004016110b090611b69565b60405180910390fd5b4260045411156110c857600080fd5b600460058111156110d557fe5b600c60009054906101000a900460ff1660058111156110f057fe5b14158015611123575060058081111561110557fe5b600c60009054906101000a900460ff16600581111561112057fe5b14155b61112c57600080fd5b600260008154811061113a57fe5b9060005260206000200160009054906101000a900473ffffffffffffffffffffffffffffffffffffffff1673ffffffffffffffffffffffffffffffffffffffff163373ffffffffffffffffffffffffffffffffffffffff161480611201575060026001815481106111a757fe5b9060005260206000200160009054906101000a900473ffffffffffffffffffffffffffffffffffffffff1673ffffffffffffffffffffffffffffffffffffffff163373ffffffffffffffffffffffffffffffffffffffff16145b61120a57600080fd5b6001600581111561121757fe5b600c60009054906101000a900460ff16600581111561123257fe5b1415611267576004600581111561124557fe5b600c60009054906101000a900460ff16600581111561126057fe5b5050611291565b60058081111561127357fe5b600c60009054906101000a900460ff16600581111561128e57fe5b50505b6112996114aa565b50565b60038060038111156112aa57fe5b600360009054906101000a900460ff1660038111156112c557fe5b14611305576040517f08c379a00000000000000000000000000000000000000000000000000000000081526004016112fc90611b69565b60405180910390fd5b60006004541461131457600080fd5b6004600581111561132157fe5b600c60009054906101000a900460ff16600581111561133c57fe5b1415801561136f575060058081111561135157fe5b600c60009054906101000a900460ff16600581111561136c57fe5b14155b61137857600080fd5b600260008154811061138657fe5b9060005260206000200160009054906101000a900473ffffffffffffffffffffffffffffffffffffffff1673ffffffffffffffffffffffffffffffffffffffff163373ffffffffffffffffffffffffffffffffffffffff16148061144d575060026001815481106113f357fe5b9060005260206000200160009054906101000a900473ffffffffffffffffffffffffffffffffffffffff1673ffffffffffffffffffffffffffffffffffffffff163373ffffffffffffffffffffffffffffffffffffffff16145b61145657600080fd5b60015442016004819055507fdc366cb1e2516aaf0bb450000834ee4209956a3889d1b518ec01475ec98ed521600c60009054906101000a900460ff1660405161149f9190611b4e565b60405180910390a150565b60006004819055507fdc366cb1e2516aaf0bb450000834ee4209956a3889d1b518ec01475ec98ed521600c60009054906101000a900460ff166040516114f09190611b4e565b60405180910390a1565b6004600581111561150757fe5b81600581111561151357fe5b141561156a57600260008154811061152757fe5b9060005260206000200160009054906101000a900473ffffffffffffffffffffffffffffffffffffffff1673ffffffffffffffffffffffffffffffffffffffff16ff5b60058081111561157657fe5b81600581111561158257fe5b14156115d957600260018154811061159657fe5b9060005260206000200160009054906101000a900473ffffffffffffffffffffffffffffffffffffffff1673ffffffffffffffffffffffffffffffffffffffff16ff5b6040517f08c379a000000000000000000000000000000000000000000000000000000000815260040161160b90611ba9565b60405180910390fd5b828054600181600116156101000203166002900490600052602060002090601f016020900481019282601f1061165557805160ff1916838001178555611683565b82800160010185558215611683579182015b82811115611682578251825591602001919060010190611667565b5b5090506116909190611694565b5090565b6116b691905b808211156116b257600081600090555060010161169a565b5090565b90565b60008083601f8401126116cb57600080fd5b8235905067ffffffffffffffff8111156116e457600080fd5b6020830191508360208202830111156116fc57600080fd5b9250929050565b60008135905061171281611cd4565b92915050565b60008083601f84011261172a57600080fd5b8235905067ffffffffffffffff81111561174357600080fd5b60208301915083600182028301111561175b57600080fd5b9250929050565b60008135905061177181611ceb565b92915050565b6000806020838503121561178a57600080fd5b600083013567ffffffffffffffff8111156117a457600080fd5b6117b0858286016116b9565b92509250509250929050565b6000806000604084860312156117d157600080fd5b60006117df86828701611703565b935050602084013567ffffffffffffffff8111156117fc57600080fd5b61180886828701611718565b92509250509250925092565b6000806040838503121561182757600080fd5b600061183585828601611703565b925050602061184685828601611762565b9150509250929050565b60006020828403121561186257600080fd5b600061187084828501611762565b91505092915050565b61188281611c6b565b82525050565b60006118948385611c49565b93506118a1838584611ca7565b6118aa83611cb6565b840190509392505050565b6118be81611c95565b82525050565b60006118d1603283611c5a565b91507f4e6f7420746865207269676874206368616e6e656c2073746174757320746f2060008301527f63616c6c20746869732066756e6374696f6e00000000000000000000000000006020830152604082019050919050565b6000611937602983611c5a565b91507f4e6f742074686520726967687420706172747920746f2063616c6c207468697360008301527f2066756e6374696f6e00000000000000000000000000000000000000000000006020830152604082019050919050565b600061199d601183611c5a565b91507f4e6f207465726d696e616c2073746174650000000000000000000000000000006000830152602082019050919050565b60006119dd601283611c5a565b91507f4e6f7420612076616c6964206c657474657200000000000000000000000000006000830152602082019050919050565b6000611a1d602583611c5a565b91507f4e6f7420696e2074686520726967687420737461676520666f7220616e206f7060008301527f656e696e670000000000000000000000000000000000000000000000000000006020830152604082019050919050565b6000611a83601f83611c5a565b91507f4c65747465722068617320616c7265616479206265656e2067756573736564006000830152602082019050919050565b6000611ac3602983611c5a565b91507f4e6f742074686520726967687420737461676520746f2063616c6c207468697360008301527f2066756e6374696f6e00000000000000000000000000000000000000000000006020830152604082019050919050565b6000604082019050611b316000830186611879565b8181036020830152611b44818486611888565b9050949350505050565b6000602082019050611b6360008301846118b5565b92915050565b60006020820190508181036000830152611b82816118c4565b9050919050565b60006020820190508181036000830152611ba28161192a565b9050919050565b60006020820190508181036000830152611bc281611990565b9050919050565b60006020820190508181036000830152611be2816119d0565b9050919050565b60006020820190508181036000830152611c0281611a10565b9050919050565b60006020820190508181036000830152611c2281611a76565b9050919050565b60006020820190508181036000830152611c4281611ab6565b9050919050565b600082825260208201905092915050565b600082825260208201905092915050565b6000819050919050565b6000819050611c8382611cc7565b919050565b600060ff82169050919050565b6000611ca082611c75565b9050919050565b82818337600083830152505050565b6000601f19601f8301169050919050565b60068110611cd157fe5b50565b611cdd81611c6b565b8114611ce857600080fd5b50565b611cf481611c88565b8114611cff57600080fd5b5056fea365627a7a723058206e84a90503d6f0b4f65649313ee4b03ee2751e5e800f174d3ba99e5cc1785ea26c6578706572696d656e74616cf564736f6c634300050a0040",
  "source": "pragma solidity 0.5.10;\npragma experimental \"ABIEncoderV2\";\n\n//This is shared code between the two models deploying a contract for each application instance\n\n//We assume that players only sign / produce states that can occur in a proper execution\n//For example, they do not sign / produce a state in which a player has used all of his ten tries but still is in stage WaitingForGuess\ncontract AbstractHangmanChannel{\n    \n    //******************\n    // Variables, enums, structures\n    \n    //constant after initialization\n    uint maxTries;\n    uint challengePeriod;\n    \n    event LogStatus(string _text, ChannelStatus _status);\n    \n    //Enums\n    enum Stage {\n      WaitingForCommit, WaitingForGuess, WaitingForResponse, WaitingForOpen, Failed, Success\n    }\n    \n    //Channel specific variables\n    address[] parties;\n    ChannelStatus status;\n    uint challenged;\n    \n    enum ChannelStatus {\n        NONE, OFFCHAIN, DISPUTE, ONCHAIN\n    }\n    \n    //Execution specific variables\n    bytes32 hashedWord;\n    bool[26] guessed; //Originally we used a mapping but we cant use mapping in memory-structures\n    bytes word;\n    uint8 currentGuess; //Uint representation of a capital letter's ascii byte\n    uint wordLength;\n    uint missingLetters;\n    uint tries ;\n    Stage stage;\n    \n    //Events\n    event movePerformed(Stage newStage);\n    \n    //****************\n    // Super constructor\n    \n    constructor(uint _maxTries, uint _challengePeriod, address[] memory _parties) public payable{\n        //constants\n        maxTries = _maxTries;\n        challengePeriod = _challengePeriod;\n        \n        //Channel initialization\n        parties = _parties;\n        challenged = 0;\n        \n        //Application initializations\n        tries = 0;\n        stage = Stage.WaitingForCommit;\n    }\n    \n    //****************\n    //Logic to enforce a move\n    \n    //As there is a fixed move sequence this function challenges the acting party to perform its move\n    function challenge() external isChannelStatus(ChannelStatus.ONCHAIN) {\n        \n        //May only challenge if no terminal state and no running challenge\n        require(challenged == 0);\n        require(stage != Stage.Failed && stage != Stage.Success);\n        require(msg.sender == parties[0] || msg.sender == parties[1]);\n        \n        challenged = now + challengePeriod;\n        \n        emit movePerformed(stage);\n    }\n    \n    //If the acting party has not performed its move it is punished with losing the game\n    function finalizeChallenge() external isChannelStatus(ChannelStatus.ONCHAIN) {\n        \n        //Challenge can only be finalized if timeout period has elapsed and no terminal stage\n        require(challenged <= now);\n        require(stage != Stage.Failed && stage != Stage.Success);\n        require(msg.sender == parties[0] || msg.sender == parties[1]);\n        \n        //If Party2 (Guesser) is challenged and has not reacted he loses\n        if(stage == Stage.WaitingForGuess){\n            stage == Stage.Failed;\n        } else {\n        //If Party 2 (Challenger) is challenged and has not reacted the guesser wins\n            stage == Stage.Success;\n        }\n        \n        finishAction();\n    }\n    \n    //****************\n    //Application logic\n    \n    //Commit to the word\n    function commit (bytes32 _hashedWord, uint8 _wordLength) external isParty(parties[0]) isStage(Stage.WaitingForCommit) isChannelStatus(ChannelStatus.ONCHAIN) {\n        \n        //Set application variables\n        hashedWord = _hashedWord;\n        wordLength = _wordLength;\n        stage = Stage.WaitingForGuess;\n        missingLetters = _wordLength;\n        word = new bytes(_wordLength);\n        \n        finishAction();\n    }\n    \n    //Guess a letter\n    function guess (uint8 _letter) external isParty(parties[1]) isStage(Stage.WaitingForGuess) isChannelStatus(ChannelStatus.ONCHAIN) {\n        \n        //Convert byte to number\n        uint8 _position = _letter - 65;\n        \n        //Needs to be a capital letter: (ASCII-65 bis ASCII-90)\n        require(_position < 26, \"Not a valid letter\");\n        \n        //Check if letter has not been handled yet\n        require(guessed[_position] == false,\"Letter has already been guessed\");\n        \n        //Set state and return new state\n        currentGuess = _letter;\n        stage = Stage.WaitingForResponse;\n        \n        finishAction();\n    }\n    \n    //The letter is part of the secret word\n    function correct (uint8[] calldata _hits) external isParty(parties[0]) isStage(Stage.WaitingForResponse) isChannelStatus(ChannelStatus.ONCHAIN){\n        \n        //Check input\n        require(_hits.length > 0);\n        \n        //Set letters in the word\n        for(uint i = 0; i < _hits.length ; i++){\n            //Check that challenger behaves correct (no set letter, no index above maximal letters)\n            if(_hits[i] >= wordLength || word[_hits[i]] != \"\\x00\"){\n                finishAction();\n                return;\n            }\n           \n            //Set letter for the active word\n            word[_hits[i]] = byte(currentGuess);\n        }\n        \n        //Decrement missing letters\n        missingLetters = missingLetters - _hits.length;\n        \n        //Set letter as guessed\n        guessed[currentGuess - 65] = true; //Shift from \"A\" (ASCII-65) to index 0\n        \n        //Set next stage\n        if (missingLetters < 1){\n            stage = Stage.Success;\n        } else {\n            stage = Stage.WaitingForGuess;\n        }\n        \n        finishAction();\n    }\n    \n    //The letter is not part of the secret word\n    function wrong () external isParty(parties[0]) isStage(Stage.WaitingForResponse) isChannelStatus(ChannelStatus.ONCHAIN){\n        \n        //Set letter as guessed\n        guessed[currentGuess - 65] = true; //Shift from \"A\" (ASCII-65) to index 0\n        \n        //Increment tries\n        tries++;\n        \n        //Set next stage\n        if(tries == maxTries){\n          stage = Stage.WaitingForOpen;\n        } else {\n          stage = Stage.WaitingForGuess;\n        }\n        \n        finishAction();\n    }\n    \n    //Open the secret word after it has not been guessed successfully\n    function open (bytes32 _nonce, bytes calldata _opening) external isParty(parties[0]) isStage(Stage.WaitingForOpen) isChannelStatus(ChannelStatus.ONCHAIN){\n    \n        //Check stage and input\n        require(stage == Stage.WaitingForOpen, \"Not in the right stage for an opening\");\n        require(_opening.length == wordLength);\n        \n        //Check that there are no letters that no letter has been opened wrong\n        for(uint i = 0; i < wordLength; i++){\n          //Missbehaviour if a solution-letter does not match the working letter although it has been guessed\n          if(word[i] != _opening[i] && guessed[uint8(_opening[i]) - 65]){\n              stage = Stage.Success;\n              finishAction();\n              return;\n          }\n        }\n        \n        //Check that given opening corresponds to the comitted hash\n        if(keccak256(abi.encode(_nonce, _opening)) != hashedWord){\n            stage = Stage.Success;\n        } else {\n            stage = Stage.Failed;\n        }\n        \n        finishAction();\n    }\n    \n    //Resets the challenge timeout and notifies parties about a performed move\n    function finishAction() internal {\n        challenged = 0;\n        emit movePerformed(stage);\n    }\n \n    //Computes the outcome (Needs a terminal state)\n    function close() external isChannelStatus(ChannelStatus.ONCHAIN) {\n        internalClose(stage);\n    }\n    \n    //Actually performs the closing (called by normal and fast close)\n    function internalClose(Stage _stage) internal {\n        if(_stage == Stage.Failed){\n            selfdestruct(address(uint160(parties[0])));\n        } else if(_stage == Stage.Success){\n            selfdestruct(address(uint160(parties[1])));\n        } else {\n            revert(\"No terminal state\"); //No terminal state\n        }\n    }\n    \n    //****************\n    //Modifiers\n    \n    modifier isParty(address _party){\n        require(msg.sender == _party, \"Not the right party to call this function\");\n        _;\n    }\n    \n    modifier isStage(Stage _stage){\n        require(stage == _stage, \"Not the right stage to call this function\");\n        _;\n    }\n    \n    modifier isChannelStatus(ChannelStatus _status){\n        require(status == _status, \"Not the right channel status to call this function\");\n        _;\n    }\n}\n",
  "sourcePath": "/media/shared/CAC/Projekte/2019_SC_Workshop_FinCrypto/publicImplementation/truffle/contracts/sharedCode/AbstractHangmanChannel.sol",
  "compiler": {
    "name": "solc",
    "version": "0.5.10+commit.5a6ea5b1.Emscripten.clang"
  },
  "schemaVersion": "3.0.16",
  "updatedAt": "2019-12-13T14:08:30.692Z",
  "devdoc": {
    "methods": {}
  },
  "userdoc": {
    "methods": {}
  }
}