{
  "contractName": "AgnosticChannelManager",
  "abi": [
    {
      "constant": true,
      "inputs": [],
      "name": "minFunding",
      "outputs": [
        {
          "name": "",
          "type": "uint256"
        }
      ],
      "payable": false,
      "stateMutability": "view",
      "type": "function"
    },
    {
      "constant": true,
      "inputs": [],
      "name": "timeoutPeriod",
      "outputs": [
        {
          "name": "",
          "type": "uint256"
        }
      ],
      "payable": false,
      "stateMutability": "view",
      "type": "function"
    },
    {
      "inputs": [
        {
          "name": "_timeoutPeriod",
          "type": "uint256"
        },
        {
          "name": "_minFunding",
          "type": "uint256"
        }
      ],
      "payable": false,
      "stateMutability": "nonpayable",
      "type": "constructor"
    },
    {
      "anonymous": false,
      "inputs": [
        {
          "indexed": false,
          "name": "id",
          "type": "bytes32"
        }
      ],
      "name": "EventNewChannel",
      "type": "event"
    },
    {
      "anonymous": false,
      "inputs": [
        {
          "indexed": false,
          "name": "id",
          "type": "bytes32"
        }
      ],
      "name": "EventDispute",
      "type": "event"
    },
    {
      "anonymous": false,
      "inputs": [
        {
          "indexed": false,
          "name": "id",
          "type": "bytes32"
        }
      ],
      "name": "EventForcefullyExecuted",
      "type": "event"
    },
    {
      "constant": false,
      "inputs": [
        {
          "name": "_nonce",
          "type": "bytes32"
        },
        {
          "name": "_parties",
          "type": "address[]"
        },
        {
          "name": "_libraryAddress",
          "type": "address"
        }
      ],
      "name": "createOffchainApplication",
      "outputs": [],
      "payable": true,
      "stateMutability": "payable",
      "type": "function"
    },
    {
      "constant": false,
      "inputs": [
        {
          "name": "_id",
          "type": "bytes32"
        },
        {
          "name": "_version",
          "type": "uint256"
        },
        {
          "name": "_state",
          "type": "bytes"
        },
        {
          "name": "_signatures",
          "type": "bytes"
        }
      ],
      "name": "dispute",
      "outputs": [],
      "payable": false,
      "stateMutability": "nonpayable",
      "type": "function"
    },
    {
      "constant": false,
      "inputs": [
        {
          "name": "_id",
          "type": "bytes32"
        }
      ],
      "name": "finalizeDispute",
      "outputs": [],
      "payable": false,
      "stateMutability": "nonpayable",
      "type": "function"
    },
    {
      "constant": false,
      "inputs": [
        {
          "name": "_id",
          "type": "bytes32"
        },
        {
          "name": "_actionType",
          "type": "uint256"
        },
        {
          "name": "_action",
          "type": "bytes"
        }
      ],
      "name": "forcefullyExecute",
      "outputs": [],
      "payable": false,
      "stateMutability": "nonpayable",
      "type": "function"
    },
    {
      "constant": false,
      "inputs": [
        {
          "name": "_id",
          "type": "bytes32"
        },
        {
          "name": "_version",
          "type": "uint256"
        },
        {
          "name": "_finalState",
          "type": "bytes"
        },
        {
          "name": "_signatures",
          "type": "bytes"
        }
      ],
      "name": "fastClose",
      "outputs": [],
      "payable": false,
      "stateMutability": "nonpayable",
      "type": "function"
    },
    {
      "constant": false,
      "inputs": [
        {
          "name": "_id",
          "type": "bytes32"
        }
      ],
      "name": "closeChannel",
      "outputs": [],
      "payable": false,
      "stateMutability": "nonpayable",
      "type": "function"
    },
    {
      "constant": true,
      "inputs": [
        {
          "name": "_id",
          "type": "bytes32"
        }
      ],
      "name": "getInstance",
      "outputs": [
        {
          "components": [
            {
              "name": "status",
              "type": "uint8"
            },
            {
              "name": "timeout",
              "type": "uint256"
            },
            {
              "name": "applicationLogic",
              "type": "address"
            },
            {
              "name": "version",
              "type": "uint256"
            },
            {
              "name": "parties",
              "type": "address[]"
            },
            {
              "name": "funding",
              "type": "uint256"
            },
            {
              "name": "state",
              "type": "bytes"
            }
          ],
          "name": "",
          "type": "tuple"
        }
      ],
      "payable": false,
      "stateMutability": "view",
      "type": "function"
    }
  ],
  "bytecode": "0x60806040523480156200001157600080fd5b50604051620027b8380380620027b8833981810160405262000037919081019062000064565b81600181905550806002819055505050620000c9565b6000815190506200005e81620000af565b92915050565b600080604083850312156200007857600080fd5b600062000088858286016200004d565b92505060206200009b858286016200004d565b9150509250929050565b6000819050919050565b620000ba81620000a5565b8114620000c657600080fd5b50565b6126df80620000d96000396000f3fe6080604052600436106100865760003560e01c8063624a23e011610059578063624a23e01461013157806364d2324b1461016e5780636cea6b821461018a578063cd5c1966146101b5578063d9865ba3146101de57610086565b8063193a42491461008b5780633f0e7242146100b65780634c2ee09d146100df578063596bca6814610108575b600080fd5b34801561009757600080fd5b506100a0610207565b6040516100ad91906122bb565b60405180910390f35b3480156100c257600080fd5b506100dd60048036036100d89190810190611ab8565b61020d565b005b3480156100eb57600080fd5b5061010660048036036101019190810190611a23565b6103ad565b005b34801561011457600080fd5b5061012f600480360361012a9190810190611a23565b6104ac565b005b34801561013d57600080fd5b5061015860048036036101539190810190611a23565b61054c565b6040516101659190612299565b60405180910390f35b61018860048036036101839190810190611a4c565b610749565b005b34801561019657600080fd5b5061019f6109c9565b6040516101ac91906122bb565b60405180910390f35b3480156101c157600080fd5b506101dc60048036036101d79190810190611b24565b6109cf565b005b3480156101ea57600080fd5b5061020560048036036102009190810190611b24565b610bbc565b005b60025481565b6003600481111561021a57fe5b60008086815260200190815260200160002060000160009054906101000a900460ff16600481111561024857fe5b1461025257600080fd5b60008085815260200190815260200160002060020160009054906101000a900473ffffffffffffffffffffffffffffffffffffffff1673ffffffffffffffffffffffffffffffffffffffff1663d76f28076000808781526020019081526020016000206006018585856000808b8152602001908152602001600020600401336040518763ffffffff1660e01b81526004016102f2969594939291906121ef565b60006040518083038186803b15801561030a57600080fd5b505afa15801561031e573d6000803e3d6000fd5b505050506040513d6000823e3d601f19601f820116820180604052506103479190810190611bbf565b600080868152602001908152602001600020600601908051906020019061036f929190611405565b507fa81ca1f98c460d56881a25678cbba970e8a8172b6b2d8b93f47b018ed6347af18460405161039f9190612103565b60405180910390a150505050565b600360048111156103ba57fe5b60008083815260200190815260200160002060000160009054906101000a900460ff1660048111156103e857fe5b146103f257600080fd5b6104a9816000808481526020019081526020016000206006018054600181600116156101000203166002900480601f01602080910402602001604051908101604052809291908181526020018280546001816001161561010002031660029004801561049f5780601f106104745761010080835404028352916020019161049f565b820191906000526020600020905b81548152906001019060200180831161048257829003601f168201915b5050505050610f91565b50565b600260048111156104b957fe5b60008083815260200190815260200160002060000160009054906101000a900460ff1660048111156104e757fe5b1480156105095750426000808381526020019081526020016000206001015411155b61051257600080fd5b600360008083815260200190815260200160002060000160006101000a81548160ff0219169083600481111561054457fe5b021790555050565b610554611485565b6000808381526020019081526020016000206040518060e00160405290816000820160009054906101000a900460ff16600481111561058f57fe5b600481111561059a57fe5b8152602001600182015481526020016002820160009054906101000a900473ffffffffffffffffffffffffffffffffffffffff1673ffffffffffffffffffffffffffffffffffffffff1673ffffffffffffffffffffffffffffffffffffffff168152602001600382015481526020016004820180548060200260200160405190810160405280929190818152602001828054801561068d57602002820191906000526020600020905b8160009054906101000a900473ffffffffffffffffffffffffffffffffffffffff1673ffffffffffffffffffffffffffffffffffffffff1681526020019060010190808311610643575b5050505050815260200160058201548152602001600682018054600181600116156101000203166002900480601f0160208091040260200160405190810160405280929190818152602001828054600181600116156101000203166002900480156107395780601f1061070e57610100808354040283529160200191610739565b820191906000526020600020905b81548152906001019060200180831161071c57829003601f168201915b5050505050815250509050919050565b60008433348686866040516020016107669695949392919061211e565b6040516020818303038152906040528051906020012090506000600481111561078b57fe5b60008083815260200190815260200160002060000160009054906101000a900460ff1660048111156107b957fe5b1480156107ca575060028484905010155b80156107d857506002543410155b6107e157600080fd5b6040518060e00160405280600160048111156107f957fe5b8152602001600081526020018373ffffffffffffffffffffffffffffffffffffffff16815260200160008152602001858580806020026020016040519081016040528093929190818152602001838360200280828437600081840152601f19601f8201169050808301925050505050505081526020013481526020016040518060400160405280600481526020017f307830300000000000000000000000000000000000000000000000000000000081525081525060008083815260200190815260200160002060008201518160000160006101000a81548160ff021916908360048111156108e457fe5b02179055506020820151816001015560408201518160020160006101000a81548173ffffffffffffffffffffffffffffffffffffffff021916908373ffffffffffffffffffffffffffffffffffffffff1602179055506060820151816003015560808201518160040190805190602001906109609291906114e3565b5060a0820151816005015560c082015181600601908051906020019061098792919061156d565b509050507fc9c7a2ba48f80f559f5737ca56356714beab232832023f56088cc46fafacae99816040516109ba9190612103565b60405180910390a15050505050565b60015481565b600160048111156109dc57fe5b60008088815260200190815260200160002060000160009054906101000a900460ff166004811115610a0a57fe5b1480610a4e575060026004811115610a1e57fe5b60008088815260200190815260200160002060000160009054906101000a900460ff166004811115610a4c57fe5b145b610a5757600080fd5b610b66600080888152602001908152602001600020600401805480602002602001604051908101604052809291908181526020018280548015610aef57602002820191906000526020600020905b8160009054906101000a900473ffffffffffffffffffffffffffffffffffffffff1673ffffffffffffffffffffffffffffffffffffffff1681526020019060010190808311610aa5575b50505050503088888888604051602001610b0d9594939291906120b5565b60405160208183030381529060405284848080601f016020809104026020016040519081016040528093929190818152602001838380828437600081840152601f19601f820116905080830192505050505050506111ce565b610bb48685858080601f016020809104026020016040519081016040528093929190818152602001838380828437600081840152601f19601f82011690508083019250505050505050610f91565b505050505050565b610bc4611485565b6000808881526020019081526020016000206040518060e00160405290816000820160009054906101000a900460ff166004811115610bff57fe5b6004811115610c0a57fe5b8152602001600182015481526020016002820160009054906101000a900473ffffffffffffffffffffffffffffffffffffffff1673ffffffffffffffffffffffffffffffffffffffff1673ffffffffffffffffffffffffffffffffffffffff1681526020016003820154815260200160048201805480602002602001604051908101604052809291908181526020018280548015610cfd57602002820191906000526020600020905b8160009054906101000a900473ffffffffffffffffffffffffffffffffffffffff1673ffffffffffffffffffffffffffffffffffffffff1681526020019060010190808311610cb3575b5050505050815260200160058201548152602001600682018054600181600116156101000203166002900480601f016020809104026020016040519081016040528092919081815260200182805460018160011615610100020316600290048015610da95780601f10610d7e57610100808354040283529160200191610da9565b820191906000526020600020905b815481529060010190602001808311610d8c57829003601f168201915b505050505081525050905060016004811115610dc157fe5b81600001516004811115610dd157fe5b1480610e06575060026004811115610de557fe5b81600001516004811115610df557fe5b148015610e055750428160200151115b5b610e0f57600080fd5b80606001518611610e1f57600080fd5b610e9981608001513089898989604051602001610e409594939291906120b5565b60405160208183030381529060405285858080601f016020809104026020016040519081016040528093929190818152602001838380828437600081840152601f19601f820116905080830192505050505050506111ce565b60016004811115610ea657fe5b81600001516004811115610eb657fe5b1415610f4957600260008089815260200190815260200160002060000160006101000a81548160ff02191690836004811115610eee57fe5b02179055506001544201600080898152602001908152602001600020600101819055507f4c871862155c443c6718dddabe053063168abac54b2e51ad370b7de75839ec5287604051610f409190612103565b60405180910390a15b856000808981526020019081526020016000206003018190555084846000808a81526020019081526020016000206006019190610f879291906115ed565b5050505050505050565b606060008084815260200190815260200160002060020160009054906101000a900473ffffffffffffffffffffffffffffffffffffffff1673ffffffffffffffffffffffffffffffffffffffff1663ae08f4ef83600080878152602001908152602001600020600501546040518363ffffffff1660e01b81526004016110189291906121bf565b60006040518083038186803b15801561103057600080fd5b505afa158015611044573d6000803e3d6000fd5b505050506040513d6000823e3d601f19601f8201168201806040525061106d91908101906119e2565b9050600080905060008090505b825181101561116e578183828151811061109057fe5b6020026020010151830110156110a557600080fd5b8281815181106110b157fe5b60200260200101518201915060008086815260200190815260200160002060040181815481106110dd57fe5b9060005260206000200160009054906101000a900473ffffffffffffffffffffffffffffffffffffffff1673ffffffffffffffffffffffffffffffffffffffff166108fc84838151811061112d57fe5b60200260200101519081150290604051600060405180830381858888f19350505050158015611160573d6000803e3d6000fd5b50808060010191505061107a565b506000808581526020019081526020016000206005015481111561119157600080fd5b600460008086815260200190815260200160002060000160006101000a81548160ff021916908360048111156111c357fe5b021790555050505050565b6111e1836111db846111e6565b836111ff565b505050565b60006111f88280519060200120611392565b9050919050565b60608180602001905161121591908101906119a1565b9050835181511461125b576040517f08c379a000000000000000000000000000000000000000000000000000000000815260040161125290612279565b60405180910390fd5b60008090505b845181101561138b5760018483838151811061127957fe5b60200260200101516000015184848151811061129157fe5b6020026020010151602001518585815181106112a957fe5b602002602001015160400151604051600081526020016040526040516112d2949392919061217a565b6020604051602081039080840390855afa1580156112f4573d6000803e3d6000fd5b5050506020604051035173ffffffffffffffffffffffffffffffffffffffff1685828151811061132057fe5b602002602001015173ffffffffffffffffffffffffffffffffffffffff161461137e576040517f08c379a000000000000000000000000000000000000000000000000000000000815260040161137590612259565b60405180910390fd5b8080600101915050611261565b5050505050565b600060606040518060400160405280601c81526020017f19457468657265756d205369676e6564204d6573736167653a0a3332000000008152509050600081846040516020016113e392919061208d565b6040516020818303038152906040528051906020012090508092505050919050565b828054600181600116156101000203166002900490600052602060002090601f016020900481019282601f1061144657805160ff1916838001178555611474565b82800160010185558215611474579182015b82811115611473578251825591602001919060010190611458565b5b509050611481919061166d565b5090565b6040518060e001604052806000600481111561149d57fe5b815260200160008152602001600073ffffffffffffffffffffffffffffffffffffffff168152602001600081526020016060815260200160008152602001606081525090565b82805482825590600052602060002090810192821561155c579160200282015b8281111561155b5782518260006101000a81548173ffffffffffffffffffffffffffffffffffffffff021916908373ffffffffffffffffffffffffffffffffffffffff16021790555091602001919060010190611503565b5b5090506115699190611692565b5090565b828054600181600116156101000203166002900490600052602060002090601f016020900481019282601f106115ae57805160ff19168380011785556115dc565b828001600101855582156115dc579182015b828111156115db5782518255916020019190600101906115c0565b5b5090506115e9919061166d565b5090565b828054600181600116156101000203166002900490600052602060002090601f016020900481019282601f1061162e57803560ff191683800117855561165c565b8280016001018555821561165c579182015b8281111561165b578235825591602001919060010190611640565b5b509050611669919061166d565b5090565b61168f91905b8082111561168b576000816000905550600101611673565b5090565b90565b6116d291905b808211156116ce57600081816101000a81549073ffffffffffffffffffffffffffffffffffffffff021916905550600101611698565b5090565b90565b6000813590506116e481612640565b92915050565b60008083601f8401126116fc57600080fd5b8235905067ffffffffffffffff81111561171557600080fd5b60208301915083602082028301111561172d57600080fd5b9250929050565b600082601f83011261174557600080fd5b815161175861175382612303565b6122d6565b9150818183526020840193506020810190508385606084028201111561177d57600080fd5b60005b838110156117ad57816117938882611902565b845260208401935060608301925050600181019050611780565b5050505092915050565b600082601f8301126117c857600080fd5b81516117db6117d68261232b565b6122d6565b9150818183526020840193506020810190508385602084028201111561180057600080fd5b60005b8381101561183057816118168882611977565b845260208401935060208301925050600181019050611803565b5050505092915050565b60008135905061184981612657565b92915050565b60008151905061185e81612657565b92915050565b60008083601f84011261187657600080fd5b8235905067ffffffffffffffff81111561188f57600080fd5b6020830191508360018202830111156118a757600080fd5b9250929050565b600082601f8301126118bf57600080fd5b81516118d26118cd82612353565b6122d6565b915080825260208301602083018583830111156118ee57600080fd5b6118f98382846125ab565b50505092915050565b60006060828403121561191457600080fd5b61191e60606122d6565b9050600061192e8482850161198c565b60008301525060206119428482850161184f565b60208301525060406119568482850161184f565b60408301525092915050565b6000813590506119718161266e565b92915050565b6000815190506119868161266e565b92915050565b60008151905061199b81612685565b92915050565b6000602082840312156119b357600080fd5b600082015167ffffffffffffffff8111156119cd57600080fd5b6119d984828501611734565b91505092915050565b6000602082840312156119f457600080fd5b600082015167ffffffffffffffff811115611a0e57600080fd5b611a1a848285016117b7565b91505092915050565b600060208284031215611a3557600080fd5b6000611a438482850161183a565b91505092915050565b60008060008060608587031215611a6257600080fd5b6000611a708782880161183a565b945050602085013567ffffffffffffffff811115611a8d57600080fd5b611a99878288016116ea565b93509350506040611aac878288016116d5565b91505092959194509250565b60008060008060608587031215611ace57600080fd5b6000611adc8782880161183a565b9450506020611aed87828801611962565b935050604085013567ffffffffffffffff811115611b0a57600080fd5b611b1687828801611864565b925092505092959194509250565b60008060008060008060808789031215611b3d57600080fd5b6000611b4b89828a0161183a565b9650506020611b5c89828a01611962565b955050604087013567ffffffffffffffff811115611b7957600080fd5b611b8589828a01611864565b9450945050606087013567ffffffffffffffff811115611ba457600080fd5b611bb089828a01611864565b92509250509295509295509295565b600060208284031215611bd157600080fd5b600082015167ffffffffffffffff811115611beb57600080fd5b611bf7848285016118ae565b91505092915050565b6000611c0c8383611c36565b60208301905092915050565b611c2181612530565b82525050565b611c30816124ca565b82525050565b611c3f816124b8565b82525050565b611c4e816124b8565b82525050565b6000611c608385612432565b9350611c6b8261237f565b8060005b85811015611ca457611c818284612481565b611c8b8882611c00565b9750611c96836123fa565b925050600181019050611c6f565b5085925050509392505050565b6000611cbc826123c3565b611cc68185612421565b9350611cd183612389565b8060005b83811015611d02578151611ce98882611c00565b9750611cf483612407565b925050600181019050611cd5565b5085935050505092915050565b6000611d1a826123ce565b611d248185612432565b9350611d2f83612399565b8060005b83811015611d6757611d4482612602565b611d4e8882611c00565b9750611d5983612414565b925050600181019050611d33565b5085935050505092915050565b611d7d816124dc565b82525050565b611d94611d8f826124dc565b6125f8565b82525050565b6000611da68385612454565b9350611db383858461259c565b611dbc83612615565b840190509392505050565b6000611dd2826123e4565b611ddc8185612454565b9350611dec8185602086016125ab565b611df581612615565b840191505092915050565b6000611e0b826123d9565b611e158185612443565b9350611e258185602086016125ab565b611e2e81612615565b840191505092915050565b600081546001811660008114611e565760018114611e7c57611ec0565b607f6002830416611e678187612454565b955060ff198316865260208601935050611ec0565b60028204611e8a8187612454565b9550611e95856123ae565b60005b82811015611eb757815481890152600182019150602081019050611e98565b80880195505050505b505092915050565b611ed181612542565b82525050565b611ee081612566565b82525050565b6000611ef1826123ef565b611efb8185612476565b9350611f0b8185602086016125ab565b80840191505092915050565b6000611f24600f83612465565b91507f57726f6e67207369676e617475726500000000000000000000000000000000006000830152602082019050919050565b6000611f64602b83612465565b91507f546865726520617265206c6573732f6d6f7265207369676e617475726573207460008301527f68656e20706172746965730000000000000000000000000000000000000000006020830152604082019050919050565b600060e083016000830151611fd56000860182611ed7565b506020830151611fe86020860182612060565b506040830151611ffb6040860182611ec8565b50606083015161200e6060860182612060565b50608083015184820360808601526120268282611cb1565b91505060a083015161203b60a0860182612060565b5060c083015184820360c08601526120538282611e00565b9150508091505092915050565b61206981612519565b82525050565b61207881612519565b82525050565b61208781612523565b82525050565b60006120998285611ee6565b91506120a58284611d83565b6020820191508190509392505050565b60006080820190506120ca6000830188611c45565b6120d76020830187611d74565b6120e4604083018661206f565b81810360608301526120f7818486611d9a565b90509695505050505050565b60006020820190506121186000830184611d74565b92915050565b600060a0820190506121336000830189611d74565b6121406020830188611c27565b61214d604083018761206f565b8181036060830152612160818587611c54565b905061216f6080830184611c45565b979650505050505050565b600060808201905061218f6000830187611d74565b61219c602083018661207e565b6121a96040830185611d74565b6121b66060830184611d74565b95945050505050565b600060408201905081810360008301526121d98185611dc7565b90506121e8602083018461206f565b9392505050565b600060a08201905081810360008301526122098189611e39565b9050612218602083018861206f565b818103604083015261222b818688611d9a565b9050818103606083015261223f8185611d0f565b905061224e6080830184611c18565b979650505050505050565b6000602082019050818103600083015261227281611f17565b9050919050565b6000602082019050818103600083015261229281611f57565b9050919050565b600060208201905081810360008301526122b38184611fbd565b905092915050565b60006020820190506122d0600083018461206f565b92915050565b6000604051905081810181811067ffffffffffffffff821117156122f957600080fd5b8060405250919050565b600067ffffffffffffffff82111561231a57600080fd5b602082029050602081019050919050565b600067ffffffffffffffff82111561234257600080fd5b602082029050602081019050919050565b600067ffffffffffffffff82111561236a57600080fd5b601f19601f8301169050602081019050919050565b6000819050919050565b6000819050602082019050919050565b60008190508160005260206000209050919050565b60008190508160005260206000209050919050565b600081519050919050565b600081549050919050565b600081519050919050565b600081519050919050565b600081519050919050565b6000602082019050919050565b6000602082019050919050565b6000600182019050919050565b600082825260208201905092915050565b600082825260208201905092915050565b600082825260208201905092915050565b600082825260208201905092915050565b600082825260208201905092915050565b600081905092915050565b600061249060208401846116d5565b905092915050565b600073ffffffffffffffffffffffffffffffffffffffff82169050919050565b60006124c3826124f9565b9050919050565b60006124d5826124f9565b9050919050565b6000819050919050565b60008190506124f482612633565b919050565b600073ffffffffffffffffffffffffffffffffffffffff82169050919050565b6000819050919050565b600060ff82169050919050565b600061253b82612578565b9050919050565b600061254d82612554565b9050919050565b600061255f826124f9565b9050919050565b6000612571826124e6565b9050919050565b60006125838261258a565b9050919050565b6000612595826124f9565b9050919050565b82818337600083830152505050565b60005b838110156125c95780820151818401526020810190506125ae565b838111156125d8576000848401525b50505050565b60006125f16125ec83612626565b612498565b9050919050565b6000819050919050565b600061260e82546125de565b9050919050565b6000601f19601f8301169050919050565b60008160001c9050919050565b6005811061263d57fe5b50565b612649816124b8565b811461265457600080fd5b50565b612660816124dc565b811461266b57600080fd5b50565b61267781612519565b811461268257600080fd5b50565b61268e81612523565b811461269957600080fd5b5056fea365627a7a72305820a9f1e0c9f241dcde34b6c4905ccc3f33e0421ca1c63f0c4b60342b4b8478fa876c6578706572696d656e74616cf564736f6c634300050a0040",
  "source": "pragma solidity ^0.5.10;\npragma experimental \"ABIEncoderV2\";\n\nimport \"contracts/agnosticArchitecture/OffchainLibrary.sol\";\nimport \"contracts/sharedCode/SigVerifier.sol\";\n\ncontract AgnosticChannelManager is SigVerifier {\n    \n    //******************\n    // Variables, enums, structures\n    \n    //Managing variables\n    mapping(bytes32 => ChannelInstance) channels;\n    uint public timeoutPeriod;          \n    uint public minFunding;                \n    \n    //Enum for statuses\n    enum Status{NONE, CREATED, DISPUTE, REGISTERED, CLOSED}\n    \n    //Events to notify parties about dispute and forcefully execution\n    event EventNewChannel(bytes32 id);\n    event EventDispute(bytes32 id);\n    event EventForcefullyExecuted(bytes32 id);\n    \n    struct ChannelInstance {\n        //DB-Specifics\n        Status status;\n        uint timeout;\n        \n        //Instace-Specifics\n        OffchainLibrary applicationLogic;\n        uint version;\n        address[] parties;  //The ordering of addresses identifies the players' roles in the application\n        uint funding;\n        bytes state;    //We leave it to the application to manage balances\n    }\n    \n    //******************\n    // Constructor\n    \n    //Constructor to initialize global constants\n    constructor(uint _timeoutPeriod, uint _minFunding) public {\n        timeoutPeriod = _timeoutPeriod;\n        minFunding = _minFunding;\n    }\n    \n    //******************\n    // Channel logic\n    \n    //We do not care about fair funding and that an initial state with balances exists -> Parties need to ensure this themselfes (maybe with an additional contract)\n    //!!! Parties are supposed to sign an initial state with version 1 before calling this function\n    function createOffchainApplication(bytes32 _nonce, address[] calldata _parties, address _libraryAddress) external payable {\n\t    \n\t    //Determine the id by the senders-address, the library-address and a nonce -> Enables parties to sign states of isntances that has not been created yet\n\t    bytes32 _id = keccak256(abi.encode(_nonce, msg.sender, msg.value, _parties, _libraryAddress));\n        \n        //Checks\n        require(channels[_id].status == Status.NONE && _parties.length >= 2 && msg.value >= minFunding);   //Overflow check\n\n\t    //Create channel instance\n        channels[_id] = ChannelInstance(Status.CREATED, 0, OffchainLibrary(_libraryAddress), 0, _parties, msg.value, \"0x00\");\n        \n        emit EventNewChannel(_id);\n\t}\n\t\n\t//Function to start a dispute\n    function dispute(bytes32 _id, uint _version, bytes calldata _state, bytes calldata _signatures) external {\n        \n        //Read corresponding instance\n        ChannelInstance memory _instance = channels[_id];\n        \n        //Can only be called if channel has been created and dispute timeout has not elapsed yet\n        require(_instance.status == Status.CREATED || (_instance.status == Status.DISPUTE && _instance.timeout > now));\n        //Version needs to be more current than the stored one\n        require(_version > _instance.version);  //It is in the parties responsibility to ensure that there is at least one valid state before creating the channel\n        \n        //Check signatures\n        verifySignatures(_instance.parties, abi.encode(address(this), _id, _version, _state), _signatures);\n        \n        //Set timeout, status and emit event if this is the first call\n        if(_instance.status == Status.CREATED){\n            channels[_id].status = Status.DISPUTE;\n            channels[_id].timeout = now + timeoutPeriod;\n            emit EventDispute(_id);\n        }\n        \n        channels[_id].version = _version;\n        channels[_id].state = _state;   //It is in the parties responsibility to ensure that the signed states are well-formed\n    }\n    \n    //Function to finalize a dispute\n    function finalizeDispute(bytes32 _id) external{\n        require(channels[_id].status == Status.DISPUTE && channels[_id].timeout <= now);\n        channels[_id].status = Status.REGISTERED;\n    }\n    \n    //******************\n    // Execution and Closing\n    \n    //Function to execute an application instance\n    function forcefullyExecute(bytes32 _id, uint _actionType, bytes calldata _action) external {\n        require(channels[_id].status == Status.REGISTERED);\n        channels[_id].state = channels[_id].applicationLogic.callAction(channels[_id].state, _actionType, _action, channels[_id].parties, msg.sender); //The application logic performs all the relevant checks\n        emit EventForcefullyExecuted(_id);\n    }\n    \n    //Function to fast close a channel (no dispute, just provide final state)\n    function fastClose(bytes32 _id, uint _version, bytes calldata _finalState, bytes calldata _signatures) external {\n        \n        //Only in channels that are created or in dispute\n        require(channels[_id].status == Status.CREATED || channels[_id].status == Status.DISPUTE);\n        \n        //Check signatures\n        verifySignatures(channels[_id].parties, abi.encode(address(this), _id, _version, _finalState), _signatures);\n        \n        //Close\n        internalClose(_id, _finalState);\n    }\n    \n    //Function to close a channel (The channel has to be registered (disputed) first)\n    function closeChannel(bytes32 _id) external {\n        \n        //Only registered instances can be closed\n        require(channels[_id].status == Status.REGISTERED);\n        \n        //Close\n        internalClose(_id, channels[_id].state);\n        \n    }\n    \n    //Internally used close function (by both normal and fast close)\n    function internalClose(bytes32 _id, bytes memory _state) private {\n        uint[] memory _payout = channels[_id].applicationLogic.getOutcome(_state, channels[_id].funding);\n        \n        //Check that _payout does not disburse more coins than invested and does not produce an overflow\n        uint _sum = 0;\n        for(uint i = 0; i <_payout.length; i++){\n            require(_sum + _payout[i] >= _sum); //Overflow check\n            _sum = _sum + _payout[i];\n            address(uint160(channels[_id].parties[i])).transfer(_payout[i]); //We can directly call the transfer because the previous check reverts this call as well\n        }\n        require(_sum <= channels[_id].funding);\n        \n        //Set the status to closed\n        channels[_id].status = Status.CLOSED;\n    }\n    \n    //******************\n    // Getter\n    \n    //Getter for the channel state\n    function getInstance(bytes32 _id) external view returns (ChannelInstance memory){\n        return channels[_id];\n    }\n} \n",
  "sourcePath": "/media/shared/CAC/Projekte/2019_SC_Workshop_FinCrypto/publicImplementation/truffle/contracts/agnosticArchitecture/AgnosticChannelManager.sol",
  "compiler": {
    "name": "solc",
    "version": "0.5.10+commit.5a6ea5b1.Emscripten.clang"
  },
  "schemaVersion": "3.0.16",
  "updatedAt": "2019-12-13T14:08:35.936Z",
  "devdoc": {
    "methods": {}
  },
  "userdoc": {
    "methods": {}
  }
}