{
  "contractName": "AgnosticChannelManager",
  "abi": [
    {
      "constant": true,
      "inputs": [],
      "name": "minFunding",
      "outputs": [
        {
          "name": "",
          "type": "uint256"
        }
      ],
      "payable": false,
      "stateMutability": "view",
      "type": "function"
    },
    {
      "constant": true,
      "inputs": [],
      "name": "timeoutPeriod",
      "outputs": [
        {
          "name": "",
          "type": "uint256"
        }
      ],
      "payable": false,
      "stateMutability": "view",
      "type": "function"
    },
    {
      "inputs": [
        {
          "name": "_timeoutPeriod",
          "type": "uint256"
        },
        {
          "name": "_minFunding",
          "type": "uint256"
        }
      ],
      "payable": false,
      "stateMutability": "nonpayable",
      "type": "constructor"
    },
    {
      "anonymous": false,
      "inputs": [
        {
          "indexed": false,
          "name": "id",
          "type": "bytes32"
        }
      ],
      "name": "EventNewChannel",
      "type": "event"
    },
    {
      "anonymous": false,
      "inputs": [
        {
          "indexed": false,
          "name": "id",
          "type": "bytes32"
        }
      ],
      "name": "EventDispute",
      "type": "event"
    },
    {
      "anonymous": false,
      "inputs": [
        {
          "indexed": false,
          "name": "id",
          "type": "bytes32"
        }
      ],
      "name": "EventForcefullyExecuted",
      "type": "event"
    },
    {
      "constant": false,
      "inputs": [
        {
          "name": "_nonce",
          "type": "bytes32"
        },
        {
          "name": "_parties",
          "type": "address[]"
        },
        {
          "name": "_libraryAddress",
          "type": "address"
        }
      ],
      "name": "createOffchainApplication",
      "outputs": [],
      "payable": true,
      "stateMutability": "payable",
      "type": "function"
    },
    {
      "constant": false,
      "inputs": [
        {
          "name": "_id",
          "type": "bytes32"
        },
        {
          "name": "_version",
          "type": "uint256"
        },
        {
          "name": "_state",
          "type": "bytes"
        },
        {
          "name": "_signatures",
          "type": "bytes"
        }
      ],
      "name": "dispute",
      "outputs": [],
      "payable": false,
      "stateMutability": "nonpayable",
      "type": "function"
    },
    {
      "constant": false,
      "inputs": [
        {
          "name": "_id",
          "type": "bytes32"
        }
      ],
      "name": "finalizeDispute",
      "outputs": [],
      "payable": false,
      "stateMutability": "nonpayable",
      "type": "function"
    },
    {
      "constant": false,
      "inputs": [
        {
          "name": "_id",
          "type": "bytes32"
        },
        {
          "name": "_actionType",
          "type": "uint256"
        },
        {
          "name": "_action",
          "type": "bytes"
        }
      ],
      "name": "forcefullyExecute",
      "outputs": [],
      "payable": false,
      "stateMutability": "nonpayable",
      "type": "function"
    },
    {
      "constant": false,
      "inputs": [
        {
          "name": "_id",
          "type": "bytes32"
        },
        {
          "name": "_version",
          "type": "uint256"
        },
        {
          "name": "_finalState",
          "type": "bytes"
        },
        {
          "name": "_signatures",
          "type": "bytes"
        }
      ],
      "name": "fastClose",
      "outputs": [],
      "payable": false,
      "stateMutability": "nonpayable",
      "type": "function"
    },
    {
      "constant": false,
      "inputs": [
        {
          "name": "_id",
          "type": "bytes32"
        }
      ],
      "name": "closeChannel",
      "outputs": [],
      "payable": false,
      "stateMutability": "nonpayable",
      "type": "function"
    },
    {
      "constant": true,
      "inputs": [
        {
          "name": "_id",
          "type": "bytes32"
        }
      ],
      "name": "getInstance",
      "outputs": [
        {
          "components": [
            {
              "name": "status",
              "type": "uint8"
            },
            {
              "name": "timeout",
              "type": "uint256"
            },
            {
              "name": "applicationLogic",
              "type": "address"
            },
            {
              "name": "version",
              "type": "uint256"
            },
            {
              "name": "parties",
              "type": "address[]"
            },
            {
              "name": "funding",
              "type": "uint256"
            },
            {
              "name": "state",
              "type": "bytes"
            }
          ],
          "name": "",
          "type": "tuple"
        }
      ],
      "payable": false,
      "stateMutability": "view",
      "type": "function"
    }
  ],
  "bytecode": "0x60806040523480156200001157600080fd5b506040516200277738038062002777833981810160405262000037919081019062000064565b81600181905550806002819055505050620000c9565b6000815190506200005e81620000af565b92915050565b600080604083850312156200007857600080fd5b600062000088858286016200004d565b92505060206200009b858286016200004d565b9150509250929050565b6000819050919050565b620000ba81620000a5565b8114620000c657600080fd5b50565b61269e80620000d96000396000f3fe6080604052600436106100865760003560e01c8063624a23e011610059578063624a23e01461013157806364d2324b1461016e5780636cea6b821461018a578063cd5c1966146101b5578063d9865ba3146101de57610086565b8063193a42491461008b5780633f0e7242146100b65780634c2ee09d146100df578063596bca6814610108575b600080fd5b34801561009757600080fd5b506100a0610207565b6040516100ad919061228c565b60405180910390f35b3480156100c257600080fd5b506100dd60048036036100d89190810190611ab4565b61020d565b005b3480156100eb57600080fd5b5061010660048036036101019190810190611a1f565b6103ad565b005b34801561011457600080fd5b5061012f600480360361012a9190810190611a1f565b6104ac565b005b34801561013d57600080fd5b5061015860048036036101539190810190611a1f565b61054c565b604051610165919061226a565b60405180910390f35b61018860048036036101839190810190611a48565b610749565b005b34801561019657600080fd5b5061019f6109c5565b6040516101ac919061228c565b60405180910390f35b3480156101c157600080fd5b506101dc60048036036101d79190810190611b20565b6109cb565b005b3480156101ea57600080fd5b5061020560048036036102009190810190611b20565b610bb8565b005b60025481565b6003600481111561021a57fe5b60008086815260200190815260200160002060000160009054906101000a900460ff16600481111561024857fe5b1461025257600080fd5b60008085815260200190815260200160002060020160009054906101000a900473ffffffffffffffffffffffffffffffffffffffff1673ffffffffffffffffffffffffffffffffffffffff1663d76f28076000808781526020019081526020016000206006018585856000808b8152602001908152602001600020600401336040518763ffffffff1660e01b81526004016102f2969594939291906121c0565b60006040518083038186803b15801561030a57600080fd5b505afa15801561031e573d6000803e3d6000fd5b505050506040513d6000823e3d601f19601f820116820180604052506103479190810190611bbb565b600080868152602001908152602001600020600601908051906020019061036f929190611401565b507fa81ca1f98c460d56881a25678cbba970e8a8172b6b2d8b93f47b018ed6347af18460405161039f91906120f0565b60405180910390a150505050565b600360048111156103ba57fe5b60008083815260200190815260200160002060000160009054906101000a900460ff1660048111156103e857fe5b146103f257600080fd5b6104a9816000808481526020019081526020016000206006018054600181600116156101000203166002900480601f01602080910402602001604051908101604052809291908181526020018280546001816001161561010002031660029004801561049f5780601f106104745761010080835404028352916020019161049f565b820191906000526020600020905b81548152906001019060200180831161048257829003601f168201915b5050505050610f8d565b50565b600260048111156104b957fe5b60008083815260200190815260200160002060000160009054906101000a900460ff1660048111156104e757fe5b1480156105095750426000808381526020019081526020016000206001015411155b61051257600080fd5b600360008083815260200190815260200160002060000160006101000a81548160ff0219169083600481111561054457fe5b021790555050565b610554611481565b6000808381526020019081526020016000206040518060e00160405290816000820160009054906101000a900460ff16600481111561058f57fe5b600481111561059a57fe5b8152602001600182015481526020016002820160009054906101000a900473ffffffffffffffffffffffffffffffffffffffff1673ffffffffffffffffffffffffffffffffffffffff1673ffffffffffffffffffffffffffffffffffffffff168152602001600382015481526020016004820180548060200260200160405190810160405280929190818152602001828054801561068d57602002820191906000526020600020905b8160009054906101000a900473ffffffffffffffffffffffffffffffffffffffff1673ffffffffffffffffffffffffffffffffffffffff1681526020019060010190808311610643575b5050505050815260200160058201548152602001600682018054600181600116156101000203166002900480601f0160208091040260200160405190810160405280929190818152602001828054600181600116156101000203166002900480156107395780601f1061070e57610100808354040283529160200191610739565b820191906000526020600020905b81548152906001019060200180831161071c57829003601f168201915b5050505050815250509050919050565b600084848484604051602001610762949392919061210b565b6040516020818303038152906040528051906020012090506000600481111561078757fe5b60008083815260200190815260200160002060000160009054906101000a900460ff1660048111156107b557fe5b1480156107c6575060028484905010155b80156107d457506002543410155b6107dd57600080fd5b6040518060e00160405280600160048111156107f557fe5b8152602001600081526020018373ffffffffffffffffffffffffffffffffffffffff16815260200160008152602001858580806020026020016040519081016040528093929190818152602001838360200280828437600081840152601f19601f8201169050808301925050505050505081526020013481526020016040518060400160405280600481526020017f307830300000000000000000000000000000000000000000000000000000000081525081525060008083815260200190815260200160002060008201518160000160006101000a81548160ff021916908360048111156108e057fe5b02179055506020820151816001015560408201518160020160006101000a81548173ffffffffffffffffffffffffffffffffffffffff021916908373ffffffffffffffffffffffffffffffffffffffff16021790555060608201518160030155608082015181600401908051906020019061095c9291906114df565b5060a0820151816005015560c0820151816006019080519060200190610983929190611569565b509050507fc9c7a2ba48f80f559f5737ca56356714beab232832023f56088cc46fafacae99816040516109b691906120f0565b60405180910390a15050505050565b60015481565b600160048111156109d857fe5b60008088815260200190815260200160002060000160009054906101000a900460ff166004811115610a0657fe5b1480610a4a575060026004811115610a1a57fe5b60008088815260200190815260200160002060000160009054906101000a900460ff166004811115610a4857fe5b145b610a5357600080fd5b610b62600080888152602001908152602001600020600401805480602002602001604051908101604052809291908181526020018280548015610aeb57602002820191906000526020600020905b8160009054906101000a900473ffffffffffffffffffffffffffffffffffffffff1673ffffffffffffffffffffffffffffffffffffffff1681526020019060010190808311610aa1575b50505050503088888888604051602001610b099594939291906120a2565b60405160208183030381529060405284848080601f016020809104026020016040519081016040528093929190818152602001838380828437600081840152601f19601f820116905080830192505050505050506111ca565b610bb08685858080601f016020809104026020016040519081016040528093929190818152602001838380828437600081840152601f19601f82011690508083019250505050505050610f8d565b505050505050565b610bc0611481565b6000808881526020019081526020016000206040518060e00160405290816000820160009054906101000a900460ff166004811115610bfb57fe5b6004811115610c0657fe5b8152602001600182015481526020016002820160009054906101000a900473ffffffffffffffffffffffffffffffffffffffff1673ffffffffffffffffffffffffffffffffffffffff1673ffffffffffffffffffffffffffffffffffffffff1681526020016003820154815260200160048201805480602002602001604051908101604052809291908181526020018280548015610cf957602002820191906000526020600020905b8160009054906101000a900473ffffffffffffffffffffffffffffffffffffffff1673ffffffffffffffffffffffffffffffffffffffff1681526020019060010190808311610caf575b5050505050815260200160058201548152602001600682018054600181600116156101000203166002900480601f016020809104026020016040519081016040528092919081815260200182805460018160011615610100020316600290048015610da55780601f10610d7a57610100808354040283529160200191610da5565b820191906000526020600020905b815481529060010190602001808311610d8857829003601f168201915b505050505081525050905060016004811115610dbd57fe5b81600001516004811115610dcd57fe5b1480610e02575060026004811115610de157fe5b81600001516004811115610df157fe5b148015610e015750428160200151115b5b610e0b57600080fd5b80606001518611610e1b57600080fd5b610e9581608001513089898989604051602001610e3c9594939291906120a2565b60405160208183030381529060405285858080601f016020809104026020016040519081016040528093929190818152602001838380828437600081840152601f19601f820116905080830192505050505050506111ca565b60016004811115610ea257fe5b81600001516004811115610eb257fe5b1415610f4557600260008089815260200190815260200160002060000160006101000a81548160ff02191690836004811115610eea57fe5b02179055506001544201600080898152602001908152602001600020600101819055507f4c871862155c443c6718dddabe053063168abac54b2e51ad370b7de75839ec5287604051610f3c91906120f0565b60405180910390a15b856000808981526020019081526020016000206003018190555084846000808a81526020019081526020016000206006019190610f839291906115e9565b5050505050505050565b606060008084815260200190815260200160002060020160009054906101000a900473ffffffffffffffffffffffffffffffffffffffff1673ffffffffffffffffffffffffffffffffffffffff1663ae08f4ef83600080878152602001908152602001600020600501546040518363ffffffff1660e01b8152600401611014929190612190565b60006040518083038186803b15801561102c57600080fd5b505afa158015611040573d6000803e3d6000fd5b505050506040513d6000823e3d601f19601f8201168201806040525061106991908101906119de565b9050600080905060008090505b825181101561116a578183828151811061108c57fe5b6020026020010151830110156110a157600080fd5b8281815181106110ad57fe5b60200260200101518201915060008086815260200190815260200160002060040181815481106110d957fe5b9060005260206000200160009054906101000a900473ffffffffffffffffffffffffffffffffffffffff1673ffffffffffffffffffffffffffffffffffffffff166108fc84838151811061112957fe5b60200260200101519081150290604051600060405180830381858888f1935050505015801561115c573d6000803e3d6000fd5b508080600101915050611076565b506000808581526020019081526020016000206005015481111561118d57600080fd5b600460008086815260200190815260200160002060000160006101000a81548160ff021916908360048111156111bf57fe5b021790555050505050565b6111dd836111d7846111e2565b836111fb565b505050565b60006111f4828051906020012061138e565b9050919050565b606081806020019051611211919081019061199d565b90508351815114611257576040517f08c379a000000000000000000000000000000000000000000000000000000000815260040161124e9061224a565b60405180910390fd5b60008090505b84518110156113875760018483838151811061127557fe5b60200260200101516000015184848151811061128d57fe5b6020026020010151602001518585815181106112a557fe5b602002602001015160400151604051600081526020016040526040516112ce949392919061214b565b6020604051602081039080840390855afa1580156112f0573d6000803e3d6000fd5b5050506020604051035173ffffffffffffffffffffffffffffffffffffffff1685828151811061131c57fe5b602002602001015173ffffffffffffffffffffffffffffffffffffffff161461137a576040517f08c379a00000000000000000000000000000000000000000000000000000000081526004016113719061222a565b60405180910390fd5b808060010191505061125d565b5050505050565b600060606040518060400160405280601c81526020017f19457468657265756d205369676e6564204d6573736167653a0a3332000000008152509050600081846040516020016113df92919061207a565b6040516020818303038152906040528051906020012090508092505050919050565b828054600181600116156101000203166002900490600052602060002090601f016020900481019282601f1061144257805160ff1916838001178555611470565b82800160010185558215611470579182015b8281111561146f578251825591602001919060010190611454565b5b50905061147d9190611669565b5090565b6040518060e001604052806000600481111561149957fe5b815260200160008152602001600073ffffffffffffffffffffffffffffffffffffffff168152602001600081526020016060815260200160008152602001606081525090565b828054828255906000526020600020908101928215611558579160200282015b828111156115575782518260006101000a81548173ffffffffffffffffffffffffffffffffffffffff021916908373ffffffffffffffffffffffffffffffffffffffff160217905550916020019190600101906114ff565b5b509050611565919061168e565b5090565b828054600181600116156101000203166002900490600052602060002090601f016020900481019282601f106115aa57805160ff19168380011785556115d8565b828001600101855582156115d8579182015b828111156115d75782518255916020019190600101906115bc565b5b5090506115e59190611669565b5090565b828054600181600116156101000203166002900490600052602060002090601f016020900481019282601f1061162a57803560ff1916838001178555611658565b82800160010185558215611658579182015b8281111561165757823582559160200191906001019061163c565b5b5090506116659190611669565b5090565b61168b91905b8082111561168757600081600090555060010161166f565b5090565b90565b6116ce91905b808211156116ca57600081816101000a81549073ffffffffffffffffffffffffffffffffffffffff021916905550600101611694565b5090565b90565b6000813590506116e0816125ff565b92915050565b60008083601f8401126116f857600080fd5b8235905067ffffffffffffffff81111561171157600080fd5b60208301915083602082028301111561172957600080fd5b9250929050565b600082601f83011261174157600080fd5b815161175461174f826122d4565b6122a7565b9150818183526020840193506020810190508385606084028201111561177957600080fd5b60005b838110156117a9578161178f88826118fe565b84526020840193506060830192505060018101905061177c565b5050505092915050565b600082601f8301126117c457600080fd5b81516117d76117d2826122fc565b6122a7565b915081818352602084019350602081019050838560208402820111156117fc57600080fd5b60005b8381101561182c57816118128882611973565b8452602084019350602083019250506001810190506117ff565b5050505092915050565b60008135905061184581612616565b92915050565b60008151905061185a81612616565b92915050565b60008083601f84011261187257600080fd5b8235905067ffffffffffffffff81111561188b57600080fd5b6020830191508360018202830111156118a357600080fd5b9250929050565b600082601f8301126118bb57600080fd5b81516118ce6118c982612324565b6122a7565b915080825260208301602083018583830111156118ea57600080fd5b6118f583828461256a565b50505092915050565b60006060828403121561191057600080fd5b61191a60606122a7565b9050600061192a84828501611988565b600083015250602061193e8482850161184b565b60208301525060406119528482850161184b565b60408301525092915050565b60008135905061196d8161262d565b92915050565b6000815190506119828161262d565b92915050565b60008151905061199781612644565b92915050565b6000602082840312156119af57600080fd5b600082015167ffffffffffffffff8111156119c957600080fd5b6119d584828501611730565b91505092915050565b6000602082840312156119f057600080fd5b600082015167ffffffffffffffff811115611a0a57600080fd5b611a16848285016117b3565b91505092915050565b600060208284031215611a3157600080fd5b6000611a3f84828501611836565b91505092915050565b60008060008060608587031215611a5e57600080fd5b6000611a6c87828801611836565b945050602085013567ffffffffffffffff811115611a8957600080fd5b611a95878288016116e6565b93509350506040611aa8878288016116d1565b91505092959194509250565b60008060008060608587031215611aca57600080fd5b6000611ad887828801611836565b9450506020611ae98782880161195e565b935050604085013567ffffffffffffffff811115611b0657600080fd5b611b1287828801611860565b925092505092959194509250565b60008060008060008060808789031215611b3957600080fd5b6000611b4789828a01611836565b9650506020611b5889828a0161195e565b955050604087013567ffffffffffffffff811115611b7557600080fd5b611b8189828a01611860565b9450945050606087013567ffffffffffffffff811115611ba057600080fd5b611bac89828a01611860565b92509250509295509295509295565b600060208284031215611bcd57600080fd5b600082015167ffffffffffffffff811115611be757600080fd5b611bf3848285016118aa565b91505092915050565b6000611c088383611c23565b60208301905092915050565b611c1d816124ef565b82525050565b611c2c81612489565b82525050565b611c3b81612489565b82525050565b6000611c4d8385612403565b9350611c5882612350565b8060005b85811015611c9157611c6e8284612452565b611c788882611bfc565b9750611c83836123cb565b925050600181019050611c5c565b5085925050509392505050565b6000611ca982612394565b611cb381856123f2565b9350611cbe8361235a565b8060005b83811015611cef578151611cd68882611bfc565b9750611ce1836123d8565b925050600181019050611cc2565b5085935050505092915050565b6000611d078261239f565b611d118185612403565b9350611d1c8361236a565b8060005b83811015611d5457611d31826125c1565b611d3b8882611bfc565b9750611d46836123e5565b925050600181019050611d20565b5085935050505092915050565b611d6a8161249b565b82525050565b611d81611d7c8261249b565b6125b7565b82525050565b6000611d938385612425565b9350611da083858461255b565b611da9836125d4565b840190509392505050565b6000611dbf826123b5565b611dc98185612425565b9350611dd981856020860161256a565b611de2816125d4565b840191505092915050565b6000611df8826123aa565b611e028185612414565b9350611e1281856020860161256a565b611e1b816125d4565b840191505092915050565b600081546001811660008114611e435760018114611e6957611ead565b607f6002830416611e548187612425565b955060ff198316865260208601935050611ead565b60028204611e778187612425565b9550611e828561237f565b60005b82811015611ea457815481890152600182019150602081019050611e85565b80880195505050505b505092915050565b611ebe81612501565b82525050565b611ecd81612525565b82525050565b6000611ede826123c0565b611ee88185612447565b9350611ef881856020860161256a565b80840191505092915050565b6000611f11600f83612436565b91507f57726f6e67207369676e617475726500000000000000000000000000000000006000830152602082019050919050565b6000611f51602b83612436565b91507f546865726520617265206c6573732f6d6f7265207369676e617475726573207460008301527f68656e20706172746965730000000000000000000000000000000000000000006020830152604082019050919050565b600060e083016000830151611fc26000860182611ec4565b506020830151611fd5602086018261204d565b506040830151611fe86040860182611eb5565b506060830151611ffb606086018261204d565b50608083015184820360808601526120138282611c9e565b91505060a083015161202860a086018261204d565b5060c083015184820360c08601526120408282611ded565b9150508091505092915050565b612056816124d8565b82525050565b612065816124d8565b82525050565b612074816124e2565b82525050565b60006120868285611ed3565b91506120928284611d70565b6020820191508190509392505050565b60006080820190506120b76000830188611c32565b6120c46020830187611d61565b6120d1604083018661205c565b81810360608301526120e4818486611d87565b90509695505050505050565b60006020820190506121056000830184611d61565b92915050565b60006060820190506121206000830187611d61565b8181036020830152612133818587611c41565b90506121426040830184611c32565b95945050505050565b60006080820190506121606000830187611d61565b61216d602083018661206b565b61217a6040830185611d61565b6121876060830184611d61565b95945050505050565b600060408201905081810360008301526121aa8185611db4565b90506121b9602083018461205c565b9392505050565b600060a08201905081810360008301526121da8189611e26565b90506121e9602083018861205c565b81810360408301526121fc818688611d87565b905081810360608301526122108185611cfc565b905061221f6080830184611c14565b979650505050505050565b6000602082019050818103600083015261224381611f04565b9050919050565b6000602082019050818103600083015261226381611f44565b9050919050565b600060208201905081810360008301526122848184611faa565b905092915050565b60006020820190506122a1600083018461205c565b92915050565b6000604051905081810181811067ffffffffffffffff821117156122ca57600080fd5b8060405250919050565b600067ffffffffffffffff8211156122eb57600080fd5b602082029050602081019050919050565b600067ffffffffffffffff82111561231357600080fd5b602082029050602081019050919050565b600067ffffffffffffffff82111561233b57600080fd5b601f19601f8301169050602081019050919050565b6000819050919050565b6000819050602082019050919050565b60008190508160005260206000209050919050565b60008190508160005260206000209050919050565b600081519050919050565b600081549050919050565b600081519050919050565b600081519050919050565b600081519050919050565b6000602082019050919050565b6000602082019050919050565b6000600182019050919050565b600082825260208201905092915050565b600082825260208201905092915050565b600082825260208201905092915050565b600082825260208201905092915050565b600082825260208201905092915050565b600081905092915050565b600061246160208401846116d1565b905092915050565b600073ffffffffffffffffffffffffffffffffffffffff82169050919050565b6000612494826124b8565b9050919050565b6000819050919050565b60008190506124b3826125f2565b919050565b600073ffffffffffffffffffffffffffffffffffffffff82169050919050565b6000819050919050565b600060ff82169050919050565b60006124fa82612537565b9050919050565b600061250c82612513565b9050919050565b600061251e826124b8565b9050919050565b6000612530826124a5565b9050919050565b600061254282612549565b9050919050565b6000612554826124b8565b9050919050565b82818337600083830152505050565b60005b8381101561258857808201518184015260208101905061256d565b83811115612597576000848401525b50505050565b60006125b06125ab836125e5565b612469565b9050919050565b6000819050919050565b60006125cd825461259d565b9050919050565b6000601f19601f8301169050919050565b60008160001c9050919050565b600581106125fc57fe5b50565b61260881612489565b811461261357600080fd5b50565b61261f8161249b565b811461262a57600080fd5b50565b612636816124d8565b811461264157600080fd5b50565b61264d816124e2565b811461265857600080fd5b5056fea365627a7a72305820419f87a64da77e0e62cb05dd5a67b401db7dfded5c316bcdcfe0820033cd0e3a6c6578706572696d656e74616cf564736f6c634300050a0040",
  "source": "pragma solidity ^0.5.10;\npragma experimental \"ABIEncoderV2\";\n\nimport \"contracts/agnosticArchitecture/OffchainLibrary.sol\";\nimport \"contracts/sharedCode/SigVerifier.sol\";\n\ncontract AgnosticChannelManager is SigVerifier {\n    \n    //******************\n    // Variables, enums, structures\n    \n    //Managing variables\n    mapping(bytes32 => ChannelInstance) channels;\n    uint public timeoutPeriod;          \n    uint public minFunding;                \n    \n    //Enum for statuses\n    enum Status{NONE, CREATED, DISPUTE, REGISTERED, CLOSED}\n    \n    //Events to notify parties about dispute and forcefully execution\n    event EventNewChannel(bytes32 id);\n    event EventDispute(bytes32 id);\n    event EventForcefullyExecuted(bytes32 id);\n    \n    struct ChannelInstance {\n        //DB-Specifics\n        Status status;\n        uint timeout;\n        \n        //Instace-Specifics\n        OffchainLibrary applicationLogic;\n        uint version;\n        address[] parties;  //The ordering of addresses identifies the players' roles in the application\n        uint funding;\n        bytes state;    //We leave it to the application to manage balances\n    }\n    \n    //******************\n    // Constructor\n    \n    //Constructor to initialize global constants\n    constructor(uint _timeoutPeriod, uint _minFunding) public {\n        timeoutPeriod = _timeoutPeriod;\n        minFunding = _minFunding;\n    }\n    \n    //******************\n    // Channel logic\n    \n    //We do not care about fair funding and that an initial state with balances exists -> Parties need to ensure this themselfes (maybe with an additional contract)\n    //!!! Parties are supposed to sign an initial state with version 1 before calling this function\n    function createOffchainApplication(bytes32 _nonce, address[] calldata _parties, address _libraryAddress) external payable {\n\t    \n\t    //Determine the id by the senders-address, the library-address and a nonce -> Enables parties to sign states of isntances that has not been created yet\n\t    bytes32 _id = keccak256(abi.encode(_nonce, _parties, _libraryAddress));\n        \n        //Checks\n        require(channels[_id].status == Status.NONE && _parties.length >= 2 && msg.value >= minFunding);   //Overflow check\n\n\t    //Create channel instance\n        channels[_id] = ChannelInstance(Status.CREATED, 0, OffchainLibrary(_libraryAddress), 0, _parties, msg.value, \"0x00\");\n        \n        emit EventNewChannel(_id);\n\t}\n\t\n\t//Function to start a dispute\n    function dispute(bytes32 _id, uint _version, bytes calldata _state, bytes calldata _signatures) external {\n        \n        //Read corresponding instance\n        ChannelInstance memory _instance = channels[_id];\n        \n        //Can only be called if channel has been created and dispute timeout has not elapsed yet\n        require(_instance.status == Status.CREATED || (_instance.status == Status.DISPUTE && _instance.timeout > now));\n        //Version needs to be more current than the stored one\n        require(_version > _instance.version);  //It is in the parties responsibility to ensure that there is at least one valid state before creating the channel\n        \n        //Check signatures\n        verifySignatures(_instance.parties, abi.encode(address(this), _id, _version, _state), _signatures);\n        \n        //Set timeout, status and emit event if this is the first call\n        if(_instance.status == Status.CREATED){\n            channels[_id].status = Status.DISPUTE;\n            channels[_id].timeout = now + timeoutPeriod;\n            emit EventDispute(_id);\n        }\n        \n        channels[_id].version = _version;\n        channels[_id].state = _state;   //It is in the parties responsibility to ensure that the signed states are well-formed\n    }\n    \n    //Function to finalize a dispute\n    function finalizeDispute(bytes32 _id) external{\n        require(channels[_id].status == Status.DISPUTE && channels[_id].timeout <= now);\n        channels[_id].status = Status.REGISTERED;\n    }\n    \n    //******************\n    // Execution and Closing\n    \n    //Function to execute an application instance\n    function forcefullyExecute(bytes32 _id, uint _actionType, bytes calldata _action) external {\n        require(channels[_id].status == Status.REGISTERED);\n        channels[_id].state = channels[_id].applicationLogic.callAction(channels[_id].state, _actionType, _action, channels[_id].parties, msg.sender); //The application logic performs all the relevant checks\n        emit EventForcefullyExecuted(_id);\n    }\n    \n    //Function to fast close a channel (no dispute, just provide final state)\n    function fastClose(bytes32 _id, uint _version, bytes calldata _finalState, bytes calldata _signatures) external {\n        \n        //Only in channels that are created or in dispute\n        require(channels[_id].status == Status.CREATED || channels[_id].status == Status.DISPUTE);\n        \n        //Check signatures\n        verifySignatures(channels[_id].parties, abi.encode(address(this), _id, _version, _finalState), _signatures);\n        \n        //Close\n        internalClose(_id, _finalState);\n    }\n    \n    //Function to close a channel (The channel has to be registered (disputed) first)\n    function closeChannel(bytes32 _id) external {\n        \n        //Only registered instances can be closed\n        require(channels[_id].status == Status.REGISTERED);\n        \n        //Close\n        internalClose(_id, channels[_id].state);\n        \n    }\n    \n    //Internally used close function (by both normal and fast close)\n    function internalClose(bytes32 _id, bytes memory _state) private {\n        uint[] memory _payout = channels[_id].applicationLogic.getOutcome(_state, channels[_id].funding);\n        \n        //Check that _payout does not disburse more coins than invested and does not produce an overflow\n        uint _sum = 0;\n        for(uint i = 0; i <_payout.length; i++){\n            require(_sum + _payout[i] >= _sum); //Overflow check\n            _sum = _sum + _payout[i];\n            address(uint160(channels[_id].parties[i])).transfer(_payout[i]); //We can directly call the transfer because the previous check reverts this call as well\n        }\n        require(_sum <= channels[_id].funding);\n        \n        //Set the status to closed\n        channels[_id].status = Status.CLOSED;\n    }\n    \n    //******************\n    // Getter\n    \n    //Getter for the channel state\n    function getInstance(bytes32 _id) external view returns (ChannelInstance memory){\n        return channels[_id];\n    }\n} \n",
  "sourcePath": "/home/david/Desktop/implementation/truffle/contracts/agnosticArchitecture/AgnosticChannelManager.sol",
  "compiler": {
    "name": "solc",
    "version": "0.5.10+commit.5a6ea5b1.Emscripten.clang"
  },
  "schemaVersion": "3.0.16",
  "updatedAt": "2019-12-12T13:18:24.678Z",
  "devdoc": {
    "methods": {}
  },
  "userdoc": {
    "methods": {}
  }
}