{
  "contractName": "FullOffchainMultiAppWallet",
  "abi": [
    {
      "inputs": [
        {
          "name": "_parties",
          "type": "address[]"
        },
        {
          "name": "_revocationPeriod",
          "type": "uint256"
        }
      ],
      "payable": false,
      "stateMutability": "nonpayable",
      "type": "constructor"
    },
    {
      "payable": true,
      "stateMutability": "payable",
      "type": "fallback"
    },
    {
      "constant": false,
      "inputs": [
        {
          "name": "_nonce",
          "type": "uint256"
        },
        {
          "name": "_txHash",
          "type": "bytes32"
        },
        {
          "name": "_signatures",
          "type": "bytes"
        }
      ],
      "name": "submitTx",
      "outputs": [],
      "payable": false,
      "stateMutability": "nonpayable",
      "type": "function"
    },
    {
      "constant": false,
      "inputs": [
        {
          "name": "_random",
          "type": "bytes32"
        },
        {
          "name": "_to",
          "type": "address"
        },
        {
          "name": "_value",
          "type": "uint256"
        },
        {
          "name": "_data",
          "type": "bytes"
        }
      ],
      "name": "executeTx",
      "outputs": [],
      "payable": false,
      "stateMutability": "nonpayable",
      "type": "function"
    },
    {
      "constant": false,
      "inputs": [
        {
          "name": "_newNonce",
          "type": "uint256"
        },
        {
          "name": "_signatures",
          "type": "bytes"
        }
      ],
      "name": "updateNonce",
      "outputs": [],
      "payable": false,
      "stateMutability": "nonpayable",
      "type": "function"
    },
    {
      "constant": true,
      "inputs": [
        {
          "name": "_txHash",
          "type": "bytes32"
        }
      ],
      "name": "getTxState",
      "outputs": [
        {
          "components": [
            {
              "name": "status",
              "type": "uint8"
            },
            {
              "name": "submissionTime",
              "type": "uint256"
            },
            {
              "name": "nonce",
              "type": "uint256"
            }
          ],
          "name": "",
          "type": "tuple"
        }
      ],
      "payable": false,
      "stateMutability": "view",
      "type": "function"
    }
  ],
  "bytecode": "0x60806040523480156200001157600080fd5b50604051620017fb380380620017fb8339818101604052620000379190810190620001f7565b81600190805190602001906200004f92919062000067565b5080600081905550600060038190555050506200031a565b828054828255906000526020600020908101928215620000e3579160200282015b82811115620000e25782518260006101000a81548173ffffffffffffffffffffffffffffffffffffffff021916908373ffffffffffffffffffffffffffffffffffffffff1602179055509160200191906001019062000088565b5b509050620000f29190620000f6565b5090565b6200013991905b808211156200013557600081816101000a81549073ffffffffffffffffffffffffffffffffffffffff021916905550600101620000fd565b5090565b90565b6000815190506200014d81620002e6565b92915050565b600082601f8301126200016557600080fd5b81516200017c62000176826200027f565b62000251565b91508181835260208401935060208101905083856020840282011115620001a257600080fd5b60005b83811015620001d65781620001bb88826200013c565b845260208401935060208301925050600181019050620001a5565b5050505092915050565b600081519050620001f18162000300565b92915050565b600080604083850312156200020b57600080fd5b600083015167ffffffffffffffff8111156200022657600080fd5b620002348582860162000153565b92505060206200024785828601620001e0565b9150509250929050565b6000604051905081810181811067ffffffffffffffff821117156200027557600080fd5b8060405250919050565b600067ffffffffffffffff8211156200029757600080fd5b602082029050602081019050919050565b6000620002b582620002bc565b9050919050565b600073ffffffffffffffffffffffffffffffffffffffff82169050919050565b6000819050919050565b620002f181620002a8565b8114620002fd57600080fd5b50565b6200030b81620002dc565b81146200031757600080fd5b50565b6114d1806200032a6000396000f3fe60806040526004361061003f5760003560e01c806310b3ff6e146100415780633741496f1461007e578063b5f54fcc146100a7578063d2f31786146100d0575b005b34801561004d57600080fd5b5061006860048036036100639190810190610ae9565b6100f9565b6040516100759190611236565b60405180910390f35b34801561008a57600080fd5b506100a560048036036100a09190810190610b8d565b610167565b005b3480156100b357600080fd5b506100ce60048036036100c99190810190610bf4565b6103ad565b005b3480156100dc57600080fd5b506100f760048036036100f29190810190610b12565b6104ae565b005b6101016108dc565b600260008381526020019081526020016000206040518060600160405290816000820160009054906101000a900460ff16600281111561013d57fe5b600281111561014857fe5b8152602001600182015481526020016002820154815250509050919050565b60028081111561017357fe5b6002600084815260200190815260200160002060000160009054906101000a900460ff1660028111156101a257fe5b14156101e3576040517f08c379a00000000000000000000000000000000000000000000000000000000081526004016101da90611176565b60405180910390fd5b600160028111156101f057fe5b6002600084815260200190815260200160002060000160009054906101000a900460ff16600281111561021f57fe5b1415806102415750826002600084815260200190815260200160002060020154105b610280576040517f08c379a0000000000000000000000000000000000000000000000000000000008152600401610277906111d6565b60405180910390fd5b61033a600180548060200260200160405190810160405280929190818152602001828054801561030557602002820191906000526020600020905b8160009054906101000a900473ffffffffffffffffffffffffffffffffffffffff1673ffffffffffffffffffffffffffffffffffffffff16815260200190600101908083116102bb575b50505050506103348585604051602001610320929190611251565b6040516020818303038152906040526106a5565b836106be565b60016002600084815260200190815260200160002060000160006101000a81548160ff0219169083600281111561036d57fe5b0217905550426002600084815260200190815260200160002060010181905550826002600084815260200190815260200160002060020181905550505050565b60035482116103f1576040517f08c379a00000000000000000000000000000000000000000000000000000000081526004016103e8906111b6565b60405180910390fd5b6104a3600180548060200260200160405190810160405280929190818152602001828054801561047657602002820191906000526020600020905b8160009054906101000a900473ffffffffffffffffffffffffffffffffffffffff1673ffffffffffffffffffffffffffffffffffffffff168152602001906001019080831161042c575b5050505050308460405160200161048e92919061104e565b60405160208183030381529060405283610851565b816003819055505050565b600084308585856040516020016104c9959493929190611077565b604051602081830303815290604052805190602001209050600160028111156104ee57fe5b6002600083815260200190815260200160002060000160009054906101000a900460ff16600281111561051d57fe5b1461055d576040517f08c379a000000000000000000000000000000000000000000000000000000000815260040161055490611196565b60405180910390fd5b6003546002600083815260200190815260200160002060020154146105b7576040517f08c379a00000000000000000000000000000000000000000000000000000000081526004016105ae90611136565b60405180910390fd5b4260005460026000848152602001908152602001600020600101540110610613576040517f08c379a000000000000000000000000000000000000000000000000000000000815260040161060a906111f6565b60405180910390fd5b60008060008451602086018789600019f1905080610666576040517f08c379a000000000000000000000000000000000000000000000000000000000815260040161065d90611156565b60405180910390fd5b600280600084815260200190815260200160002060000160006101000a81548160ff0219169083600281111561069857fe5b0217905550505050505050565b60006106b78280519060200120610869565b9050919050565b6060818060200190516106d49190810190610aa8565b9050835181511461071a576040517f08c379a000000000000000000000000000000000000000000000000000000000815260040161071190611216565b60405180910390fd5b60008090505b845181101561084a5760018483838151811061073857fe5b60200260200101516000015184848151811061075057fe5b60200260200101516020015185858151811061076857fe5b6020026020010151604001516040516000815260200160405260405161079194939291906110d1565b6020604051602081039080840390855afa1580156107b3573d6000803e3d6000fd5b5050506020604051035173ffffffffffffffffffffffffffffffffffffffff168582815181106107df57fe5b602002602001015173ffffffffffffffffffffffffffffffffffffffff161461083d576040517f08c379a000000000000000000000000000000000000000000000000000000000815260040161083490611116565b60405180910390fd5b8080600101915050610720565b5050505050565b6108648361085e846106a5565b836106be565b505050565b600060606040518060400160405280601c81526020017f19457468657265756d205369676e6564204d6573736167653a0a3332000000008152509050600081846040516020016108ba929190611026565b6040516020818303038152906040528051906020012090508092505050919050565b6040518060600160405280600060028111156108f457fe5b815260200160008152602001600081525090565b60008135905061091781611432565b92915050565b600082601f83011261092e57600080fd5b815161094161093c826112a7565b61127a565b9150818183526020840193506020810190508385606084028201111561096657600080fd5b60005b83811015610996578161097c8882610a1e565b845260208401935060608301925050600181019050610969565b5050505092915050565b6000813590506109af81611449565b92915050565b6000815190506109c481611449565b92915050565b600082601f8301126109db57600080fd5b81356109ee6109e9826112cf565b61127a565b91508082526020830160208301858383011115610a0a57600080fd5b610a158382846113c8565b50505092915050565b600060608284031215610a3057600080fd5b610a3a606061127a565b90506000610a4a84828501610a93565b6000830152506020610a5e848285016109b5565b6020830152506040610a72848285016109b5565b60408301525092915050565b600081359050610a8d81611460565b92915050565b600081519050610aa281611477565b92915050565b600060208284031215610aba57600080fd5b600082015167ffffffffffffffff811115610ad457600080fd5b610ae08482850161091d565b91505092915050565b600060208284031215610afb57600080fd5b6000610b09848285016109a0565b91505092915050565b60008060008060808587031215610b2857600080fd5b6000610b36878288016109a0565b9450506020610b4787828801610908565b9350506040610b5887828801610a7e565b925050606085013567ffffffffffffffff811115610b7557600080fd5b610b81878288016109ca565b91505092959194509250565b600080600060608486031215610ba257600080fd5b6000610bb086828701610a7e565b9350506020610bc1868287016109a0565b925050604084013567ffffffffffffffff811115610bde57600080fd5b610bea868287016109ca565b9150509250925092565b60008060408385031215610c0757600080fd5b6000610c1585828601610a7e565b925050602083013567ffffffffffffffff811115610c3257600080fd5b610c3e858286016109ca565b9150509250929050565b610c5181611350565b82525050565b610c608161133e565b82525050565b610c6f81611362565b82525050565b610c86610c8182611362565b61140a565b82525050565b6000610c97826112fb565b610ca18185611311565b9350610cb18185602086016113d7565b610cba81611414565b840191505092915050565b610cce816113b6565b82525050565b6000610cdf82611306565b610ce98185611333565b9350610cf98185602086016113d7565b80840191505092915050565b6000610d12600f83611322565b91507f57726f6e67207369676e617475726500000000000000000000000000000000006000830152602082019050919050565b6000610d52600b83611322565b91507f57726f6e67206e6f6e63650000000000000000000000000000000000000000006000830152602082019050919050565b6000610d92601c83611322565b91507f43616c6c20686173206e6f74206265656e207375636365737366756c000000006000830152602082019050919050565b6000610dd2601083611322565b91507f416c7265616479206578656375746564000000000000000000000000000000006000830152602082019050919050565b6000610e12601b83611322565b91507f57726f6e67207374617475732c206e6f74207375626d697474656400000000006000830152602082019050919050565b6000610e52602c83611322565b91507f4e6577206e6f6e6365206973206e6f74206c6172676572207468616e2074686560008301527f2063757272656e74206f6e6500000000000000000000000000000000000000006020830152604082019050919050565b6000610eb8602d83611322565b91507f416c7265616479207375626d69747465642077697468206120657175616c206f60008301527f7220686967686572206e6f6e65000000000000000000000000000000000000006020830152604082019050919050565b6000610f1e601383611322565b91507f74696d656f7574206e6f7420656c6170736564000000000000000000000000006000830152602082019050919050565b6000610f5e602b83611322565b91507f546865726520617265206c6573732f6d6f7265207369676e617475726573207460008301527f68656e20706172746965730000000000000000000000000000000000000000006020830152604082019050919050565b606082016000820151610fcd6000850182610cc5565b506020820151610fe06020850182610ff9565b506040820151610ff36040850182610ff9565b50505050565b6110028161139f565b82525050565b6110118161139f565b82525050565b611020816113a9565b82525050565b60006110328285610cd4565b915061103e8284610c75565b6020820191508190509392505050565b60006040820190506110636000830185610c48565b6110706020830184611008565b9392505050565b600060a08201905061108c6000830188610c66565b6110996020830187610c48565b6110a66040830186610c57565b6110b36060830185611008565b81810360808301526110c58184610c8c565b90509695505050505050565b60006080820190506110e66000830187610c66565b6110f36020830186611017565b6111006040830185610c66565b61110d6060830184610c66565b95945050505050565b6000602082019050818103600083015261112f81610d05565b9050919050565b6000602082019050818103600083015261114f81610d45565b9050919050565b6000602082019050818103600083015261116f81610d85565b9050919050565b6000602082019050818103600083015261118f81610dc5565b9050919050565b600060208201905081810360008301526111af81610e05565b9050919050565b600060208201905081810360008301526111cf81610e45565b9050919050565b600060208201905081810360008301526111ef81610eab565b9050919050565b6000602082019050818103600083015261120f81610f11565b9050919050565b6000602082019050818103600083015261122f81610f51565b9050919050565b600060608201905061124b6000830184610fb7565b92915050565b60006040820190506112666000830185611008565b6112736020830184610c66565b9392505050565b6000604051905081810181811067ffffffffffffffff8211171561129d57600080fd5b8060405250919050565b600067ffffffffffffffff8211156112be57600080fd5b602082029050602081019050919050565b600067ffffffffffffffff8211156112e657600080fd5b601f19601f8301169050602081019050919050565b600081519050919050565b600081519050919050565b600082825260208201905092915050565b600082825260208201905092915050565b600081905092915050565b60006113498261137f565b9050919050565b600061135b8261137f565b9050919050565b6000819050919050565b600081905061137a82611425565b919050565b600073ffffffffffffffffffffffffffffffffffffffff82169050919050565b6000819050919050565b600060ff82169050919050565b60006113c18261136c565b9050919050565b82818337600083830152505050565b60005b838110156113f55780820151818401526020810190506113da565b83811115611404576000848401525b50505050565b6000819050919050565b6000601f19601f8301169050919050565b6003811061142f57fe5b50565b61143b8161133e565b811461144657600080fd5b50565b61145281611362565b811461145d57600080fd5b50565b6114698161139f565b811461147457600080fd5b50565b611480816113a9565b811461148b57600080fd5b5056fea365627a7a72305820c3729378b54b739891d124465148c230af16e515d2ef076174695554e565f0376c6578706572696d656e74616cf564736f6c634300050a0040",
  "source": "pragma solidity 0.5.10;\npragma experimental ABIEncoderV2;\n\nimport \"contracts/sharedCode/SigVerifier.sol\";\n\n//Multiapp-wallet that enables to install and uninstall application instances completely offchain (Can be used with the agnostic architecture and both singleton extensions)\n// Current restrictions\n    // - No fair money deposition as part of this wallet (needs to be achieved with another contract or something like that)\n    // - Single nonce -> Before a nonce update parties need to resign each tx that should not get devalidated\n\n//A very simple approach: Lifecycle looks typically like this\n    // - Before creation parties sign payout-tx dependent on nonce = 0\n    // - Parties then sign an updated payout-tx and an installation-tx dependent on nonce = 1\n    // - Parties then update the nonce to devalidate the first payout-tx and validate the second\n    // - Parties execute till termination by signing states that can be interpreted by the used dispute handler (singleton or channel manager)\n    // - To terminate the instance parties sign an updated payout-tx dependent on nonce = 2\n    // - Parties then update the nonce to devalidate the previos payouts and installations\n    // ...\n        // As all transactions depend on a single nonce, parties need to resign (with new nonce) each tx that should not be revoked before they can update the nonce -> This should be easily be solvable by using multi-dimensional nonces\n    \ncontract FullOffchainMultiAppWallet is SigVerifier {\n    \n    //Constant after creation\n    uint revocationPeriod;\n    address[] parties;\n\n    //States of submitted transactions\n    mapping(bytes32 => TxState) transactions;\n    uint nonce;\n\n    //Possible status\n    enum TxStatus { NONE, SUBMITTED, EXECUTED}\n    \n    //Structure of states\n    struct TxState {\n        TxStatus status;\n        uint submissionTime;\n        uint nonce;\n    }\n    \n    //Constructor storing the set of owners and the revocation period\n    constructor(address[] memory _parties, uint _revocationPeriod) public {\n        parties = _parties;\n        revocationPeriod = _revocationPeriod;\n        nonce = 0;\n    }\n    \n    //Function to deposit coins\n    function () external payable {}\n\n    //function to submit a transaction for execution\n    function submitTx(uint256 _nonce, bytes32 _txHash, bytes memory _signatures) public {\n        \n        //Check that this tx has not been executed before\n        require(transactions[_txHash].status != TxStatus.EXECUTED, \"Already executed\");\n        //If a transaction has already been submitted the new submission needs a higher nonce\n        require(transactions[_txHash].status != TxStatus.SUBMITTED || transactions[_txHash].nonce < _nonce, \"Already submitted with a equal or higher none\");\n        \n        //Check signatures\n        verifySignatures(parties, calcPrefixedHash(abi.encode(_nonce, _txHash)), _signatures);\n        \n        //Set tx-hash as submitted\n        transactions[_txHash].status = TxStatus.SUBMITTED;\n        transactions[_txHash].submissionTime = now;\n        transactions[_txHash].nonce = _nonce;\n    }\n    \n    //Function to execute a submitted transaction if no revocation has been submitted || we add a random value to enable parties to execute the same transaction multiple times\n    function executeTx(bytes32 _random, address _to, uint256 _value, bytes memory _data) public {\n        \n        //Calculate the hash of the data \n        bytes32 _txHash = keccak256(abi.encode(_random, address(this), _to, _value, _data));\n        \n        //No transactions that have not been submitted or have already been executed, nonce need to fit (is revocation), timeout needs to be over\n        require(transactions[_txHash].status == TxStatus.SUBMITTED, \"Wrong status, not submitted\");\n\trequire(transactions[_txHash].nonce == nonce, \"Wrong nonce\");\n\trequire(transactions[_txHash].submissionTime + revocationPeriod < now, \"timeout not elapsed\");\n        \n        //Execute transaction - We chose to transfer coins to the deployed contract that is then responsible for the handling\n        bool _success;\n        assembly {\n            _success := call(not(0), _to, _value, add(_data, 0x20), mload(_data), 0, 0)\n        }\n        require(_success, \"Call has not been successful\");\n        \n        //Set status as executed\n        transactions[_txHash].status = TxStatus.EXECUTED;\n    }\n    \n    //Increment nonce to devalidate all transactions that depend on previous nonces and validate all that depend on the current nonce\n    function updateNonce(uint _newNonce, bytes memory _signatures) public {\n        \n        //Check signatures and nonce\n        require(_newNonce > nonce, \"New nonce is not larger than the current one\");\n        verifySignatures(parties, abi.encode(address(this), _newNonce), _signatures);\n        \n        //Update nonce\n        nonce = _newNonce;\n    } \n    \n    //****************\n    //Getters\n    function getWalletState() internal returns (address[] memory, uint, uint){\n        return (parties, address(this).balance, revocationPeriod);\n    }\n    \n    function getTxState(bytes32 _txHash) external view returns (TxState memory){\n        return transactions[_txHash];\n    }\n}\n",
  "sourcePath": "/home/david/Desktop/implementation/truffle/contracts/multiAppChannels/FullOffchainMultiAppWallet.sol",
  "compiler": {
    "name": "solc",
    "version": "0.5.10+commit.5a6ea5b1.Emscripten.clang"
  },
  "schemaVersion": "3.0.16",
  "updatedAt": "2019-12-12T13:18:24.703Z",
  "devdoc": {
    "methods": {}
  },
  "userdoc": {
    "methods": {}
  }
}