{
  "contractName": "HalfOffchainMultiAppWallet",
  "abi": [
    {
      "inputs": [
        {
          "name": "_parties",
          "type": "address[]"
        }
      ],
      "payable": false,
      "stateMutability": "nonpayable",
      "type": "constructor"
    },
    {
      "payable": true,
      "stateMutability": "payable",
      "type": "fallback"
    },
    {
      "constant": false,
      "inputs": [
        {
          "name": "_rand",
          "type": "bytes32"
        },
        {
          "name": "_to",
          "type": "address"
        },
        {
          "name": "_value",
          "type": "uint256"
        },
        {
          "name": "_data",
          "type": "bytes"
        },
        {
          "name": "_signatures",
          "type": "bytes"
        }
      ],
      "name": "executeTx",
      "outputs": [],
      "payable": false,
      "stateMutability": "nonpayable",
      "type": "function"
    },
    {
      "constant": false,
      "inputs": [
        {
          "name": "_hash",
          "type": "bytes32"
        },
        {
          "name": "_payout",
          "type": "uint256[]"
        },
        {
          "name": "_signatures",
          "type": "bytes"
        }
      ],
      "name": "devalidateTx",
      "outputs": [],
      "payable": false,
      "stateMutability": "nonpayable",
      "type": "function"
    }
  ],
  "bytecode": "0x60806040523480156200001157600080fd5b506040516200142a3803806200142a8339818101604052620000379190810190620001d0565b80600190805190602001906200004f92919062000057565b5050620002ba565b828054828255906000526020600020908101928215620000d3579160200282015b82811115620000d25782518260006101000a81548173ffffffffffffffffffffffffffffffffffffffff021916908373ffffffffffffffffffffffffffffffffffffffff1602179055509160200191906001019062000078565b5b509050620000e29190620000e6565b5090565b6200012991905b808211156200012557600081816101000a81549073ffffffffffffffffffffffffffffffffffffffff021916905550600101620000ed565b5090565b90565b6000815190506200013d81620002a0565b92915050565b600082601f8301126200015557600080fd5b81516200016c620001668262000243565b62000215565b915081818352602084019350602081019050838560208402820111156200019257600080fd5b60005b83811015620001c65781620001ab88826200012c565b84526020840193506020830192505060018101905062000195565b5050505092915050565b600060208284031215620001e357600080fd5b600082015167ffffffffffffffff811115620001fe57600080fd5b6200020c8482850162000143565b91505092915050565b6000604051905081810181811067ffffffffffffffff821117156200023957600080fd5b8060405250919050565b600067ffffffffffffffff8211156200025b57600080fd5b602082029050602081019050919050565b6000620002798262000280565b9050919050565b600073ffffffffffffffffffffffffffffffffffffffff82169050919050565b620002ab816200026c565b8114620002b757600080fd5b50565b61116080620002ca6000396000f3fe6080604052600436106100295760003560e01c806310a418681461002b578063bc0ec58614610054575b005b34801561003757600080fd5b50610052600480360361004d91908101906108c7565b61007d565b005b34801561006057600080fd5b5061007b6004803603610076919081019061096e565b610236565b005b60008530868686604051602001610098959493929190610d58565b6040516020818303038152906040528051906020012090506000151560008083815260200190815260200160002060009054906101000a900460ff16151514610116576040517f08c379a000000000000000000000000000000000000000000000000000000000815260040161010d90610e37565b60405180910390fd5b6101af600180548060200260200160405190810160405280929190818152602001828054801561019b57602002820191906000526020600020905b8160009054906101000a900473ffffffffffffffffffffffffffffffffffffffff1673ffffffffffffffffffffffffffffffffffffffff1681526020019060010190808311610151575b50505050506101a98361042c565b8461049f565b6000806000855160208701888a600019f1905080610202576040517f08c379a00000000000000000000000000000000000000000000000000000000081526004016101f990610e17565b60405180910390fd5b600160008084815260200190815260200160002060006101000a81548160ff02191690831515021790555050505050505050565b6000151560008085815260200190815260200160002060009054906101000a900460ff1615151461029c576040517f08c379a000000000000000000000000000000000000000000000000000000000815260040161029390610e9a565b60405180910390fd5b61034e600180548060200260200160405190810160405280929190818152602001828054801561032157602002820191906000526020600020905b8160009054906101000a900473ffffffffffffffffffffffffffffffffffffffff1673ffffffffffffffffffffffffffffffffffffffff16815260200190600101908083116102d7575b50505050508484604051602001610339929190610e57565b60405160208183030381529060405283610632565b600160008085815260200190815260200160002060006101000a81548160ff02191690831515021790555060008090505b8251811015610426576001818154811061039557fe5b9060005260206000200160009054906101000a900473ffffffffffffffffffffffffffffffffffffffff1673ffffffffffffffffffffffffffffffffffffffff166108fc8483815181106103e557fe5b60200260200101519081150290604051600060405180830381858888f19350505050158015610418573d6000803e3d6000fd5b50808060010191505061037f565b50505050565b600060606040518060400160405280601c81526020017f19457468657265756d205369676e6564204d6573736167653a0a33320000000081525090506000818460405160200161047d929190610d30565b6040516020818303038152906040528051906020012090508092505050919050565b6060818060200190516104b59190810190610886565b905083518151146104fb576040517f08c379a00000000000000000000000000000000000000000000000000000000081526004016104f290610eba565b60405180910390fd5b60008090505b845181101561062b5760018483838151811061051957fe5b60200260200101516000015184848151811061053157fe5b60200260200101516020015185858151811061054957fe5b602002602001015160400151604051600081526020016040526040516105729493929190610db2565b6020604051602081039080840390855afa158015610594573d6000803e3d6000fd5b5050506020604051035173ffffffffffffffffffffffffffffffffffffffff168582815181106105c057fe5b602002602001015173ffffffffffffffffffffffffffffffffffffffff161461061e576040517f08c379a000000000000000000000000000000000000000000000000000000000815260040161061590610df7565b60405180910390fd5b8080600101915050610501565b5050505050565b6106458361063f8461064a565b8361049f565b505050565b600061065c828051906020012061042c565b9050919050565b600081359050610672816110c1565b92915050565b600082601f83011261068957600080fd5b815161069c61069782610f07565b610eda565b915081818352602084019350602081019050838560608402820111156106c157600080fd5b60005b838110156106f157816106d788826107fc565b8452602084019350606083019250506001810190506106c4565b5050505092915050565b600082601f83011261070c57600080fd5b813561071f61071a82610f2f565b610eda565b9150818183526020840193506020810190508385602084028201111561074457600080fd5b60005b83811015610774578161075a888261085c565b845260208401935060208301925050600181019050610747565b5050505092915050565b60008135905061078d816110d8565b92915050565b6000815190506107a2816110d8565b92915050565b600082601f8301126107b957600080fd5b81356107cc6107c782610f57565b610eda565b915080825260208301602083018583830111156107e857600080fd5b6107f3838284611064565b50505092915050565b60006060828403121561080e57600080fd5b6108186060610eda565b9050600061082884828501610871565b600083015250602061083c84828501610793565b602083015250604061085084828501610793565b60408301525092915050565b60008135905061086b816110ef565b92915050565b60008151905061088081611106565b92915050565b60006020828403121561089857600080fd5b600082015167ffffffffffffffff8111156108b257600080fd5b6108be84828501610678565b91505092915050565b600080600080600060a086880312156108df57600080fd5b60006108ed8882890161077e565b95505060206108fe88828901610663565b945050604061090f8882890161085c565b935050606086013567ffffffffffffffff81111561092c57600080fd5b610938888289016107a8565b925050608086013567ffffffffffffffff81111561095557600080fd5b610961888289016107a8565b9150509295509295909350565b60008060006060848603121561098357600080fd5b60006109918682870161077e565b935050602084013567ffffffffffffffff8111156109ae57600080fd5b6109ba868287016106fb565b925050604084013567ffffffffffffffff8111156109d757600080fd5b6109e3868287016107a8565b9150509250925092565b60006109f98383610d03565b60208301905092915050565b610a0e81611011565b82525050565b610a1d81610fff565b82525050565b6000610a2e82610f93565b610a388185610fc1565b9350610a4383610f83565b8060005b83811015610a74578151610a5b88826109ed565b9750610a6683610fb4565b925050600181019050610a47565b5085935050505092915050565b610a8a81611023565b82525050565b610aa1610a9c82611023565b6110a6565b82525050565b6000610ab282610f9e565b610abc8185610fd2565b9350610acc818560208601611073565b610ad5816110b0565b840191505092915050565b6000610aeb82610fa9565b610af58185610ff4565b9350610b05818560208601611073565b80840191505092915050565b6000610b1e600f83610fe3565b91507f57726f6e67207369676e617475726500000000000000000000000000000000006000830152602082019050919050565b6000610b5e601c83610fe3565b91507f43616c6c20686173206e6f74206265656e207375636365737366756c000000006000830152602082019050919050565b6000610b9e602683610fe3565b91507f5472616e73616374696f6e206861736820616c7265616479206265656e20657860008301527f65637574656400000000000000000000000000000000000000000000000000006020830152604082019050919050565b6000610c04600a83610fe3565b91507f5245564f434154494f4e000000000000000000000000000000000000000000006000830152602082019050919050565b6000610c44603583610fe3565b91507f5472616e73616374696f6e20686173682068617320616c72656164792062656560008301527f6e206578656375746564206f72207265766f6b656400000000000000000000006020830152604082019050919050565b6000610caa602b83610fe3565b91507f546865726520617265206c6573732f6d6f7265207369676e617475726573207460008301527f68656e20706172746965730000000000000000000000000000000000000000006020830152604082019050919050565b610d0c8161104d565b82525050565b610d1b8161104d565b82525050565b610d2a81611057565b82525050565b6000610d3c8285610ae0565b9150610d488284610a90565b6020820191508190509392505050565b600060a082019050610d6d6000830188610a81565b610d7a6020830187610a05565b610d876040830186610a14565b610d946060830185610d12565b8181036080830152610da68184610aa7565b90509695505050505050565b6000608082019050610dc76000830187610a81565b610dd46020830186610d21565b610de16040830185610a81565b610dee6060830184610a81565b95945050505050565b60006020820190508181036000830152610e1081610b11565b9050919050565b60006020820190508181036000830152610e3081610b51565b9050919050565b60006020820190508181036000830152610e5081610b91565b9050919050565b60006060820190508181036000830152610e7081610bf7565b9050610e7f6020830185610a81565b8181036040830152610e918184610a23565b90509392505050565b60006020820190508181036000830152610eb381610c37565b9050919050565b60006020820190508181036000830152610ed381610c9d565b9050919050565b6000604051905081810181811067ffffffffffffffff82111715610efd57600080fd5b8060405250919050565b600067ffffffffffffffff821115610f1e57600080fd5b602082029050602081019050919050565b600067ffffffffffffffff821115610f4657600080fd5b602082029050602081019050919050565b600067ffffffffffffffff821115610f6e57600080fd5b601f19601f8301169050602081019050919050565b6000819050602082019050919050565b600081519050919050565b600081519050919050565b600081519050919050565b6000602082019050919050565b600082825260208201905092915050565b600082825260208201905092915050565b600082825260208201905092915050565b600081905092915050565b600061100a8261102d565b9050919050565b600061101c8261102d565b9050919050565b6000819050919050565b600073ffffffffffffffffffffffffffffffffffffffff82169050919050565b6000819050919050565b600060ff82169050919050565b82818337600083830152505050565b60005b83811015611091578082015181840152602081019050611076565b838111156110a0576000848401525b50505050565b6000819050919050565b6000601f19601f8301169050919050565b6110ca81610fff565b81146110d557600080fd5b50565b6110e181611023565b81146110ec57600080fd5b50565b6110f88161104d565b811461110357600080fd5b50565b61110f81611057565b811461111a57600080fd5b5056fea365627a7a72305820b15caad20ce863597889989752005d98a2c5a375681c9e3be2bd1b07b2aeeb286c6578706572696d656e74616cf564736f6c634300050a0040",
  "source": "pragma solidity 0.5.10;\npragma experimental ABIEncoderV2;\n\nimport \"contracts/sharedCode/SigVerifier.sol\";\n\n//Multiapp-wallet that enables to install application instances offchain. However, the closing needs to be performed on-chain (Can be used with the agnostic architecture and both singleton extensions)\n// Current restrictions\n    // - No fair money deposition as part of this wallet (needs to be achieved with another contract or something like that)\n    \ncontract HalfOffchainMultiAppWallet is SigVerifier {\n\n    //List of already executed transactions (prevent replay)\n    mapping(bytes32 => bool) executed;\n\n    //List of participants\n    address[] parties;\n    \n    //Constructor storing the set of owners\n    constructor(address[] memory _parties) public {\n        parties = _parties;\n    }\n    \n    //Function to deposit coins\n    function () external payable {}\n    \n    //Function to call a transaction of an arbitrary contract\n    function executeTx(bytes32 _rand, address _to, uint256 _value, bytes memory _data, bytes memory _signatures) public {\n        \n        //Calculate the hash that is signed by web3\n        bytes32 _txHash = keccak256(abi.encode(_rand, address(this), _to, _value, _data));\n        \n        //Check that transaction has not been executed before\n        require(executed[_txHash] == false, \"Transaction hash already been executed\");\n        \n        //Check signatures\n        verifySignatures(parties, calcPrefixedHash(_txHash), _signatures);\n        \n        //Execute transaction - We chose to transfer coins to the deployed contract that is then responsible for the handling\n        bool _success;\n        assembly {\n            _success := call(not(0), _to, _value, add(_data, 0x20), mload(_data), 0, 0)\n        }\n        require(_success, \"Call has not been successful\");\n        \n        //Remember that transaction has been executed\n        executed[_txHash] = true;\n    }\n    \n    //Devalidates a transaction and directly pays out the specified coins\n    function devalidateTx(bytes32 _hash, uint[] memory _payout, bytes memory _signatures) public {\n        \n        //Check that transaction has not been executed before\n        require(executed[_hash] == false, \"Transaction hash has already been executed or revoked\");\n        \n        //Check that each party signed the revocation (including the payout balances )\n        verifySignatures(parties, abi.encode(\"REVOCATION\", _hash, _payout), _signatures);\n        \n        //Set hash as executed -> Cannot be executed again\n        executed[_hash] = true;\n        \n        //Payout specified balances (we loop through the payout not the parties, so we can allow to leave parties at the back of the array out if they do not receive any payout)\n        for(uint i = 0; i < _payout.length; i++){\n            address(uint160(parties[i])).transfer(_payout[i]); //We can directly call the transfer because the previous check reverts this call as well\n        }\n    }\n    \n    //****************\n    //Getters\n    function getInfo() internal returns (address[] memory, uint){\n        return (parties, address(this).balance);\n    }\n}\n",
  "sourcePath": "/media/shared/CAC/Projekte/2019_SC_Workshop_FinCrypto/publicImplementation/truffle/contracts/multiAppChannels/HalfOffchainMultiAppWallet.sol",
  "compiler": {
    "name": "solc",
    "version": "0.5.10+commit.5a6ea5b1.Emscripten.clang"
  },
  "schemaVersion": "3.0.16",
  "updatedAt": "2019-12-13T14:08:35.947Z",
  "devdoc": {
    "methods": {}
  },
  "userdoc": {
    "methods": {}
  }
}