{
  "contractName": "HangmanLib",
  "abi": [
    {
      "constant": true,
      "inputs": [
        {
          "name": "encodedState",
          "type": "bytes"
        },
        {
          "name": "_actionId",
          "type": "uint256"
        },
        {
          "name": "encodedAction",
          "type": "bytes"
        },
        {
          "name": "parties",
          "type": "address[]"
        },
        {
          "name": "actor",
          "type": "address"
        }
      ],
      "name": "callAction",
      "outputs": [
        {
          "name": "",
          "type": "bytes"
        }
      ],
      "payable": false,
      "stateMutability": "view",
      "type": "function"
    },
    {
      "constant": true,
      "inputs": [
        {
          "name": "encodedState",
          "type": "bytes"
        },
        {
          "name": "funding",
          "type": "uint256"
        }
      ],
      "name": "getOutcome",
      "outputs": [
        {
          "name": "",
          "type": "uint256[]"
        }
      ],
      "payable": false,
      "stateMutability": "pure",
      "type": "function"
    }
  ],
  "bytecode": "0x608060405234801561001057600080fd5b50612036806100206000396000f3fe608060405234801561001057600080fd5b50600436106100365760003560e01c8063ae08f4ef1461003b578063d76f28071461006b575b600080fd5b61005560048036036100509190810190611488565b61009b565b6040516100629190611ba4565b60405180910390f35b610085600480360361008091908101906114e0565b6101f0565b6040516100929190611bf6565b60405180910390f35b60606100a5610f72565b84846100b49190810190611600565b9050606060026040519080825280602002602001820160405280156100e85781602001602082028038833980820191505090505b509050600460058111156100f857fe5b8260e00151600581111561010857fe5b141561014d57838160008151811061011c57fe5b60200260200101818152505060008160018151811061013757fe5b60200260200101818152505080925050506101e9565b60058081111561015957fe5b8260e00151600581111561016957fe5b14156101ae5760008160008151811061017e57fe5b602002602001018181525050838160018151811061019857fe5b60200260200101818152505080925050506101e9565b6040517f08c379a00000000000000000000000000000000000000000000000000000000081526004016101e090611c38565b60405180910390fd5b9392505050565b60606101fa610f72565b89896102099190810190611600565b905060068814156102255761021d816104dd565b9150506104d1565b600788141561023f5761023781610574565b9150506104d1565b60028814156102a6578484600181811061025557fe5b905060200201602061026a91908101906113e2565b73ffffffffffffffffffffffffffffffffffffffff168373ffffffffffffffffffffffffffffffffffffffff16146102a157600080fd5b610300565b848460008181106102b357fe5b90506020020160206102c891908101906113e2565b73ffffffffffffffffffffffffffffffffffffffff168373ffffffffffffffffffffffffffffffffffffffff16146102ff57600080fd5b5b600288141561035f576103578188888080601f016020809104026020016040519081016040528093929190818152602001838380828437600081840152601f19601f8201169050808301925050505050505061066f565b9150506104d1565b60038814156103be576103b68188888080601f016020809104026020016040519081016040528093929190818152602001838380828437600081840152601f19601f820116905080830192505050505050506107fd565b9150506104d1565b60048814156103d8576103d081610a94565b9150506104d1565b60058814156104375761042f8188888080601f016020809104026020016040519081016040528093929190818152602001838380828437600081840152601f19601f82011690508083019250505050505050610bba565b9150506104d1565b60018814156104965761048e8188888080601f016020809104026020016040519081016040528093929190818152602001838380828437600081840152601f19601f82011690508083019250505050505050610e45565b9150506104d1565b6040517f08c379a00000000000000000000000000000000000000000000000000000000081526004016104c890611c18565b60405180910390fd5b98975050505050505050565b60606000826101000151146104f157600080fd5b600460058111156104fe57fe5b8260e00151600581111561050e57fe5b14158015610536575060058081111561052357fe5b8260e00151600581111561053357fe5b14155b61053f57600080fd5b602a4201826101000181815250508160405160200161055e9190611d18565b6040516020818303038152906040529050919050565b606042826101000151111561058857600080fd5b6004600581111561059557fe5b8260e0015160058111156105a557fe5b141580156105cd57506005808111156105ba57fe5b8260e0015160058111156105ca57fe5b14155b6105d657600080fd5b600160058111156105e357fe5b8260e0015160058111156105f357fe5b141561061d576004600581111561060657fe5b8260e00151600581111561061657fe5b505061063c565b60058081111561062957fe5b8260e00151600581111561063957fe5b50505b600082610100018181525050816040516020016106599190611d18565b6040516020818303038152906040529050919050565b60606001600581111561067e57fe5b8360e00151600581111561068e57fe5b146106ce576040517f08c379a00000000000000000000000000000000000000000000000000000000081526004016106c590611cf8565b60405180910390fd5b6000828060200190516106e49190810190611641565b90506000604182039050601a8160ff1610610734576040517f08c379a000000000000000000000000000000000000000000000000000000000815260040161072b90611c58565b60405180910390fd5b6000151585602001518260ff16601a811061074b57fe5b6020020151151514610792576040517f08c379a000000000000000000000000000000000000000000000000000000000815260040161078990611cb8565b60405180910390fd5b81856060019060ff16908160ff168152505060028560e0019060058111156107b657fe5b908160058111156107c357fe5b81525050600085610100018181525050846040516020016107e49190611d18565b6040516020818303038152906040529250505092915050565b60606002600581111561080c57fe5b8360e00151600581111561081c57fe5b1461085c576040517f08c379a000000000000000000000000000000000000000000000000000000000815260040161085390611c78565b60405180910390fd5b606082806020019051610872919081019061140b565b9050600081511161088257600080fd5b60008090505b81518110156109c85784608001518282815181106108a257fe5b602002602001015160ff1610158061090d5750600085604001518383815181106108c857fe5b602002602001015160ff16815181106108dd57fe5b602001015160f81c60f81b7effffffffffffffffffffffffffffffffffffffffffffffffffffffffffffff191614155b1561095e5760058560e00190600581111561092457fe5b9081600581111561093157fe5b81525050846040516020016109469190611d18565b60405160208183030381529060405292505050610a8e565b846060015160f81b856040015183838151811061097757fe5b602002602001015160ff168151811061098c57fe5b60200101907effffffffffffffffffffffffffffffffffffffffffffffffffffffffffffff1916908160001a9053508080600101915050610888565b5080518460a00151038460a001818152505060018460200151604186606001510360ff16601a81106109f657fe5b60200201901515908115158152505060018460a001511015610a3a5760058460e001906005811115610a2457fe5b90816005811115610a3157fe5b81525050610a5e565b60018460e001906005811115610a4c57fe5b90816005811115610a5957fe5b815250505b60008461010001818152505083604051602001610a7b9190611d18565b6040516020818303038152906040529150505b92915050565b606060026005811115610aa357fe5b8260e001516005811115610ab357fe5b14610af3576040517f08c379a0000000000000000000000000000000000000000000000000000000008152600401610aea90611c78565b60405180910390fd5b60018260200151604184606001510360ff16601a8110610b0f57fe5b6020020190151590811515815250508160c00180518091906001018152505060078260c001511415610b635760038260e001906005811115610b4d57fe5b90816005811115610b5a57fe5b81525050610b87565b60018260e001906005811115610b7557fe5b90816005811115610b8257fe5b815250505b60008261010001818152505081604051602001610ba49190611d18565b6040516020818303038152906040529050919050565b606060036005811115610bc957fe5b8360e001516005811115610bd957fe5b14610c19576040517f08c379a0000000000000000000000000000000000000000000000000000000008152600401610c1090611c98565b60405180910390fd5b6060600083806020019051610c3191908101906115ac565b915091508460800151825114610c4657600080fd5b60008090505b8560800151811015610d6b57828181518110610c6457fe5b602001015160f81c60f81b7effffffffffffffffffffffffffffffffffffffffffffffffffffffffffffff191686604001518281518110610ca157fe5b602001015160f81c60f81b7effffffffffffffffffffffffffffffffffffffffffffffffffffffffffffff191614158015610d0c575085602001516041848381518110610cea57fe5b602001015160f81c60f81b60f81c0360ff16601a8110610d0657fe5b60200201515b15610d5e5760058660e001906005811115610d2357fe5b90816005811115610d3057fe5b8152505085604051602001610d459190611d18565b6040516020818303038152906040529350505050610e3f565b8080600101915050610c4c565b5084600001518183604051602001610d84929190611bc6565b6040516020818303038152906040528051906020012014610deb5760058560e001906005811115610db157fe5b90816005811115610dbe57fe5b8152505084604051602001610dd39190611d18565b60405160208183030381529060405292505050610e3f565b60048560e001906005811115610dfd57fe5b90816005811115610e0a57fe5b8152505060008561010001818152505084604051602001610e2b9190611d18565b604051602081830303815290604052925050505b92915050565b606060006005811115610e5457fe5b8360e001516005811115610e6457fe5b14610ea4576040517f08c379a0000000000000000000000000000000000000000000000000000000008152600401610e9b90611cd8565b60405180910390fd5b60008083806020019051610ebb919081019061144c565b91509150818560000181815250508085608001818152505060018560e001906005811115610ee557fe5b90816005811115610ef257fe5b81525050808560a0018181525050806040519080825280601f01601f191660200182016040528015610f335781602001600182028038833980820191505090505b50856040018190525060008561010001818152505084604051602001610f599190611d18565b6040516020818303038152906040529250505092915050565b60405180610440016040528060008019168152602001610f90610fd5565b815260200160608152602001600060ff16815260200160008152602001600081526020016000815260200160006005811115610fc857fe5b8152602001600081525090565b604051806103400160405280601a90602082028038833980820191505090505090565b60008135905061100781611f70565b92915050565b60008083601f84011261101f57600080fd5b8235905067ffffffffffffffff81111561103857600080fd5b60208301915083602082028301111561105057600080fd5b9250929050565b600082601f83011261106857600080fd5b601a61107b61107682611d67565b611d3a565b9150818385602084028201111561109157600080fd5b60005b838110156110c157816110a7888261114e565b845260208401935060208301925050600181019050611094565b5050505092915050565b600082601f8301126110dc57600080fd5b81516110ef6110ea82611d89565b611d3a565b9150818183526020840193506020810190508385602084028201111561111457600080fd5b60005b83811015611144578161112a88826113cd565b845260208401935060208301925050600181019050611117565b5050505092915050565b60008135905061115d81611f87565b92915050565b60008135905061117281611f9e565b92915050565b60008151905061118781611f9e565b92915050565b60008083601f84011261119f57600080fd5b8235905067ffffffffffffffff8111156111b857600080fd5b6020830191508360018202830111156111d057600080fd5b9250929050565b600082601f8301126111e857600080fd5b81356111fb6111f682611db1565b611d3a565b9150808252602083016020830185838301111561121757600080fd5b611222838284611f10565b50505092915050565b600082601f83011261123c57600080fd5b815161124f61124a82611db1565b611d3a565b9150808252602083016020830185838301111561126b57600080fd5b611276838284611f1f565b50505092915050565b60008135905061128e81611fb5565b92915050565b600061044082840312156112a757600080fd5b6112b2610120611d3a565b905060006112c284828501611163565b60008301525060206112d684828501611057565b60208301525061036082013567ffffffffffffffff8111156112f757600080fd5b611303848285016111d7565b604083015250610380611318848285016113b8565b6060830152506103a061132d8482850161138e565b6080830152506103c06113428482850161138e565b60a0830152506103e06113578482850161138e565b60c08301525061040061136c8482850161127f565b60e0830152506104206113818482850161138e565b6101008301525092915050565b60008135905061139d81611fc5565b92915050565b6000815190506113b281611fc5565b92915050565b6000813590506113c781611fdc565b92915050565b6000815190506113dc81611fdc565b92915050565b6000602082840312156113f457600080fd5b600061140284828501610ff8565b91505092915050565b60006020828403121561141d57600080fd5b600082015167ffffffffffffffff81111561143757600080fd5b611443848285016110cb565b91505092915050565b6000806040838503121561145f57600080fd5b600061146d85828601611178565b925050602061147e858286016113a3565b9150509250929050565b60008060006040848603121561149d57600080fd5b600084013567ffffffffffffffff8111156114b757600080fd5b6114c38682870161118d565b935093505060206114d68682870161138e565b9150509250925092565b60008060008060008060008060a0898b0312156114fc57600080fd5b600089013567ffffffffffffffff81111561151657600080fd5b6115228b828c0161118d565b985098505060206115358b828c0161138e565b965050604089013567ffffffffffffffff81111561155257600080fd5b61155e8b828c0161118d565b9550955050606089013567ffffffffffffffff81111561157d57600080fd5b6115898b828c0161100d565b9350935050608061159c8b828c01610ff8565b9150509295985092959890939650565b600080604083850312156115bf57600080fd5b600083015167ffffffffffffffff8111156115d957600080fd5b6115e58582860161122b565b92505060206115f685828601611178565b9150509250929050565b60006020828403121561161257600080fd5b600082013567ffffffffffffffff81111561162c57600080fd5b61163884828501611294565b91505092915050565b60006020828403121561165357600080fd5b6000611661848285016113cd565b91505092915050565b6000611676838361174f565b60208301905092915050565b600061168e8383611b86565b60208301905092915050565b6116a381611df7565b6116ad8184611e3d565b92506116b882611ddd565b8060005b838110156116e95781516116d0878261166a565b96506116db83611e23565b9250506001810190506116bc565b505050505050565b60006116fc82611e02565b6117068185611e48565b935061171183611de7565b8060005b838110156117425781516117298882611682565b975061173483611e30565b925050600181019050611715565b5085935050505092915050565b61175881611e9e565b82525050565b61176781611eaa565b82525050565b61177681611eaa565b82525050565b600061178782611e18565b6117918185611e6a565b93506117a1818560208601611f1f565b6117aa81611f52565b840191505092915050565b60006117c082611e0d565b6117ca8185611e59565b93506117da818560208601611f1f565b6117e381611f52565b840191505092915050565b6117f781611efe565b82525050565b600061180a602283611e7b565b91507f4e6f2076616c696420616374696f6e20686173206265656e207370656369666960008301527f65640000000000000000000000000000000000000000000000000000000000006020830152604082019050919050565b6000611870601183611e7b565b91507f4e6f207465726d696e616c2073746174650000000000000000000000000000006000830152602082019050919050565b60006118b0601283611e7b565b91507f4e6f7420612076616c6964206c657474657200000000000000000000000000006000830152602082019050919050565b60006118f0602583611e7b565b91507f4e6f7420696e2074686520726967687420737461676520666f7220612072657360008301527f706f6e73650000000000000000000000000000000000000000000000000000006020830152604082019050919050565b6000611956602583611e7b565b91507f4e6f7420696e2074686520726967687420737461676520666f7220616e206f7060008301527f656e696e670000000000000000000000000000000000000000000000000000006020830152604082019050919050565b60006119bc601f83611e7b565b91507f4c65747465722068617320616c7265616479206265656e2067756573736564006000830152602082019050919050565b60006119fc602783611e7b565b91507f4e6f7420696e2074686520726967687420737461676520666f72206120636f6d60008301527f6d69746d656e74000000000000000000000000000000000000000000000000006020830152604082019050919050565b6000611a62602283611e7b565b91507f4e6f7420696e2074686520726967687420737461676520666f7220612067756560008301527f73730000000000000000000000000000000000000000000000000000000000006020830152604082019050919050565b600061044083016000830151611ad4600086018261175e565b506020830151611ae7602086018261169a565b506040830151848203610360860152611b0082826117b5565b9150506060830151611b16610380860182611b95565b506080830151611b2a6103a0860182611b86565b5060a0830151611b3e6103c0860182611b86565b5060c0830151611b526103e0860182611b86565b5060e0830151611b666104008601826117ee565b50610100830151611b7b610420860182611b86565b508091505092915050565b611b8f81611ee7565b82525050565b611b9e81611ef1565b82525050565b60006020820190508181036000830152611bbe81846116f1565b905092915050565b6000604082019050611bdb600083018561176d565b8181036020830152611bed818461177c565b90509392505050565b60006020820190508181036000830152611c10818461177c565b905092915050565b60006020820190508181036000830152611c31816117fd565b9050919050565b60006020820190508181036000830152611c5181611863565b9050919050565b60006020820190508181036000830152611c71816118a3565b9050919050565b60006020820190508181036000830152611c91816118e3565b9050919050565b60006020820190508181036000830152611cb181611949565b9050919050565b60006020820190508181036000830152611cd1816119af565b9050919050565b60006020820190508181036000830152611cf1816119ef565b9050919050565b60006020820190508181036000830152611d1181611a55565b9050919050565b60006020820190508181036000830152611d328184611abb565b905092915050565b6000604051905081810181811067ffffffffffffffff82111715611d5d57600080fd5b8060405250919050565b600067ffffffffffffffff821115611d7e57600080fd5b602082029050919050565b600067ffffffffffffffff821115611da057600080fd5b602082029050602081019050919050565b600067ffffffffffffffff821115611dc857600080fd5b601f19601f8301169050602081019050919050565b6000819050919050565b6000819050602082019050919050565b6000601a9050919050565b600081519050919050565b600081519050919050565b600081519050919050565b6000602082019050919050565b6000602082019050919050565b600081905092915050565b600082825260208201905092915050565b600082825260208201905092915050565b600082825260208201905092915050565b600082825260208201905092915050565b6000611e9782611ec7565b9050919050565b60008115159050919050565b6000819050919050565b6000819050611ec282611f63565b919050565b600073ffffffffffffffffffffffffffffffffffffffff82169050919050565b6000819050919050565b600060ff82169050919050565b6000611f0982611eb4565b9050919050565b82818337600083830152505050565b60005b83811015611f3d578082015181840152602081019050611f22565b83811115611f4c576000848401525b50505050565b6000601f19601f8301169050919050565b60068110611f6d57fe5b50565b611f7981611e8c565b8114611f8457600080fd5b50565b611f9081611e9e565b8114611f9b57600080fd5b50565b611fa781611eaa565b8114611fb257600080fd5b50565b60068110611fc257600080fd5b50565b611fce81611ee7565b8114611fd957600080fd5b50565b611fe581611ef1565b8114611ff057600080fd5b5056fea365627a7a723058207701e82e7d0e0d9776ef5ba7662398851532745ffa305343319300edae0a99c86c6578706572696d656e74616cf564736f6c634300050a0040",
  "source": "pragma solidity 0.5.10;\npragma experimental \"ABIEncoderV2\";\n\nimport \"contracts/agnosticArchitecture/OffchainLibrary.sol\";\n\n//We assume that players only sign / produce states that can occur in a proper execution\n//For example, they do not sign / produce a state in which a player has used all of his ten tries but still is in stage WaitingForGuess\ncontract HangmanLib is OffchainLibrary{\n  \n  //Define global constants here\n  uint constant MAX_TRIES = 7;\n  uint constant TIMEOUT_PERIOD = 42;\n\n  //We recommend to use an enum for the action type and the different stages (reflect approximately a state transition diagram)\n  // 0: Nothing\n  // 1: Commit\n  // 2. Guess\n  // 3: Correct\n  // 4: Wrong\n  // 5: Open\n  // 6: Challenge\n  // 7: ResolveChallenge\n  \n  enum Stage {\n      WaitingForCommit, WaitingForGuess, WaitingForResponse, WaitingForOpen, Failed, Success\n  }\n  \n  //We recommend to define a state with a structure. This should always contain the current stage\n  struct AppState {\n      bytes32 hashedWord;\n      bool[26] guessed; //Originally we used a mapping but we cant use mapping in memory-structures\n      bytes word;\n      uint8 currentGuess; //Uint representation of a capital letter's ascii byte\n      uint wordLength;\n      uint missingLetters;\n      uint tries;\n      Stage stage;\n\n      uint challenge;\n  }\n \n  //Applies the action in non-terminal states\n  //A previous call of getTurnTaker ensures that only the acting party is allowed to execute\n  function callAction(\n    bytes calldata encodedState, uint _actionId, bytes calldata encodedAction, address[] calldata parties, address actor\n  )\n    external\n    view\n    returns (bytes memory)\n  {\n    //Convert state and input\n    AppState memory appState = abi.decode(encodedState, (AppState));\n    \n    //Logic to challenge a move and terminate if challenge has not been responded\n    if(_actionId == 6){   //Challenge counterparty to execute its move\n        return challenge(appState);\n    }\n    if(_actionId == 7){\n        return resolveChallenge(appState);\n    }\n    \n    //Check that acting party is allowed to make a move\n    //Party 2 (Guesser), if phase WaitingForGuess\n    if(_actionId == 2){\n        require(actor == parties[1]);\n    } else {\n    //Party 1 (Challenger) otherwise: WaitingForResponse, WaitingForOpen\n        require(actor == parties[0]);\n    }\n   \n    //Execute action according to input\n    if(_actionId == 2){ //Guess\n        return guess(appState, encodedAction);\n    } else if(_actionId == 3) { //Correct-Guess\n        return correct(appState,encodedAction);\n    } else if(_actionId == 4) { //Wrong-Guess\n        return wrong(appState);\n    } else if(_actionId == 5) { //Open the challenge\n        return open(appState, encodedAction);\n    } else if(_actionId == 1){\n        return commit(appState, encodedAction);\n    } else {\n        revert(\"No valid action has been specified\");\n    }\n  }\n \n  //Computes the outcome (Needs a terminal state)\n  function getOutcome(bytes calldata encodedState, uint funding)\n    external\n    pure\n    returns (uint[] memory)\n  {\n    //Convert the state\n    AppState memory appState = abi.decode(encodedState, (AppState));\n    \n    uint[] memory _outcome = new uint[](2);\n    \n    if(appState.stage == Stage.Failed){\n        _outcome[0] = funding;\n        _outcome[1] = 0;\n        return _outcome;\n    }\n    if(appState.stage == Stage.Success){\n        _outcome[0] = 0;\n        _outcome[1] = funding;\n        return _outcome;\n    }\n    revert(\"No terminal state\"); //No terminal state\n  }\n \n  \n  //Private functions with the actual logic\n  function challenge (AppState memory appState) internal view returns (bytes memory) {\n   \n    //May only challenge if no terminal state and no running challenge\n    require(appState.challenge == 0);\n    require(appState.stage != Stage.Failed && appState.stage != Stage.Success);\n   \n    appState.challenge = now + 42;\n   \n    return abi.encode(appState);\n  }\n  \n  function resolveChallenge (AppState memory appState) internal view returns (bytes memory) {\n   \n    //Challenge can only be resolved if timeout period has elapsed and no terminal stage\n    require(appState.challenge <= now);\n    require(appState.stage != Stage.Failed && appState.stage != Stage.Success);\n    \n    //If Party2 (Guesser) is challenged and has not reacted he loses\n    if(appState.stage == Stage.WaitingForGuess){\n        appState.stage == Stage.Failed;\n    } else {\n    //If Party 2 (Challenger) is challenged and has not reacted the guesser wins\n        appState.stage == Stage.Success;\n    }\n    \n    appState.challenge = 0;\n   \n    return abi.encode(appState);\n  }\n  \n  function commit (AppState memory appState, bytes memory input) internal pure returns (bytes memory) {\n   \n    //Check stage\n    require(appState.stage == Stage.WaitingForCommit,\"Not in the right stage for a commitment\");\n    \n    //Decode Input\n    (bytes32 _hashedWord, uint _wordLength)  = abi.decode(input, (bytes32, uint));\n   \n    appState.hashedWord = _hashedWord;\n    appState.wordLength = _wordLength;\n    appState.stage = Stage.WaitingForGuess;\n    appState.missingLetters = _wordLength;\n    appState.word = new bytes(_wordLength);\n    appState.challenge = 0;\n   \n    return abi.encode(appState);\n  }\n \n  function guess (AppState memory appState, bytes memory input) internal pure returns (bytes memory) {\n   \n    //Check stage\n    require(appState.stage == Stage.WaitingForGuess,\"Not in the right stage for a guess\");\n    \n    //Decode Input\n    uint8 _letter = abi.decode(input, (uint8));\n   \n    //Convert byte to number\n    uint8 position = _letter - 65;\n   \n    //Needs to be a capital letter: (ASCII-65 bis ASCII-90)\n    require(position < 26, \"Not a valid letter\");\n   \n    //Check if letter has not been handled yet\n    require(appState.guessed[position] == false,\"Letter has already been guessed\");\n   \n    //Set state and return new state\n    appState.currentGuess = _letter;\n    appState.stage = Stage.WaitingForResponse;\n    appState.challenge = 0;\n    return abi.encode(appState);\n  }\n \n  function correct (AppState memory appState, bytes memory input) internal pure returns (bytes memory){\n   \n    //Check stage\n    require(appState.stage == Stage.WaitingForResponse,\"Not in the right stage for a response\");\n    \n    //Decode Input\n    uint8[] memory _hits = abi.decode(input, (uint8[]));\n    \n    //Check input\n    require(_hits.length > 0);\n   \n    //Set letters in the word\n    for(uint i = 0; i < _hits.length ; i++){\n        //Check that challenger behaves correct (no set letter, no index above maximal letters)\n        if(_hits[i] >= appState.wordLength || appState.word[_hits[i]] != \"\\x00\"){\n            appState.stage = Stage.Success;\n            return abi.encode(appState);\n        }\n       \n        //Set letter for the active word\n        appState.word[_hits[i]] = byte(appState.currentGuess);\n    }\n   \n    //Decrement missing letters\n    appState.missingLetters = appState.missingLetters - _hits.length;\n   \n    //Set letter as guessed\n    appState.guessed[appState.currentGuess - 65] = true; //Shift from \"A\" (ASCII-65) to index 0\n   \n    //Set next stage\n    if (appState.missingLetters < 1){\n        appState.stage = Stage.Success;\n    } else {\n        appState.stage = Stage.WaitingForGuess;\n    }\n   \n   appState.challenge = 0;\n   \n    return abi.encode(appState);\n  }\n \n  function wrong (AppState memory appState) internal pure returns (bytes memory) {\n     \n      //Check stage\n      require(appState.stage == Stage.WaitingForResponse, \"Not in the right stage for a response\");\n     \n      //Set letter as guessed\n      appState.guessed[appState.currentGuess - 65] = true; //Shift from \"A\" (ASCII-65) to index 0\n     \n      //Increment trues\n      appState.tries++;\n     \n      //Set next stage\n      if(appState.tries == MAX_TRIES){\n          appState.stage = Stage.WaitingForOpen;\n      } else {\n          appState.stage = Stage.WaitingForGuess;\n      }\n     \n     appState.challenge = 0;\n     \n      return abi.encode(appState);\n  }\n \n  function open (AppState memory appState, bytes memory input) internal pure returns (bytes memory) {\n     \n      //Check stage\n      require(appState.stage == Stage.WaitingForOpen, \"Not in the right stage for an opening\");\n      \n      //Decode Input\n      (bytes memory _opening, bytes32 _nonce) = abi.decode(input, (bytes, bytes32));\n      \n      //Check input\n      require(_opening.length == appState.wordLength);\n     \n      //Check that there are no letters that no letter has been opened wrong\n      for(uint i = 0; i < appState.wordLength; i++){\n          //Missbehaviour if a solution-letter does not match the working letter although it has been guessed\n          if(appState.word[i] != _opening[i] && appState.guessed[uint8(_opening[i]) - 65]){\n              appState.stage = Stage.Success;\n              return abi.encode(appState);\n          }\n      }\n     \n      //Check that given opening corresponds to the comitted hash\n      if(keccak256(abi.encode(_nonce, _opening)) != appState.hashedWord){\n          appState.stage = Stage.Success;\n          return abi.encode(appState);\n      }\n     \n      //TODO Check that word really exists (Dictionary?) -> No need to implement\n     \n      //If all checks passed: Failure of guesser -> Challenger wins\n      appState.stage = Stage.Failed;\n      appState.challenge = 0;\n      return abi.encode(appState);\n  }\n\n}\n",
  "sourcePath": "/home/david/Desktop/implementation/truffle/contracts/agnosticArchitecture/HangmanLib.sol",
  "compiler": {
    "name": "solc",
    "version": "0.5.10+commit.5a6ea5b1.Emscripten.clang"
  },
  "schemaVersion": "3.0.16",
  "updatedAt": "2019-12-12T13:18:24.651Z",
  "devdoc": {
    "methods": {}
  },
  "userdoc": {
    "methods": {}
  }
}