{
  "contractName": "HybridDisputeBoard",
  "abi": [
    {
      "constant": true,
      "inputs": [],
      "name": "timeoutPeriod",
      "outputs": [
        {
          "name": "",
          "type": "uint256"
        }
      ],
      "payable": false,
      "stateMutability": "view",
      "type": "function"
    },
    {
      "inputs": [
        {
          "name": "_timeoutPeriod",
          "type": "uint256"
        }
      ],
      "payable": false,
      "stateMutability": "nonpayable",
      "type": "constructor"
    },
    {
      "anonymous": false,
      "inputs": [
        {
          "indexed": false,
          "name": "id",
          "type": "bytes32"
        }
      ],
      "name": "EventDispute",
      "type": "event"
    },
    {
      "constant": false,
      "inputs": [
        {
          "name": "_foreignId",
          "type": "bytes32"
        },
        {
          "name": "_parties",
          "type": "address[]"
        }
      ],
      "name": "initializeChannel",
      "outputs": [],
      "payable": false,
      "stateMutability": "nonpayable",
      "type": "function"
    },
    {
      "constant": false,
      "inputs": [
        {
          "name": "_id",
          "type": "bytes32"
        },
        {
          "name": "_version",
          "type": "uint256"
        },
        {
          "name": "_stateHash",
          "type": "bytes32"
        },
        {
          "name": "_signatures",
          "type": "bytes"
        }
      ],
      "name": "dispute",
      "outputs": [],
      "payable": false,
      "stateMutability": "nonpayable",
      "type": "function"
    },
    {
      "constant": true,
      "inputs": [
        {
          "name": "_id",
          "type": "bytes32"
        }
      ],
      "name": "getChannelInstance",
      "outputs": [
        {
          "name": "",
          "type": "uint256"
        },
        {
          "name": "",
          "type": "bytes32"
        },
        {
          "name": "",
          "type": "bool"
        }
      ],
      "payable": false,
      "stateMutability": "view",
      "type": "function"
    }
  ],
  "bytecode": "0x608060405234801561001057600080fd5b5060405161118e38038061118e83398181016040526100329190810190610054565b806001819055505061009e565b60008151905061004e81610087565b92915050565b60006020828403121561006657600080fd5b60006100748482850161003f565b91505092915050565b6000819050919050565b6100908161007d565b811461009b57600080fd5b50565b6110e1806100ad6000396000f3fe608060405234801561001057600080fd5b506004361061004c5760003560e01c806348c2c212146100515780634af453d21461006d5780636cea6b8214610089578063d2966c14146100a7575b600080fd5b61006b60048036036100669190810190610b27565b6100d9565b005b61008760048036036100829190810190610b7f565b6101fe565b005b610091610501565b60405161009e9190610edd565b60405180910390f35b6100c160048036036100bc9190810190610afe565b610507565b6040516100d093929190610ef8565b60405180910390f35b600033846040516020016100ee929190610daf565b6040516020818303038152906040528051906020012090506040518060a001604052806001600281111561011e57fe5b815260200160008152602001848480806020026020016040519081016040528093929190818152602001838360200280828437600081840152601f19601f820116905080830192505050505050508152602001600081526020016000801b81525060008083815260200190815260200160002060008201518160000160006101000a81548160ff021916908360028111156101b557fe5b02179055506020820151816001015560408201518160020190805190602001906101e09291906107e8565b50606082015181600301556080820151816004015590505050505050565b610206610872565b6000808781526020019081526020016000206040518060a00160405290816000820160009054906101000a900460ff16600281111561024157fe5b600281111561024c57fe5b815260200160018201548152602001600282018054806020026020016040519081016040528092919081815260200182805480156102df57602002820191906000526020600020905b8160009054906101000a900473ffffffffffffffffffffffffffffffffffffffff1673ffffffffffffffffffffffffffffffffffffffff1681526020019060010190808311610295575b505050505081526020016003820154815260200160048201548152505090506001600281111561030b57fe5b8160000151600281111561031b57fe5b148061035e575060028081111561032e57fe5b8160000151600281111561033e57fe5b14801561035d575084816060015110801561035c5750428160200151115b5b5b61039d576040517f08c379a000000000000000000000000000000000000000000000000000000000815260040161039490610e9d565b60405180910390fd5b6104158160400151308888886040516020016103bc9493929190610dd8565b60405160208183030381529060405285858080601f016020809104026020016040519081016040528093929190818152602001838380828437600081840152601f19601f820116905080830192505050505050506105b1565b6001600281111561042257fe5b8160000151600281111561043257fe5b14156104c557600260008088815260200190815260200160002060000160006101000a81548160ff0219169083600281111561046a57fe5b02179055506001544201600080888152602001908152602001600020600101819055507f4c871862155c443c6718dddabe053063168abac54b2e51ad370b7de75839ec52866040516104bc9190610e1d565b60405180910390a15b84600080888152602001908152602001600020600301819055508360008088815260200190815260200160002060040181905550505050505050565b60015481565b6000806000806000905060028081111561051d57fe5b60008087815260200190815260200160002060000160009054906101000a900460ff16600281111561054b57fe5b14801561056c57504260008087815260200190815260200160002060010154105b1561057657600190505b600080868152602001908152602001600020600301546000808781526020019081526020016000206004015482935093509350509193909250565b6105c4836105be846105c9565b836105e2565b505050565b60006105db8280519060200120610775565b9050919050565b6060818060200190516105f89190810190610abd565b9050835181511461063e576040517f08c379a000000000000000000000000000000000000000000000000000000000815260040161063590610ebd565b60405180910390fd5b60008090505b845181101561076e5760018483838151811061065c57fe5b60200260200101516000015184848151811061067457fe5b60200260200101516020015185858151811061068c57fe5b602002602001015160400151604051600081526020016040526040516106b59493929190610e38565b6020604051602081039080840390855afa1580156106d7573d6000803e3d6000fd5b5050506020604051035173ffffffffffffffffffffffffffffffffffffffff1685828151811061070357fe5b602002602001015173ffffffffffffffffffffffffffffffffffffffff1614610761576040517f08c379a000000000000000000000000000000000000000000000000000000000815260040161075890610e7d565b60405180910390fd5b8080600101915050610644565b5050505050565b600060606040518060400160405280601c81526020017f19457468657265756d205369676e6564204d6573736167653a0a3332000000008152509050600081846040516020016107c6929190610d87565b6040516020818303038152906040528051906020012090508092505050919050565b828054828255906000526020600020908101928215610861579160200282015b828111156108605782518260006101000a81548173ffffffffffffffffffffffffffffffffffffffff021916908373ffffffffffffffffffffffffffffffffffffffff16021790555091602001919060010190610808565b5b50905061086e91906108af565b5090565b6040518060a001604052806000600281111561088a57fe5b8152602001600081526020016060815260200160008152602001600080191681525090565b6108ef91905b808211156108eb57600081816101000a81549073ffffffffffffffffffffffffffffffffffffffff0219169055506001016108b5565b5090565b90565b60008083601f84011261090457600080fd5b8235905067ffffffffffffffff81111561091d57600080fd5b60208301915083602082028301111561093557600080fd5b9250929050565b600082601f83011261094d57600080fd5b815161096061095b82610f5c565b610f2f565b9150818183526020840193506020810190508385606084028201111561098557600080fd5b60005b838110156109b5578161099b8882610a33565b845260208401935060608301925050600181019050610988565b5050505092915050565b6000813590506109ce81611059565b92915050565b6000815190506109e381611059565b92915050565b60008083601f8401126109fb57600080fd5b8235905067ffffffffffffffff811115610a1457600080fd5b602083019150836001820283011115610a2c57600080fd5b9250929050565b600060608284031215610a4557600080fd5b610a4f6060610f2f565b90506000610a5f84828501610aa8565b6000830152506020610a73848285016109d4565b6020830152506040610a87848285016109d4565b60408301525092915050565b600081359050610aa281611070565b92915050565b600081519050610ab781611087565b92915050565b600060208284031215610acf57600080fd5b600082015167ffffffffffffffff811115610ae957600080fd5b610af58482850161093c565b91505092915050565b600060208284031215610b1057600080fd5b6000610b1e848285016109bf565b91505092915050565b600080600060408486031215610b3c57600080fd5b6000610b4a868287016109bf565b935050602084013567ffffffffffffffff811115610b6757600080fd5b610b73868287016108f2565b92509250509250925092565b600080600080600060808688031215610b9757600080fd5b6000610ba5888289016109bf565b9550506020610bb688828901610a93565b9450506040610bc7888289016109bf565b935050606086013567ffffffffffffffff811115610be457600080fd5b610bf0888289016109e9565b92509250509295509295909350565b610c0881610fbd565b82525050565b610c1781610fab565b82525050565b610c2681610fcf565b82525050565b610c3581610fdb565b82525050565b610c4c610c4782610fdb565b61104f565b82525050565b6000610c5d82610f84565b610c678185610fa0565b9350610c7781856020860161101c565b80840191505092915050565b6000610c90600f83610f8f565b91507f57726f6e67207369676e617475726500000000000000000000000000000000006000830152602082019050919050565b6000610cd0601783610f8f565b91507f57726f6e672076657273696f6e207375626d69747465640000000000000000006000830152602082019050919050565b6000610d10602b83610f8f565b91507f546865726520617265206c6573732f6d6f7265207369676e617475726573207460008301527f68656e20706172746965730000000000000000000000000000000000000000006020830152604082019050919050565b610d7281611005565b82525050565b610d818161100f565b82525050565b6000610d938285610c52565b9150610d9f8284610c3b565b6020820191508190509392505050565b6000604082019050610dc46000830185610bff565b610dd16020830184610c2c565b9392505050565b6000608082019050610ded6000830187610c0e565b610dfa6020830186610c2c565b610e076040830185610d69565b610e146060830184610c2c565b95945050505050565b6000602082019050610e326000830184610c2c565b92915050565b6000608082019050610e4d6000830187610c2c565b610e5a6020830186610d78565b610e676040830185610c2c565b610e746060830184610c2c565b95945050505050565b60006020820190508181036000830152610e9681610c83565b9050919050565b60006020820190508181036000830152610eb681610cc3565b9050919050565b60006020820190508181036000830152610ed681610d03565b9050919050565b6000602082019050610ef26000830184610d69565b92915050565b6000606082019050610f0d6000830186610d69565b610f1a6020830185610c2c565b610f276040830184610c1d565b949350505050565b6000604051905081810181811067ffffffffffffffff82111715610f5257600080fd5b8060405250919050565b600067ffffffffffffffff821115610f7357600080fd5b602082029050602081019050919050565b600081519050919050565b600082825260208201905092915050565b600081905092915050565b6000610fb682610fe5565b9050919050565b6000610fc882610fe5565b9050919050565b60008115159050919050565b6000819050919050565b600073ffffffffffffffffffffffffffffffffffffffff82169050919050565b6000819050919050565b600060ff82169050919050565b60005b8381101561103a57808201518184015260208101905061101f565b83811115611049576000848401525b50505050565b6000819050919050565b61106281610fdb565b811461106d57600080fd5b50565b61107981611005565b811461108457600080fd5b50565b6110908161100f565b811461109b57600080fd5b5056fea365627a7a7230582014b12b95f934a127068cca5980379cf61e2ae05c180b2682e4927ed0513802976c6578706572696d656e74616cf564736f6c634300050a0040",
  "source": "pragma solidity ^0.5.10;\npragma experimental \"ABIEncoderV2\";\n\nimport \"contracts/sharedCode/SigVerifier.sol\";\n\n//Can be used by both: normal and singleton applications\ncontract HybridDisputeBoard is SigVerifier {\n    \n    //******************\n    // Variables, enums, structures\n    \n    \n    //Managing variables\n    mapping(bytes32 => ChannelInstance) channels;\n    uint public timeoutPeriod;          \n    \n    //Enum for statuses\n    enum Status{NONE, INITIALIZED, SUBMITTED}\n    \n    //Events to notify parties about dispute and forcefully execution\n    event EventDispute(bytes32 id);\n    \n    struct ChannelInstance {\n        //Maintainance\n        Status status;\n        uint timeout;\n        address[] parties;\n        \n        //Identify latest\n        uint version;\n        \n        //State-Hash\n        bytes32 stateHash;\n    }\n    \n    //******************\n    // Constructor\n    \n    //Constructor to initialize global constants\n    constructor(uint _timeoutPeriod) public {\n        timeoutPeriod = _timeoutPeriod;\n    }\n    \n    //******************\n    // Channel logic\n    \n    //During the first time to lock the channel the contract tells the dispute board the set of parties which needs to sign states\n    function initializeChannel(bytes32 _foreignId, address[] calldata _parties) external {\n        \n        bytes32 _internalId = keccak256(abi.encode(msg.sender, _foreignId)); \n        \n        //require(channels[_internalId].status == Status.NONE); //May not be necessary\n        \n        channels[_internalId] = ChannelInstance(Status.INITIALIZED, 0, _parties, 0, 0);\n        \n    }\n\t\n\t//Function to provide evidence -> When a new lockcount is encountered or this is the first submission a dispute is started\n\t    //Parties need to first agree on the first state after the lock before they actuall lock an application. This approach might be a little bit messy but faster and easier to implement and thus fits better for this prototype implementation\n    function dispute(bytes32 _id, uint _version, bytes32 _stateHash, bytes calldata _signatures) external {\n        \n        //Read corresponding instance\n        ChannelInstance memory _instance = channels[_id];\n        \n        //Check that the provided evidence is more current than the existing one\n            //If status is NONE, there is nothing to submit\n            //If it is the first evidence (status INITIALIZED) each evidence is the most current -> new dispute\n            //If there has already been an evidence (status SUBMITTED) the new evidence needs either a higher lockCount or (a higher version, the same lockCount and before the timeout)\n                //If the lockCount is higher a new submission starts a dispute\n        require(_instance.status == Status.INITIALIZED ||(_instance.status == Status.SUBMITTED && (_instance.version < _version && _instance.timeout > now)),\"Wrong version submitted\");\n        \n        //Check signatures\n        verifySignatures(_instance.parties, abi.encode(address(this), _id, _version, _stateHash), _signatures);\n        \n        //Set timeout, status and emit event if this is a new dispute (new dispute means status INITIALIZED or higher lockCount)\n        if(_instance.status == Status.INITIALIZED){\n            channels[_id].status = Status.SUBMITTED;\n            channels[_id].timeout = now + timeoutPeriod;\n            emit EventDispute(_id);\n        }\n        \n        //Update state\n        channels[_id].version = _version;\n        channels[_id].stateHash = _stateHash;\n    }\n    \n    //Getter for the channel state and if last dispute is finalized\n    function getChannelInstance(bytes32 _id) external view returns (uint, bytes32, bool){\n        \n        bool _unlockable = false;\n        \n        //Can only be unlocked if the latest state has successfully been disputed (Double unlocks need to be prevented by the application contract)\n        if(channels[_id].status == Status.SUBMITTED && channels[_id].timeout < now){\n            _unlockable = true;\n        }\n        \n        return (channels[_id].version,  channels[_id].stateHash, _unlockable);\n    }\n} \n",
  "sourcePath": "/media/shared/CAC/Projekte/2019_SC_Workshop_FinCrypto/publicImplementation/truffle/contracts/hybridArchitecture/HybridDisputeBoard.sol",
  "compiler": {
    "name": "solc",
    "version": "0.5.10+commit.5a6ea5b1.Emscripten.clang"
  },
  "schemaVersion": "3.0.16",
  "updatedAt": "2019-12-13T14:08:35.870Z",
  "devdoc": {
    "methods": {}
  },
  "userdoc": {
    "methods": {}
  }
}