{
  "contractName": "HybridRelockableDisputeBoard",
  "abi": [
    {
      "constant": true,
      "inputs": [],
      "name": "timeoutPeriod",
      "outputs": [
        {
          "name": "",
          "type": "uint256"
        }
      ],
      "payable": false,
      "stateMutability": "view",
      "type": "function"
    },
    {
      "inputs": [
        {
          "name": "_timeoutPeriod",
          "type": "uint256"
        }
      ],
      "payable": false,
      "stateMutability": "nonpayable",
      "type": "constructor"
    },
    {
      "anonymous": false,
      "inputs": [
        {
          "indexed": false,
          "name": "id",
          "type": "bytes32"
        }
      ],
      "name": "EventDispute",
      "type": "event"
    },
    {
      "constant": false,
      "inputs": [
        {
          "name": "_foreignId",
          "type": "bytes32"
        },
        {
          "name": "_parties",
          "type": "address[]"
        }
      ],
      "name": "initializeChannel",
      "outputs": [
        {
          "name": "",
          "type": "bytes32"
        }
      ],
      "payable": false,
      "stateMutability": "nonpayable",
      "type": "function"
    },
    {
      "constant": false,
      "inputs": [
        {
          "name": "_id",
          "type": "bytes32"
        },
        {
          "name": "_lockCount",
          "type": "uint256"
        },
        {
          "name": "_version",
          "type": "uint256"
        },
        {
          "name": "_stateHash",
          "type": "bytes32"
        },
        {
          "name": "_signatures",
          "type": "bytes"
        }
      ],
      "name": "dispute",
      "outputs": [],
      "payable": false,
      "stateMutability": "nonpayable",
      "type": "function"
    },
    {
      "constant": true,
      "inputs": [
        {
          "name": "_id",
          "type": "bytes32"
        }
      ],
      "name": "getChannelInstance",
      "outputs": [
        {
          "name": "",
          "type": "uint256"
        },
        {
          "name": "",
          "type": "uint256"
        },
        {
          "name": "",
          "type": "bytes32"
        },
        {
          "name": "",
          "type": "bool"
        }
      ],
      "payable": false,
      "stateMutability": "view",
      "type": "function"
    }
  ],
  "bytecode": "0x608060405234801561001057600080fd5b5060405161129f38038061129f83398181016040526100329190810190610054565b806001819055505061009e565b60008151905061004e81610087565b92915050565b60006020828403121561006657600080fd5b60006100748482850161003f565b91505092915050565b6000819050919050565b6100908161007d565b811461009b57600080fd5b50565b6111f2806100ad6000396000f3fe608060405234801561001057600080fd5b506004361061004c5760003560e01c806348c2c212146100515780636cea6b8214610081578063d1085d411461009f578063d2966c14146100bb575b600080fd5b61006b60048036036100669190810190610c0a565b6100ee565b6040516100789190610f20565b60405180910390f35b61008961026f565b6040516100969190610fe0565b60405180910390f35b6100b960048036036100b49190810190610c62565b610275565b005b6100d560048036036100d09190810190610be1565b6105ca565b6040516100e59493929190610ffb565b60405180910390f35b6000803385604051602001610104929190610ea4565b6040516020818303038152906040528051906020012090506000600281111561012957fe5b60008083815260200190815260200160002060000160009054906101000a900460ff16600281111561015757fe5b1461016157600080fd5b6040518060c001604052806001600281111561017957fe5b815260200160008152602001858580806020026020016040519081016040528093929190818152602001838360200280828437600081840152601f19601f82011690508083019250505050505050815260200160008152602001600081526020016000801b81525060008083815260200190815260200160002060008201518160000160006101000a81548160ff0219169083600281111561021757fe5b02179055506020820151816001015560408201518160020190805190602001906102429291906108c4565b50606082015181600301556080820151816004015560a08201518160050155905050809150509392505050565b60015481565b61027d61094e565b6000808881526020019081526020016000206040518060c00160405290816000820160009054906101000a900460ff1660028111156102b857fe5b60028111156102c357fe5b8152602001600182015481526020016002820180548060200260200160405190810160405280929190818152602001828054801561035657602002820191906000526020600020905b8160009054906101000a900473ffffffffffffffffffffffffffffffffffffffff1673ffffffffffffffffffffffffffffffffffffffff168152602001906001019080831161030c575b50505050508152602001600382015481526020016004820154815260200160058201548152505090506001600281111561038c57fe5b8160000151600281111561039c57fe5b14806103fc57506002808111156103af57fe5b816000015160028111156103bf57fe5b1480156103fb575085816060015110806103fa57508581606001511480156103ea5750848160800151105b80156103f95750428160200151115b5b5b5b61043b576040517f08c379a000000000000000000000000000000000000000000000000000000000815260040161043290610fa0565b60405180910390fd5b6104b58160400151308989898960405160200161045c959493929190610ecd565b60405160208183030381529060405285858080601f016020809104026020016040519081016040528093929190818152602001838380828437600081840152601f19601f8201169050808301925050505050505061068d565b600160028111156104c257fe5b816000015160028111156104d257fe5b14806104e15750858160600151105b1561057357600260008089815260200190815260200160002060000160006101000a81548160ff0219169083600281111561051857fe5b02179055506001544201600080898152602001908152602001600020600101819055507f4c871862155c443c6718dddabe053063168abac54b2e51ad370b7de75839ec528760405161056a9190610f20565b60405180910390a15b84600080898152602001908152602001600020600401819055508560008089815260200190815260200160002060030181905550836000808981526020019081526020016000206005018190555050505050505050565b60008060008060008090506002808111156105e157fe5b60008088815260200190815260200160002060000160009054906101000a900460ff16600281111561060f57fe5b14801561063057504260008088815260200190815260200160002060010154105b1561063a57600190505b600080878152602001908152602001600020600301546000808881526020019081526020016000206004015460008089815260200190815260200160002060050154839450945094509450509193509193565b6106a08361069a846106a5565b836106be565b505050565b60006106b78280519060200120610851565b9050919050565b6060818060200190516106d49190810190610ba0565b9050835181511461071a576040517f08c379a000000000000000000000000000000000000000000000000000000000815260040161071190610fc0565b60405180910390fd5b60008090505b845181101561084a5760018483838151811061073857fe5b60200260200101516000015184848151811061075057fe5b60200260200101516020015185858151811061076857fe5b602002602001015160400151604051600081526020016040526040516107919493929190610f3b565b6020604051602081039080840390855afa1580156107b3573d6000803e3d6000fd5b5050506020604051035173ffffffffffffffffffffffffffffffffffffffff168582815181106107df57fe5b602002602001015173ffffffffffffffffffffffffffffffffffffffff161461083d576040517f08c379a000000000000000000000000000000000000000000000000000000000815260040161083490610f80565b60405180910390fd5b8080600101915050610720565b5050505050565b600060606040518060400160405280601c81526020017f19457468657265756d205369676e6564204d6573736167653a0a3332000000008152509050600081846040516020016108a2929190610e7c565b6040516020818303038152906040528051906020012090508092505050919050565b82805482825590600052602060002090810192821561093d579160200282015b8281111561093c5782518260006101000a81548173ffffffffffffffffffffffffffffffffffffffff021916908373ffffffffffffffffffffffffffffffffffffffff160217905550916020019190600101906108e4565b5b50905061094a9190610992565b5090565b6040518060c001604052806000600281111561096657fe5b815260200160008152602001606081526020016000815260200160008152602001600080191681525090565b6109d291905b808211156109ce57600081816101000a81549073ffffffffffffffffffffffffffffffffffffffff021916905550600101610998565b5090565b90565b60008083601f8401126109e757600080fd5b8235905067ffffffffffffffff811115610a0057600080fd5b602083019150836020820283011115610a1857600080fd5b9250929050565b600082601f830112610a3057600080fd5b8151610a43610a3e8261106d565b611040565b91508181835260208401935060208101905083856060840282011115610a6857600080fd5b60005b83811015610a985781610a7e8882610b16565b845260208401935060608301925050600181019050610a6b565b5050505092915050565b600081359050610ab18161116a565b92915050565b600081519050610ac68161116a565b92915050565b60008083601f840112610ade57600080fd5b8235905067ffffffffffffffff811115610af757600080fd5b602083019150836001820283011115610b0f57600080fd5b9250929050565b600060608284031215610b2857600080fd5b610b326060611040565b90506000610b4284828501610b8b565b6000830152506020610b5684828501610ab7565b6020830152506040610b6a84828501610ab7565b60408301525092915050565b600081359050610b8581611181565b92915050565b600081519050610b9a81611198565b92915050565b600060208284031215610bb257600080fd5b600082015167ffffffffffffffff811115610bcc57600080fd5b610bd884828501610a1f565b91505092915050565b600060208284031215610bf357600080fd5b6000610c0184828501610aa2565b91505092915050565b600080600060408486031215610c1f57600080fd5b6000610c2d86828701610aa2565b935050602084013567ffffffffffffffff811115610c4a57600080fd5b610c56868287016109d5565b92509250509250925092565b60008060008060008060a08789031215610c7b57600080fd5b6000610c8989828a01610aa2565b9650506020610c9a89828a01610b76565b9550506040610cab89828a01610b76565b9450506060610cbc89828a01610aa2565b935050608087013567ffffffffffffffff811115610cd957600080fd5b610ce589828a01610acc565b92509250509295509295509295565b610cfd816110ce565b82525050565b610d0c816110bc565b82525050565b610d1b816110e0565b82525050565b610d2a816110ec565b82525050565b610d41610d3c826110ec565b611160565b82525050565b6000610d5282611095565b610d5c81856110b1565b9350610d6c81856020860161112d565b80840191505092915050565b6000610d85600f836110a0565b91507f57726f6e67207369676e617475726500000000000000000000000000000000006000830152602082019050919050565b6000610dc56017836110a0565b91507f57726f6e672076657273696f6e207375626d69747465640000000000000000006000830152602082019050919050565b6000610e05602b836110a0565b91507f546865726520617265206c6573732f6d6f7265207369676e617475726573207460008301527f68656e20706172746965730000000000000000000000000000000000000000006020830152604082019050919050565b610e6781611116565b82525050565b610e7681611120565b82525050565b6000610e888285610d47565b9150610e948284610d30565b6020820191508190509392505050565b6000604082019050610eb96000830185610cf4565b610ec66020830184610d21565b9392505050565b600060a082019050610ee26000830188610d03565b610eef6020830187610d21565b610efc6040830186610e5e565b610f096060830185610e5e565b610f166080830184610d21565b9695505050505050565b6000602082019050610f356000830184610d21565b92915050565b6000608082019050610f506000830187610d21565b610f5d6020830186610e6d565b610f6a6040830185610d21565b610f776060830184610d21565b95945050505050565b60006020820190508181036000830152610f9981610d78565b9050919050565b60006020820190508181036000830152610fb981610db8565b9050919050565b60006020820190508181036000830152610fd981610df8565b9050919050565b6000602082019050610ff56000830184610e5e565b92915050565b60006080820190506110106000830187610e5e565b61101d6020830186610e5e565b61102a6040830185610d21565b6110376060830184610d12565b95945050505050565b6000604051905081810181811067ffffffffffffffff8211171561106357600080fd5b8060405250919050565b600067ffffffffffffffff82111561108457600080fd5b602082029050602081019050919050565b600081519050919050565b600082825260208201905092915050565b600081905092915050565b60006110c7826110f6565b9050919050565b60006110d9826110f6565b9050919050565b60008115159050919050565b6000819050919050565b600073ffffffffffffffffffffffffffffffffffffffff82169050919050565b6000819050919050565b600060ff82169050919050565b60005b8381101561114b578082015181840152602081019050611130565b8381111561115a576000848401525b50505050565b6000819050919050565b611173816110ec565b811461117e57600080fd5b50565b61118a81611116565b811461119557600080fd5b50565b6111a181611120565b81146111ac57600080fd5b5056fea365627a7a723058207d435d0b80824f7d4de7d254fc2554e6e466c866aca349372cfa89c6b0ea6de76c6578706572696d656e74616cf564736f6c634300050a0040",
  "source": "pragma solidity ^0.5.10;\npragma experimental \"ABIEncoderV2\";\n\nimport \"contracts/sharedCode/SigVerifier.sol\";\n\n\n//Can be used by both: normal and singleton applications\ncontract HybridRelockableDisputeBoard is SigVerifier {\n    \n    //******************\n    // Variables, enums, structures\n    \n    \n    //Managing variables\n    mapping(bytes32 => ChannelInstance) channels;\n    uint public timeoutPeriod;          \n    \n    //Enum for statuses\n    enum Status{NONE, INITIALIZED, SUBMITTED}\n    \n    //Events to notify parties about dispute and forcefully execution\n    event EventDispute(bytes32 id);\n    \n    struct ChannelInstance {\n        //Maintainance\n        Status status;\n        uint timeout;\n        address[] parties;\n        \n        //Identify latest\n        uint lockCount;\n        uint version;\n        \n        //State-Hash\n        bytes32 stateHash;\n    }\n    \n    //******************\n    // Constructor\n    \n    //Constructor to initialize global constants\n    constructor(uint _timeoutPeriod) public {\n        timeoutPeriod = _timeoutPeriod;\n    }\n    \n    //******************\n    // Channel logic\n    \n    //During the first time to lock the channel the contract tells the dispute board the set of parties which needs to sign states\n    function initializeChannel(bytes32 _foreignId, address[] calldata _parties) external returns(bytes32) {\n        \n        bytes32 _internalId = keccak256(abi.encode(msg.sender, _foreignId)); \n        \n        require(channels[_internalId].status == Status.NONE); //May not be necessary\n        \n        channels[_internalId] = ChannelInstance(Status.INITIALIZED, 0, _parties, 0, 0, 0);\n        \n        return _internalId;\n        \n    }\n\t\n\t//Function to provide evidence -> When a new lockcount is encountered or this is the first submission a dispute is started\n\t    //Parties need to first agree on the first state after the lock before they actuall lock an application. This approach might be a little bit messy but faster and easier to implement and thus fits better for this prototype implementation\n    function dispute(bytes32 _id, uint _lockCount, uint _version, bytes32 _stateHash, bytes calldata _signatures) external {\n        \n        //Read corresponding instance\n        ChannelInstance memory _instance = channels[_id];\n        \n        //Check that the provided evidence is more current than the existing one\n            //If status is NONE, there is nothing to submit\n            //If it is the first evidence (status INITIALIZED) each evidence is the most current -> new dispute\n            //If there has already been an evidence (status SUBMITTED) the new evidence needs either a higher lockCount or (a higher version, the same lockCount and before the timeout)\n                //If the lockCount is higher a new submission starts a dispute\n        require(_instance.status == Status.INITIALIZED ||(_instance.status == Status.SUBMITTED && (_instance.lockCount < _lockCount || (_instance.lockCount == _lockCount && _instance.version < _version && _instance.timeout > now))),\"Wrong version submitted\");\n        \n        //Check signatures\n        verifySignatures(_instance.parties, abi.encode(address(this), _id, _lockCount, _version, _stateHash), _signatures);\n        \n        //Set timeout, status and emit event if this is a new dispute (new dispute means status INITIALIZED or higher lockCount)\n        if(_instance.status == Status.INITIALIZED || _instance.lockCount < _lockCount){\n            channels[_id].status = Status.SUBMITTED;\n            channels[_id].timeout = now + timeoutPeriod;\n            emit EventDispute(_id);\n        }\n        \n        //Update state\n        channels[_id].version = _version;\n        channels[_id].lockCount = _lockCount;\n        channels[_id].stateHash = _stateHash;\n    }\n    \n    //Getter for the channel state and if last dispute is finalized\n    function getChannelInstance(bytes32 _id) external view returns (uint, uint, bytes32, bool){\n        \n        bool _unlockable = false;\n        \n        //Can only be unlocked if the latest state has successfully been disputed (Double unlocks need to be prevented by the application contract)\n        if(channels[_id].status == Status.SUBMITTED && channels[_id].timeout < now){\n            _unlockable = true;\n        }\n        \n        return (channels[_id].lockCount, channels[_id].version,  channels[_id].stateHash, _unlockable);\n    }\n} \n",
  "sourcePath": "/media/shared/CAC/Projekte/2019_SC_Workshop_FinCrypto/publicImplementation/truffle/contracts/hybridArchitecture/Relockable/HybridRelockableDisputeBoard.sol",
  "compiler": {
    "name": "solc",
    "version": "0.5.10+commit.5a6ea5b1.Emscripten.clang"
  },
  "schemaVersion": "3.0.16",
  "updatedAt": "2019-12-13T14:08:30.681Z",
  "devdoc": {
    "methods": {}
  },
  "userdoc": {
    "methods": {}
  }
}