{
  "contractName": "HybridHangmanSingleton",
  "abi": [
    {
      "constant": false,
      "inputs": [
        {
          "name": "_id",
          "type": "bytes32"
        }
      ],
      "name": "wrong",
      "outputs": [],
      "payable": false,
      "stateMutability": "nonpayable",
      "type": "function"
    },
    {
      "constant": false,
      "inputs": [
        {
          "name": "_nonce",
          "type": "bytes32"
        },
        {
          "name": "_parties",
          "type": "address[]"
        }
      ],
      "name": "createInstance",
      "outputs": [],
      "payable": true,
      "stateMutability": "payable",
      "type": "function"
    },
    {
      "constant": false,
      "inputs": [
        {
          "name": "_id",
          "type": "bytes32"
        }
      ],
      "name": "close",
      "outputs": [],
      "payable": false,
      "stateMutability": "nonpayable",
      "type": "function"
    },
    {
      "constant": false,
      "inputs": [
        {
          "name": "_id",
          "type": "bytes32"
        },
        {
          "name": "_hits",
          "type": "uint8[]"
        }
      ],
      "name": "correct",
      "outputs": [],
      "payable": false,
      "stateMutability": "nonpayable",
      "type": "function"
    },
    {
      "constant": false,
      "inputs": [
        {
          "name": "_id",
          "type": "bytes32"
        },
        {
          "name": "_letter",
          "type": "uint8"
        }
      ],
      "name": "guess",
      "outputs": [],
      "payable": false,
      "stateMutability": "nonpayable",
      "type": "function"
    },
    {
      "constant": false,
      "inputs": [
        {
          "name": "_id",
          "type": "bytes32"
        }
      ],
      "name": "finalizeChallenge",
      "outputs": [],
      "payable": false,
      "stateMutability": "nonpayable",
      "type": "function"
    },
    {
      "constant": false,
      "inputs": [
        {
          "name": "_id",
          "type": "bytes32"
        }
      ],
      "name": "challenge",
      "outputs": [],
      "payable": false,
      "stateMutability": "nonpayable",
      "type": "function"
    },
    {
      "constant": false,
      "inputs": [
        {
          "name": "_id",
          "type": "bytes32"
        },
        {
          "name": "_hashedWord",
          "type": "bytes32"
        },
        {
          "name": "_wordLength",
          "type": "uint8"
        }
      ],
      "name": "commit",
      "outputs": [],
      "payable": false,
      "stateMutability": "nonpayable",
      "type": "function"
    },
    {
      "constant": false,
      "inputs": [
        {
          "name": "_id",
          "type": "bytes32"
        },
        {
          "name": "_nonce",
          "type": "bytes32"
        },
        {
          "name": "_opening",
          "type": "bytes"
        }
      ],
      "name": "open",
      "outputs": [],
      "payable": false,
      "stateMutability": "nonpayable",
      "type": "function"
    },
    {
      "inputs": [
        {
          "name": "_maxTries",
          "type": "uint256"
        },
        {
          "name": "_minFunding",
          "type": "uint256"
        },
        {
          "name": "_challengePeriod",
          "type": "uint256"
        },
        {
          "name": "_db",
          "type": "address"
        }
      ],
      "payable": false,
      "stateMutability": "nonpayable",
      "type": "constructor"
    },
    {
      "anonymous": false,
      "inputs": [
        {
          "indexed": false,
          "name": "id",
          "type": "bytes32"
        }
      ],
      "name": "eventLocked",
      "type": "event"
    },
    {
      "anonymous": false,
      "inputs": [
        {
          "indexed": false,
          "name": "id",
          "type": "bytes32"
        }
      ],
      "name": "eventUnlocked",
      "type": "event"
    },
    {
      "anonymous": false,
      "inputs": [
        {
          "indexed": false,
          "name": "id",
          "type": "bytes32"
        }
      ],
      "name": "newChannel",
      "type": "event"
    },
    {
      "anonymous": false,
      "inputs": [
        {
          "indexed": false,
          "name": "id",
          "type": "bytes32"
        },
        {
          "indexed": false,
          "name": "newStage",
          "type": "uint8"
        }
      ],
      "name": "movePerformed",
      "type": "event"
    },
    {
      "constant": false,
      "inputs": [
        {
          "name": "_id",
          "type": "bytes32"
        },
        {
          "name": "_encodedState",
          "type": "bytes"
        }
      ],
      "name": "unlock",
      "outputs": [],
      "payable": false,
      "stateMutability": "nonpayable",
      "type": "function"
    },
    {
      "constant": false,
      "inputs": [
        {
          "name": "_id",
          "type": "bytes32"
        },
        {
          "name": "_stage",
          "type": "uint8"
        },
        {
          "name": "_signatures",
          "type": "bytes"
        }
      ],
      "name": "fastClose",
      "outputs": [],
      "payable": false,
      "stateMutability": "nonpayable",
      "type": "function"
    },
    {
      "constant": true,
      "inputs": [
        {
          "name": "_id",
          "type": "bytes32"
        }
      ],
      "name": "getInstance",
      "outputs": [
        {
          "components": [
            {
              "name": "status",
              "type": "uint8"
            },
            {
              "name": "funding",
              "type": "uint256"
            },
            {
              "name": "parties",
              "type": "address[]"
            }
          ],
          "name": "",
          "type": "tuple"
        },
        {
          "components": [
            {
              "name": "hashedWord",
              "type": "bytes32"
            },
            {
              "name": "guessed",
              "type": "bool[26]"
            },
            {
              "name": "word",
              "type": "bytes"
            },
            {
              "name": "currentGuess",
              "type": "uint8"
            },
            {
              "name": "wordLength",
              "type": "uint256"
            },
            {
              "name": "missingLetters",
              "type": "uint256"
            },
            {
              "name": "tries",
              "type": "uint256"
            },
            {
              "name": "stage",
              "type": "uint8"
            },
            {
              "name": "challenged",
              "type": "uint256"
            }
          ],
          "name": "",
          "type": "tuple"
        }
      ],
      "payable": false,
      "stateMutability": "view",
      "type": "function"
    }
  ],
  "bytecode": "0x608060405260006005553480156200001657600080fd5b506040516200402b3803806200402b83398181016040526200003c9190810190620000d0565b83838382600081905550816001819055508060028190555050505080600660006101000a81548173ffffffffffffffffffffffffffffffffffffffff021916908373ffffffffffffffffffffffffffffffffffffffff16021790555050505050620001ae565b600081519050620000b3816200017a565b92915050565b600081519050620000ca8162000194565b92915050565b60008060008060808587031215620000e757600080fd5b6000620000f787828801620000b9565b94505060206200010a87828801620000b9565b93505060406200011d87828801620000b9565b92505060606200013087828801620000a2565b91505092959194509250565b6000620001498262000150565b9050919050565b600073ffffffffffffffffffffffffffffffffffffffff82169050919050565b6000819050919050565b62000185816200013c565b81146200019157600080fd5b50565b6200019f8162000170565b8114620001ab57600080fd5b50565b613e6d80620001be6000396000f3fe6080604052600436106100a75760003560e01c8063624a23e011610064578063624a23e01461019557806368b3823e146101d35780637974e77f146101fc578063cffd46dc14610225578063ed38c63e1461024e578063ee1818f214610277576100a7565b80632d0dd261146100ac5780633452c29c146100d557806339c79e0c146100f157806346b1fa0f1461011a5780634d900f0d146101435780635fc7e1331461016c575b600080fd5b3480156100b857600080fd5b506100d360048036036100ce9190810190612f24565b6102a0565b005b6100ef60048036036100ea9190810190612f4d565b6104ec565b005b3480156100fd57600080fd5b5061011860048036036101139190810190612f24565b6107d6565b005b34801561012657600080fd5b50610141600480360361013c9190810190612fa5565b610850565b005b34801561014f57600080fd5b5061016a60048036036101659190810190613177565b610cc9565b005b34801561017857600080fd5b50610193600480360361018e91908101906130b8565b610eba565b005b3480156101a157600080fd5b506101bc60048036036101b79190810190612f24565b611159565b6040516101ca9291906139e4565b60405180910390f35b3480156101df57600080fd5b506101fa60048036036101f59190810190612f24565b611402565b005b34801561020857600080fd5b50610223600480360361021e9190810190613110565b6116d0565b005b34801561023157600080fd5b5061024c60048036036102479190810190612f24565b611875565b005b34801561025a57600080fd5b5061027560048036036102709190810190613069565b611af2565b005b34801561028357600080fd5b5061029e60048036036102999190810190612ffd565b611d0a565b005b600460008281526020019081526020016000206002016000815481106102c257fe5b9060005260206000200160009054906101000a900473ffffffffffffffffffffffffffffffffffffffff168073ffffffffffffffffffffffffffffffffffffffff163373ffffffffffffffffffffffffffffffffffffffff161461032557600080fd5b81600280600581111561033457fe5b6003600084815260200190815260200160002060070160009054906101000a900460ff16600581111561036357fe5b1461036d57600080fd5b83600380600481111561037c57fe5b6004600084815260200190815260200160002060000160009054906101000a900460ff1660048111156103ab57fe5b146103b557600080fd5b6001600360008881526020019081526020016000206001016041600360008a815260200190815260200160002060030160009054906101000a900460ff160360ff16601a811061040157fe5b602091828204019190066101000a81548160ff0219169083151502179055506003600087815260200190815260200160002060060160008154809291906001019190505550600054600360008881526020019081526020016000206006015414156104a257600380600088815260200190815260200160002060070160006101000a81548160ff0219169083600581111561049857fe5b02179055506104db565b60016003600088815260200190815260200160002060070160006101000a81548160ff021916908360058111156104d557fe5b02179055505b6104e48661210a565b505050505050565b60008333348585604051602001610507959493929190613866565b6040516020818303038152906040528051906020012090506000600481111561052c57fe5b6004600083815260200190815260200160002060000160009054906101000a900460ff16600481111561055b57fe5b14801561056c575060028383905010155b61057557600080fd5b60015434101561058457600080fd5b61058c6126aa565b6040518060600160405280600160048111156105a457fe5b8152602001348152602001858580806020026020016040519081016040528093929190818152602001838360200280828437600081840152601f19601f820116905080830192505050505050508152506004600084815260200190815260200160002060008201518160000160006101000a81548160ff0219169083600481111561062b57fe5b02179055506020820151816001015560408201518160020190805190602001906106569291906126cd565b509050506040518061012001604052806000801b815260200182815260200160405180604001604052806001815260200160008152508152602001600060ff168152602001600081526020016000815260200160008152602001600060058111156106bd57fe5b81526020016000815250600360008481526020019081526020016000206000820151816000015560208201518160010190601a6106fb929190612757565b5060408201518160020190805190602001906107189291906127f0565b5060608201518160030160006101000a81548160ff021916908360ff1602179055506080820151816004015560a0820151816005015560c0820151816006015560e08201518160070160006101000a81548160ff0219169083600581111561077c57fe5b0217905550610100820151816008015590505061079882612185565b7f02f9de3174ba1908545e7eaf47a7106ea2a5a3e73ec257d673c8dbdacc8b555d826040516107c7919061384b565b60405180910390a15050505050565b8060038060048111156107e557fe5b6004600084815260200190815260200160002060000160009054906101000a900460ff16600481111561081457fe5b1461081e57600080fd5b61084b836003600086815260200190815260200160002060070160009054906101000a900460ff1661222c565b505050565b6004600084815260200190815260200160002060020160008154811061087257fe5b9060005260206000200160009054906101000a900473ffffffffffffffffffffffffffffffffffffffff168073ffffffffffffffffffffffffffffffffffffffff163373ffffffffffffffffffffffffffffffffffffffff16146108d557600080fd5b8360028060058111156108e457fe5b6003600084815260200190815260200160002060070160009054906101000a900460ff16600581111561091357fe5b1461091d57600080fd5b85600380600481111561092c57fe5b6004600084815260200190815260200160002060000160009054906101000a900460ff16600481111561095b57fe5b1461096557600080fd5b6000878790501161097557600080fd5b60008090505b87879050811015610b7e57600360008a8152602001908152602001600020600401548888838181106109a957fe5b90506020020160206109be9190810190613243565b60ff16101580610a8a57506000600360008b81526020019081526020016000206002018989848181106109ed57fe5b9050602002016020610a029190810190613243565b60ff16815460018160011615610100020316600290048110610a2057fe5b815460011615610a3f5790600052602060002090602091828204019190065b9054901a7f0100000000000000000000000000000000000000000000000000000000000000027effffffffffffffffffffffffffffffffffffffffffffffffffffffffffffff191614155b15610a9e57610a988961210a565b50610cbf565b600360008a815260200190815260200160002060030160009054906101000a900460ff1660f81b600360008b8152602001908152602001600020600201898984818110610ae757fe5b9050602002016020610afc9190810190613243565b60ff16815460018160011615610100020316600290048110610b1a57fe5b815460011615610b395790600052602060002090602091828204019190065b601f036101000a81548160ff021916907f010000000000000000000000000000000000000000000000000000000000000084040217905550808060010191505061097b565b5086869050600360008a81526020019081526020016000206005015403600360008a8152602001908152602001600020600501819055506001600360008a81526020019081526020016000206001016041600360008c815260200190815260200160002060030160009054906101000a900460ff160360ff16601a8110610c0157fe5b602091828204019190066101000a81548160ff0219169083151502179055506001600360008a8152602001908152602001600020600501541015610c7c576005600360008a815260200190815260200160002060070160006101000a81548160ff02191690836005811115610c7257fe5b0217905550610cb5565b6001600360008a815260200190815260200160002060070160006101000a81548160ff02191690836005811115610caf57fe5b02179055505b610cbe8861210a565b5b5050505050505050565b60046000838152602001908152602001600020600201600181548110610ceb57fe5b9060005260206000200160009054906101000a900473ffffffffffffffffffffffffffffffffffffffff168073ffffffffffffffffffffffffffffffffffffffff163373ffffffffffffffffffffffffffffffffffffffff1614610d4e57600080fd5b826001806005811115610d5d57fe5b6003600084815260200190815260200160002060070160009054906101000a900460ff166005811115610d8c57fe5b14610d9657600080fd5b846003806004811115610da557fe5b6004600084815260200190815260200160002060000160009054906101000a900460ff166004811115610dd457fe5b14610dde57600080fd5b6000604187039050601a8160ff1610610df657600080fd5b60001515600360008a81526020019081526020016000206001018260ff16601a8110610e1e57fe5b602091828204019190069054906101000a900460ff16151514610e4057600080fd5b86600360008a815260200190815260200160002060030160006101000a81548160ff021916908360ff1602179055506002600360008a815260200190815260200160002060070160006101000a81548160ff02191690836005811115610ea257fe5b0217905550610eb08861210a565b5050505050505050565b826001806004811115610ec957fe5b6004600084815260200190815260200160002060000160009054906101000a900460ff166004811115610ef857fe5b14610f0257600080fd5b600080600660009054906101000a900473ffffffffffffffffffffffffffffffffffffffff1673ffffffffffffffffffffffffffffffffffffffff1663d2966c143089604051602001610f569291906137eb565b604051602081830303815290604052805190602001206040518263ffffffff1660e01b8152600401610f88919061384b565b60606040518083038186803b158015610fa057600080fd5b505afa158015610fb4573d6000803e3d6000fd5b505050506040513d601f19601f82011682018060405250610fd891908101906131f4565b925092505080610fe757600080fd5b8585604051610ff79291906137aa565b6040518091039020821461100a57600080fd5b858561101991908101906131b3565b600360008981526020019081526020016000206000820151816000015560208201518160010190601a61104d929190612757565b50604082015181600201908051906020019061106a9291906127f0565b5060608201518160030160006101000a81548160ff021916908360ff1602179055506080820151816004015560a0820151816005015560c0820151816006015560e08201518160070160006101000a81548160ff021916908360058111156110ce57fe5b0217905550610100820151816008015590505060036004600089815260200190815260200160002060000160006101000a81548160ff0219169083600481111561111457fe5b02179055507f0301abeeae0ccf66d5373e3c755632aa254260b0d13b579b27fb74de484d2d6587604051611148919061384b565b60405180910390a150505050505050565b611161612870565b61116961289c565b6004600084815260200190815260200160002060036000858152602001908152602001600020816040518060600160405290816000820160009054906101000a900460ff1660048111156111b957fe5b60048111156111c457fe5b8152602001600182015481526020016002820180548060200260200160405190810160405280929190818152602001828054801561125757602002820191906000526020600020905b8160009054906101000a900473ffffffffffffffffffffffffffffffffffffffff1673ffffffffffffffffffffffffffffffffffffffff168152602001906001019080831161120d575b505050505081525050915080604051806101200160405290816000820154815260200160018201601a806020026040519081016040528092919082601a80156112da576020028201916000905b82829054906101000a900460ff161515815260200190600101906020826000010492830192600103820291508084116112a45790505b50505050508152602001600282018054600181600116156101000203166002900480601f01602080910402602001604051908101604052809291908181526020018280546001816001161561010002031660029004801561137c5780601f106113515761010080835404028352916020019161137c565b820191906000526020600020905b81548152906001019060200180831161135f57829003601f168201915b505050505081526020016003820160009054906101000a900460ff1660ff1660ff1681526020016004820154815260200160058201548152602001600682015481526020016007820160009054906101000a900460ff1660058111156113de57fe5b60058111156113e957fe5b8152602001600882015481525050905091509150915091565b80600380600481111561141157fe5b6004600084815260200190815260200160002060000160009054906101000a900460ff16600481111561144057fe5b1461144a57600080fd5b426003600085815260200190815260200160002060080154111561146d57600080fd5b6004600581111561147a57fe5b6003600085815260200190815260200160002060070160009054906101000a900460ff1660058111156114a957fe5b141580156114f057506005808111156114be57fe5b6003600085815260200190815260200160002060070160009054906101000a900460ff1660058111156114ed57fe5b14155b6114f957600080fd5b6004600084815260200190815260200160002060020160008154811061151b57fe5b9060005260206000200160009054906101000a900473ffffffffffffffffffffffffffffffffffffffff1673ffffffffffffffffffffffffffffffffffffffff163373ffffffffffffffffffffffffffffffffffffffff1614806115f657506004600084815260200190815260200160002060020160018154811061159c57fe5b9060005260206000200160009054906101000a900473ffffffffffffffffffffffffffffffffffffffff1673ffffffffffffffffffffffffffffffffffffffff163373ffffffffffffffffffffffffffffffffffffffff16145b6115ff57600080fd5b6001600581111561160c57fe5b6003600085815260200190815260200160002060070160009054906101000a900460ff16600581111561163b57fe5b1415611684576004600581111561164e57fe5b6003600085815260200190815260200160002060070160009054906101000a900460ff16600581111561167d57fe5b50506116c2565b60058081111561169057fe5b6003600085815260200190815260200160002060070160009054906101000a900460ff1660058111156116bf57fe5b50505b6116cb8361210a565b505050565b600160048111156116dd57fe5b6004600085815260200190815260200160002060000160009054906101000a900460ff16600481111561170c57fe5b148061175157506003600481111561172057fe5b6004600085815260200190815260200160002060000160009054906101000a900460ff16600481111561174f57fe5b145b8061179557506002600481111561176457fe5b6004600085815260200190815260200160002060000160009054906101000a900460ff16600481111561179357fe5b145b61179e57600080fd5b6118666004600085815260200190815260200160002060020180548060200260200160405190810160405280929190818152602001828054801561183757602002820191906000526020600020905b8160009054906101000a900473ffffffffffffffffffffffffffffffffffffffff1673ffffffffffffffffffffffffffffffffffffffff16815260200190600101908083116117ed575b505050505030858560405160200161185193929190613814565b60405160208183030381529060405283612473565b611870838361222c565b505050565b80600380600481111561188457fe5b6004600084815260200190815260200160002060000160009054906101000a900460ff1660048111156118b357fe5b146118bd57600080fd5b60006003600085815260200190815260200160002060080154146118e057600080fd5b600460058111156118ed57fe5b6003600085815260200190815260200160002060070160009054906101000a900460ff16600581111561191c57fe5b14158015611963575060058081111561193157fe5b6003600085815260200190815260200160002060070160009054906101000a900460ff16600581111561196057fe5b14155b61196c57600080fd5b6004600084815260200190815260200160002060020160008154811061198e57fe5b9060005260206000200160009054906101000a900473ffffffffffffffffffffffffffffffffffffffff1673ffffffffffffffffffffffffffffffffffffffff163373ffffffffffffffffffffffffffffffffffffffff161480611a69575060046000848152602001908152602001600020600201600181548110611a0f57fe5b9060005260206000200160009054906101000a900473ffffffffffffffffffffffffffffffffffffffff1673ffffffffffffffffffffffffffffffffffffffff163373ffffffffffffffffffffffffffffffffffffffff16145b611a7257600080fd5b600254420160036000858152602001908152602001600020600801819055507f611949c64c66225766b6e6d1154d802a31872f5d8e94bdcac954806b8376fbb9836003600086815260200190815260200160002060070160009054906101000a900460ff16604051611ae5929190613916565b60405180910390a1505050565b60046000848152602001908152602001600020600201600081548110611b1457fe5b9060005260206000200160009054906101000a900473ffffffffffffffffffffffffffffffffffffffff168073ffffffffffffffffffffffffffffffffffffffff163373ffffffffffffffffffffffffffffffffffffffff1614611b7757600080fd5b836000806005811115611b8657fe5b6003600084815260200190815260200160002060070160009054906101000a900460ff166005811115611bb557fe5b14611bbf57600080fd5b856003806004811115611bce57fe5b6004600084815260200190815260200160002060000160009054906101000a900460ff166004811115611bfd57fe5b14611c0757600080fd5b86600360008a8152602001908152602001600020600001819055508560ff16600360008a8152602001908152602001600020600401819055506001600360008a815260200190815260200160002060070160006101000a81548160ff02191690836005811115611c7357fe5b02179055508560ff16600360008a8152602001908152602001600020600501819055508560ff166040519080825280601f01601f191660200182016040528015611ccc5781602001600182028038833980820191505090505b50600360008a81526020019081526020016000206002019080519060200190611cf69291906128ff565b50611d008861210a565b5050505050505050565b60046000858152602001908152602001600020600201600081548110611d2c57fe5b9060005260206000200160009054906101000a900473ffffffffffffffffffffffffffffffffffffffff168073ffffffffffffffffffffffffffffffffffffffff163373ffffffffffffffffffffffffffffffffffffffff1614611d8f57600080fd5b846003806005811115611d9e57fe5b6003600084815260200190815260200160002060070160009054906101000a900460ff166005811115611dcd57fe5b14611dd757600080fd5b866003806004811115611de657fe5b6004600084815260200190815260200160002060000160009054906101000a900460ff166004811115611e1557fe5b14611e1f57600080fd5b60036005811115611e2c57fe5b600360008b815260200190815260200160002060070160009054906101000a900460ff166005811115611e5b57fe5b14611e6557600080fd5b600360008a8152602001908152602001600020600401548787905014611e8a57600080fd5b60008090505b600360008b81526020019081526020016000206004015481101561203757878782818110611eba57fe5b9050013560f81c60f81b7effffffffffffffffffffffffffffffffffffffffffffffffffffffffffffff1916600360008c815260200190815260200160002060020182815460018160011615610100020316600290048110611f1857fe5b815460011615611f375790600052602060002090602091828204019190065b9054901a7f0100000000000000000000000000000000000000000000000000000000000000027effffffffffffffffffffffffffffffffffffffffffffffffffffffffffffff191614158015611fde5750600360008b81526020019081526020016000206001016041898984818110611fac57fe5b9050013560f81c60f81b60f81c0360ff16601a8110611fc757fe5b602091828204019190069054906101000a900460ff165b1561202a576005600360008c815260200190815260200160002060070160006101000a81548160ff0219169083600581111561201657fe5b02179055506120248a61210a565b506120ff565b8080600101915050611e90565b50600360008a815260200190815260200160002060000154888888604051602001612064939291906138e4565b60405160208183030381529060405280519060200120146120bc576005600360008b815260200190815260200160002060070160006101000a81548160ff021916908360058111156120b257fe5b02179055506120f5565b6004600360008b815260200190815260200160002060070160006101000a81548160ff021916908360058111156120ef57fe5b02179055505b6120fe8961210a565b5b505050505050505050565b600060036000838152602001908152602001600020600801819055507f611949c64c66225766b6e6d1154d802a31872f5d8e94bdcac954806b8376fbb9816003600084815260200190815260200160002060070160009054906101000a900460ff1660405161217a929190613916565b60405180910390a150565b600660009054906101000a900473ffffffffffffffffffffffffffffffffffffffff1673ffffffffffffffffffffffffffffffffffffffff166348c2c21282600460008581526020019081526020016000206002016040518363ffffffff1660e01b81526004016121f79291906138b4565b600060405180830381600087803b15801561221157600080fd5b505af1158015612225573d6000803e3d6000fd5b5050505050565b6004600581111561223957fe5b81600581111561224557fe5b1415612330576004600083815260200190815260200160002060020160008154811061226d57fe5b9060005260206000200160009054906101000a900473ffffffffffffffffffffffffffffffffffffffff1673ffffffffffffffffffffffffffffffffffffffff166108fc60046000858152602001908152602001600020600101549081150290604051600060405180830381858888f193505050501580156122f3573d6000803e3d6000fd5b50600480600084815260200190815260200160002060000160006101000a81548160ff0219169083600481111561232657fe5b021790555061246f565b60058081111561233c57fe5b81600581111561234857fe5b1415612433576004600083815260200190815260200160002060020160018154811061237057fe5b9060005260206000200160009054906101000a900473ffffffffffffffffffffffffffffffffffffffff1673ffffffffffffffffffffffffffffffffffffffff166108fc60046000858152602001908152602001600020600101549081150290604051600060405180830381858888f193505050501580156123f6573d6000803e3d6000fd5b50600480600084815260200190815260200160002060000160006101000a81548160ff0219169083600481111561242957fe5b021790555061246e565b6040517f08c379a0000000000000000000000000000000000000000000000000000000008152600401612465906139a4565b60405180910390fd5b5b5050565b612486836124808461248b565b836124a4565b505050565b600061249d8280519060200120612637565b9050919050565b6060818060200190516124ba9190810190612ee3565b90508351815114612500576040517f08c379a00000000000000000000000000000000000000000000000000000000081526004016124f7906139c4565b60405180910390fd5b60008090505b84518110156126305760018483838151811061251e57fe5b60200260200101516000015184848151811061253657fe5b60200260200101516020015185858151811061254e57fe5b60200260200101516040015160405160008152602001604052604051612577949392919061393f565b6020604051602081039080840390855afa158015612599573d6000803e3d6000fd5b5050506020604051035173ffffffffffffffffffffffffffffffffffffffff168582815181106125c557fe5b602002602001015173ffffffffffffffffffffffffffffffffffffffff1614612623576040517f08c379a000000000000000000000000000000000000000000000000000000000815260040161261a90613984565b60405180910390fd5b8080600101915050612506565b5050505050565b600060606040518060400160405280601c81526020017f19457468657265756d205369676e6564204d6573736167653a0a3332000000008152509050600081846040516020016126889291906137c3565b6040516020818303038152906040528051906020012090508092505050919050565b604051806103400160405280601a90602082028038833980820191505090505090565b828054828255906000526020600020908101928215612746579160200282015b828111156127455782518260006101000a81548173ffffffffffffffffffffffffffffffffffffffff021916908373ffffffffffffffffffffffffffffffffffffffff160217905550916020019190600101906126ed565b5b509050612753919061297f565b5090565b82601a601f016020900481019282156127df5791602002820160005b838211156127b057835183826101000a81548160ff0219169083151502179055509260200192600101602081600001049283019260010302612773565b80156127dd5782816101000a81549060ff02191690556001016020816000010492830192600103026127b0565b505b5090506127ec91906129c2565b5090565b828054600181600116156101000203166002900490600052602060002090601f016020900481019282601f1061283157805160ff191683800117855561285f565b8280016001018555821561285f579182015b8281111561285e578251825591602001919060010190612843565b5b50905061286c91906129f2565b5090565b60405180606001604052806000600481111561288857fe5b815260200160008152602001606081525090565b604051806104400160405280600080191681526020016128ba612a17565b815260200160608152602001600060ff168152602001600081526020016000815260200160008152602001600060058111156128f257fe5b8152602001600081525090565b828054600181600116156101000203166002900490600052602060002090601f016020900481019282601f1061294057805160ff191683800117855561296e565b8280016001018555821561296e579182015b8281111561296d578251825591602001919060010190612952565b5b50905061297b91906129f2565b5090565b6129bf91905b808211156129bb57600081816101000a81549073ffffffffffffffffffffffffffffffffffffffff021916905550600101612985565b5090565b90565b6129ef91905b808211156129eb57600081816101000a81549060ff0219169055506001016129c8565b5090565b90565b612a1491905b80821115612a105760008160009055506001016129f8565b5090565b90565b604051806103400160405280601a90602082028038833980820191505090505090565b600081359050612a4981613da7565b92915050565b60008083601f840112612a6157600080fd5b8235905067ffffffffffffffff811115612a7a57600080fd5b602083019150836020820283011115612a9257600080fd5b9250929050565b600082601f830112612aaa57600080fd5b601a612abd612ab882613a48565b613a1b565b91508183856020840282011115612ad357600080fd5b60005b83811015612b035781612ae98882612bda565b845260208401935060208301925050600181019050612ad6565b5050505092915050565b600082601f830112612b1e57600080fd5b8151612b31612b2c82613a6a565b613a1b565b91508181835260208401935060208101905083856060840282011115612b5657600080fd5b60005b83811015612b865781612b6c8882612e2f565b845260208401935060608301925050600181019050612b59565b5050505092915050565b60008083601f840112612ba257600080fd5b8235905067ffffffffffffffff811115612bbb57600080fd5b602083019150836020820283011115612bd357600080fd5b9250929050565b600081359050612be981613dbe565b92915050565b600081519050612bfe81613dbe565b92915050565b600081359050612c1381613dd5565b92915050565b600081519050612c2881613dd5565b92915050565b60008083601f840112612c4057600080fd5b8235905067ffffffffffffffff811115612c5957600080fd5b602083019150836001820283011115612c7157600080fd5b9250929050565b600082601f830112612c8957600080fd5b8135612c9c612c9782613a92565b613a1b565b91508082526020830160208301858383011115612cb857600080fd5b612cc3838284613cf6565b50505092915050565b600082601f830112612cdd57600080fd5b8135612cf0612ceb82613abe565b613a1b565b91508082526020830160208301858383011115612d0c57600080fd5b612d17838284613cf6565b50505092915050565b600081359050612d2f81613dec565b92915050565b60006104408284031215612d4857600080fd5b612d53610120613a1b565b90506000612d6384828501612c04565b6000830152506020612d7784828501612a99565b60208301525061036082013567ffffffffffffffff811115612d9857600080fd5b612da484828501612c78565b604083015250610380612db984828501612eb9565b6060830152506103a0612dce84828501612e8f565b6080830152506103c0612de384828501612e8f565b60a0830152506103e0612df884828501612e8f565b60c083015250610400612e0d84828501612d20565b60e083015250610420612e2284828501612e8f565b6101008301525092915050565b600060608284031215612e4157600080fd5b612e4b6060613a1b565b90506000612e5b84828501612ece565b6000830152506020612e6f84828501612c19565b6020830152506040612e8384828501612c19565b60408301525092915050565b600081359050612e9e81613dfc565b92915050565b600081519050612eb381613dfc565b92915050565b600081359050612ec881613e13565b92915050565b600081519050612edd81613e13565b92915050565b600060208284031215612ef557600080fd5b600082015167ffffffffffffffff811115612f0f57600080fd5b612f1b84828501612b0d565b91505092915050565b600060208284031215612f3657600080fd5b6000612f4484828501612c04565b91505092915050565b600080600060408486031215612f6257600080fd5b6000612f7086828701612c04565b935050602084013567ffffffffffffffff811115612f8d57600080fd5b612f9986828701612a4f565b92509250509250925092565b600080600060408486031215612fba57600080fd5b6000612fc886828701612c04565b935050602084013567ffffffffffffffff811115612fe557600080fd5b612ff186828701612b90565b92509250509250925092565b6000806000806060858703121561301357600080fd5b600061302187828801612c04565b945050602061303287828801612c04565b935050604085013567ffffffffffffffff81111561304f57600080fd5b61305b87828801612c2e565b925092505092959194509250565b60008060006060848603121561307e57600080fd5b600061308c86828701612c04565b935050602061309d86828701612c04565b92505060406130ae86828701612eb9565b9150509250925092565b6000806000604084860312156130cd57600080fd5b60006130db86828701612c04565b935050602084013567ffffffffffffffff8111156130f857600080fd5b61310486828701612c2e565b92509250509250925092565b60008060006060848603121561312557600080fd5b600061313386828701612c04565b935050602061314486828701612d20565b925050604084013567ffffffffffffffff81111561316157600080fd5b61316d86828701612ccc565b9150509250925092565b6000806040838503121561318a57600080fd5b600061319885828601612c04565b92505060206131a985828601612eb9565b9150509250929050565b6000602082840312156131c557600080fd5b600082013567ffffffffffffffff8111156131df57600080fd5b6131eb84828501612d35565b91505092915050565b60008060006060848603121561320957600080fd5b600061321786828701612ea4565b935050602061322886828701612c19565b925050604061323986828701612bef565b9150509250925092565b60006020828403121561325557600080fd5b600061326384828501612eb9565b91505092915050565b600061327883836132ab565b60208301905092915050565b60006132908383613440565b60208301905092915050565b6132a581613c4d565b82525050565b6132b481613c3b565b82525050565b6132c381613c3b565b82525050565b60006132d58385613b9f565b93506132e082613aea565b8060005b85811015613319576132f68284613c04565b613300888261326c565b975061330b83613b5a565b9250506001810190506132e4565b5085925050509392505050565b600061333182613b23565b61333b8185613b8e565b935061334683613af4565b8060005b8381101561337757815161335e888261326c565b975061336983613b67565b92505060018101905061334a565b5085935050505092915050565b600061338f82613b2e565b6133998185613b9f565b93506133a483613b04565b8060005b838110156133dc576133b982613d5c565b6133c3888261326c565b97506133ce83613b74565b9250506001810190506133a8565b5085935050505092915050565b6133f281613b39565b6133fc8184613bb0565b925061340782613b19565b8060005b8381101561343857815161341f8782613284565b965061342a83613b81565b92505060018101905061340b565b505050505050565b61344981613c5f565b82525050565b61345881613c6b565b82525050565b61346781613c6b565b82525050565b61347e61347982613c6b565b613d52565b82525050565b60006134908385613bcc565b935061349d838584613cf6565b6134a683613d6f565b840190509392505050565b60006134bd8385613bdd565b93506134ca838584613cf6565b82840190509392505050565b60006134e182613b44565b6134eb8185613bbb565b93506134fb818560208601613d05565b61350481613d6f565b840191505092915050565b61351881613cd2565b82525050565b61352781613ce4565b82525050565b61353681613ce4565b82525050565b600061354782613b4f565b6135518185613bf9565b9350613561818560208601613d05565b80840191505092915050565b600061357a600f83613be8565b91507f57726f6e67207369676e617475726500000000000000000000000000000000006000830152602082019050919050565b60006135ba601183613be8565b91507f4e6f207465726d696e616c2073746174650000000000000000000000000000006000830152602082019050919050565b60006135fa602b83613be8565b91507f546865726520617265206c6573732f6d6f7265207369676e617475726573207460008301527f68656e20706172746965730000000000000000000000000000000000000000006020830152604082019050919050565b60006104408301600083015161366c600086018261344f565b50602083015161367f60208601826133e9565b50604083015184820361036086015261369882826134d6565b91505060608301516136ae61038086018261378c565b5060808301516136c26103a086018261376e565b5060a08301516136d66103c086018261376e565b5060c08301516136ea6103e086018261376e565b5060e08301516136fe61040086018261351e565b5061010083015161371361042086018261376e565b508091505092915050565b6000606083016000830151613736600086018261350f565b506020830151613749602086018261376e565b50604083015184820360408601526137618282613326565b9150508091505092915050565b61377781613cbb565b82525050565b61378681613cbb565b82525050565b61379581613cc5565b82525050565b6137a481613cc5565b82525050565b60006137b78284866134b1565b91508190509392505050565b60006137cf828561353c565b91506137db828461346d565b6020820191508190509392505050565b600060408201905061380060008301856132ba565b61380d602083018461345e565b9392505050565b600060608201905061382960008301866132ba565b613836602083018561345e565b613843604083018461352d565b949350505050565b6000602082019050613860600083018461345e565b92915050565b600060808201905061387b600083018861345e565b613888602083018761329c565b613895604083018661377d565b81810360608301526138a88184866132c9565b90509695505050505050565b60006040820190506138c9600083018561345e565b81810360208301526138db8184613384565b90509392505050565b60006040820190506138f9600083018661345e565b818103602083015261390c818486613484565b9050949350505050565b600060408201905061392b600083018561345e565b613938602083018461352d565b9392505050565b6000608082019050613954600083018761345e565b613961602083018661379b565b61396e604083018561345e565b61397b606083018461345e565b95945050505050565b6000602082019050818103600083015261399d8161356d565b9050919050565b600060208201905081810360008301526139bd816135ad565b9050919050565b600060208201905081810360008301526139dd816135ed565b9050919050565b600060408201905081810360008301526139fe818561371e565b90508181036020830152613a128184613653565b90509392505050565b6000604051905081810181811067ffffffffffffffff82111715613a3e57600080fd5b8060405250919050565b600067ffffffffffffffff821115613a5f57600080fd5b602082029050919050565b600067ffffffffffffffff821115613a8157600080fd5b602082029050602081019050919050565b600067ffffffffffffffff821115613aa957600080fd5b601f19601f8301169050602081019050919050565b600067ffffffffffffffff821115613ad557600080fd5b601f19601f8301169050602081019050919050565b6000819050919050565b6000819050602082019050919050565b60008190508160005260206000209050919050565b6000819050919050565b600081519050919050565b600081549050919050565b6000601a9050919050565b600081519050919050565b600081519050919050565b6000602082019050919050565b6000602082019050919050565b6000600182019050919050565b6000602082019050919050565b600082825260208201905092915050565b600082825260208201905092915050565b600081905092915050565b600082825260208201905092915050565b600082825260208201905092915050565b600081905092915050565b600082825260208201905092915050565b600081905092915050565b6000613c136020840184612a3a565b905092915050565b600073ffffffffffffffffffffffffffffffffffffffff82169050919050565b6000613c4682613c9b565b9050919050565b6000613c5882613c9b565b9050919050565b60008115159050919050565b6000819050919050565b6000819050613c8382613d8d565b919050565b6000819050613c9682613d9a565b919050565b600073ffffffffffffffffffffffffffffffffffffffff82169050919050565b6000819050919050565b600060ff82169050919050565b6000613cdd82613c75565b9050919050565b6000613cef82613c88565b9050919050565b82818337600083830152505050565b60005b83811015613d23578082015181840152602081019050613d08565b83811115613d32576000848401525b50505050565b6000613d4b613d4683613d80565b613c1b565b9050919050565b6000819050919050565b6000613d688254613d38565b9050919050565b6000601f19601f8301169050919050565b60008160001c9050919050565b60058110613d9757fe5b50565b60068110613da457fe5b50565b613db081613c3b565b8114613dbb57600080fd5b50565b613dc781613c5f565b8114613dd257600080fd5b50565b613dde81613c6b565b8114613de957600080fd5b50565b60068110613df957600080fd5b50565b613e0581613cbb565b8114613e1057600080fd5b50565b613e1c81613cc5565b8114613e2757600080fd5b5056fea365627a7a72305820a02b4792a10e2876060af44a9f6ac400864f49070b130c07c589fb88e184a3676c6578706572696d656e74616cf564736f6c634300050a0040",
  "source": "pragma solidity 0.5.10;\npragma experimental \"ABIEncoderV2\";\n\nimport \"contracts/hybridArchitecture/HybridDisputeBoard.sol\";\nimport \"contracts/sharedCode/SigVerifier.sol\";\nimport \"contracts/sharedCode/AbstractHangmanSingleton.sol\";\n\n\n//We assume that players only sign / produce states that can occur in a proper execution\n//For example, they do not sign / produce a state in which a player has used all of his ten tries but still is in stage WaitingForGuess\ncontract HybridHangmanSingleton is SigVerifier, AbstractHangmanSingleton{\n    \n    //******************\n    // Variables, enums, structures\n    \n    //constant after initialization\n    HybridDisputeBoard db;\n    \n    //Events\n    event eventLocked(bytes32 id);\n    event eventUnlocked(bytes32 id);\n    \n    //The enus for the channel status ONCHAIN and OFFCHAIN would fit here better to UNLOCKED = ONCHAIN and LOCKED = OFFCHAIN\n    \n    //****************\n    //Constructor\n    constructor(uint _maxTries, uint _minFunding, uint _challengePeriod, address _db) public AbstractHangmanSingleton(_maxTries, _minFunding, _challengePeriod){\n        db = HybridDisputeBoard(_db);\n    }\n    \n    //****************\n    //Channel logic\n    \n    //Function called by the inherrited function \"createInstance\"\n    function setInitialDisputeState(bytes32 _id) internal {\n        db.initializeChannel(_id, instanceState[_id].parties);\n    }\n    \n    //In the off-chain application they sign tuples of (address, lockCount, version, state-hash); the address uniquely identifies the instance, the lockCount is the lockCount used to lock the application, the version starts for each lock with 0 and is incremented with each state update\n    //The state-hash is constructed on the application contract's address and all state variables\n    function unlock(bytes32 _id, bytes calldata _encodedState) external isChannelStatus(_id, ChannelStatus.OFFCHAIN){\n        \n        //Read the current channel's information from the dispute board\n        (,bytes32 _stateHash, bool _unlockable) = db.getChannelInstance(keccak256(abi.encode(address(this), _id)));\n\n        \n        //Check that instance is unlockable\n        require(_unlockable);\n        \n        //Check that the right state has been provided\n        require(_stateHash == keccak256(_encodedState));\n        \n        //Update state\n        applicationState[_id] = abi.decode(_encodedState,(ApplicationVariables));\n        \n        //Unlock the instance, icrement the lockcount to prevent replays and notify users\n        instanceState[_id].status = ChannelStatus.ONCHAIN;\n        emit eventUnlocked(_id);\n    }\n    \n    //Function to close without a dispute: As this contact has no default funtionality to handle signed states we simply sign the address and the final stage / not state (dispute board handles signed hashes and this channel handles signed lock-requests)\n    function fastClose(bytes32 _id, Stage _stage, bytes memory _signatures) public {\n        \n        //Not when closed or not created\n        require(instanceState[_id].status == ChannelStatus.OFFCHAIN || instanceState[_id].status == ChannelStatus.ONCHAIN || instanceState[_id].status == ChannelStatus.DISPUTE);\n        \n        //Check signatures\n        verifySignatures(instanceState[_id].parties, abi.encode(address(this), _id, _stage), _signatures);\n        \n        //call close (checks stage and performs the closure)\n        internalClose(_id, _stage);\n    }\n    \n    //****************\n    //Application logic is inherited\n    \n    //******************\n    // Getter\n    function getInstance(bytes32 _id) external view returns (MaintainanceVariables memory, ApplicationVariables memory){\n        return (instanceState[_id], applicationState[_id]) ;\n    }\n\n}\n",
  "sourcePath": "/media/shared/CAC/Projekte/2019_SC_Workshop_FinCrypto/publicImplementation/truffle/contracts/hybridArchitecture/HybridHangmanSingleton.sol",
  "compiler": {
    "name": "solc",
    "version": "0.5.10+commit.5a6ea5b1.Emscripten.clang"
  },
  "schemaVersion": "3.0.16",
  "updatedAt": "2019-12-13T14:08:35.834Z",
  "devdoc": {
    "methods": {}
  },
  "userdoc": {
    "methods": {}
  }
}