{
  "contractName": "HybridRelockableHangmanSingleton",
  "abi": [
    {
      "constant": false,
      "inputs": [
        {
          "name": "_id",
          "type": "bytes32"
        }
      ],
      "name": "wrong",
      "outputs": [],
      "payable": false,
      "stateMutability": "nonpayable",
      "type": "function"
    },
    {
      "constant": false,
      "inputs": [
        {
          "name": "_nonce",
          "type": "bytes32"
        },
        {
          "name": "_parties",
          "type": "address[]"
        }
      ],
      "name": "createInstance",
      "outputs": [],
      "payable": true,
      "stateMutability": "payable",
      "type": "function"
    },
    {
      "constant": false,
      "inputs": [
        {
          "name": "_id",
          "type": "bytes32"
        }
      ],
      "name": "close",
      "outputs": [],
      "payable": false,
      "stateMutability": "nonpayable",
      "type": "function"
    },
    {
      "constant": false,
      "inputs": [
        {
          "name": "_id",
          "type": "bytes32"
        },
        {
          "name": "_hits",
          "type": "uint8[]"
        }
      ],
      "name": "correct",
      "outputs": [],
      "payable": false,
      "stateMutability": "nonpayable",
      "type": "function"
    },
    {
      "constant": false,
      "inputs": [
        {
          "name": "_id",
          "type": "bytes32"
        },
        {
          "name": "_letter",
          "type": "uint8"
        }
      ],
      "name": "guess",
      "outputs": [],
      "payable": false,
      "stateMutability": "nonpayable",
      "type": "function"
    },
    {
      "constant": false,
      "inputs": [
        {
          "name": "_id",
          "type": "bytes32"
        }
      ],
      "name": "finalizeChallenge",
      "outputs": [],
      "payable": false,
      "stateMutability": "nonpayable",
      "type": "function"
    },
    {
      "constant": false,
      "inputs": [
        {
          "name": "_id",
          "type": "bytes32"
        }
      ],
      "name": "challenge",
      "outputs": [],
      "payable": false,
      "stateMutability": "nonpayable",
      "type": "function"
    },
    {
      "constant": false,
      "inputs": [
        {
          "name": "_id",
          "type": "bytes32"
        },
        {
          "name": "_hashedWord",
          "type": "bytes32"
        },
        {
          "name": "_wordLength",
          "type": "uint8"
        }
      ],
      "name": "commit",
      "outputs": [],
      "payable": false,
      "stateMutability": "nonpayable",
      "type": "function"
    },
    {
      "constant": false,
      "inputs": [
        {
          "name": "_id",
          "type": "bytes32"
        },
        {
          "name": "_nonce",
          "type": "bytes32"
        },
        {
          "name": "_opening",
          "type": "bytes"
        }
      ],
      "name": "open",
      "outputs": [],
      "payable": false,
      "stateMutability": "nonpayable",
      "type": "function"
    },
    {
      "inputs": [
        {
          "name": "_maxTries",
          "type": "uint256"
        },
        {
          "name": "_minFunding",
          "type": "uint256"
        },
        {
          "name": "_challengePeriod",
          "type": "uint256"
        },
        {
          "name": "_db",
          "type": "address"
        }
      ],
      "payable": false,
      "stateMutability": "nonpayable",
      "type": "constructor"
    },
    {
      "anonymous": false,
      "inputs": [
        {
          "indexed": false,
          "name": "id",
          "type": "bytes32"
        }
      ],
      "name": "eventLocked",
      "type": "event"
    },
    {
      "anonymous": false,
      "inputs": [
        {
          "indexed": false,
          "name": "id",
          "type": "bytes32"
        }
      ],
      "name": "eventUnlocked",
      "type": "event"
    },
    {
      "anonymous": false,
      "inputs": [
        {
          "indexed": false,
          "name": "id",
          "type": "bytes32"
        }
      ],
      "name": "newChannel",
      "type": "event"
    },
    {
      "anonymous": false,
      "inputs": [
        {
          "indexed": false,
          "name": "id",
          "type": "bytes32"
        },
        {
          "indexed": false,
          "name": "newStage",
          "type": "uint8"
        }
      ],
      "name": "movePerformed",
      "type": "event"
    },
    {
      "constant": false,
      "inputs": [
        {
          "name": "_id",
          "type": "bytes32"
        },
        {
          "name": "_signatures",
          "type": "bytes"
        }
      ],
      "name": "lock",
      "outputs": [],
      "payable": false,
      "stateMutability": "nonpayable",
      "type": "function"
    },
    {
      "constant": false,
      "inputs": [
        {
          "name": "_id",
          "type": "bytes32"
        },
        {
          "name": "_encodedState",
          "type": "bytes"
        }
      ],
      "name": "unlock",
      "outputs": [],
      "payable": false,
      "stateMutability": "nonpayable",
      "type": "function"
    },
    {
      "constant": false,
      "inputs": [
        {
          "name": "_id",
          "type": "bytes32"
        },
        {
          "name": "_stage",
          "type": "uint8"
        },
        {
          "name": "_signatures",
          "type": "bytes"
        }
      ],
      "name": "fastClose",
      "outputs": [],
      "payable": false,
      "stateMutability": "nonpayable",
      "type": "function"
    },
    {
      "constant": true,
      "inputs": [
        {
          "name": "_id",
          "type": "bytes32"
        }
      ],
      "name": "getInstance",
      "outputs": [
        {
          "components": [
            {
              "name": "status",
              "type": "uint8"
            },
            {
              "name": "funding",
              "type": "uint256"
            },
            {
              "name": "parties",
              "type": "address[]"
            }
          ],
          "name": "",
          "type": "tuple"
        },
        {
          "components": [
            {
              "name": "hashedWord",
              "type": "bytes32"
            },
            {
              "name": "guessed",
              "type": "bool[26]"
            },
            {
              "name": "word",
              "type": "bytes"
            },
            {
              "name": "currentGuess",
              "type": "uint8"
            },
            {
              "name": "wordLength",
              "type": "uint256"
            },
            {
              "name": "missingLetters",
              "type": "uint256"
            },
            {
              "name": "tries",
              "type": "uint256"
            },
            {
              "name": "stage",
              "type": "uint8"
            },
            {
              "name": "challenged",
              "type": "uint256"
            }
          ],
          "name": "",
          "type": "tuple"
        },
        {
          "components": [
            {
              "name": "lockCount",
              "type": "uint256"
            }
          ],
          "name": "",
          "type": "tuple"
        }
      ],
      "payable": false,
      "stateMutability": "view",
      "type": "function"
    }
  ],
  "bytecode": "0x608060405260006005553480156200001657600080fd5b50604051620043f3380380620043f383398181016040526200003c9190810190620000d0565b83838382600081905550816001819055508060028190555050505080600660006101000a81548173ffffffffffffffffffffffffffffffffffffffff021916908373ffffffffffffffffffffffffffffffffffffffff16021790555050505050620001ae565b600081519050620000b3816200017a565b92915050565b600081519050620000ca8162000194565b92915050565b60008060008060808587031215620000e757600080fd5b6000620000f787828801620000b9565b94505060206200010a87828801620000b9565b93505060406200011d87828801620000b9565b92505060606200013087828801620000a2565b91505092959194509250565b6000620001498262000150565b9050919050565b600073ffffffffffffffffffffffffffffffffffffffff82169050919050565b6000819050919050565b62000185816200013c565b81146200019157600080fd5b50565b6200019f8162000170565b8114620001ab57600080fd5b50565b61423580620001be6000396000f3fe6080604052600436106100c25760003560e01c8063624a23e01161007f578063cffd46dc11610059578063cffd46dc14610241578063ea8de7851461026a578063ed38c63e14610293578063ee1818f2146102bc576100c2565b8063624a23e0146101b057806368b3823e146101ef5780637974e77f14610218576100c2565b80632d0dd261146100c75780633452c29c146100f057806339c79e0c1461010c57806346b1fa0f146101355780634d900f0d1461015e5780635fc7e13314610187575b600080fd5b3480156100d357600080fd5b506100ee60048036036100e9919081019061324e565b6102e5565b005b61010a600480360361010591908101906132a0565b610531565b005b34801561011857600080fd5b50610133600480360361012e919081019061324e565b61081b565b005b34801561014157600080fd5b5061015c600480360361015791908101906132f8565b610895565b005b34801561016a57600080fd5b50610185600480360361018091908101906134ca565b610d0e565b005b34801561019357600080fd5b506101ae60048036036101a9919081019061340b565b610eff565b005b3480156101bc57600080fd5b506101d760048036036101d2919081019061324e565b6111eb565b6040516101e693929190613d9e565b60405180910390f35b3480156101fb57600080fd5b506102166004803603610211919081019061324e565b6114cb565b005b34801561022457600080fd5b5061023f600480360361023a9190810190613463565b611799565b005b34801561024d57600080fd5b506102686004803603610263919081019061324e565b61193f565b005b34801561027657600080fd5b50610291600480360361028c919081019061340b565b611bbc565b005b34801561029f57600080fd5b506102ba60048036036102b591908101906133bc565b611db8565b005b3480156102c857600080fd5b506102e360048036036102de9190810190613350565b611fd0565b005b6004600082815260200190815260200160002060020160008154811061030757fe5b9060005260206000200160009054906101000a900473ffffffffffffffffffffffffffffffffffffffff168073ffffffffffffffffffffffffffffffffffffffff163373ffffffffffffffffffffffffffffffffffffffff161461036a57600080fd5b81600280600581111561037957fe5b6003600084815260200190815260200160002060070160009054906101000a900460ff1660058111156103a857fe5b146103b257600080fd5b8360038060048111156103c157fe5b6004600084815260200190815260200160002060000160009054906101000a900460ff1660048111156103f057fe5b146103fa57600080fd5b6001600360008881526020019081526020016000206001016041600360008a815260200190815260200160002060030160009054906101000a900460ff160360ff16601a811061044657fe5b602091828204019190066101000a81548160ff0219169083151502179055506003600087815260200190815260200160002060060160008154809291906001019190505550600054600360008881526020019081526020016000206006015414156104e757600380600088815260200190815260200160002060070160006101000a81548160ff021916908360058111156104dd57fe5b0217905550610520565b60016003600088815260200190815260200160002060070160006101000a81548160ff0219169083600581111561051a57fe5b02179055505b610529866123d0565b505050505050565b6000833334858560405160200161054c959493929190613c20565b6040516020818303038152906040528051906020012090506000600481111561057157fe5b6004600083815260200190815260200160002060000160009054906101000a900460ff1660048111156105a057fe5b1480156105b1575060028383905010155b6105ba57600080fd5b6001543410156105c957600080fd5b6105d16129c1565b6040518060600160405280600160048111156105e957fe5b8152602001348152602001858580806020026020016040519081016040528093929190818152602001838360200280828437600081840152601f19601f820116905080830192505050505050508152506004600084815260200190815260200160002060008201518160000160006101000a81548160ff0219169083600481111561067057fe5b021790555060208201518160010155604082015181600201908051906020019061069b9291906129e4565b509050506040518061012001604052806000801b815260200182815260200160405180604001604052806001815260200160008152508152602001600060ff1681526020016000815260200160008152602001600081526020016000600581111561070257fe5b81526020016000815250600360008481526020019081526020016000206000820151816000015560208201518160010190601a610740929190612a6e565b50604082015181600201908051906020019061075d929190612b07565b5060608201518160030160006101000a81548160ff021916908360ff1602179055506080820151816004015560a0820151816005015560c0820151816006015560e08201518160070160006101000a81548160ff021916908360058111156107c157fe5b021790555061010082015181600801559050506107dd8261244b565b7f02f9de3174ba1908545e7eaf47a7106ea2a5a3e73ec257d673c8dbdacc8b555d8260405161080c9190613c05565b60405180910390a15050505050565b80600380600481111561082a57fe5b6004600084815260200190815260200160002060000160009054906101000a900460ff16600481111561085957fe5b1461086357600080fd5b610890836003600086815260200190815260200160002060070160009054906101000a900460ff16612543565b505050565b600460008481526020019081526020016000206002016000815481106108b757fe5b9060005260206000200160009054906101000a900473ffffffffffffffffffffffffffffffffffffffff168073ffffffffffffffffffffffffffffffffffffffff163373ffffffffffffffffffffffffffffffffffffffff161461091a57600080fd5b83600280600581111561092957fe5b6003600084815260200190815260200160002060070160009054906101000a900460ff16600581111561095857fe5b1461096257600080fd5b85600380600481111561097157fe5b6004600084815260200190815260200160002060000160009054906101000a900460ff1660048111156109a057fe5b146109aa57600080fd5b600087879050116109ba57600080fd5b60008090505b87879050811015610bc357600360008a8152602001908152602001600020600401548888838181106109ee57fe5b9050602002016020610a0391908101906135aa565b60ff16101580610acf57506000600360008b8152602001908152602001600020600201898984818110610a3257fe5b9050602002016020610a4791908101906135aa565b60ff16815460018160011615610100020316600290048110610a6557fe5b815460011615610a845790600052602060002090602091828204019190065b9054901a7f0100000000000000000000000000000000000000000000000000000000000000027effffffffffffffffffffffffffffffffffffffffffffffffffffffffffffff191614155b15610ae357610add896123d0565b50610d04565b600360008a815260200190815260200160002060030160009054906101000a900460ff1660f81b600360008b8152602001908152602001600020600201898984818110610b2c57fe5b9050602002016020610b4191908101906135aa565b60ff16815460018160011615610100020316600290048110610b5f57fe5b815460011615610b7e5790600052602060002090602091828204019190065b601f036101000a81548160ff021916907f01000000000000000000000000000000000000000000000000000000000000008404021790555080806001019150506109c0565b5086869050600360008a81526020019081526020016000206005015403600360008a8152602001908152602001600020600501819055506001600360008a81526020019081526020016000206001016041600360008c815260200190815260200160002060030160009054906101000a900460ff160360ff16601a8110610c4657fe5b602091828204019190066101000a81548160ff0219169083151502179055506001600360008a8152602001908152602001600020600501541015610cc1576005600360008a815260200190815260200160002060070160006101000a81548160ff02191690836005811115610cb757fe5b0217905550610cfa565b6001600360008a815260200190815260200160002060070160006101000a81548160ff02191690836005811115610cf457fe5b02179055505b610d03886123d0565b5b5050505050505050565b60046000838152602001908152602001600020600201600181548110610d3057fe5b9060005260206000200160009054906101000a900473ffffffffffffffffffffffffffffffffffffffff168073ffffffffffffffffffffffffffffffffffffffff163373ffffffffffffffffffffffffffffffffffffffff1614610d9357600080fd5b826001806005811115610da257fe5b6003600084815260200190815260200160002060070160009054906101000a900460ff166005811115610dd157fe5b14610ddb57600080fd5b846003806004811115610dea57fe5b6004600084815260200190815260200160002060000160009054906101000a900460ff166004811115610e1957fe5b14610e2357600080fd5b6000604187039050601a8160ff1610610e3b57600080fd5b60001515600360008a81526020019081526020016000206001018260ff16601a8110610e6357fe5b602091828204019190069054906101000a900460ff16151514610e8557600080fd5b86600360008a815260200190815260200160002060030160006101000a81548160ff021916908360ff1602179055506002600360008a815260200190815260200160002060070160006101000a81548160ff02191690836005811115610ee757fe5b0217905550610ef5886123d0565b5050505050505050565b826001806004811115610f0e57fe5b6004600084815260200190815260200160002060000160009054906101000a900460ff166004811115610f3d57fe5b14610f4757600080fd5b6000806000600660009054906101000a900473ffffffffffffffffffffffffffffffffffffffff1673ffffffffffffffffffffffffffffffffffffffff1663d2966c14308a604051602001610f9d929190613b6e565b604051602081830303815290604052805190602001206040518263ffffffff1660e01b8152600401610fcf9190613c05565b60806040518083038186803b158015610fe757600080fd5b505afa158015610ffb573d6000803e3d6000fd5b505050506040513d601f19601f8201168201806040525061101f9190810190613547565b935093505092506007600089815260200190815260200160002060000154831461104857600080fd5b8061105257600080fd5b8686604051611062929190613b2d565b6040518091039020821461107557600080fd5b86866110849190810190613506565b600360008a81526020019081526020016000206000820151816000015560208201518160010190601a6110b8929190612a6e565b5060408201518160020190805190602001906110d5929190612b07565b5060608201518160030160006101000a81548160ff021916908360ff1602179055506080820151816004015560a0820151816005015560c0820151816006015560e08201518160070160006101000a81548160ff0219169083600581111561113957fe5b021790555061010082015181600801559050506003600460008a815260200190815260200160002060000160006101000a81548160ff0219169083600481111561117f57fe5b021790555060076000898152602001908152602001600020600001600081548092919060010191905055507f0301abeeae0ccf66d5373e3c755632aa254260b0d13b579b27fb74de484d2d65886040516111d99190613c05565b60405180910390a15050505050505050565b6111f3612b87565b6111fb612bb3565b611203612c16565b600460008581526020019081526020016000206003600086815260200190815260200160002060076000878152602001908152602001600020826040518060600160405290816000820160009054906101000a900460ff16600481111561126657fe5b600481111561127157fe5b8152602001600182015481526020016002820180548060200260200160405190810160405280929190818152602001828054801561130457602002820191906000526020600020905b8160009054906101000a900473ffffffffffffffffffffffffffffffffffffffff1673ffffffffffffffffffffffffffffffffffffffff16815260200190600101908083116112ba575b505050505081525050925081604051806101200160405290816000820154815260200160018201601a806020026040519081016040528092919082601a8015611387576020028201916000905b82829054906101000a900460ff161515815260200190600101906020826000010492830192600103820291508084116113515790505b50505050508152602001600282018054600181600116156101000203166002900480601f0160208091040260200160405190810160405280929190818152602001828054600181600116156101000203166002900480156114295780601f106113fe57610100808354040283529160200191611429565b820191906000526020600020905b81548152906001019060200180831161140c57829003601f168201915b505050505081526020016003820160009054906101000a900460ff1660ff1660ff1681526020016004820154815260200160058201548152602001600682015481526020016007820160009054906101000a900460ff16600581111561148b57fe5b600581111561149657fe5b815260200160088201548152505091508060405180602001604052908160008201548152505090509250925092509193909250565b8060038060048111156114da57fe5b6004600084815260200190815260200160002060000160009054906101000a900460ff16600481111561150957fe5b1461151357600080fd5b426003600085815260200190815260200160002060080154111561153657600080fd5b6004600581111561154357fe5b6003600085815260200190815260200160002060070160009054906101000a900460ff16600581111561157257fe5b141580156115b9575060058081111561158757fe5b6003600085815260200190815260200160002060070160009054906101000a900460ff1660058111156115b657fe5b14155b6115c257600080fd5b600460008481526020019081526020016000206002016000815481106115e457fe5b9060005260206000200160009054906101000a900473ffffffffffffffffffffffffffffffffffffffff1673ffffffffffffffffffffffffffffffffffffffff163373ffffffffffffffffffffffffffffffffffffffff1614806116bf57506004600084815260200190815260200160002060020160018154811061166557fe5b9060005260206000200160009054906101000a900473ffffffffffffffffffffffffffffffffffffffff1673ffffffffffffffffffffffffffffffffffffffff163373ffffffffffffffffffffffffffffffffffffffff16145b6116c857600080fd5b600160058111156116d557fe5b6003600085815260200190815260200160002060070160009054906101000a900460ff16600581111561170457fe5b141561174d576004600581111561171757fe5b6003600085815260200190815260200160002060070160009054906101000a900460ff16600581111561174657fe5b505061178b565b60058081111561175957fe5b6003600085815260200190815260200160002060070160009054906101000a900460ff16600581111561178857fe5b50505b611794836123d0565b505050565b600160048111156117a657fe5b6004600085815260200190815260200160002060000160009054906101000a900460ff1660048111156117d557fe5b148061185f5750600360048111156117e957fe5b6004600085815260200190815260200160002060000160009054906101000a900460ff16600481111561181857fe5b14801561185e57506002600481111561182d57fe5b6004600085815260200190815260200160002060000160009054906101000a900460ff16600481111561185c57fe5b145b5b61186857600080fd5b6119306004600085815260200190815260200160002060020180548060200260200160405190810160405280929190818152602001828054801561190157602002820191906000526020600020905b8160009054906101000a900473ffffffffffffffffffffffffffffffffffffffff1673ffffffffffffffffffffffffffffffffffffffff16815260200190600101908083116118b7575b505050505030858560405160200161191b93929190613b97565b6040516020818303038152906040528361278a565b61193a8383612543565b505050565b80600380600481111561194e57fe5b6004600084815260200190815260200160002060000160009054906101000a900460ff16600481111561197d57fe5b1461198757600080fd5b60006003600085815260200190815260200160002060080154146119aa57600080fd5b600460058111156119b757fe5b6003600085815260200190815260200160002060070160009054906101000a900460ff1660058111156119e657fe5b14158015611a2d57506005808111156119fb57fe5b6003600085815260200190815260200160002060070160009054906101000a900460ff166005811115611a2a57fe5b14155b611a3657600080fd5b60046000848152602001908152602001600020600201600081548110611a5857fe5b9060005260206000200160009054906101000a900473ffffffffffffffffffffffffffffffffffffffff1673ffffffffffffffffffffffffffffffffffffffff163373ffffffffffffffffffffffffffffffffffffffff161480611b33575060046000848152602001908152602001600020600201600181548110611ad957fe5b9060005260206000200160009054906101000a900473ffffffffffffffffffffffffffffffffffffffff1673ffffffffffffffffffffffffffffffffffffffff163373ffffffffffffffffffffffffffffffffffffffff16145b611b3c57600080fd5b600254420160036000858152602001908152602001600020600801819055507f611949c64c66225766b6e6d1154d802a31872f5d8e94bdcac954806b8376fbb9836003600086815260200190815260200160002060070160009054906101000a900460ff16604051611baf929190613cd0565b60405180910390a1505050565b826003806004811115611bcb57fe5b6004600084815260200190815260200160002060000160009054906101000a900460ff166004811115611bfa57fe5b14611c0457600080fd5b611d2660046000878152602001908152602001600020600201805480602002602001604051908101604052809291908181526020018280548015611c9d57602002820191906000526020600020905b8160009054906101000a900473ffffffffffffffffffffffffffffffffffffffff1673ffffffffffffffffffffffffffffffffffffffff1681526020019060010190808311611c53575b50505050503087600760008a815260200190815260200160002060000154604051602001611ccd93929190613bce565b60405160208183030381529060405286868080601f016020809104026020016040519081016040528093929190818152602001838380828437600081840152601f19601f8201169050808301925050505050505061278a565b60016004600087815260200190815260200160002060000160006101000a81548160ff02191690836004811115611d5957fe5b0217905550600060036000878152602001908152602001600020600801819055507f2ee7873c46cd70f70797bfe635786b787c50c438089cbba22d78de908e8461a485604051611da99190613c05565b60405180910390a15050505050565b60046000848152602001908152602001600020600201600081548110611dda57fe5b9060005260206000200160009054906101000a900473ffffffffffffffffffffffffffffffffffffffff168073ffffffffffffffffffffffffffffffffffffffff163373ffffffffffffffffffffffffffffffffffffffff1614611e3d57600080fd5b836000806005811115611e4c57fe5b6003600084815260200190815260200160002060070160009054906101000a900460ff166005811115611e7b57fe5b14611e8557600080fd5b856003806004811115611e9457fe5b6004600084815260200190815260200160002060000160009054906101000a900460ff166004811115611ec357fe5b14611ecd57600080fd5b86600360008a8152602001908152602001600020600001819055508560ff16600360008a8152602001908152602001600020600401819055506001600360008a815260200190815260200160002060070160006101000a81548160ff02191690836005811115611f3957fe5b02179055508560ff16600360008a8152602001908152602001600020600501819055508560ff166040519080825280601f01601f191660200182016040528015611f925781602001600182028038833980820191505090505b50600360008a81526020019081526020016000206002019080519060200190611fbc929190612c29565b50611fc6886123d0565b5050505050505050565b60046000858152602001908152602001600020600201600081548110611ff257fe5b9060005260206000200160009054906101000a900473ffffffffffffffffffffffffffffffffffffffff168073ffffffffffffffffffffffffffffffffffffffff163373ffffffffffffffffffffffffffffffffffffffff161461205557600080fd5b84600380600581111561206457fe5b6003600084815260200190815260200160002060070160009054906101000a900460ff16600581111561209357fe5b1461209d57600080fd5b8660038060048111156120ac57fe5b6004600084815260200190815260200160002060000160009054906101000a900460ff1660048111156120db57fe5b146120e557600080fd5b600360058111156120f257fe5b600360008b815260200190815260200160002060070160009054906101000a900460ff16600581111561212157fe5b1461212b57600080fd5b600360008a815260200190815260200160002060040154878790501461215057600080fd5b60008090505b600360008b8152602001908152602001600020600401548110156122fd5787878281811061218057fe5b9050013560f81c60f81b7effffffffffffffffffffffffffffffffffffffffffffffffffffffffffffff1916600360008c8152602001908152602001600020600201828154600181600116156101000203166002900481106121de57fe5b8154600116156121fd5790600052602060002090602091828204019190065b9054901a7f0100000000000000000000000000000000000000000000000000000000000000027effffffffffffffffffffffffffffffffffffffffffffffffffffffffffffff1916141580156122a45750600360008b8152602001908152602001600020600101604189898481811061227257fe5b9050013560f81c60f81b60f81c0360ff16601a811061228d57fe5b602091828204019190069054906101000a900460ff165b156122f0576005600360008c815260200190815260200160002060070160006101000a81548160ff021916908360058111156122dc57fe5b02179055506122ea8a6123d0565b506123c5565b8080600101915050612156565b50600360008a81526020019081526020016000206000015488888860405160200161232a93929190613c9e565b6040516020818303038152906040528051906020012014612382576005600360008b815260200190815260200160002060070160006101000a81548160ff0219169083600581111561237857fe5b02179055506123bb565b6004600360008b815260200190815260200160002060070160006101000a81548160ff021916908360058111156123b557fe5b02179055505b6123c4896123d0565b5b505050505050505050565b600060036000838152602001908152602001600020600801819055507f611949c64c66225766b6e6d1154d802a31872f5d8e94bdcac954806b8376fbb9816003600084815260200190815260200160002060070160009054906101000a900460ff16604051612440929190613cd0565b60405180910390a150565b604051806020016040528060008152506007600083815260200190815260200160002060008201518160000155905050600660009054906101000a900473ffffffffffffffffffffffffffffffffffffffff1673ffffffffffffffffffffffffffffffffffffffff166348c2c21282600460008581526020019081526020016000206002016040518363ffffffff1660e01b81526004016124ed929190613c6e565b602060405180830381600087803b15801561250757600080fd5b505af115801561251b573d6000803e3d6000fd5b505050506040513d601f19601f8201168201806040525061253f9190810190613277565b5050565b6004600581111561255057fe5b81600581111561255c57fe5b1415612647576004600083815260200190815260200160002060020160008154811061258457fe5b9060005260206000200160009054906101000a900473ffffffffffffffffffffffffffffffffffffffff1673ffffffffffffffffffffffffffffffffffffffff166108fc60046000858152602001908152602001600020600101549081150290604051600060405180830381858888f1935050505015801561260a573d6000803e3d6000fd5b50600480600084815260200190815260200160002060000160006101000a81548160ff0219169083600481111561263d57fe5b0217905550612786565b60058081111561265357fe5b81600581111561265f57fe5b141561274a576004600083815260200190815260200160002060020160018154811061268757fe5b9060005260206000200160009054906101000a900473ffffffffffffffffffffffffffffffffffffffff1673ffffffffffffffffffffffffffffffffffffffff166108fc60046000858152602001908152602001600020600101549081150290604051600060405180830381858888f1935050505015801561270d573d6000803e3d6000fd5b50600480600084815260200190815260200160002060000160006101000a81548160ff0219169083600481111561274057fe5b0217905550612785565b6040517f08c379a000000000000000000000000000000000000000000000000000000000815260040161277c90613d5e565b60405180910390fd5b5b5050565b61279d83612797846127a2565b836127bb565b505050565b60006127b4828051906020012061294e565b9050919050565b6060818060200190516127d1919081019061320d565b90508351815114612817576040517f08c379a000000000000000000000000000000000000000000000000000000000815260040161280e90613d7e565b60405180910390fd5b60008090505b84518110156129475760018483838151811061283557fe5b60200260200101516000015184848151811061284d57fe5b60200260200101516020015185858151811061286557fe5b6020026020010151604001516040516000815260200160405260405161288e9493929190613cf9565b6020604051602081039080840390855afa1580156128b0573d6000803e3d6000fd5b5050506020604051035173ffffffffffffffffffffffffffffffffffffffff168582815181106128dc57fe5b602002602001015173ffffffffffffffffffffffffffffffffffffffff161461293a576040517f08c379a000000000000000000000000000000000000000000000000000000000815260040161293190613d3e565b60405180910390fd5b808060010191505061281d565b5050505050565b600060606040518060400160405280601c81526020017f19457468657265756d205369676e6564204d6573736167653a0a33320000000081525090506000818460405160200161299f929190613b46565b6040516020818303038152906040528051906020012090508092505050919050565b604051806103400160405280601a90602082028038833980820191505090505090565b828054828255906000526020600020908101928215612a5d579160200282015b82811115612a5c5782518260006101000a81548173ffffffffffffffffffffffffffffffffffffffff021916908373ffffffffffffffffffffffffffffffffffffffff16021790555091602001919060010190612a04565b5b509050612a6a9190612ca9565b5090565b82601a601f01602090048101928215612af65791602002820160005b83821115612ac757835183826101000a81548160ff0219169083151502179055509260200192600101602081600001049283019260010302612a8a565b8015612af45782816101000a81549060ff0219169055600101602081600001049283019260010302612ac7565b505b509050612b039190612cec565b5090565b828054600181600116156101000203166002900490600052602060002090601f016020900481019282601f10612b4857805160ff1916838001178555612b76565b82800160010185558215612b76579182015b82811115612b75578251825591602001919060010190612b5a565b5b509050612b839190612d1c565b5090565b604051806060016040528060006004811115612b9f57fe5b815260200160008152602001606081525090565b60405180610440016040528060008019168152602001612bd1612d41565b815260200160608152602001600060ff16815260200160008152602001600081526020016000815260200160006005811115612c0957fe5b8152602001600081525090565b6040518060200160405280600081525090565b828054600181600116156101000203166002900490600052602060002090601f016020900481019282601f10612c6a57805160ff1916838001178555612c98565b82800160010185558215612c98579182015b82811115612c97578251825591602001919060010190612c7c565b5b509050612ca59190612d1c565b5090565b612ce991905b80821115612ce557600081816101000a81549073ffffffffffffffffffffffffffffffffffffffff021916905550600101612caf565b5090565b90565b612d1991905b80821115612d1557600081816101000a81549060ff021916905550600101612cf2565b5090565b90565b612d3e91905b80821115612d3a576000816000905550600101612d22565b5090565b90565b604051806103400160405280601a90602082028038833980820191505090505090565b600081359050612d738161416f565b92915050565b60008083601f840112612d8b57600080fd5b8235905067ffffffffffffffff811115612da457600080fd5b602083019150836020820283011115612dbc57600080fd5b9250929050565b600082601f830112612dd457600080fd5b601a612de7612de282613e10565b613de3565b91508183856020840282011115612dfd57600080fd5b60005b83811015612e2d5781612e138882612f04565b845260208401935060208301925050600181019050612e00565b5050505092915050565b600082601f830112612e4857600080fd5b8151612e5b612e5682613e32565b613de3565b91508181835260208401935060208101905083856060840282011115612e8057600080fd5b60005b83811015612eb05781612e968882613159565b845260208401935060608301925050600181019050612e83565b5050505092915050565b60008083601f840112612ecc57600080fd5b8235905067ffffffffffffffff811115612ee557600080fd5b602083019150836020820283011115612efd57600080fd5b9250929050565b600081359050612f1381614186565b92915050565b600081519050612f2881614186565b92915050565b600081359050612f3d8161419d565b92915050565b600081519050612f528161419d565b92915050565b60008083601f840112612f6a57600080fd5b8235905067ffffffffffffffff811115612f8357600080fd5b602083019150836001820283011115612f9b57600080fd5b9250929050565b600082601f830112612fb357600080fd5b8135612fc6612fc182613e5a565b613de3565b91508082526020830160208301858383011115612fe257600080fd5b612fed8382846140be565b50505092915050565b600082601f83011261300757600080fd5b813561301a61301582613e86565b613de3565b9150808252602083016020830185838301111561303657600080fd5b6130418382846140be565b50505092915050565b600081359050613059816141b4565b92915050565b6000610440828403121561307257600080fd5b61307d610120613de3565b9050600061308d84828501612f2e565b60008301525060206130a184828501612dc3565b60208301525061036082013567ffffffffffffffff8111156130c257600080fd5b6130ce84828501612fa2565b6040830152506103806130e3848285016131e3565b6060830152506103a06130f8848285016131b9565b6080830152506103c061310d848285016131b9565b60a0830152506103e0613122848285016131b9565b60c0830152506104006131378482850161304a565b60e08301525061042061314c848285016131b9565b6101008301525092915050565b60006060828403121561316b57600080fd5b6131756060613de3565b90506000613185848285016131f8565b600083015250602061319984828501612f43565b60208301525060406131ad84828501612f43565b60408301525092915050565b6000813590506131c8816141c4565b92915050565b6000815190506131dd816141c4565b92915050565b6000813590506131f2816141db565b92915050565b600081519050613207816141db565b92915050565b60006020828403121561321f57600080fd5b600082015167ffffffffffffffff81111561323957600080fd5b61324584828501612e37565b91505092915050565b60006020828403121561326057600080fd5b600061326e84828501612f2e565b91505092915050565b60006020828403121561328957600080fd5b600061329784828501612f43565b91505092915050565b6000806000604084860312156132b557600080fd5b60006132c386828701612f2e565b935050602084013567ffffffffffffffff8111156132e057600080fd5b6132ec86828701612d79565b92509250509250925092565b60008060006040848603121561330d57600080fd5b600061331b86828701612f2e565b935050602084013567ffffffffffffffff81111561333857600080fd5b61334486828701612eba565b92509250509250925092565b6000806000806060858703121561336657600080fd5b600061337487828801612f2e565b945050602061338587828801612f2e565b935050604085013567ffffffffffffffff8111156133a257600080fd5b6133ae87828801612f58565b925092505092959194509250565b6000806000606084860312156133d157600080fd5b60006133df86828701612f2e565b93505060206133f086828701612f2e565b9250506040613401868287016131e3565b9150509250925092565b60008060006040848603121561342057600080fd5b600061342e86828701612f2e565b935050602084013567ffffffffffffffff81111561344b57600080fd5b61345786828701612f58565b92509250509250925092565b60008060006060848603121561347857600080fd5b600061348686828701612f2e565b93505060206134978682870161304a565b925050604084013567ffffffffffffffff8111156134b457600080fd5b6134c086828701612ff6565b9150509250925092565b600080604083850312156134dd57600080fd5b60006134eb85828601612f2e565b92505060206134fc858286016131e3565b9150509250929050565b60006020828403121561351857600080fd5b600082013567ffffffffffffffff81111561353257600080fd5b61353e8482850161305f565b91505092915050565b6000806000806080858703121561355d57600080fd5b600061356b878288016131ce565b945050602061357c878288016131ce565b935050604061358d87828801612f43565b925050606061359e87828801612f19565b91505092959194509250565b6000602082840312156135bc57600080fd5b60006135ca848285016131e3565b91505092915050565b60006135df8383613612565b60208301905092915050565b60006135f783836137a7565b60208301905092915050565b61360c81614015565b82525050565b61361b81614003565b82525050565b61362a81614003565b82525050565b600061363c8385613f67565b935061364782613eb2565b8060005b858110156136805761365d8284613fcc565b61366788826135d3565b975061367283613f22565b92505060018101905061364b565b5085925050509392505050565b600061369882613eeb565b6136a28185613f56565b93506136ad83613ebc565b8060005b838110156136de5781516136c588826135d3565b97506136d083613f2f565b9250506001810190506136b1565b5085935050505092915050565b60006136f682613ef6565b6137008185613f67565b935061370b83613ecc565b8060005b838110156137435761372082614124565b61372a88826135d3565b975061373583613f3c565b92505060018101905061370f565b5085935050505092915050565b61375981613f01565b6137638184613f78565b925061376e82613ee1565b8060005b8381101561379f57815161378687826135eb565b965061379183613f49565b925050600181019050613772565b505050505050565b6137b081614027565b82525050565b6137bf81614033565b82525050565b6137ce81614033565b82525050565b6137e56137e082614033565b61411a565b82525050565b60006137f78385613f94565b93506138048385846140be565b61380d83614137565b840190509392505050565b60006138248385613fa5565b93506138318385846140be565b82840190509392505050565b600061384882613f0c565b6138528185613f83565b93506138628185602086016140cd565b61386b81614137565b840191505092915050565b61387f8161409a565b82525050565b61388e816140ac565b82525050565b61389d816140ac565b82525050565b60006138ae82613f17565b6138b88185613fc1565b93506138c88185602086016140cd565b80840191505092915050565b60006138e1600f83613fb0565b91507f57726f6e67207369676e617475726500000000000000000000000000000000006000830152602082019050919050565b6000613921601183613fb0565b91507f4e6f207465726d696e616c2073746174650000000000000000000000000000006000830152602082019050919050565b6000613961602b83613fb0565b91507f546865726520617265206c6573732f6d6f7265207369676e617475726573207460008301527f68656e20706172746965730000000000000000000000000000000000000000006020830152604082019050919050565b6000610440830160008301516139d360008601826137b6565b5060208301516139e66020860182613750565b5060408301518482036103608601526139ff828261383d565b9150506060830151613a15610380860182613b0f565b506080830151613a296103a0860182613af1565b5060a0830151613a3d6103c0860182613af1565b5060c0830151613a516103e0860182613af1565b5060e0830151613a65610400860182613885565b50610100830151613a7a610420860182613af1565b508091505092915050565b602082016000820151613a9b6000850182613af1565b50505050565b6000606083016000830151613ab96000860182613876565b506020830151613acc6020860182613af1565b5060408301518482036040860152613ae4828261368d565b9150508091505092915050565b613afa81614083565b82525050565b613b0981614083565b82525050565b613b188161408d565b82525050565b613b278161408d565b82525050565b6000613b3a828486613818565b91508190509392505050565b6000613b5282856138a3565b9150613b5e82846137d4565b6020820191508190509392505050565b6000604082019050613b836000830185613621565b613b9060208301846137c5565b9392505050565b6000606082019050613bac6000830186613621565b613bb960208301856137c5565b613bc66040830184613894565b949350505050565b6000606082019050613be36000830186613621565b613bf060208301856137c5565b613bfd6040830184613b00565b949350505050565b6000602082019050613c1a60008301846137c5565b92915050565b6000608082019050613c3560008301886137c5565b613c426020830187613603565b613c4f6040830186613b00565b8181036060830152613c62818486613630565b90509695505050505050565b6000604082019050613c8360008301856137c5565b8181036020830152613c9581846136eb565b90509392505050565b6000604082019050613cb360008301866137c5565b8181036020830152613cc68184866137eb565b9050949350505050565b6000604082019050613ce560008301856137c5565b613cf26020830184613894565b9392505050565b6000608082019050613d0e60008301876137c5565b613d1b6020830186613b1e565b613d2860408301856137c5565b613d3560608301846137c5565b95945050505050565b60006020820190508181036000830152613d57816138d4565b9050919050565b60006020820190508181036000830152613d7781613914565b9050919050565b60006020820190508181036000830152613d9781613954565b9050919050565b60006060820190508181036000830152613db88186613aa1565b90508181036020830152613dcc81856139ba565b9050613ddb6040830184613a85565b949350505050565b6000604051905081810181811067ffffffffffffffff82111715613e0657600080fd5b8060405250919050565b600067ffffffffffffffff821115613e2757600080fd5b602082029050919050565b600067ffffffffffffffff821115613e4957600080fd5b602082029050602081019050919050565b600067ffffffffffffffff821115613e7157600080fd5b601f19601f8301169050602081019050919050565b600067ffffffffffffffff821115613e9d57600080fd5b601f19601f8301169050602081019050919050565b6000819050919050565b6000819050602082019050919050565b60008190508160005260206000209050919050565b6000819050919050565b600081519050919050565b600081549050919050565b6000601a9050919050565b600081519050919050565b600081519050919050565b6000602082019050919050565b6000602082019050919050565b6000600182019050919050565b6000602082019050919050565b600082825260208201905092915050565b600082825260208201905092915050565b600081905092915050565b600082825260208201905092915050565b600082825260208201905092915050565b600081905092915050565b600082825260208201905092915050565b600081905092915050565b6000613fdb6020840184612d64565b905092915050565b600073ffffffffffffffffffffffffffffffffffffffff82169050919050565b600061400e82614063565b9050919050565b600061402082614063565b9050919050565b60008115159050919050565b6000819050919050565b600081905061404b82614155565b919050565b600081905061405e82614162565b919050565b600073ffffffffffffffffffffffffffffffffffffffff82169050919050565b6000819050919050565b600060ff82169050919050565b60006140a58261403d565b9050919050565b60006140b782614050565b9050919050565b82818337600083830152505050565b60005b838110156140eb5780820151818401526020810190506140d0565b838111156140fa576000848401525b50505050565b600061411361410e83614148565b613fe3565b9050919050565b6000819050919050565b60006141308254614100565b9050919050565b6000601f19601f8301169050919050565b60008160001c9050919050565b6005811061415f57fe5b50565b6006811061416c57fe5b50565b61417881614003565b811461418357600080fd5b50565b61418f81614027565b811461419a57600080fd5b50565b6141a681614033565b81146141b157600080fd5b50565b600681106141c157600080fd5b50565b6141cd81614083565b81146141d857600080fd5b50565b6141e48161408d565b81146141ef57600080fd5b5056fea365627a7a7230582008eaa0bbbfc89f27ca9692643b9663b61cd2498c6b6cd5cd3281a519f44a023c6c6578706572696d656e74616cf564736f6c634300050a0040",
  "source": "pragma solidity 0.5.10;\npragma experimental \"ABIEncoderV2\";\n\nimport \"contracts/hybridArchitecture/Relockable/HybridRelockableDisputeBoard.sol\";\nimport \"contracts/sharedCode/SigVerifier.sol\";\nimport \"contracts/sharedCode/AbstractHangmanSingleton.sol\";\n\n//We assume that players only sign / produce states that can occur in a proper execution\n//For example, they do not sign / produce a state in which a player has used all of his ten tries but still is in stage WaitingForGuess\ncontract HybridRelockableHangmanSingleton is SigVerifier, AbstractHangmanSingleton{\n    \n    //******************\n    // Variables, enums, structures\n    \n    //constant after initialization\n    HybridRelockableDisputeBoard db;\n    \n    //Channel Instances -> We divide the variables to be able to reuse the code\n    mapping(bytes32 => DisputeVariables) disputeState;\n    \n    struct DisputeVariables{\n        uint lockCount;\n    }\n    \n    //Events\n    event eventLocked(bytes32 id);\n    event eventUnlocked(bytes32 id);\n    \n    //The enus for the channel status ONCHAIN and OFFCHAIN would fit here better to UNLOCKED = ONCHAIN and LOCKED = OFFCHAIN\n    \n    //****************\n    //Constructor\n    constructor(uint _maxTries, uint _minFunding, uint _challengePeriod, address _db) public AbstractHangmanSingleton(_maxTries, _minFunding, _challengePeriod){\n        db = HybridRelockableDisputeBoard(_db);\n    }\n    \n    //****************\n    //Channel logic\n    \n    //Function called by the inherrited function \"createInstance\"\n    function setInitialDisputeState(bytes32 _id) internal {\n        disputeState[_id] = DisputeVariables(0);\n        db.initializeChannel(_id, instanceState[_id].parties);\n    }\n    \n    //Parties sign a lock request with a specific lockcount if they want to lock the application for off-chain execution\n        //We require parties to first create the next off-chain state and afterwards lock the application. Thus we do not have to deal with disputes without a state can simply ignore on-chain executions during lock-negotiations\n    function lock(bytes32 _id, bytes calldata _signatures) external isChannelStatus(_id, ChannelStatus.ONCHAIN){\n        \n        //Check signatures\n        verifySignatures(instanceState[_id].parties, abi.encode(address(this), _id, disputeState[_id].lockCount), _signatures);\n        \n        //Lock the application and reset challenges\n        instanceState[_id].status = ChannelStatus.OFFCHAIN;\n        applicationState[_id].challenged = 0;\n        \n        emit eventLocked(_id);\n    }\n    \n    //In the off-chain application they sign tuples of (address, lockCount, version, state-hash); the address uniquely identifies the instance, the lockCount is the lockCount used to lock the application, the version starts for each lock with 0 and is incremented with each state update\n    //The state-hash is constructed on the application contract's address and all state variables\n    function unlock(bytes32 _id, bytes calldata _encodedState) external isChannelStatus(_id, ChannelStatus.OFFCHAIN){\n        \n        //Read the current channel's information from the dispute board\n        (uint _unlockCount, ,bytes32 _stateHash, bool _unlockable) = db.getChannelInstance(keccak256(abi.encode(address(this), _id)));\n        \n        //Check that this state has not been unlocked before\n        require(_unlockCount == disputeState[_id].lockCount);\n        \n        //Check that instance is unlockable\n        require(_unlockable);\n        \n        //Check that the right state has been provided\n        require(_stateHash == keccak256(_encodedState));\n        \n        //Update state\n        applicationState[_id] = abi.decode(_encodedState,(ApplicationVariables));\n        \n        //Unlock the instance, icrement the lockcount to prevent replays and notify users\n        instanceState[_id].status = ChannelStatus.ONCHAIN;\n        disputeState[_id].lockCount++;\n        emit eventUnlocked(_id);\n    }\n    \n    //Function to close without a dispute: As this contact has no default funtionality to handle signed states we simply sign the address and the final stage / not state (dispute board handles signed hashes and this channel handles signed lock-requests)\n    function fastClose(bytes32 _id, Stage _stage, bytes memory _signatures) public {\n        \n        //Not when closed or not created\n        require(instanceState[_id].status == ChannelStatus.OFFCHAIN || instanceState[_id].status == ChannelStatus.ONCHAIN && instanceState[_id].status == ChannelStatus.DISPUTE);\n        \n        //Check signatures\n        verifySignatures(instanceState[_id].parties, abi.encode(address(this), _id, _stage), _signatures);\n        \n        //call close (checks stage and performs the closure)\n        internalClose(_id, _stage);\n    }\n    \n    //****************\n    //Application logic is inherited\n    \n    //******************\n    // Getter\n    function getInstance(bytes32 _id) external view returns (MaintainanceVariables memory, ApplicationVariables memory, DisputeVariables memory){\n        return (instanceState[_id], applicationState[_id], disputeState[_id]) ;\n    }\n\n}\n",
  "sourcePath": "/media/shared/CAC/Projekte/2019_SC_Workshop_FinCrypto/publicImplementation/truffle/contracts/hybridArchitecture/Relockable/HybridRelockableHangmanSingleton.sol",
  "compiler": {
    "name": "solc",
    "version": "0.5.10+commit.5a6ea5b1.Emscripten.clang"
  },
  "schemaVersion": "3.0.16",
  "updatedAt": "2019-12-13T14:08:12.385Z",
  "devdoc": {
    "methods": {}
  },
  "userdoc": {
    "methods": {}
  }
}