{
  "contractName": "HybridHangmanSingleton",
  "abi": [
    {
      "constant": false,
      "inputs": [
        {
          "name": "_id",
          "type": "bytes32"
        }
      ],
      "name": "wrong",
      "outputs": [],
      "payable": false,
      "stateMutability": "nonpayable",
      "type": "function"
    },
    {
      "constant": false,
      "inputs": [
        {
          "name": "_nonce",
          "type": "bytes32"
        },
        {
          "name": "_parties",
          "type": "address[]"
        }
      ],
      "name": "createInstance",
      "outputs": [],
      "payable": true,
      "stateMutability": "payable",
      "type": "function"
    },
    {
      "constant": false,
      "inputs": [
        {
          "name": "_id",
          "type": "bytes32"
        }
      ],
      "name": "close",
      "outputs": [],
      "payable": false,
      "stateMutability": "nonpayable",
      "type": "function"
    },
    {
      "constant": false,
      "inputs": [
        {
          "name": "_id",
          "type": "bytes32"
        },
        {
          "name": "_hits",
          "type": "uint8[]"
        }
      ],
      "name": "correct",
      "outputs": [],
      "payable": false,
      "stateMutability": "nonpayable",
      "type": "function"
    },
    {
      "constant": false,
      "inputs": [
        {
          "name": "_id",
          "type": "bytes32"
        },
        {
          "name": "_letter",
          "type": "uint8"
        }
      ],
      "name": "guess",
      "outputs": [],
      "payable": false,
      "stateMutability": "nonpayable",
      "type": "function"
    },
    {
      "constant": false,
      "inputs": [
        {
          "name": "_id",
          "type": "bytes32"
        }
      ],
      "name": "finalizeChallenge",
      "outputs": [],
      "payable": false,
      "stateMutability": "nonpayable",
      "type": "function"
    },
    {
      "constant": false,
      "inputs": [
        {
          "name": "_id",
          "type": "bytes32"
        }
      ],
      "name": "challenge",
      "outputs": [],
      "payable": false,
      "stateMutability": "nonpayable",
      "type": "function"
    },
    {
      "constant": false,
      "inputs": [
        {
          "name": "_id",
          "type": "bytes32"
        },
        {
          "name": "_hashedWord",
          "type": "bytes32"
        },
        {
          "name": "_wordLength",
          "type": "uint8"
        }
      ],
      "name": "commit",
      "outputs": [],
      "payable": false,
      "stateMutability": "nonpayable",
      "type": "function"
    },
    {
      "constant": false,
      "inputs": [
        {
          "name": "_id",
          "type": "bytes32"
        },
        {
          "name": "_nonce",
          "type": "bytes32"
        },
        {
          "name": "_opening",
          "type": "bytes"
        }
      ],
      "name": "open",
      "outputs": [],
      "payable": false,
      "stateMutability": "nonpayable",
      "type": "function"
    },
    {
      "inputs": [
        {
          "name": "_maxTries",
          "type": "uint256"
        },
        {
          "name": "_minFunding",
          "type": "uint256"
        },
        {
          "name": "_challengePeriod",
          "type": "uint256"
        },
        {
          "name": "_db",
          "type": "address"
        }
      ],
      "payable": false,
      "stateMutability": "nonpayable",
      "type": "constructor"
    },
    {
      "anonymous": false,
      "inputs": [
        {
          "indexed": false,
          "name": "id",
          "type": "bytes32"
        }
      ],
      "name": "eventLocked",
      "type": "event"
    },
    {
      "anonymous": false,
      "inputs": [
        {
          "indexed": false,
          "name": "id",
          "type": "bytes32"
        }
      ],
      "name": "eventUnlocked",
      "type": "event"
    },
    {
      "anonymous": false,
      "inputs": [
        {
          "indexed": false,
          "name": "id",
          "type": "bytes32"
        }
      ],
      "name": "newChannel",
      "type": "event"
    },
    {
      "anonymous": false,
      "inputs": [
        {
          "indexed": false,
          "name": "id",
          "type": "bytes32"
        },
        {
          "indexed": false,
          "name": "newStage",
          "type": "uint8"
        }
      ],
      "name": "movePerformed",
      "type": "event"
    },
    {
      "constant": false,
      "inputs": [
        {
          "name": "_id",
          "type": "bytes32"
        },
        {
          "name": "_encodedState",
          "type": "bytes"
        }
      ],
      "name": "unlock",
      "outputs": [],
      "payable": false,
      "stateMutability": "nonpayable",
      "type": "function"
    },
    {
      "constant": false,
      "inputs": [
        {
          "name": "_id",
          "type": "bytes32"
        },
        {
          "name": "_stage",
          "type": "uint8"
        },
        {
          "name": "_signatures",
          "type": "bytes"
        }
      ],
      "name": "fastClose",
      "outputs": [],
      "payable": false,
      "stateMutability": "nonpayable",
      "type": "function"
    },
    {
      "constant": true,
      "inputs": [
        {
          "name": "_id",
          "type": "bytes32"
        }
      ],
      "name": "getInstance",
      "outputs": [
        {
          "components": [
            {
              "name": "status",
              "type": "uint8"
            },
            {
              "name": "funding",
              "type": "uint256"
            },
            {
              "name": "parties",
              "type": "address[]"
            }
          ],
          "name": "",
          "type": "tuple"
        },
        {
          "components": [
            {
              "name": "hashedWord",
              "type": "bytes32"
            },
            {
              "name": "guessed",
              "type": "bool[26]"
            },
            {
              "name": "word",
              "type": "bytes"
            },
            {
              "name": "currentGuess",
              "type": "uint8"
            },
            {
              "name": "wordLength",
              "type": "uint256"
            },
            {
              "name": "missingLetters",
              "type": "uint256"
            },
            {
              "name": "tries",
              "type": "uint256"
            },
            {
              "name": "stage",
              "type": "uint8"
            },
            {
              "name": "challenged",
              "type": "uint256"
            }
          ],
          "name": "",
          "type": "tuple"
        }
      ],
      "payable": false,
      "stateMutability": "view",
      "type": "function"
    }
  ],
  "bytecode": "0x608060405260006005553480156200001657600080fd5b5060405162003fdb38038062003fdb83398181016040526200003c9190810190620000d0565b83838382600081905550816001819055508060028190555050505080600660006101000a81548173ffffffffffffffffffffffffffffffffffffffff021916908373ffffffffffffffffffffffffffffffffffffffff16021790555050505050620001ae565b600081519050620000b3816200017a565b92915050565b600081519050620000ca8162000194565b92915050565b60008060008060808587031215620000e757600080fd5b6000620000f787828801620000b9565b94505060206200010a87828801620000b9565b93505060406200011d87828801620000b9565b92505060606200013087828801620000a2565b91505092959194509250565b6000620001498262000150565b9050919050565b600073ffffffffffffffffffffffffffffffffffffffff82169050919050565b6000819050919050565b62000185816200013c565b81146200019157600080fd5b50565b6200019f8162000170565b8114620001ab57600080fd5b50565b613e1d80620001be6000396000f3fe6080604052600436106100a75760003560e01c8063624a23e011610064578063624a23e01461019557806368b3823e146101d35780637974e77f146101fc578063cffd46dc14610225578063ed38c63e1461024e578063ee1818f214610277576100a7565b80632d0dd261146100ac5780633452c29c146100d557806339c79e0c146100f157806346b1fa0f1461011a5780634d900f0d146101435780635fc7e1331461016c575b600080fd5b3480156100b857600080fd5b506100d360048036036100ce9190810190612f20565b6102a0565b005b6100ef60048036036100ea9190810190612f49565b6104ec565b005b3480156100fd57600080fd5b5061011860048036036101139190810190612f20565b6107d2565b005b34801561012657600080fd5b50610141600480360361013c9190810190612fa1565b61084c565b005b34801561014f57600080fd5b5061016a60048036036101659190810190613173565b610cc5565b005b34801561017857600080fd5b50610193600480360361018e91908101906130b4565b610eb6565b005b3480156101a157600080fd5b506101bc60048036036101b79190810190612f20565b611155565b6040516101ca9291906139a6565b60405180910390f35b3480156101df57600080fd5b506101fa60048036036101f59190810190612f20565b6113fe565b005b34801561020857600080fd5b50610223600480360361021e919081019061310c565b6116cc565b005b34801561023157600080fd5b5061024c60048036036102479190810190612f20565b611871565b005b34801561025a57600080fd5b5061027560048036036102709190810190613065565b611aee565b005b34801561028357600080fd5b5061029e60048036036102999190810190612ff9565b611d06565b005b600460008281526020019081526020016000206002016000815481106102c257fe5b9060005260206000200160009054906101000a900473ffffffffffffffffffffffffffffffffffffffff168073ffffffffffffffffffffffffffffffffffffffff163373ffffffffffffffffffffffffffffffffffffffff161461032557600080fd5b81600280600581111561033457fe5b6003600084815260200190815260200160002060070160009054906101000a900460ff16600581111561036357fe5b1461036d57600080fd5b83600380600481111561037c57fe5b6004600084815260200190815260200160002060000160009054906101000a900460ff1660048111156103ab57fe5b146103b557600080fd5b6001600360008881526020019081526020016000206001016041600360008a815260200190815260200160002060030160009054906101000a900460ff160360ff16601a811061040157fe5b602091828204019190066101000a81548160ff0219169083151502179055506003600087815260200190815260200160002060060160008154809291906001019190505550600054600360008881526020019081526020016000206006015414156104a257600380600088815260200190815260200160002060070160006101000a81548160ff0219169083600581111561049857fe5b02179055506104db565b60016003600088815260200190815260200160002060070160006101000a81548160ff021916908360058111156104d557fe5b02179055505b6104e486612106565b505050505050565b600083838360405160200161050393929190613844565b6040516020818303038152906040528051906020012090506000600481111561052857fe5b6004600083815260200190815260200160002060000160009054906101000a900460ff16600481111561055757fe5b148015610568575060028383905010155b61057157600080fd5b60015434101561058057600080fd5b6105886126a6565b6040518060600160405280600160048111156105a057fe5b8152602001348152602001858580806020026020016040519081016040528093929190818152602001838360200280828437600081840152601f19601f820116905080830192505050505050508152506004600084815260200190815260200160002060008201518160000160006101000a81548160ff0219169083600481111561062757fe5b02179055506020820151816001015560408201518160020190805190602001906106529291906126c9565b509050506040518061012001604052806000801b815260200182815260200160405180604001604052806001815260200160008152508152602001600060ff168152602001600081526020016000815260200160008152602001600060058111156106b957fe5b81526020016000815250600360008481526020019081526020016000206000820151816000015560208201518160010190601a6106f7929190612753565b5060408201518160020190805190602001906107149291906127ec565b5060608201518160030160006101000a81548160ff021916908360ff1602179055506080820151816004015560a0820151816005015560c0820151816006015560e08201518160070160006101000a81548160ff0219169083600581111561077857fe5b0217905550610100820151816008015590505061079482612181565b7f02f9de3174ba1908545e7eaf47a7106ea2a5a3e73ec257d673c8dbdacc8b555d826040516107c39190613829565b60405180910390a15050505050565b8060038060048111156107e157fe5b6004600084815260200190815260200160002060000160009054906101000a900460ff16600481111561081057fe5b1461081a57600080fd5b610847836003600086815260200190815260200160002060070160009054906101000a900460ff16612228565b505050565b6004600084815260200190815260200160002060020160008154811061086e57fe5b9060005260206000200160009054906101000a900473ffffffffffffffffffffffffffffffffffffffff168073ffffffffffffffffffffffffffffffffffffffff163373ffffffffffffffffffffffffffffffffffffffff16146108d157600080fd5b8360028060058111156108e057fe5b6003600084815260200190815260200160002060070160009054906101000a900460ff16600581111561090f57fe5b1461091957600080fd5b85600380600481111561092857fe5b6004600084815260200190815260200160002060000160009054906101000a900460ff16600481111561095757fe5b1461096157600080fd5b6000878790501161097157600080fd5b60008090505b87879050811015610b7a57600360008a8152602001908152602001600020600401548888838181106109a557fe5b90506020020160206109ba919081019061323f565b60ff16101580610a8657506000600360008b81526020019081526020016000206002018989848181106109e957fe5b90506020020160206109fe919081019061323f565b60ff16815460018160011615610100020316600290048110610a1c57fe5b815460011615610a3b5790600052602060002090602091828204019190065b9054901a7f0100000000000000000000000000000000000000000000000000000000000000027effffffffffffffffffffffffffffffffffffffffffffffffffffffffffffff191614155b15610a9a57610a9489612106565b50610cbb565b600360008a815260200190815260200160002060030160009054906101000a900460ff1660f81b600360008b8152602001908152602001600020600201898984818110610ae357fe5b9050602002016020610af8919081019061323f565b60ff16815460018160011615610100020316600290048110610b1657fe5b815460011615610b355790600052602060002090602091828204019190065b601f036101000a81548160ff021916907f0100000000000000000000000000000000000000000000000000000000000000840402179055508080600101915050610977565b5086869050600360008a81526020019081526020016000206005015403600360008a8152602001908152602001600020600501819055506001600360008a81526020019081526020016000206001016041600360008c815260200190815260200160002060030160009054906101000a900460ff160360ff16601a8110610bfd57fe5b602091828204019190066101000a81548160ff0219169083151502179055506001600360008a8152602001908152602001600020600501541015610c78576005600360008a815260200190815260200160002060070160006101000a81548160ff02191690836005811115610c6e57fe5b0217905550610cb1565b6001600360008a815260200190815260200160002060070160006101000a81548160ff02191690836005811115610cab57fe5b02179055505b610cba88612106565b5b5050505050505050565b60046000838152602001908152602001600020600201600181548110610ce757fe5b9060005260206000200160009054906101000a900473ffffffffffffffffffffffffffffffffffffffff168073ffffffffffffffffffffffffffffffffffffffff163373ffffffffffffffffffffffffffffffffffffffff1614610d4a57600080fd5b826001806005811115610d5957fe5b6003600084815260200190815260200160002060070160009054906101000a900460ff166005811115610d8857fe5b14610d9257600080fd5b846003806004811115610da157fe5b6004600084815260200190815260200160002060000160009054906101000a900460ff166004811115610dd057fe5b14610dda57600080fd5b6000604187039050601a8160ff1610610df257600080fd5b60001515600360008a81526020019081526020016000206001018260ff16601a8110610e1a57fe5b602091828204019190069054906101000a900460ff16151514610e3c57600080fd5b86600360008a815260200190815260200160002060030160006101000a81548160ff021916908360ff1602179055506002600360008a815260200190815260200160002060070160006101000a81548160ff02191690836005811115610e9e57fe5b0217905550610eac88612106565b5050505050505050565b826001806004811115610ec557fe5b6004600084815260200190815260200160002060000160009054906101000a900460ff166004811115610ef457fe5b14610efe57600080fd5b600080600660009054906101000a900473ffffffffffffffffffffffffffffffffffffffff1673ffffffffffffffffffffffffffffffffffffffff1663d2966c143089604051602001610f529291906137c9565b604051602081830303815290604052805190602001206040518263ffffffff1660e01b8152600401610f849190613829565b60606040518083038186803b158015610f9c57600080fd5b505afa158015610fb0573d6000803e3d6000fd5b505050506040513d601f19601f82011682018060405250610fd491908101906131f0565b925092505080610fe357600080fd5b8585604051610ff3929190613788565b6040518091039020821461100657600080fd5b858561101591908101906131af565b600360008981526020019081526020016000206000820151816000015560208201518160010190601a611049929190612753565b5060408201518160020190805190602001906110669291906127ec565b5060608201518160030160006101000a81548160ff021916908360ff1602179055506080820151816004015560a0820151816005015560c0820151816006015560e08201518160070160006101000a81548160ff021916908360058111156110ca57fe5b0217905550610100820151816008015590505060036004600089815260200190815260200160002060000160006101000a81548160ff0219169083600481111561111057fe5b02179055507f0301abeeae0ccf66d5373e3c755632aa254260b0d13b579b27fb74de484d2d65876040516111449190613829565b60405180910390a150505050505050565b61115d61286c565b611165612898565b6004600084815260200190815260200160002060036000858152602001908152602001600020816040518060600160405290816000820160009054906101000a900460ff1660048111156111b557fe5b60048111156111c057fe5b8152602001600182015481526020016002820180548060200260200160405190810160405280929190818152602001828054801561125357602002820191906000526020600020905b8160009054906101000a900473ffffffffffffffffffffffffffffffffffffffff1673ffffffffffffffffffffffffffffffffffffffff1681526020019060010190808311611209575b505050505081525050915080604051806101200160405290816000820154815260200160018201601a806020026040519081016040528092919082601a80156112d6576020028201916000905b82829054906101000a900460ff161515815260200190600101906020826000010492830192600103820291508084116112a05790505b50505050508152602001600282018054600181600116156101000203166002900480601f0160208091040260200160405190810160405280929190818152602001828054600181600116156101000203166002900480156113785780601f1061134d57610100808354040283529160200191611378565b820191906000526020600020905b81548152906001019060200180831161135b57829003601f168201915b505050505081526020016003820160009054906101000a900460ff1660ff1660ff1681526020016004820154815260200160058201548152602001600682015481526020016007820160009054906101000a900460ff1660058111156113da57fe5b60058111156113e557fe5b8152602001600882015481525050905091509150915091565b80600380600481111561140d57fe5b6004600084815260200190815260200160002060000160009054906101000a900460ff16600481111561143c57fe5b1461144657600080fd5b426003600085815260200190815260200160002060080154111561146957600080fd5b6004600581111561147657fe5b6003600085815260200190815260200160002060070160009054906101000a900460ff1660058111156114a557fe5b141580156114ec57506005808111156114ba57fe5b6003600085815260200190815260200160002060070160009054906101000a900460ff1660058111156114e957fe5b14155b6114f557600080fd5b6004600084815260200190815260200160002060020160008154811061151757fe5b9060005260206000200160009054906101000a900473ffffffffffffffffffffffffffffffffffffffff1673ffffffffffffffffffffffffffffffffffffffff163373ffffffffffffffffffffffffffffffffffffffff1614806115f257506004600084815260200190815260200160002060020160018154811061159857fe5b9060005260206000200160009054906101000a900473ffffffffffffffffffffffffffffffffffffffff1673ffffffffffffffffffffffffffffffffffffffff163373ffffffffffffffffffffffffffffffffffffffff16145b6115fb57600080fd5b6001600581111561160857fe5b6003600085815260200190815260200160002060070160009054906101000a900460ff16600581111561163757fe5b1415611680576004600581111561164a57fe5b6003600085815260200190815260200160002060070160009054906101000a900460ff16600581111561167957fe5b50506116be565b60058081111561168c57fe5b6003600085815260200190815260200160002060070160009054906101000a900460ff1660058111156116bb57fe5b50505b6116c783612106565b505050565b600160048111156116d957fe5b6004600085815260200190815260200160002060000160009054906101000a900460ff16600481111561170857fe5b148061174d57506003600481111561171c57fe5b6004600085815260200190815260200160002060000160009054906101000a900460ff16600481111561174b57fe5b145b8061179157506002600481111561176057fe5b6004600085815260200190815260200160002060000160009054906101000a900460ff16600481111561178f57fe5b145b61179a57600080fd5b6118626004600085815260200190815260200160002060020180548060200260200160405190810160405280929190818152602001828054801561183357602002820191906000526020600020905b8160009054906101000a900473ffffffffffffffffffffffffffffffffffffffff1673ffffffffffffffffffffffffffffffffffffffff16815260200190600101908083116117e9575b505050505030858560405160200161184d939291906137f2565b6040516020818303038152906040528361246f565b61186c8383612228565b505050565b80600380600481111561188057fe5b6004600084815260200190815260200160002060000160009054906101000a900460ff1660048111156118af57fe5b146118b957600080fd5b60006003600085815260200190815260200160002060080154146118dc57600080fd5b600460058111156118e957fe5b6003600085815260200190815260200160002060070160009054906101000a900460ff16600581111561191857fe5b1415801561195f575060058081111561192d57fe5b6003600085815260200190815260200160002060070160009054906101000a900460ff16600581111561195c57fe5b14155b61196857600080fd5b6004600084815260200190815260200160002060020160008154811061198a57fe5b9060005260206000200160009054906101000a900473ffffffffffffffffffffffffffffffffffffffff1673ffffffffffffffffffffffffffffffffffffffff163373ffffffffffffffffffffffffffffffffffffffff161480611a65575060046000848152602001908152602001600020600201600181548110611a0b57fe5b9060005260206000200160009054906101000a900473ffffffffffffffffffffffffffffffffffffffff1673ffffffffffffffffffffffffffffffffffffffff163373ffffffffffffffffffffffffffffffffffffffff16145b611a6e57600080fd5b600254420160036000858152602001908152602001600020600801819055507f611949c64c66225766b6e6d1154d802a31872f5d8e94bdcac954806b8376fbb9836003600086815260200190815260200160002060070160009054906101000a900460ff16604051611ae19291906138d8565b60405180910390a1505050565b60046000848152602001908152602001600020600201600081548110611b1057fe5b9060005260206000200160009054906101000a900473ffffffffffffffffffffffffffffffffffffffff168073ffffffffffffffffffffffffffffffffffffffff163373ffffffffffffffffffffffffffffffffffffffff1614611b7357600080fd5b836000806005811115611b8257fe5b6003600084815260200190815260200160002060070160009054906101000a900460ff166005811115611bb157fe5b14611bbb57600080fd5b856003806004811115611bca57fe5b6004600084815260200190815260200160002060000160009054906101000a900460ff166004811115611bf957fe5b14611c0357600080fd5b86600360008a8152602001908152602001600020600001819055508560ff16600360008a8152602001908152602001600020600401819055506001600360008a815260200190815260200160002060070160006101000a81548160ff02191690836005811115611c6f57fe5b02179055508560ff16600360008a8152602001908152602001600020600501819055508560ff166040519080825280601f01601f191660200182016040528015611cc85781602001600182028038833980820191505090505b50600360008a81526020019081526020016000206002019080519060200190611cf29291906128fb565b50611cfc88612106565b5050505050505050565b60046000858152602001908152602001600020600201600081548110611d2857fe5b9060005260206000200160009054906101000a900473ffffffffffffffffffffffffffffffffffffffff168073ffffffffffffffffffffffffffffffffffffffff163373ffffffffffffffffffffffffffffffffffffffff1614611d8b57600080fd5b846003806005811115611d9a57fe5b6003600084815260200190815260200160002060070160009054906101000a900460ff166005811115611dc957fe5b14611dd357600080fd5b866003806004811115611de257fe5b6004600084815260200190815260200160002060000160009054906101000a900460ff166004811115611e1157fe5b14611e1b57600080fd5b60036005811115611e2857fe5b600360008b815260200190815260200160002060070160009054906101000a900460ff166005811115611e5757fe5b14611e6157600080fd5b600360008a8152602001908152602001600020600401548787905014611e8657600080fd5b60008090505b600360008b81526020019081526020016000206004015481101561203357878782818110611eb657fe5b9050013560f81c60f81b7effffffffffffffffffffffffffffffffffffffffffffffffffffffffffffff1916600360008c815260200190815260200160002060020182815460018160011615610100020316600290048110611f1457fe5b815460011615611f335790600052602060002090602091828204019190065b9054901a7f0100000000000000000000000000000000000000000000000000000000000000027effffffffffffffffffffffffffffffffffffffffffffffffffffffffffffff191614158015611fda5750600360008b81526020019081526020016000206001016041898984818110611fa857fe5b9050013560f81c60f81b60f81c0360ff16601a8110611fc357fe5b602091828204019190069054906101000a900460ff165b15612026576005600360008c815260200190815260200160002060070160006101000a81548160ff0219169083600581111561201257fe5b02179055506120208a612106565b506120fb565b8080600101915050611e8c565b50600360008a815260200190815260200160002060000154888888604051602001612060939291906138a6565b60405160208183030381529060405280519060200120146120b8576005600360008b815260200190815260200160002060070160006101000a81548160ff021916908360058111156120ae57fe5b02179055506120f1565b6004600360008b815260200190815260200160002060070160006101000a81548160ff021916908360058111156120eb57fe5b02179055505b6120fa89612106565b5b505050505050505050565b600060036000838152602001908152602001600020600801819055507f611949c64c66225766b6e6d1154d802a31872f5d8e94bdcac954806b8376fbb9816003600084815260200190815260200160002060070160009054906101000a900460ff166040516121769291906138d8565b60405180910390a150565b600660009054906101000a900473ffffffffffffffffffffffffffffffffffffffff1673ffffffffffffffffffffffffffffffffffffffff166348c2c21282600460008581526020019081526020016000206002016040518363ffffffff1660e01b81526004016121f3929190613876565b600060405180830381600087803b15801561220d57600080fd5b505af1158015612221573d6000803e3d6000fd5b5050505050565b6004600581111561223557fe5b81600581111561224157fe5b141561232c576004600083815260200190815260200160002060020160008154811061226957fe5b9060005260206000200160009054906101000a900473ffffffffffffffffffffffffffffffffffffffff1673ffffffffffffffffffffffffffffffffffffffff166108fc60046000858152602001908152602001600020600101549081150290604051600060405180830381858888f193505050501580156122ef573d6000803e3d6000fd5b50600480600084815260200190815260200160002060000160006101000a81548160ff0219169083600481111561232257fe5b021790555061246b565b60058081111561233857fe5b81600581111561234457fe5b141561242f576004600083815260200190815260200160002060020160018154811061236c57fe5b9060005260206000200160009054906101000a900473ffffffffffffffffffffffffffffffffffffffff1673ffffffffffffffffffffffffffffffffffffffff166108fc60046000858152602001908152602001600020600101549081150290604051600060405180830381858888f193505050501580156123f2573d6000803e3d6000fd5b50600480600084815260200190815260200160002060000160006101000a81548160ff0219169083600481111561242557fe5b021790555061246a565b6040517f08c379a000000000000000000000000000000000000000000000000000000000815260040161246190613966565b60405180910390fd5b5b5050565b6124828361247c84612487565b836124a0565b505050565b60006124998280519060200120612633565b9050919050565b6060818060200190516124b69190810190612edf565b905083518151146124fc576040517f08c379a00000000000000000000000000000000000000000000000000000000081526004016124f390613986565b60405180910390fd5b60008090505b845181101561262c5760018483838151811061251a57fe5b60200260200101516000015184848151811061253257fe5b60200260200101516020015185858151811061254a57fe5b602002602001015160400151604051600081526020016040526040516125739493929190613901565b6020604051602081039080840390855afa158015612595573d6000803e3d6000fd5b5050506020604051035173ffffffffffffffffffffffffffffffffffffffff168582815181106125c157fe5b602002602001015173ffffffffffffffffffffffffffffffffffffffff161461261f576040517f08c379a000000000000000000000000000000000000000000000000000000000815260040161261690613946565b60405180910390fd5b8080600101915050612502565b5050505050565b600060606040518060400160405280601c81526020017f19457468657265756d205369676e6564204d6573736167653a0a3332000000008152509050600081846040516020016126849291906137a1565b6040516020818303038152906040528051906020012090508092505050919050565b604051806103400160405280601a90602082028038833980820191505090505090565b828054828255906000526020600020908101928215612742579160200282015b828111156127415782518260006101000a81548173ffffffffffffffffffffffffffffffffffffffff021916908373ffffffffffffffffffffffffffffffffffffffff160217905550916020019190600101906126e9565b5b50905061274f919061297b565b5090565b82601a601f016020900481019282156127db5791602002820160005b838211156127ac57835183826101000a81548160ff021916908315150217905550926020019260010160208160000104928301926001030261276f565b80156127d95782816101000a81549060ff02191690556001016020816000010492830192600103026127ac565b505b5090506127e891906129be565b5090565b828054600181600116156101000203166002900490600052602060002090601f016020900481019282601f1061282d57805160ff191683800117855561285b565b8280016001018555821561285b579182015b8281111561285a57825182559160200191906001019061283f565b5b50905061286891906129ee565b5090565b60405180606001604052806000600481111561288457fe5b815260200160008152602001606081525090565b604051806104400160405280600080191681526020016128b6612a13565b815260200160608152602001600060ff168152602001600081526020016000815260200160008152602001600060058111156128ee57fe5b8152602001600081525090565b828054600181600116156101000203166002900490600052602060002090601f016020900481019282601f1061293c57805160ff191683800117855561296a565b8280016001018555821561296a579182015b8281111561296957825182559160200191906001019061294e565b5b50905061297791906129ee565b5090565b6129bb91905b808211156129b757600081816101000a81549073ffffffffffffffffffffffffffffffffffffffff021916905550600101612981565b5090565b90565b6129eb91905b808211156129e757600081816101000a81549060ff0219169055506001016129c4565b5090565b90565b612a1091905b80821115612a0c5760008160009055506001016129f4565b5090565b90565b604051806103400160405280601a90602082028038833980820191505090505090565b600081359050612a4581613d57565b92915050565b60008083601f840112612a5d57600080fd5b8235905067ffffffffffffffff811115612a7657600080fd5b602083019150836020820283011115612a8e57600080fd5b9250929050565b600082601f830112612aa657600080fd5b601a612ab9612ab482613a0a565b6139dd565b91508183856020840282011115612acf57600080fd5b60005b83811015612aff5781612ae58882612bd6565b845260208401935060208301925050600181019050612ad2565b5050505092915050565b600082601f830112612b1a57600080fd5b8151612b2d612b2882613a2c565b6139dd565b91508181835260208401935060208101905083856060840282011115612b5257600080fd5b60005b83811015612b825781612b688882612e2b565b845260208401935060608301925050600181019050612b55565b5050505092915050565b60008083601f840112612b9e57600080fd5b8235905067ffffffffffffffff811115612bb757600080fd5b602083019150836020820283011115612bcf57600080fd5b9250929050565b600081359050612be581613d6e565b92915050565b600081519050612bfa81613d6e565b92915050565b600081359050612c0f81613d85565b92915050565b600081519050612c2481613d85565b92915050565b60008083601f840112612c3c57600080fd5b8235905067ffffffffffffffff811115612c5557600080fd5b602083019150836001820283011115612c6d57600080fd5b9250929050565b600082601f830112612c8557600080fd5b8135612c98612c9382613a54565b6139dd565b91508082526020830160208301858383011115612cb457600080fd5b612cbf838284613ca6565b50505092915050565b600082601f830112612cd957600080fd5b8135612cec612ce782613a80565b6139dd565b91508082526020830160208301858383011115612d0857600080fd5b612d13838284613ca6565b50505092915050565b600081359050612d2b81613d9c565b92915050565b60006104408284031215612d4457600080fd5b612d4f6101206139dd565b90506000612d5f84828501612c00565b6000830152506020612d7384828501612a95565b60208301525061036082013567ffffffffffffffff811115612d9457600080fd5b612da084828501612c74565b604083015250610380612db584828501612eb5565b6060830152506103a0612dca84828501612e8b565b6080830152506103c0612ddf84828501612e8b565b60a0830152506103e0612df484828501612e8b565b60c083015250610400612e0984828501612d1c565b60e083015250610420612e1e84828501612e8b565b6101008301525092915050565b600060608284031215612e3d57600080fd5b612e4760606139dd565b90506000612e5784828501612eca565b6000830152506020612e6b84828501612c15565b6020830152506040612e7f84828501612c15565b60408301525092915050565b600081359050612e9a81613dac565b92915050565b600081519050612eaf81613dac565b92915050565b600081359050612ec481613dc3565b92915050565b600081519050612ed981613dc3565b92915050565b600060208284031215612ef157600080fd5b600082015167ffffffffffffffff811115612f0b57600080fd5b612f1784828501612b09565b91505092915050565b600060208284031215612f3257600080fd5b6000612f4084828501612c00565b91505092915050565b600080600060408486031215612f5e57600080fd5b6000612f6c86828701612c00565b935050602084013567ffffffffffffffff811115612f8957600080fd5b612f9586828701612a4b565b92509250509250925092565b600080600060408486031215612fb657600080fd5b6000612fc486828701612c00565b935050602084013567ffffffffffffffff811115612fe157600080fd5b612fed86828701612b8c565b92509250509250925092565b6000806000806060858703121561300f57600080fd5b600061301d87828801612c00565b945050602061302e87828801612c00565b935050604085013567ffffffffffffffff81111561304b57600080fd5b61305787828801612c2a565b925092505092959194509250565b60008060006060848603121561307a57600080fd5b600061308886828701612c00565b935050602061309986828701612c00565b92505060406130aa86828701612eb5565b9150509250925092565b6000806000604084860312156130c957600080fd5b60006130d786828701612c00565b935050602084013567ffffffffffffffff8111156130f457600080fd5b61310086828701612c2a565b92509250509250925092565b60008060006060848603121561312157600080fd5b600061312f86828701612c00565b935050602061314086828701612d1c565b925050604084013567ffffffffffffffff81111561315d57600080fd5b61316986828701612cc8565b9150509250925092565b6000806040838503121561318657600080fd5b600061319485828601612c00565b92505060206131a585828601612eb5565b9150509250929050565b6000602082840312156131c157600080fd5b600082013567ffffffffffffffff8111156131db57600080fd5b6131e784828501612d31565b91505092915050565b60008060006060848603121561320557600080fd5b600061321386828701612ea0565b935050602061322486828701612c15565b925050604061323586828701612beb565b9150509250925092565b60006020828403121561325157600080fd5b600061325f84828501612eb5565b91505092915050565b60006132748383613298565b60208301905092915050565b600061328c838361342d565b60208301905092915050565b6132a181613bfd565b82525050565b6132b081613bfd565b82525050565b60006132c28385613b61565b93506132cd82613aac565b8060005b85811015613306576132e38284613bc6565b6132ed8882613268565b97506132f883613b1c565b9250506001810190506132d1565b5085925050509392505050565b600061331e82613ae5565b6133288185613b50565b935061333383613ab6565b8060005b8381101561336457815161334b8882613268565b975061335683613b29565b925050600181019050613337565b5085935050505092915050565b600061337c82613af0565b6133868185613b61565b935061339183613ac6565b8060005b838110156133c9576133a682613d0c565b6133b08882613268565b97506133bb83613b36565b925050600181019050613395565b5085935050505092915050565b6133df81613afb565b6133e98184613b72565b92506133f482613adb565b8060005b8381101561342557815161340c8782613280565b965061341783613b43565b9250506001810190506133f8565b505050505050565b61343681613c0f565b82525050565b61344581613c1b565b82525050565b61345481613c1b565b82525050565b61346b61346682613c1b565b613d02565b82525050565b600061347d8385613b8e565b935061348a838584613ca6565b61349383613d1f565b840190509392505050565b60006134aa8385613b9f565b93506134b7838584613ca6565b82840190509392505050565b60006134ce82613b06565b6134d88185613b7d565b93506134e8818560208601613cb5565b6134f181613d1f565b840191505092915050565b61350581613c82565b82525050565b61351481613c94565b82525050565b61352381613c94565b82525050565b600061353482613b11565b61353e8185613bbb565b935061354e818560208601613cb5565b80840191505092915050565b6000613567600f83613baa565b91507f57726f6e67207369676e617475726500000000000000000000000000000000006000830152602082019050919050565b60006135a7601183613baa565b91507f4e6f207465726d696e616c2073746174650000000000000000000000000000006000830152602082019050919050565b60006135e7602b83613baa565b91507f546865726520617265206c6573732f6d6f7265207369676e617475726573207460008301527f68656e20706172746965730000000000000000000000000000000000000000006020830152604082019050919050565b600061044083016000830151613659600086018261343c565b50602083015161366c60208601826133d6565b50604083015184820361036086015261368582826134c3565b915050606083015161369b61038086018261376a565b5060808301516136af6103a086018261375b565b5060a08301516136c36103c086018261375b565b5060c08301516136d76103e086018261375b565b5060e08301516136eb61040086018261350b565b5061010083015161370061042086018261375b565b508091505092915050565b600060608301600083015161372360008601826134fc565b506020830151613736602086018261375b565b506040830151848203604086015261374e8282613313565b9150508091505092915050565b61376481613c6b565b82525050565b61377381613c75565b82525050565b61378281613c75565b82525050565b600061379582848661349e565b91508190509392505050565b60006137ad8285613529565b91506137b9828461345a565b6020820191508190509392505050565b60006040820190506137de60008301856132a7565b6137eb602083018461344b565b9392505050565b600060608201905061380760008301866132a7565b613814602083018561344b565b613821604083018461351a565b949350505050565b600060208201905061383e600083018461344b565b92915050565b6000604082019050613859600083018661344b565b818103602083015261386c8184866132b6565b9050949350505050565b600060408201905061388b600083018561344b565b818103602083015261389d8184613371565b90509392505050565b60006040820190506138bb600083018661344b565b81810360208301526138ce818486613471565b9050949350505050565b60006040820190506138ed600083018561344b565b6138fa602083018461351a565b9392505050565b6000608082019050613916600083018761344b565b6139236020830186613779565b613930604083018561344b565b61393d606083018461344b565b95945050505050565b6000602082019050818103600083015261395f8161355a565b9050919050565b6000602082019050818103600083015261397f8161359a565b9050919050565b6000602082019050818103600083015261399f816135da565b9050919050565b600060408201905081810360008301526139c0818561370b565b905081810360208301526139d48184613640565b90509392505050565b6000604051905081810181811067ffffffffffffffff82111715613a0057600080fd5b8060405250919050565b600067ffffffffffffffff821115613a2157600080fd5b602082029050919050565b600067ffffffffffffffff821115613a4357600080fd5b602082029050602081019050919050565b600067ffffffffffffffff821115613a6b57600080fd5b601f19601f8301169050602081019050919050565b600067ffffffffffffffff821115613a9757600080fd5b601f19601f8301169050602081019050919050565b6000819050919050565b6000819050602082019050919050565b60008190508160005260206000209050919050565b6000819050919050565b600081519050919050565b600081549050919050565b6000601a9050919050565b600081519050919050565b600081519050919050565b6000602082019050919050565b6000602082019050919050565b6000600182019050919050565b6000602082019050919050565b600082825260208201905092915050565b600082825260208201905092915050565b600081905092915050565b600082825260208201905092915050565b600082825260208201905092915050565b600081905092915050565b600082825260208201905092915050565b600081905092915050565b6000613bd56020840184612a36565b905092915050565b600073ffffffffffffffffffffffffffffffffffffffff82169050919050565b6000613c0882613c4b565b9050919050565b60008115159050919050565b6000819050919050565b6000819050613c3382613d3d565b919050565b6000819050613c4682613d4a565b919050565b600073ffffffffffffffffffffffffffffffffffffffff82169050919050565b6000819050919050565b600060ff82169050919050565b6000613c8d82613c25565b9050919050565b6000613c9f82613c38565b9050919050565b82818337600083830152505050565b60005b83811015613cd3578082015181840152602081019050613cb8565b83811115613ce2576000848401525b50505050565b6000613cfb613cf683613d30565b613bdd565b9050919050565b6000819050919050565b6000613d188254613ce8565b9050919050565b6000601f19601f8301169050919050565b60008160001c9050919050565b60058110613d4757fe5b50565b60068110613d5457fe5b50565b613d6081613bfd565b8114613d6b57600080fd5b50565b613d7781613c0f565b8114613d8257600080fd5b50565b613d8e81613c1b565b8114613d9957600080fd5b50565b60068110613da957600080fd5b50565b613db581613c6b565b8114613dc057600080fd5b50565b613dcc81613c75565b8114613dd757600080fd5b5056fea365627a7a72305820fd0b5e50ca796159e193d10e3ed56f5e949dd297b077ae50c2d8758cec88927d6c6578706572696d656e74616cf564736f6c634300050a0040",
  "source": "pragma solidity 0.5.10;\npragma experimental \"ABIEncoderV2\";\n\nimport \"contracts/hybridArchitecture/HybridDisputeBoard.sol\";\nimport \"contracts/sharedCode/SigVerifier.sol\";\nimport \"contracts/sharedCode/AbstractHangmanSingleton.sol\";\n\n\n//We assume that players only sign / produce states that can occur in a proper execution\n//For example, they do not sign / produce a state in which a player has used all of his ten tries but still is in stage WaitingForGuess\ncontract HybridHangmanSingleton is SigVerifier, AbstractHangmanSingleton{\n    \n    //******************\n    // Variables, enums, structures\n    \n    //constant after initialization\n    HybridDisputeBoard db;\n    \n    //Events\n    event eventLocked(bytes32 id);\n    event eventUnlocked(bytes32 id);\n    \n    //The enus for the channel status ONCHAIN and OFFCHAIN would fit here better to UNLOCKED = ONCHAIN and LOCKED = OFFCHAIN\n    \n    //****************\n    //Constructor\n    constructor(uint _maxTries, uint _minFunding, uint _challengePeriod, address _db) public AbstractHangmanSingleton(_maxTries, _minFunding, _challengePeriod){\n        db = HybridDisputeBoard(_db);\n    }\n    \n    //****************\n    //Channel logic\n    \n    //Function called by the inherrited function \"createInstance\"\n    function setInitialDisputeState(bytes32 _id) internal {\n        db.initializeChannel(_id, instanceState[_id].parties);\n    }\n    \n    //In the off-chain application they sign tuples of (address, lockCount, version, state-hash); the address uniquely identifies the instance, the lockCount is the lockCount used to lock the application, the version starts for each lock with 0 and is incremented with each state update\n    //The state-hash is constructed on the application contract's address and all state variables\n    function unlock(bytes32 _id, bytes calldata _encodedState) external isChannelStatus(_id, ChannelStatus.OFFCHAIN){\n        \n        //Read the current channel's information from the dispute board\n        (,bytes32 _stateHash, bool _unlockable) = db.getChannelInstance(keccak256(abi.encode(address(this), _id)));\n\n        \n        //Check that instance is unlockable\n        require(_unlockable);\n        \n        //Check that the right state has been provided\n        require(_stateHash == keccak256(_encodedState));\n        \n        //Update state\n        applicationState[_id] = abi.decode(_encodedState,(ApplicationVariables));\n        \n        //Unlock the instance, icrement the lockcount to prevent replays and notify users\n        instanceState[_id].status = ChannelStatus.ONCHAIN;\n        emit eventUnlocked(_id);\n    }\n    \n    //Function to close without a dispute: As this contact has no default funtionality to handle signed states we simply sign the address and the final stage / not state (dispute board handles signed hashes and this channel handles signed lock-requests)\n    function fastClose(bytes32 _id, Stage _stage, bytes memory _signatures) public {\n        \n        //Not when closed or not created\n        require(instanceState[_id].status == ChannelStatus.OFFCHAIN || instanceState[_id].status == ChannelStatus.ONCHAIN || instanceState[_id].status == ChannelStatus.DISPUTE);\n        \n        //Check signatures\n        verifySignatures(instanceState[_id].parties, abi.encode(address(this), _id, _stage), _signatures);\n        \n        //call close (checks stage and performs the closure)\n        internalClose(_id, _stage);\n    }\n    \n    //****************\n    //Application logic is inherited\n    \n    //******************\n    // Getter\n    function getInstance(bytes32 _id) external view returns (MaintainanceVariables memory, ApplicationVariables memory){\n        return (instanceState[_id], applicationState[_id]) ;\n    }\n\n}\n",
  "sourcePath": "/home/david/Desktop/implementation/truffle/contracts/hybridArchitecture/HybridHangmanSingleton.sol",
  "compiler": {
    "name": "solc",
    "version": "0.5.10+commit.5a6ea5b1.Emscripten.clang"
  },
  "schemaVersion": "3.0.16",
  "updatedAt": "2019-12-12T13:18:24.606Z",
  "devdoc": {
    "methods": {}
  },
  "userdoc": {
    "methods": {}
  }
}