{
  "contractName": "HybridHangmanChannel",
  "abi": [
    {
      "constant": false,
      "inputs": [
        {
          "name": "_nonce",
          "type": "bytes32"
        },
        {
          "name": "_opening",
          "type": "bytes"
        }
      ],
      "name": "open",
      "outputs": [],
      "payable": false,
      "stateMutability": "nonpayable",
      "type": "function"
    },
    {
      "constant": false,
      "inputs": [],
      "name": "wrong",
      "outputs": [],
      "payable": false,
      "stateMutability": "nonpayable",
      "type": "function"
    },
    {
      "constant": false,
      "inputs": [
        {
          "name": "_hashedWord",
          "type": "bytes32"
        },
        {
          "name": "_wordLength",
          "type": "uint8"
        }
      ],
      "name": "commit",
      "outputs": [],
      "payable": false,
      "stateMutability": "nonpayable",
      "type": "function"
    },
    {
      "constant": false,
      "inputs": [
        {
          "name": "_hits",
          "type": "uint8[]"
        }
      ],
      "name": "correct",
      "outputs": [],
      "payable": false,
      "stateMutability": "nonpayable",
      "type": "function"
    },
    {
      "constant": false,
      "inputs": [],
      "name": "close",
      "outputs": [],
      "payable": false,
      "stateMutability": "nonpayable",
      "type": "function"
    },
    {
      "constant": false,
      "inputs": [
        {
          "name": "_letter",
          "type": "uint8"
        }
      ],
      "name": "guess",
      "outputs": [],
      "payable": false,
      "stateMutability": "nonpayable",
      "type": "function"
    },
    {
      "constant": false,
      "inputs": [],
      "name": "finalizeChallenge",
      "outputs": [],
      "payable": false,
      "stateMutability": "nonpayable",
      "type": "function"
    },
    {
      "constant": false,
      "inputs": [],
      "name": "challenge",
      "outputs": [],
      "payable": false,
      "stateMutability": "nonpayable",
      "type": "function"
    },
    {
      "inputs": [
        {
          "name": "_maxTries",
          "type": "uint256"
        },
        {
          "name": "_challengePeriod",
          "type": "uint256"
        },
        {
          "name": "_parties",
          "type": "address[]"
        },
        {
          "name": "_db",
          "type": "address"
        }
      ],
      "payable": true,
      "stateMutability": "payable",
      "type": "constructor"
    },
    {
      "anonymous": false,
      "inputs": [],
      "name": "eventLocked",
      "type": "event"
    },
    {
      "anonymous": false,
      "inputs": [],
      "name": "eventUnlocked",
      "type": "event"
    },
    {
      "anonymous": false,
      "inputs": [
        {
          "indexed": false,
          "name": "_text",
          "type": "string"
        },
        {
          "indexed": false,
          "name": "_status",
          "type": "uint8"
        }
      ],
      "name": "LogStatus",
      "type": "event"
    },
    {
      "anonymous": false,
      "inputs": [
        {
          "indexed": false,
          "name": "newStage",
          "type": "uint8"
        }
      ],
      "name": "movePerformed",
      "type": "event"
    },
    {
      "constant": false,
      "inputs": [
        {
          "name": "_hashedWord",
          "type": "bytes32"
        },
        {
          "name": "_guessed",
          "type": "bool[26]"
        },
        {
          "name": "_word",
          "type": "bytes"
        },
        {
          "name": "_currentGuess",
          "type": "uint8"
        },
        {
          "name": "_wordLength",
          "type": "uint256"
        },
        {
          "name": "_missingLetters",
          "type": "uint256"
        },
        {
          "name": "_tries",
          "type": "uint256"
        },
        {
          "name": "_stage",
          "type": "uint8"
        }
      ],
      "name": "unlock",
      "outputs": [],
      "payable": false,
      "stateMutability": "nonpayable",
      "type": "function"
    },
    {
      "constant": false,
      "inputs": [
        {
          "name": "_stage",
          "type": "uint8"
        },
        {
          "name": "_signatures",
          "type": "bytes"
        }
      ],
      "name": "fastClose",
      "outputs": [],
      "payable": false,
      "stateMutability": "nonpayable",
      "type": "function"
    },
    {
      "constant": true,
      "inputs": [],
      "name": "getState",
      "outputs": [
        {
          "name": "",
          "type": "uint8"
        },
        {
          "name": "",
          "type": "address[]"
        },
        {
          "name": "",
          "type": "bytes32"
        },
        {
          "name": "",
          "type": "bool[26]"
        },
        {
          "name": "",
          "type": "bytes"
        },
        {
          "name": "",
          "type": "uint8"
        },
        {
          "name": "",
          "type": "uint256"
        },
        {
          "name": "",
          "type": "uint256"
        },
        {
          "name": "",
          "type": "uint256"
        },
        {
          "name": "",
          "type": "uint8"
        }
      ],
      "payable": false,
      "stateMutability": "view",
      "type": "function"
    }
  ],
  "bytecode": "0x60806040526040516200397a3803806200397a833981810160405262000029919081019062000320565b838383826000819055508160018190555080600290805190602001906200005292919062000190565b5060006004819055506000600b819055506000600c60006101000a81548160ff021916908360058111156200008357fe5b02179055505050506001600360006101000a81548160ff02191690836003811115620000ab57fe5b021790555080600c60016101000a81548173ffffffffffffffffffffffffffffffffffffffff021916908373ffffffffffffffffffffffffffffffffffffffff160217905550600c60019054906101000a900473ffffffffffffffffffffffffffffffffffffffff1673ffffffffffffffffffffffffffffffffffffffff166348c2c212600060026040518363ffffffff1660e01b81526004016200015292919062000454565b600060405180830381600087803b1580156200016d57600080fd5b505af115801562000182573d6000803e3d6000fd5b505050505050505062000624565b8280548282559060005260206000209081019282156200020c579160200282015b828111156200020b5782518260006101000a81548173ffffffffffffffffffffffffffffffffffffffff021916908373ffffffffffffffffffffffffffffffffffffffff16021790555091602001919060010190620001b1565b5b5090506200021b91906200021f565b5090565b6200026291905b808211156200025e57600081816101000a81549073ffffffffffffffffffffffffffffffffffffffff02191690555060010162000226565b5090565b90565b6000815190506200027681620005f0565b92915050565b600082601f8301126200028e57600080fd5b8151620002a56200029f82620004b6565b62000488565b91508181835260208401935060208101905083856020840282011115620002cb57600080fd5b60005b83811015620002ff5781620002e4888262000265565b845260208401935060208301925050600181019050620002ce565b5050505092915050565b6000815190506200031a816200060a565b92915050565b600080600080608085870312156200033757600080fd5b6000620003478782880162000309565b94505060206200035a8782880162000309565b935050604085015167ffffffffffffffff8111156200037857600080fd5b62000386878288016200027c565b9250506060620003998782880162000265565b91505092959194509250565b6000620003b38383620003bf565b60208301905092915050565b620003ca816200053d565b82525050565b6000620003dd82620004f4565b620003e981856200050c565b9350620003f683620004df565b8060005b8381101562000436576200040e82620005c1565b6200041a8882620003a5565b97506200042783620004ff565b925050600181019050620003fa565b5085935050505092915050565b6200044e8162000585565b82525050565b60006040820190506200046b600083018562000443565b81810360208301526200047f8184620003d0565b90509392505050565b6000604051905081810181811067ffffffffffffffff82111715620004ac57600080fd5b8060405250919050565b600067ffffffffffffffff821115620004ce57600080fd5b602082029050602081019050919050565b60008190508160005260206000209050919050565b600081549050919050565b6000600182019050919050565b600082825260208201905092915050565b600073ffffffffffffffffffffffffffffffffffffffff82169050919050565b60006200054a826200055b565b9050919050565b6000819050919050565b600073ffffffffffffffffffffffffffffffffffffffff82169050919050565b6000819050919050565b60006200059c620005968362000551565b620005d6565b9050919050565b6000620005ba620005b483620005e3565b6200051d565b9050919050565b6000620005cf8254620005a3565b9050919050565b60008160001b9050919050565b60008160001c9050919050565b620005fb816200053d565b81146200060757600080fd5b50565b62000615816200057b565b81146200062157600080fd5b50565b61334680620006346000396000f3fe608060405234801561001057600080fd5b50600436106100a95760003560e01c806343d726d61161007157806343d726d6146101335780634ba4c16b1461013d57806352d6ede814610159578063b78fe73414610175578063d2ef73981461017f578063dd5eca1314610189576100a9565b806304e1df8b146100ae5780631865c57d146100ca5780632c23d2b4146100f15780633a37bd3f146100fb578063425b9bb914610117575b600080fd5b6100c860048036036100c39190810190612477565b6101a5565b005b6100d2610586565b6040516100e89a99989796959493929190612dd9565b60405180910390f35b6100f9610788565b005b610115600480360361011091908101906124cf565b6109bd565b005b610131600480360361012c919081019061235e565b610bd1565b005b61013b610fcd565b005b610157600480360361015291908101906125ae565b611051565b005b610173600480360361016e91908101906123a3565b6112d2565b005b61017d6115aa565b005b6101876117f6565b005b6101a3600480360361019e919081019061250b565b611a04565b005b60026000815481106101b357fe5b9060005260206000200160009054906101000a900473ffffffffffffffffffffffffffffffffffffffff168073ffffffffffffffffffffffffffffffffffffffff163373ffffffffffffffffffffffffffffffffffffffff161461024c576040517f08c379a000000000000000000000000000000000000000000000000000000000815260040161024390612ee2565b60405180910390fd5b600380600581111561025a57fe5b600c60009054906101000a900460ff16600581111561027557fe5b146102b5576040517f08c379a00000000000000000000000000000000000000000000000000000000081526004016102ac90612fa2565b60405180910390fd5b60038060038111156102c357fe5b600360009054906101000a900460ff1660038111156102de57fe5b1461031e576040517f08c379a000000000000000000000000000000000000000000000000000000000815260040161031590612ea2565b60405180910390fd5b6003600581111561032b57fe5b600c60009054906101000a900460ff16600581111561034657fe5b14610386576040517f08c379a000000000000000000000000000000000000000000000000000000000815260040161037d90612f42565b60405180910390fd5b600954858590501461039757600080fd5b60008090505b6009548110156104f3578585828181106103b357fe5b9050013560f81c60f81b7effffffffffffffffffffffffffffffffffffffffffffffffffffffffffffff19166007828154600181600116156101000203166002900481106103fd57fe5b81546001161561041c5790600052602060002090602091828204019190065b9054901a7f0100000000000000000000000000000000000000000000000000000000000000027effffffffffffffffffffffffffffffffffffffffffffffffffffffffffffff1916141580156104af57506006604187878481811061047d57fe5b9050013560f81c60f81b60f81c0360ff16601a811061049857fe5b602091828204019190069054906101000a900460ff165b156104e6576005600c60006101000a81548160ff021916908360058111156104d357fe5b02179055506104e0611ac3565b5061057e565b808060010191505061039d565b5060055486868660405160200161050c93929190612d62565b6040516020818303038152906040528051906020012014610550576005600c60006101000a81548160ff0219169083600581111561054657fe5b0217905550610575565b6004600c60006101000a81548160ff0219169083600581111561056f57fe5b02179055505b61057d611ac3565b5b505050505050565b600060606000610594611e64565b60606000806000806000600360009054906101000a900460ff16600260055460066007600860009054906101000a900460ff16600954600a54600b54600c60009054906101000a900460ff168880548060200260200160405190810160405280929190818152602001828054801561066157602002820191906000526020600020905b8160009054906101000a900473ffffffffffffffffffffffffffffffffffffffff1673ffffffffffffffffffffffffffffffffffffffff1681526020019060010190808311610617575b5050505050985086601a806020026040519081016040528092919082601a80156106c5576020028201916000905b82829054906101000a900460ff1615158152602001906001019060208260000104928301926001038202915080841161068f5790505b50505050509650858054600181600116156101000203166002900480601f0160208091040260200160405190810160405280929190818152602001828054600181600116156101000203166002900480156107615780601f1061073657610100808354040283529160200191610761565b820191906000526020600020905b81548152906001019060200180831161074457829003601f168201915b50505050509550995099509950995099509950995099509950995090919293949596979899565b600260008154811061079657fe5b9060005260206000200160009054906101000a900473ffffffffffffffffffffffffffffffffffffffff168073ffffffffffffffffffffffffffffffffffffffff163373ffffffffffffffffffffffffffffffffffffffff161461082f576040517f08c379a000000000000000000000000000000000000000000000000000000000815260040161082690612ee2565b60405180910390fd5b600280600581111561083d57fe5b600c60009054906101000a900460ff16600581111561085857fe5b14610898576040517f08c379a000000000000000000000000000000000000000000000000000000000815260040161088f90612fa2565b60405180910390fd5b60038060038111156108a657fe5b600360009054906101000a900460ff1660038111156108c157fe5b14610901576040517f08c379a00000000000000000000000000000000000000000000000000000000081526004016108f890612ea2565b60405180910390fd5b600160066041600860009054906101000a900460ff160360ff16601a811061092557fe5b602091828204019190066101000a81548160ff021916908315150217905550600b60008154809291906001019190505550600054600b54141561098b576003600c60006101000a81548160ff0219169083600581111561098157fe5b02179055506109b0565b6001600c60006101000a81548160ff021916908360058111156109aa57fe5b02179055505b6109b8611ac3565b505050565b60026000815481106109cb57fe5b9060005260206000200160009054906101000a900473ffffffffffffffffffffffffffffffffffffffff168073ffffffffffffffffffffffffffffffffffffffff163373ffffffffffffffffffffffffffffffffffffffff1614610a64576040517f08c379a0000000000000000000000000000000000000000000000000000000008152600401610a5b90612ee2565b60405180910390fd5b6000806005811115610a7257fe5b600c60009054906101000a900460ff166005811115610a8d57fe5b14610acd576040517f08c379a0000000000000000000000000000000000000000000000000000000008152600401610ac490612fa2565b60405180910390fd5b6003806003811115610adb57fe5b600360009054906101000a900460ff166003811115610af657fe5b14610b36576040517f08c379a0000000000000000000000000000000000000000000000000000000008152600401610b2d90612ea2565b60405180910390fd5b846005819055508360ff166009819055506001600c60006101000a81548160ff02191690836005811115610b6657fe5b02179055508360ff16600a819055508360ff166040519080825280601f01601f191660200182016040528015610bab5781602001600182028038833980820191505090505b5060079080519060200190610bc1929190611e87565b50610bca611ac3565b5050505050565b6002600081548110610bdf57fe5b9060005260206000200160009054906101000a900473ffffffffffffffffffffffffffffffffffffffff168073ffffffffffffffffffffffffffffffffffffffff163373ffffffffffffffffffffffffffffffffffffffff1614610c78576040517f08c379a0000000000000000000000000000000000000000000000000000000008152600401610c6f90612ee2565b60405180910390fd5b6002806005811115610c8657fe5b600c60009054906101000a900460ff166005811115610ca157fe5b14610ce1576040517f08c379a0000000000000000000000000000000000000000000000000000000008152600401610cd890612fa2565b60405180910390fd5b6003806003811115610cef57fe5b600360009054906101000a900460ff166003811115610d0a57fe5b14610d4a576040517f08c379a0000000000000000000000000000000000000000000000000000000008152600401610d4190612ea2565b60405180910390fd5b60008585905011610d5a57600080fd5b60008090505b85859050811015610f1257600954868683818110610d7a57fe5b9050602002016020610d8f91908101906125ae565b60ff16101580610e47575060006007878784818110610daa57fe5b9050602002016020610dbf91908101906125ae565b60ff16815460018160011615610100020316600290048110610ddd57fe5b815460011615610dfc5790600052602060002090602091828204019190065b9054901a7f0100000000000000000000000000000000000000000000000000000000000000027effffffffffffffffffffffffffffffffffffffffffffffffffffffffffffff191614155b15610e5a57610e54611ac3565b50610fc6565b600860009054906101000a900460ff1660f81b6007878784818110610e7b57fe5b9050602002016020610e9091908101906125ae565b60ff16815460018160011615610100020316600290048110610eae57fe5b815460011615610ecd5790600052602060002090602091828204019190065b601f036101000a81548160ff021916907f0100000000000000000000000000000000000000000000000000000000000000840402179055508080600101915050610d60565b5084849050600a5403600a81905550600160066041600860009054906101000a900460ff160360ff16601a8110610f4557fe5b602091828204019190066101000a81548160ff0219169083151502179055506001600a541015610f98576005600c60006101000a81548160ff02191690836005811115610f8e57fe5b0217905550610fbd565b6001600c60006101000a81548160ff02191690836005811115610fb757fe5b02179055505b610fc5611ac3565b5b5050505050565b6003806003811115610fdb57fe5b600360009054906101000a900460ff166003811115610ff657fe5b14611036576040517f08c379a000000000000000000000000000000000000000000000000000000000815260040161102d90612ea2565b60405180910390fd5b61104e600c60009054906101000a900460ff16611b13565b50565b600260018154811061105f57fe5b9060005260206000200160009054906101000a900473ffffffffffffffffffffffffffffffffffffffff168073ffffffffffffffffffffffffffffffffffffffff163373ffffffffffffffffffffffffffffffffffffffff16146110f8576040517f08c379a00000000000000000000000000000000000000000000000000000000081526004016110ef90612ee2565b60405180910390fd5b600180600581111561110657fe5b600c60009054906101000a900460ff16600581111561112157fe5b14611161576040517f08c379a000000000000000000000000000000000000000000000000000000000815260040161115890612fa2565b60405180910390fd5b600380600381111561116f57fe5b600360009054906101000a900460ff16600381111561118a57fe5b146111ca576040517f08c379a00000000000000000000000000000000000000000000000000000000081526004016111c190612ea2565b60405180910390fd5b6000604185039050601a8160ff1610611218576040517f08c379a000000000000000000000000000000000000000000000000000000000815260040161120f90612f22565b60405180910390fd5b6000151560068260ff16601a811061122c57fe5b602091828204019190069054906101000a900460ff16151514611284576040517f08c379a000000000000000000000000000000000000000000000000000000000815260040161127b90612f62565b60405180910390fd5b84600860006101000a81548160ff021916908360ff1602179055506002600c60006101000a81548160ff021916908360058111156112be57fe5b02179055506112cb611ac3565b5050505050565b60018060038111156112e057fe5b600360009054906101000a900460ff1660038111156112fb57fe5b1461133b576040517f08c379a000000000000000000000000000000000000000000000000000000000815260040161133290612ea2565b60405180910390fd5b600080600c60019054906101000a900473ffffffffffffffffffffffffffffffffffffffff1673ffffffffffffffffffffffffffffffffffffffff1663d2966c14306000604051602001611390929190612c91565b604051602081830303815290604052805190602001206040518263ffffffff1660e01b81526004016113c29190612cba565b60606040518083038186803b1580156113da57600080fd5b505afa1580156113ee573d6000803e3d6000fd5b505050506040513d601f19601f82011682018060405250611412919081019061255f565b925092505080611457576040517f08c379a000000000000000000000000000000000000000000000000000000000815260040161144e90612f82565b60405180910390fd5b8b8b8b8b8b8b8b8b8b60405160200161147899989796959493929190612cd5565b6040516020818303038152906040528051906020012082146114cf576040517f08c379a00000000000000000000000000000000000000000000000000000000081526004016114c690612fc2565b60405180910390fd5b8b6005819055508a600690601a6114e7929190611f07565b508989600791906114f9929190611fa2565b5087600860006101000a81548160ff021916908360ff1602179055508660098190555085600a8190555084600b8190555083600c60006101000a81548160ff0219169083600581111561154857fe5b021790555060038060006101000a81548160ff0219169083600381111561156b57fe5b02179055507f6e3bd3db4e4d52e58da7737c8c7b8d220d9b07f6fac7fc0e1c9689bbe799635a60405160405180910390a1505050505050505050505050565b60038060038111156115b857fe5b600360009054906101000a900460ff1660038111156115d357fe5b14611613576040517f08c379a000000000000000000000000000000000000000000000000000000000815260040161160a90612ea2565b60405180910390fd5b42600454111561162257600080fd5b6004600581111561162f57fe5b600c60009054906101000a900460ff16600581111561164a57fe5b1415801561167d575060058081111561165f57fe5b600c60009054906101000a900460ff16600581111561167a57fe5b14155b61168657600080fd5b600260008154811061169457fe5b9060005260206000200160009054906101000a900473ffffffffffffffffffffffffffffffffffffffff1673ffffffffffffffffffffffffffffffffffffffff163373ffffffffffffffffffffffffffffffffffffffff16148061175b5750600260018154811061170157fe5b9060005260206000200160009054906101000a900473ffffffffffffffffffffffffffffffffffffffff1673ffffffffffffffffffffffffffffffffffffffff163373ffffffffffffffffffffffffffffffffffffffff16145b61176457600080fd5b6001600581111561177157fe5b600c60009054906101000a900460ff16600581111561178c57fe5b14156117c1576004600581111561179f57fe5b600c60009054906101000a900460ff1660058111156117ba57fe5b50506117eb565b6005808111156117cd57fe5b600c60009054906101000a900460ff1660058111156117e857fe5b50505b6117f3611ac3565b50565b600380600381111561180457fe5b600360009054906101000a900460ff16600381111561181f57fe5b1461185f576040517f08c379a000000000000000000000000000000000000000000000000000000000815260040161185690612ea2565b60405180910390fd5b60006004541461186e57600080fd5b6004600581111561187b57fe5b600c60009054906101000a900460ff16600581111561189657fe5b141580156118c957506005808111156118ab57fe5b600c60009054906101000a900460ff1660058111156118c657fe5b14155b6118d257600080fd5b60026000815481106118e057fe5b9060005260206000200160009054906101000a900473ffffffffffffffffffffffffffffffffffffffff1673ffffffffffffffffffffffffffffffffffffffff163373ffffffffffffffffffffffffffffffffffffffff1614806119a75750600260018154811061194d57fe5b9060005260206000200160009054906101000a900473ffffffffffffffffffffffffffffffffffffffff1673ffffffffffffffffffffffffffffffffffffffff163373ffffffffffffffffffffffffffffffffffffffff16145b6119b057600080fd5b60015442016004819055507fdc366cb1e2516aaf0bb450000834ee4209956a3889d1b518ec01475ec98ed521600c60009054906101000a900460ff166040516119f99190612e87565b60405180910390a150565b611ab66002805480602002602001604051908101604052809291908181526020018280548015611a8957602002820191906000526020600020905b8160009054906101000a900473ffffffffffffffffffffffffffffffffffffffff1673ffffffffffffffffffffffffffffffffffffffff1681526020019060010190808311611a3f575b50505050503084604051602001611aa1929190612c68565b60405160208183030381529060405283611c2d565b611abf82611b13565b5050565b60006004819055507fdc366cb1e2516aaf0bb450000834ee4209956a3889d1b518ec01475ec98ed521600c60009054906101000a900460ff16604051611b099190612e87565b60405180910390a1565b60046005811115611b2057fe5b816005811115611b2c57fe5b1415611b83576002600081548110611b4057fe5b9060005260206000200160009054906101000a900473ffffffffffffffffffffffffffffffffffffffff1673ffffffffffffffffffffffffffffffffffffffff16ff5b600580811115611b8f57fe5b816005811115611b9b57fe5b1415611bf2576002600181548110611baf57fe5b9060005260206000200160009054906101000a900473ffffffffffffffffffffffffffffffffffffffff1673ffffffffffffffffffffffffffffffffffffffff16ff5b6040517f08c379a0000000000000000000000000000000000000000000000000000000008152600401611c2490612f02565b60405180910390fd5b611c4083611c3a84611c45565b83611c5e565b505050565b6000611c578280519060200120611df1565b9050919050565b606081806020019051611c74919081019061231d565b90508351815114611cba576040517f08c379a0000000000000000000000000000000000000000000000000000000008152600401611cb190612fe2565b60405180910390fd5b60008090505b8451811015611dea57600184838381518110611cd857fe5b602002602001015160000151848481518110611cf057fe5b602002602001015160200151858581518110611d0857fe5b60200260200101516040015160405160008152602001604052604051611d319493929190612d94565b6020604051602081039080840390855afa158015611d53573d6000803e3d6000fd5b5050506020604051035173ffffffffffffffffffffffffffffffffffffffff16858281518110611d7f57fe5b602002602001015173ffffffffffffffffffffffffffffffffffffffff1614611ddd576040517f08c379a0000000000000000000000000000000000000000000000000000000008152600401611dd490612ec2565b60405180910390fd5b8080600101915050611cc0565b5050505050565b600060606040518060400160405280601c81526020017f19457468657265756d205369676e6564204d6573736167653a0a333200000000815250905060008184604051602001611e42929190612c40565b6040516020818303038152906040528051906020012090508092505050919050565b604051806103400160405280601a90602082028038833980820191505090505090565b828054600181600116156101000203166002900490600052602060002090601f016020900481019282601f10611ec857805160ff1916838001178555611ef6565b82800160010185558215611ef6579182015b82811115611ef5578251825591602001919060010190611eda565b5b509050611f039190612022565b5090565b82601a601f01602090048101928215611f915791602002820160005b83821115611f62578335151583826101000a81548160ff0219169083151502179055509260200192600101602081600001049283019260010302611f23565b8015611f8f5782816101000a81549060ff0219169055600101602081600001049283019260010302611f62565b505b509050611f9e9190612047565b5090565b828054600181600116156101000203166002900490600052602060002090601f016020900481019282601f10611fe357803560ff1916838001178555612011565b82800160010185558215612011579182015b82811115612010578235825591602001919060010190611ff5565b5b50905061201e9190612022565b5090565b61204491905b80821115612040576000816000905550600101612028565b5090565b90565b61207491905b8082111561207057600081816101000a81549060ff02191690555060010161204d565b5090565b90565b6000819050826020601a028201111561208f57600080fd5b92915050565b600082601f8301126120a657600080fd5b81516120b96120b48261302f565b613002565b915081818352602084019350602081019050838560608402820111156120de57600080fd5b60005b8381101561210e57816120f48882612269565b8452602084019350606083019250506001810190506120e1565b5050505092915050565b60008083601f84011261212a57600080fd5b8235905067ffffffffffffffff81111561214357600080fd5b60208301915083602082028301111561215b57600080fd5b9250929050565b60008135905061217181613297565b92915050565b60008151905061218681613297565b92915050565b60008135905061219b816132ae565b92915050565b6000815190506121b0816132ae565b92915050565b60008083601f8401126121c857600080fd5b8235905067ffffffffffffffff8111156121e157600080fd5b6020830191508360018202830111156121f957600080fd5b9250929050565b600082601f83011261221157600080fd5b813561222461221f82613057565b613002565b9150808252602083016020830185838301111561224057600080fd5b61224b838284613220565b50505092915050565b600081359050612263816132c5565b92915050565b60006060828403121561227b57600080fd5b6122856060613002565b9050600061229584828501612308565b60008301525060206122a9848285016121a1565b60208301525060406122bd848285016121a1565b60408301525092915050565b6000813590506122d8816132d5565b92915050565b6000815190506122ed816132d5565b92915050565b600081359050612302816132ec565b92915050565b600081519050612317816132ec565b92915050565b60006020828403121561232f57600080fd5b600082015167ffffffffffffffff81111561234957600080fd5b61235584828501612095565b91505092915050565b6000806020838503121561237157600080fd5b600083013567ffffffffffffffff81111561238b57600080fd5b61239785828601612118565b92509250509250929050565b60008060008060008060008060006104208a8c0312156123c257600080fd5b60006123d08c828d0161218c565b99505060206123e18c828d01612077565b9850506103608a013567ffffffffffffffff8111156123ff57600080fd5b61240b8c828d016121b6565b975097505061038061241f8c828d016122f3565b9550506103a06124318c828d016122c9565b9450506103c06124438c828d016122c9565b9350506103e06124558c828d016122c9565b9250506104006124678c828d01612254565b9150509295985092959850929598565b60008060006040848603121561248c57600080fd5b600061249a8682870161218c565b935050602084013567ffffffffffffffff8111156124b757600080fd5b6124c3868287016121b6565b92509250509250925092565b600080604083850312156124e257600080fd5b60006124f08582860161218c565b9250506020612501858286016122f3565b9150509250929050565b6000806040838503121561251e57600080fd5b600061252c85828601612254565b925050602083013567ffffffffffffffff81111561254957600080fd5b61255585828601612200565b9150509250929050565b60008060006060848603121561257457600080fd5b6000612582868287016122de565b9350506020612593868287016121a1565b92505060406125a486828701612177565b9150509250925092565b6000602082840312156125c057600080fd5b60006125ce848285016122f3565b91505092915050565b60006125e38383612607565b60208301905092915050565b60006125fb8383612739565b60208301905092915050565b61261081613165565b82525050565b61261f81613165565b82525050565b6000612630826130a7565b61263a8185613105565b935061264583613083565b8060005b8381101561267657815161265d88826125d7565b9750612668836130de565b925050600181019050612649565b5085935050505092915050565b61268c816130b2565b6126968184613116565b92506126a182613093565b8060005b838110156126da576126b7828461314e565b6126c187826125ef565b96506126cc836130eb565b9250506001810190506126a5565b505050505050565b6126eb816130bd565b6126f58184613116565b92506127008261309d565b8060005b8381101561273157815161271887826125ef565b9650612723836130f8565b925050600181019050612704565b505050505050565b61274281613177565b82525050565b61275181613183565b82525050565b61276861276382613183565b613262565b82525050565b600061277a8385613121565b9350612787838584613220565b6127908361326c565b840190509392505050565b60006127a6826130c8565b6127b08185613121565b93506127c081856020860161322f565b6127c98161326c565b840191505092915050565b6127dd816131ea565b82525050565b6127ec816131fc565b82525050565b6127fb8161320e565b82525050565b600061280c826130d3565b6128168185613143565b935061282681856020860161322f565b80840191505092915050565b600061283f603283613132565b91507f4e6f7420746865207269676874206368616e6e656c2073746174757320746f2060008301527f63616c6c20746869732066756e6374696f6e00000000000000000000000000006020830152604082019050919050565b60006128a5600f83613132565b91507f57726f6e67207369676e617475726500000000000000000000000000000000006000830152602082019050919050565b60006128e5602983613132565b91507f4e6f742074686520726967687420706172747920746f2063616c6c207468697360008301527f2066756e6374696f6e00000000000000000000000000000000000000000000006020830152604082019050919050565b600061294b601183613132565b91507f4e6f207465726d696e616c2073746174650000000000000000000000000000006000830152602082019050919050565b600061298b601283613132565b91507f4e6f7420612076616c6964206c657474657200000000000000000000000000006000830152602082019050919050565b60006129cb602583613132565b91507f4e6f7420696e2074686520726967687420737461676520666f7220616e206f7060008301527f656e696e670000000000000000000000000000000000000000000000000000006020830152604082019050919050565b6000612a31601f83613132565b91507f4c65747465722068617320616c7265616479206265656e2067756573736564006000830152602082019050919050565b6000612a71607883613132565b91507f496e7374616e6365206973206e6f7420756e6c6f636b61626c652c206569746860008301527f657220746865206c6174657374206469737075746520706572696f642068617360208301527f206e6f74206265656e2066696e6973686564206f722074686520696e7374616e60408301527f636520686173206e65766572206265656e206c6f636b656400000000000000006060830152608082019050919050565b6000612b23602983613132565b91507f4e6f742074686520726967687420737461676520746f2063616c6c207468697360008301527f2066756e6374696f6e00000000000000000000000000000000000000000000006020830152604082019050919050565b6000612b89601d83613132565b91507f57726f6e6720737461746520686173206265656e2070726f76696465640000006000830152602082019050919050565b6000612bc9602b83613132565b91507f546865726520617265206c6573732f6d6f7265207369676e617475726573207460008301527f68656e20706172746965730000000000000000000000000000000000000000006020830152604082019050919050565b612c2b816131d3565b82525050565b612c3a816131dd565b82525050565b6000612c4c8285612801565b9150612c588284612757565b6020820191508190509392505050565b6000604082019050612c7d6000830185612616565b612c8a60208301846127e3565b9392505050565b6000604082019050612ca66000830185612616565b612cb360208301846127f2565b9392505050565b6000602082019050612ccf6000830184612748565b92915050565b600061042082019050612ceb600083018c612748565b612cf8602083018b612683565b818103610360830152612d0c81898b61276e565b9050612d1c610380830188612c31565b612d2a6103a0830187612c22565b612d386103c0830186612c22565b612d466103e0830185612c22565b612d546104008301846127e3565b9a9950505050505050505050565b6000604082019050612d776000830186612748565b8181036020830152612d8a81848661276e565b9050949350505050565b6000608082019050612da96000830187612748565b612db66020830186612c31565b612dc36040830185612748565b612dd06060830184612748565b95945050505050565b600061046082019050612def600083018d6127d4565b8181036020830152612e01818c612625565b9050612e10604083018b612748565b612e1d606083018a6126e2565b8181036103a0830152612e30818961279b565b9050612e406103c0830188612c31565b612e4e6103e0830187612c22565b612e5c610400830186612c22565b612e6a610420830185612c22565b612e786104408301846127e3565b9b9a5050505050505050505050565b6000602082019050612e9c60008301846127e3565b92915050565b60006020820190508181036000830152612ebb81612832565b9050919050565b60006020820190508181036000830152612edb81612898565b9050919050565b60006020820190508181036000830152612efb816128d8565b9050919050565b60006020820190508181036000830152612f1b8161293e565b9050919050565b60006020820190508181036000830152612f3b8161297e565b9050919050565b60006020820190508181036000830152612f5b816129be565b9050919050565b60006020820190508181036000830152612f7b81612a24565b9050919050565b60006020820190508181036000830152612f9b81612a64565b9050919050565b60006020820190508181036000830152612fbb81612b16565b9050919050565b60006020820190508181036000830152612fdb81612b7c565b9050919050565b60006020820190508181036000830152612ffb81612bbc565b9050919050565b6000604051905081810181811067ffffffffffffffff8211171561302557600080fd5b8060405250919050565b600067ffffffffffffffff82111561304657600080fd5b602082029050602081019050919050565b600067ffffffffffffffff82111561306e57600080fd5b601f19601f8301169050602081019050919050565b6000819050602082019050919050565b6000819050919050565b6000819050919050565b600081519050919050565b6000601a9050919050565b6000601a9050919050565b600081519050919050565b600081519050919050565b6000602082019050919050565b6000602082019050919050565b6000602082019050919050565b600082825260208201905092915050565b600081905092915050565b600082825260208201905092915050565b600082825260208201905092915050565b600081905092915050565b600061315d6020840184612162565b905092915050565b6000613170826131b3565b9050919050565b60008115159050919050565b6000819050919050565b600081905061319b8261327d565b919050565b60008190506131ae8261328a565b919050565b600073ffffffffffffffffffffffffffffffffffffffff82169050919050565b6000819050919050565b600060ff82169050919050565b60006131f58261318d565b9050919050565b6000613207826131a0565b9050919050565b6000613219826131dd565b9050919050565b82818337600083830152505050565b60005b8381101561324d578082015181840152602081019050613232565b8381111561325c576000848401525b50505050565b6000819050919050565b6000601f19601f8301169050919050565b6004811061328757fe5b50565b6006811061329457fe5b50565b6132a081613177565b81146132ab57600080fd5b50565b6132b781613183565b81146132c257600080fd5b50565b600681106132d257600080fd5b50565b6132de816131d3565b81146132e957600080fd5b50565b6132f5816131dd565b811461330057600080fd5b5056fea365627a7a723058209778eb838f6c06b8b8ffcd25da768956f925462dfbd7794ec65a055f226fd0166c6578706572696d656e74616cf564736f6c634300050a0040",
  "source": "pragma solidity 0.5.10;\npragma experimental \"ABIEncoderV2\";\n\nimport \"contracts/hybridArchitecture/HybridDisputeBoard.sol\";\nimport \"contracts/sharedCode/AbstractHangmanChannel.sol\";\nimport \"contracts/sharedCode/SigVerifier.sol\";\n\n\n//We assume that players only sign / produce states that can occur in a proper execution\n//For example, they do not sign / produce a state in which a player has used all of his ten tries but still is in stage WaitingForGuess\ncontract HybridHangmanChannel is AbstractHangmanChannel, SigVerifier{\n    \n    //******************\n    // Variables, enums, structures\n    \n    //Channel variables\n    HybridDisputeBoard db;\n    \n    //Events\n    event eventLocked();\n    event eventUnlocked();\n    \n    //The enums for the channel status ONCHAIN and OFFCHAIN would fit here better to UNLOCKED = ONCHAIN and LOCKED = OFFCHAIN\n    \n    //****************\n    //Constructor\n    constructor(uint _maxTries, uint _challengePeriod, address[] memory _parties, address _db) public payable AbstractHangmanChannel(_maxTries, _challengePeriod, _parties){\n        \n        //We are starting off-chain\n        status = ChannelStatus.OFFCHAIN;\n        db = HybridDisputeBoard(_db);\n        db.initializeChannel(0, parties);   //Need to send a 0 as well, because dispute board is used by the singleton extension as well\n        \n    }\n    \n    //****************\n    //Unlock logic\n\n    \n    //In the off-chain application they sign tuples of (hash(0, address), lockCount, version, state-hash); the hash(0,address) uniquely identifies the instance, the lockCount is the lockCount used to lock the application, the version starts for each lock with 0 and is incremented with each state update\n    //The state-hash is constructed on the application contract's address and all state variables\n    function unlock(bytes32 _hashedWord, bool[26] calldata _guessed, bytes calldata _word, uint8 _currentGuess, uint _wordLength, uint _missingLetters, uint _tries, Stage _stage) external isChannelStatus(ChannelStatus.OFFCHAIN){\n        \n        //Read the current channel's information from the dispute board\n        ( ,bytes32 _stateHash, bool _unlockable) = db.getChannelInstance(keccak256(abi.encode(address(this), 0)));\n        \n        //Check that instance is unlockable\n        require(_unlockable, \"Instance is not unlockable, either the latest dispute period has not been finished or the instance has never been locked\");\n        \n        //Check that the right state has been provided\n        require(_stateHash == keccak256(abi.encode(_hashedWord, _guessed, _word, _currentGuess, _wordLength, _missingLetters, _tries, _stage)), \"Wrong state has been provided\");\n        \n        //Update state\n        hashedWord = _hashedWord;\n        guessed = _guessed;\n        word = _word;\n        currentGuess = _currentGuess;\n        wordLength = _wordLength;\n        missingLetters = _missingLetters;\n        tries = _tries;\n        stage = _stage;\n        \n        //Unlock the instance, icrement the lockcount to prevent replays and notify users\n        status = ChannelStatus.ONCHAIN;\n        emit eventUnlocked();\n    }\n    \n    //Function to close without a dispute: As this contact has no default funtionality to handle signed states we simply sign the address and the final stage / not state (dispute board handles signed hashes and this channel handles signed lock-requests)\n    function fastClose(Stage _stage, bytes memory _signatures) public {\n        //Check signatures\n        verifySignatures(parties, abi.encode(address(this), _stage), _signatures);\n        //call close (checks stage and performs the closure)\n        internalClose(_stage);\n    }\n    \n    //****************\n    //Application logic is inherited\n    \n    //****************\n    //Getters\n    function getState() external view returns (ChannelStatus, address[] memory, bytes32, bool[26] memory, bytes memory, uint8, uint, uint, uint, Stage){\n        return (status, parties, hashedWord, guessed, word, currentGuess, wordLength, missingLetters, tries, stage);\n    }\n}\n",
  "sourcePath": "/media/shared/CAC/Projekte/2019_SC_Workshop_FinCrypto/publicImplementation/truffle/contracts/hybridArchitecture/HybridHangmanChannel.sol",
  "compiler": {
    "name": "solc",
    "version": "0.5.10+commit.5a6ea5b1.Emscripten.clang"
  },
  "schemaVersion": "3.0.16",
  "updatedAt": "2019-12-13T14:08:35.845Z",
  "devdoc": {
    "methods": {}
  },
  "userdoc": {
    "methods": {}
  }
}