{
  "contractName": "HybridRelockableHangmanSingleton",
  "abi": [
    {
      "constant": false,
      "inputs": [
        {
          "name": "_id",
          "type": "bytes32"
        }
      ],
      "name": "wrong",
      "outputs": [],
      "payable": false,
      "stateMutability": "nonpayable",
      "type": "function"
    },
    {
      "constant": false,
      "inputs": [
        {
          "name": "_nonce",
          "type": "bytes32"
        },
        {
          "name": "_parties",
          "type": "address[]"
        }
      ],
      "name": "createInstance",
      "outputs": [],
      "payable": true,
      "stateMutability": "payable",
      "type": "function"
    },
    {
      "constant": false,
      "inputs": [
        {
          "name": "_id",
          "type": "bytes32"
        }
      ],
      "name": "close",
      "outputs": [],
      "payable": false,
      "stateMutability": "nonpayable",
      "type": "function"
    },
    {
      "constant": false,
      "inputs": [
        {
          "name": "_id",
          "type": "bytes32"
        },
        {
          "name": "_hits",
          "type": "uint8[]"
        }
      ],
      "name": "correct",
      "outputs": [],
      "payable": false,
      "stateMutability": "nonpayable",
      "type": "function"
    },
    {
      "constant": false,
      "inputs": [
        {
          "name": "_id",
          "type": "bytes32"
        },
        {
          "name": "_letter",
          "type": "uint8"
        }
      ],
      "name": "guess",
      "outputs": [],
      "payable": false,
      "stateMutability": "nonpayable",
      "type": "function"
    },
    {
      "constant": false,
      "inputs": [
        {
          "name": "_id",
          "type": "bytes32"
        }
      ],
      "name": "finalizeChallenge",
      "outputs": [],
      "payable": false,
      "stateMutability": "nonpayable",
      "type": "function"
    },
    {
      "constant": false,
      "inputs": [
        {
          "name": "_id",
          "type": "bytes32"
        }
      ],
      "name": "challenge",
      "outputs": [],
      "payable": false,
      "stateMutability": "nonpayable",
      "type": "function"
    },
    {
      "constant": false,
      "inputs": [
        {
          "name": "_id",
          "type": "bytes32"
        },
        {
          "name": "_hashedWord",
          "type": "bytes32"
        },
        {
          "name": "_wordLength",
          "type": "uint8"
        }
      ],
      "name": "commit",
      "outputs": [],
      "payable": false,
      "stateMutability": "nonpayable",
      "type": "function"
    },
    {
      "constant": false,
      "inputs": [
        {
          "name": "_id",
          "type": "bytes32"
        },
        {
          "name": "_nonce",
          "type": "bytes32"
        },
        {
          "name": "_opening",
          "type": "bytes"
        }
      ],
      "name": "open",
      "outputs": [],
      "payable": false,
      "stateMutability": "nonpayable",
      "type": "function"
    },
    {
      "inputs": [
        {
          "name": "_maxTries",
          "type": "uint256"
        },
        {
          "name": "_minFunding",
          "type": "uint256"
        },
        {
          "name": "_challengePeriod",
          "type": "uint256"
        },
        {
          "name": "_db",
          "type": "address"
        }
      ],
      "payable": false,
      "stateMutability": "nonpayable",
      "type": "constructor"
    },
    {
      "anonymous": false,
      "inputs": [
        {
          "indexed": false,
          "name": "id",
          "type": "bytes32"
        }
      ],
      "name": "eventLocked",
      "type": "event"
    },
    {
      "anonymous": false,
      "inputs": [
        {
          "indexed": false,
          "name": "id",
          "type": "bytes32"
        }
      ],
      "name": "eventUnlocked",
      "type": "event"
    },
    {
      "anonymous": false,
      "inputs": [
        {
          "indexed": false,
          "name": "id",
          "type": "bytes32"
        }
      ],
      "name": "newChannel",
      "type": "event"
    },
    {
      "anonymous": false,
      "inputs": [
        {
          "indexed": false,
          "name": "id",
          "type": "bytes32"
        },
        {
          "indexed": false,
          "name": "newStage",
          "type": "uint8"
        }
      ],
      "name": "movePerformed",
      "type": "event"
    },
    {
      "constant": false,
      "inputs": [
        {
          "name": "_id",
          "type": "bytes32"
        },
        {
          "name": "_signatures",
          "type": "bytes"
        }
      ],
      "name": "lock",
      "outputs": [],
      "payable": false,
      "stateMutability": "nonpayable",
      "type": "function"
    },
    {
      "constant": false,
      "inputs": [
        {
          "name": "_id",
          "type": "bytes32"
        },
        {
          "name": "_encodedState",
          "type": "bytes"
        }
      ],
      "name": "unlock",
      "outputs": [],
      "payable": false,
      "stateMutability": "nonpayable",
      "type": "function"
    },
    {
      "constant": false,
      "inputs": [
        {
          "name": "_id",
          "type": "bytes32"
        },
        {
          "name": "_stage",
          "type": "uint8"
        },
        {
          "name": "_signatures",
          "type": "bytes"
        }
      ],
      "name": "fastClose",
      "outputs": [],
      "payable": false,
      "stateMutability": "nonpayable",
      "type": "function"
    },
    {
      "constant": true,
      "inputs": [
        {
          "name": "_id",
          "type": "bytes32"
        }
      ],
      "name": "getInstance",
      "outputs": [
        {
          "components": [
            {
              "name": "status",
              "type": "uint8"
            },
            {
              "name": "funding",
              "type": "uint256"
            },
            {
              "name": "parties",
              "type": "address[]"
            }
          ],
          "name": "",
          "type": "tuple"
        },
        {
          "components": [
            {
              "name": "hashedWord",
              "type": "bytes32"
            },
            {
              "name": "guessed",
              "type": "bool[26]"
            },
            {
              "name": "word",
              "type": "bytes"
            },
            {
              "name": "currentGuess",
              "type": "uint8"
            },
            {
              "name": "wordLength",
              "type": "uint256"
            },
            {
              "name": "missingLetters",
              "type": "uint256"
            },
            {
              "name": "tries",
              "type": "uint256"
            },
            {
              "name": "stage",
              "type": "uint8"
            },
            {
              "name": "challenged",
              "type": "uint256"
            }
          ],
          "name": "",
          "type": "tuple"
        },
        {
          "components": [
            {
              "name": "lockCount",
              "type": "uint256"
            }
          ],
          "name": "",
          "type": "tuple"
        }
      ],
      "payable": false,
      "stateMutability": "view",
      "type": "function"
    }
  ],
  "bytecode": "0x608060405260006005553480156200001657600080fd5b50604051620043b2380380620043b283398181016040526200003c9190810190620000d0565b83838382600081905550816001819055508060028190555050505080600660006101000a81548173ffffffffffffffffffffffffffffffffffffffff021916908373ffffffffffffffffffffffffffffffffffffffff16021790555050505050620001ae565b600081519050620000b3816200017a565b92915050565b600081519050620000ca8162000194565b92915050565b60008060008060808587031215620000e757600080fd5b6000620000f787828801620000b9565b94505060206200010a87828801620000b9565b93505060406200011d87828801620000b9565b92505060606200013087828801620000a2565b91505092959194509250565b6000620001498262000150565b9050919050565b600073ffffffffffffffffffffffffffffffffffffffff82169050919050565b6000819050919050565b62000185816200013c565b81146200019157600080fd5b50565b6200019f8162000170565b8114620001ab57600080fd5b50565b6141f480620001be6000396000f3fe6080604052600436106100c25760003560e01c8063624a23e01161007f578063cffd46dc11610059578063cffd46dc14610241578063ea8de7851461026a578063ed38c63e14610293578063ee1818f2146102bc576100c2565b8063624a23e0146101b057806368b3823e146101ef5780637974e77f14610218576100c2565b80632d0dd261146100c75780633452c29c146100f057806339c79e0c1461010c57806346b1fa0f146101355780634d900f0d1461015e5780635fc7e13314610187575b600080fd5b3480156100d357600080fd5b506100ee60048036036100e9919081019061324a565b6102e5565b005b61010a6004803603610105919081019061329c565b610531565b005b34801561011857600080fd5b50610133600480360361012e919081019061324a565b610817565b005b34801561014157600080fd5b5061015c600480360361015791908101906132f4565b610891565b005b34801561016a57600080fd5b50610185600480360361018091908101906134c6565b610d0a565b005b34801561019357600080fd5b506101ae60048036036101a99190810190613407565b610efb565b005b3480156101bc57600080fd5b506101d760048036036101d2919081019061324a565b6111e7565b6040516101e693929190613d6f565b60405180910390f35b3480156101fb57600080fd5b506102166004803603610211919081019061324a565b6114c7565b005b34801561022457600080fd5b5061023f600480360361023a919081019061345f565b611795565b005b34801561024d57600080fd5b506102686004803603610263919081019061324a565b61193b565b005b34801561027657600080fd5b50610291600480360361028c9190810190613407565b611bb8565b005b34801561029f57600080fd5b506102ba60048036036102b591908101906133b8565b611db4565b005b3480156102c857600080fd5b506102e360048036036102de919081019061334c565b611fcc565b005b6004600082815260200190815260200160002060020160008154811061030757fe5b9060005260206000200160009054906101000a900473ffffffffffffffffffffffffffffffffffffffff168073ffffffffffffffffffffffffffffffffffffffff163373ffffffffffffffffffffffffffffffffffffffff161461036a57600080fd5b81600280600581111561037957fe5b6003600084815260200190815260200160002060070160009054906101000a900460ff1660058111156103a857fe5b146103b257600080fd5b8360038060048111156103c157fe5b6004600084815260200190815260200160002060000160009054906101000a900460ff1660048111156103f057fe5b146103fa57600080fd5b6001600360008881526020019081526020016000206001016041600360008a815260200190815260200160002060030160009054906101000a900460ff160360ff16601a811061044657fe5b602091828204019190066101000a81548160ff0219169083151502179055506003600087815260200190815260200160002060060160008154809291906001019190505550600054600360008881526020019081526020016000206006015414156104e757600380600088815260200190815260200160002060070160006101000a81548160ff021916908360058111156104dd57fe5b0217905550610520565b60016003600088815260200190815260200160002060070160006101000a81548160ff0219169083600581111561051a57fe5b02179055505b610529866123cc565b505050505050565b600083838360405160200161054893929190613c0d565b6040516020818303038152906040528051906020012090506000600481111561056d57fe5b6004600083815260200190815260200160002060000160009054906101000a900460ff16600481111561059c57fe5b1480156105ad575060028383905010155b6105b657600080fd5b6001543410156105c557600080fd5b6105cd6129bd565b6040518060600160405280600160048111156105e557fe5b8152602001348152602001858580806020026020016040519081016040528093929190818152602001838360200280828437600081840152601f19601f820116905080830192505050505050508152506004600084815260200190815260200160002060008201518160000160006101000a81548160ff0219169083600481111561066c57fe5b02179055506020820151816001015560408201518160020190805190602001906106979291906129e0565b509050506040518061012001604052806000801b815260200182815260200160405180604001604052806001815260200160008152508152602001600060ff168152602001600081526020016000815260200160008152602001600060058111156106fe57fe5b81526020016000815250600360008481526020019081526020016000206000820151816000015560208201518160010190601a61073c929190612a6a565b506040820151816002019080519060200190610759929190612b03565b5060608201518160030160006101000a81548160ff021916908360ff1602179055506080820151816004015560a0820151816005015560c0820151816006015560e08201518160070160006101000a81548160ff021916908360058111156107bd57fe5b021790555061010082015181600801559050506107d982612447565b7f02f9de3174ba1908545e7eaf47a7106ea2a5a3e73ec257d673c8dbdacc8b555d826040516108089190613bf2565b60405180910390a15050505050565b80600380600481111561082657fe5b6004600084815260200190815260200160002060000160009054906101000a900460ff16600481111561085557fe5b1461085f57600080fd5b61088c836003600086815260200190815260200160002060070160009054906101000a900460ff1661253f565b505050565b600460008481526020019081526020016000206002016000815481106108b357fe5b9060005260206000200160009054906101000a900473ffffffffffffffffffffffffffffffffffffffff168073ffffffffffffffffffffffffffffffffffffffff163373ffffffffffffffffffffffffffffffffffffffff161461091657600080fd5b83600280600581111561092557fe5b6003600084815260200190815260200160002060070160009054906101000a900460ff16600581111561095457fe5b1461095e57600080fd5b85600380600481111561096d57fe5b6004600084815260200190815260200160002060000160009054906101000a900460ff16600481111561099c57fe5b146109a657600080fd5b600087879050116109b657600080fd5b60008090505b87879050811015610bbf57600360008a8152602001908152602001600020600401548888838181106109ea57fe5b90506020020160206109ff91908101906135a6565b60ff16101580610acb57506000600360008b8152602001908152602001600020600201898984818110610a2e57fe5b9050602002016020610a4391908101906135a6565b60ff16815460018160011615610100020316600290048110610a6157fe5b815460011615610a805790600052602060002090602091828204019190065b9054901a7f0100000000000000000000000000000000000000000000000000000000000000027effffffffffffffffffffffffffffffffffffffffffffffffffffffffffffff191614155b15610adf57610ad9896123cc565b50610d00565b600360008a815260200190815260200160002060030160009054906101000a900460ff1660f81b600360008b8152602001908152602001600020600201898984818110610b2857fe5b9050602002016020610b3d91908101906135a6565b60ff16815460018160011615610100020316600290048110610b5b57fe5b815460011615610b7a5790600052602060002090602091828204019190065b601f036101000a81548160ff021916907f01000000000000000000000000000000000000000000000000000000000000008404021790555080806001019150506109bc565b5086869050600360008a81526020019081526020016000206005015403600360008a8152602001908152602001600020600501819055506001600360008a81526020019081526020016000206001016041600360008c815260200190815260200160002060030160009054906101000a900460ff160360ff16601a8110610c4257fe5b602091828204019190066101000a81548160ff0219169083151502179055506001600360008a8152602001908152602001600020600501541015610cbd576005600360008a815260200190815260200160002060070160006101000a81548160ff02191690836005811115610cb357fe5b0217905550610cf6565b6001600360008a815260200190815260200160002060070160006101000a81548160ff02191690836005811115610cf057fe5b02179055505b610cff886123cc565b5b5050505050505050565b60046000838152602001908152602001600020600201600181548110610d2c57fe5b9060005260206000200160009054906101000a900473ffffffffffffffffffffffffffffffffffffffff168073ffffffffffffffffffffffffffffffffffffffff163373ffffffffffffffffffffffffffffffffffffffff1614610d8f57600080fd5b826001806005811115610d9e57fe5b6003600084815260200190815260200160002060070160009054906101000a900460ff166005811115610dcd57fe5b14610dd757600080fd5b846003806004811115610de657fe5b6004600084815260200190815260200160002060000160009054906101000a900460ff166004811115610e1557fe5b14610e1f57600080fd5b6000604187039050601a8160ff1610610e3757600080fd5b60001515600360008a81526020019081526020016000206001018260ff16601a8110610e5f57fe5b602091828204019190069054906101000a900460ff16151514610e8157600080fd5b86600360008a815260200190815260200160002060030160006101000a81548160ff021916908360ff1602179055506002600360008a815260200190815260200160002060070160006101000a81548160ff02191690836005811115610ee357fe5b0217905550610ef1886123cc565b5050505050505050565b826001806004811115610f0a57fe5b6004600084815260200190815260200160002060000160009054906101000a900460ff166004811115610f3957fe5b14610f4357600080fd5b6000806000600660009054906101000a900473ffffffffffffffffffffffffffffffffffffffff1673ffffffffffffffffffffffffffffffffffffffff1663d2966c14308a604051602001610f99929190613b5b565b604051602081830303815290604052805190602001206040518263ffffffff1660e01b8152600401610fcb9190613bf2565b60806040518083038186803b158015610fe357600080fd5b505afa158015610ff7573d6000803e3d6000fd5b505050506040513d601f19601f8201168201806040525061101b9190810190613543565b935093505092506007600089815260200190815260200160002060000154831461104457600080fd5b8061104e57600080fd5b868660405161105e929190613b1a565b6040518091039020821461107157600080fd5b86866110809190810190613502565b600360008a81526020019081526020016000206000820151816000015560208201518160010190601a6110b4929190612a6a565b5060408201518160020190805190602001906110d1929190612b03565b5060608201518160030160006101000a81548160ff021916908360ff1602179055506080820151816004015560a0820151816005015560c0820151816006015560e08201518160070160006101000a81548160ff0219169083600581111561113557fe5b021790555061010082015181600801559050506003600460008a815260200190815260200160002060000160006101000a81548160ff0219169083600481111561117b57fe5b021790555060076000898152602001908152602001600020600001600081548092919060010191905055507f0301abeeae0ccf66d5373e3c755632aa254260b0d13b579b27fb74de484d2d65886040516111d59190613bf2565b60405180910390a15050505050505050565b6111ef612b83565b6111f7612baf565b6111ff612c12565b600460008581526020019081526020016000206003600086815260200190815260200160002060076000878152602001908152602001600020826040518060600160405290816000820160009054906101000a900460ff16600481111561126257fe5b600481111561126d57fe5b8152602001600182015481526020016002820180548060200260200160405190810160405280929190818152602001828054801561130057602002820191906000526020600020905b8160009054906101000a900473ffffffffffffffffffffffffffffffffffffffff1673ffffffffffffffffffffffffffffffffffffffff16815260200190600101908083116112b6575b505050505081525050925081604051806101200160405290816000820154815260200160018201601a806020026040519081016040528092919082601a8015611383576020028201916000905b82829054906101000a900460ff1615158152602001906001019060208260000104928301926001038202915080841161134d5790505b50505050508152602001600282018054600181600116156101000203166002900480601f0160208091040260200160405190810160405280929190818152602001828054600181600116156101000203166002900480156114255780601f106113fa57610100808354040283529160200191611425565b820191906000526020600020905b81548152906001019060200180831161140857829003601f168201915b505050505081526020016003820160009054906101000a900460ff1660ff1660ff1681526020016004820154815260200160058201548152602001600682015481526020016007820160009054906101000a900460ff16600581111561148757fe5b600581111561149257fe5b815260200160088201548152505091508060405180602001604052908160008201548152505090509250925092509193909250565b8060038060048111156114d657fe5b6004600084815260200190815260200160002060000160009054906101000a900460ff16600481111561150557fe5b1461150f57600080fd5b426003600085815260200190815260200160002060080154111561153257600080fd5b6004600581111561153f57fe5b6003600085815260200190815260200160002060070160009054906101000a900460ff16600581111561156e57fe5b141580156115b5575060058081111561158357fe5b6003600085815260200190815260200160002060070160009054906101000a900460ff1660058111156115b257fe5b14155b6115be57600080fd5b600460008481526020019081526020016000206002016000815481106115e057fe5b9060005260206000200160009054906101000a900473ffffffffffffffffffffffffffffffffffffffff1673ffffffffffffffffffffffffffffffffffffffff163373ffffffffffffffffffffffffffffffffffffffff1614806116bb57506004600084815260200190815260200160002060020160018154811061166157fe5b9060005260206000200160009054906101000a900473ffffffffffffffffffffffffffffffffffffffff1673ffffffffffffffffffffffffffffffffffffffff163373ffffffffffffffffffffffffffffffffffffffff16145b6116c457600080fd5b600160058111156116d157fe5b6003600085815260200190815260200160002060070160009054906101000a900460ff16600581111561170057fe5b1415611749576004600581111561171357fe5b6003600085815260200190815260200160002060070160009054906101000a900460ff16600581111561174257fe5b5050611787565b60058081111561175557fe5b6003600085815260200190815260200160002060070160009054906101000a900460ff16600581111561178457fe5b50505b611790836123cc565b505050565b600160048111156117a257fe5b6004600085815260200190815260200160002060000160009054906101000a900460ff1660048111156117d157fe5b148061185b5750600360048111156117e557fe5b6004600085815260200190815260200160002060000160009054906101000a900460ff16600481111561181457fe5b14801561185a57506002600481111561182957fe5b6004600085815260200190815260200160002060000160009054906101000a900460ff16600481111561185857fe5b145b5b61186457600080fd5b61192c600460008581526020019081526020016000206002018054806020026020016040519081016040528092919081815260200182805480156118fd57602002820191906000526020600020905b8160009054906101000a900473ffffffffffffffffffffffffffffffffffffffff1673ffffffffffffffffffffffffffffffffffffffff16815260200190600101908083116118b3575b505050505030858560405160200161191793929190613b84565b60405160208183030381529060405283612786565b611936838361253f565b505050565b80600380600481111561194a57fe5b6004600084815260200190815260200160002060000160009054906101000a900460ff16600481111561197957fe5b1461198357600080fd5b60006003600085815260200190815260200160002060080154146119a657600080fd5b600460058111156119b357fe5b6003600085815260200190815260200160002060070160009054906101000a900460ff1660058111156119e257fe5b14158015611a2957506005808111156119f757fe5b6003600085815260200190815260200160002060070160009054906101000a900460ff166005811115611a2657fe5b14155b611a3257600080fd5b60046000848152602001908152602001600020600201600081548110611a5457fe5b9060005260206000200160009054906101000a900473ffffffffffffffffffffffffffffffffffffffff1673ffffffffffffffffffffffffffffffffffffffff163373ffffffffffffffffffffffffffffffffffffffff161480611b2f575060046000848152602001908152602001600020600201600181548110611ad557fe5b9060005260206000200160009054906101000a900473ffffffffffffffffffffffffffffffffffffffff1673ffffffffffffffffffffffffffffffffffffffff163373ffffffffffffffffffffffffffffffffffffffff16145b611b3857600080fd5b600254420160036000858152602001908152602001600020600801819055507f611949c64c66225766b6e6d1154d802a31872f5d8e94bdcac954806b8376fbb9836003600086815260200190815260200160002060070160009054906101000a900460ff16604051611bab929190613ca1565b60405180910390a1505050565b826003806004811115611bc757fe5b6004600084815260200190815260200160002060000160009054906101000a900460ff166004811115611bf657fe5b14611c0057600080fd5b611d2260046000878152602001908152602001600020600201805480602002602001604051908101604052809291908181526020018280548015611c9957602002820191906000526020600020905b8160009054906101000a900473ffffffffffffffffffffffffffffffffffffffff1673ffffffffffffffffffffffffffffffffffffffff1681526020019060010190808311611c4f575b50505050503087600760008a815260200190815260200160002060000154604051602001611cc993929190613bbb565b60405160208183030381529060405286868080601f016020809104026020016040519081016040528093929190818152602001838380828437600081840152601f19601f82011690508083019250505050505050612786565b60016004600087815260200190815260200160002060000160006101000a81548160ff02191690836004811115611d5557fe5b0217905550600060036000878152602001908152602001600020600801819055507f2ee7873c46cd70f70797bfe635786b787c50c438089cbba22d78de908e8461a485604051611da59190613bf2565b60405180910390a15050505050565b60046000848152602001908152602001600020600201600081548110611dd657fe5b9060005260206000200160009054906101000a900473ffffffffffffffffffffffffffffffffffffffff168073ffffffffffffffffffffffffffffffffffffffff163373ffffffffffffffffffffffffffffffffffffffff1614611e3957600080fd5b836000806005811115611e4857fe5b6003600084815260200190815260200160002060070160009054906101000a900460ff166005811115611e7757fe5b14611e8157600080fd5b856003806004811115611e9057fe5b6004600084815260200190815260200160002060000160009054906101000a900460ff166004811115611ebf57fe5b14611ec957600080fd5b86600360008a8152602001908152602001600020600001819055508560ff16600360008a8152602001908152602001600020600401819055506001600360008a815260200190815260200160002060070160006101000a81548160ff02191690836005811115611f3557fe5b02179055508560ff16600360008a8152602001908152602001600020600501819055508560ff166040519080825280601f01601f191660200182016040528015611f8e5781602001600182028038833980820191505090505b50600360008a81526020019081526020016000206002019080519060200190611fb8929190612c25565b50611fc2886123cc565b5050505050505050565b60046000858152602001908152602001600020600201600081548110611fee57fe5b9060005260206000200160009054906101000a900473ffffffffffffffffffffffffffffffffffffffff168073ffffffffffffffffffffffffffffffffffffffff163373ffffffffffffffffffffffffffffffffffffffff161461205157600080fd5b84600380600581111561206057fe5b6003600084815260200190815260200160002060070160009054906101000a900460ff16600581111561208f57fe5b1461209957600080fd5b8660038060048111156120a857fe5b6004600084815260200190815260200160002060000160009054906101000a900460ff1660048111156120d757fe5b146120e157600080fd5b600360058111156120ee57fe5b600360008b815260200190815260200160002060070160009054906101000a900460ff16600581111561211d57fe5b1461212757600080fd5b600360008a815260200190815260200160002060040154878790501461214c57600080fd5b60008090505b600360008b8152602001908152602001600020600401548110156122f95787878281811061217c57fe5b9050013560f81c60f81b7effffffffffffffffffffffffffffffffffffffffffffffffffffffffffffff1916600360008c8152602001908152602001600020600201828154600181600116156101000203166002900481106121da57fe5b8154600116156121f95790600052602060002090602091828204019190065b9054901a7f0100000000000000000000000000000000000000000000000000000000000000027effffffffffffffffffffffffffffffffffffffffffffffffffffffffffffff1916141580156122a05750600360008b8152602001908152602001600020600101604189898481811061226e57fe5b9050013560f81c60f81b60f81c0360ff16601a811061228957fe5b602091828204019190069054906101000a900460ff165b156122ec576005600360008c815260200190815260200160002060070160006101000a81548160ff021916908360058111156122d857fe5b02179055506122e68a6123cc565b506123c1565b8080600101915050612152565b50600360008a81526020019081526020016000206000015488888860405160200161232693929190613c6f565b604051602081830303815290604052805190602001201461237e576005600360008b815260200190815260200160002060070160006101000a81548160ff0219169083600581111561237457fe5b02179055506123b7565b6004600360008b815260200190815260200160002060070160006101000a81548160ff021916908360058111156123b157fe5b02179055505b6123c0896123cc565b5b505050505050505050565b600060036000838152602001908152602001600020600801819055507f611949c64c66225766b6e6d1154d802a31872f5d8e94bdcac954806b8376fbb9816003600084815260200190815260200160002060070160009054906101000a900460ff1660405161243c929190613ca1565b60405180910390a150565b604051806020016040528060008152506007600083815260200190815260200160002060008201518160000155905050600660009054906101000a900473ffffffffffffffffffffffffffffffffffffffff1673ffffffffffffffffffffffffffffffffffffffff166348c2c21282600460008581526020019081526020016000206002016040518363ffffffff1660e01b81526004016124e9929190613c3f565b602060405180830381600087803b15801561250357600080fd5b505af1158015612517573d6000803e3d6000fd5b505050506040513d601f19601f8201168201806040525061253b9190810190613273565b5050565b6004600581111561254c57fe5b81600581111561255857fe5b1415612643576004600083815260200190815260200160002060020160008154811061258057fe5b9060005260206000200160009054906101000a900473ffffffffffffffffffffffffffffffffffffffff1673ffffffffffffffffffffffffffffffffffffffff166108fc60046000858152602001908152602001600020600101549081150290604051600060405180830381858888f19350505050158015612606573d6000803e3d6000fd5b50600480600084815260200190815260200160002060000160006101000a81548160ff0219169083600481111561263957fe5b0217905550612782565b60058081111561264f57fe5b81600581111561265b57fe5b1415612746576004600083815260200190815260200160002060020160018154811061268357fe5b9060005260206000200160009054906101000a900473ffffffffffffffffffffffffffffffffffffffff1673ffffffffffffffffffffffffffffffffffffffff166108fc60046000858152602001908152602001600020600101549081150290604051600060405180830381858888f19350505050158015612709573d6000803e3d6000fd5b50600480600084815260200190815260200160002060000160006101000a81548160ff0219169083600481111561273c57fe5b0217905550612781565b6040517f08c379a000000000000000000000000000000000000000000000000000000000815260040161277890613d2f565b60405180910390fd5b5b5050565b612799836127938461279e565b836127b7565b505050565b60006127b0828051906020012061294a565b9050919050565b6060818060200190516127cd9190810190613209565b90508351815114612813576040517f08c379a000000000000000000000000000000000000000000000000000000000815260040161280a90613d4f565b60405180910390fd5b60008090505b84518110156129435760018483838151811061283157fe5b60200260200101516000015184848151811061284957fe5b60200260200101516020015185858151811061286157fe5b6020026020010151604001516040516000815260200160405260405161288a9493929190613cca565b6020604051602081039080840390855afa1580156128ac573d6000803e3d6000fd5b5050506020604051035173ffffffffffffffffffffffffffffffffffffffff168582815181106128d857fe5b602002602001015173ffffffffffffffffffffffffffffffffffffffff1614612936576040517f08c379a000000000000000000000000000000000000000000000000000000000815260040161292d90613d0f565b60405180910390fd5b8080600101915050612819565b5050505050565b600060606040518060400160405280601c81526020017f19457468657265756d205369676e6564204d6573736167653a0a33320000000081525090506000818460405160200161299b929190613b33565b6040516020818303038152906040528051906020012090508092505050919050565b604051806103400160405280601a90602082028038833980820191505090505090565b828054828255906000526020600020908101928215612a59579160200282015b82811115612a585782518260006101000a81548173ffffffffffffffffffffffffffffffffffffffff021916908373ffffffffffffffffffffffffffffffffffffffff16021790555091602001919060010190612a00565b5b509050612a669190612ca5565b5090565b82601a601f01602090048101928215612af25791602002820160005b83821115612ac357835183826101000a81548160ff0219169083151502179055509260200192600101602081600001049283019260010302612a86565b8015612af05782816101000a81549060ff0219169055600101602081600001049283019260010302612ac3565b505b509050612aff9190612ce8565b5090565b828054600181600116156101000203166002900490600052602060002090601f016020900481019282601f10612b4457805160ff1916838001178555612b72565b82800160010185558215612b72579182015b82811115612b71578251825591602001919060010190612b56565b5b509050612b7f9190612d18565b5090565b604051806060016040528060006004811115612b9b57fe5b815260200160008152602001606081525090565b60405180610440016040528060008019168152602001612bcd612d3d565b815260200160608152602001600060ff16815260200160008152602001600081526020016000815260200160006005811115612c0557fe5b8152602001600081525090565b6040518060200160405280600081525090565b828054600181600116156101000203166002900490600052602060002090601f016020900481019282601f10612c6657805160ff1916838001178555612c94565b82800160010185558215612c94579182015b82811115612c93578251825591602001919060010190612c78565b5b509050612ca19190612d18565b5090565b612ce591905b80821115612ce157600081816101000a81549073ffffffffffffffffffffffffffffffffffffffff021916905550600101612cab565b5090565b90565b612d1591905b80821115612d1157600081816101000a81549060ff021916905550600101612cee565b5090565b90565b612d3a91905b80821115612d36576000816000905550600101612d1e565b5090565b90565b604051806103400160405280601a90602082028038833980820191505090505090565b600081359050612d6f8161412e565b92915050565b60008083601f840112612d8757600080fd5b8235905067ffffffffffffffff811115612da057600080fd5b602083019150836020820283011115612db857600080fd5b9250929050565b600082601f830112612dd057600080fd5b601a612de3612dde82613de1565b613db4565b91508183856020840282011115612df957600080fd5b60005b83811015612e295781612e0f8882612f00565b845260208401935060208301925050600181019050612dfc565b5050505092915050565b600082601f830112612e4457600080fd5b8151612e57612e5282613e03565b613db4565b91508181835260208401935060208101905083856060840282011115612e7c57600080fd5b60005b83811015612eac5781612e928882613155565b845260208401935060608301925050600181019050612e7f565b5050505092915050565b60008083601f840112612ec857600080fd5b8235905067ffffffffffffffff811115612ee157600080fd5b602083019150836020820283011115612ef957600080fd5b9250929050565b600081359050612f0f81614145565b92915050565b600081519050612f2481614145565b92915050565b600081359050612f398161415c565b92915050565b600081519050612f4e8161415c565b92915050565b60008083601f840112612f6657600080fd5b8235905067ffffffffffffffff811115612f7f57600080fd5b602083019150836001820283011115612f9757600080fd5b9250929050565b600082601f830112612faf57600080fd5b8135612fc2612fbd82613e2b565b613db4565b91508082526020830160208301858383011115612fde57600080fd5b612fe983828461407d565b50505092915050565b600082601f83011261300357600080fd5b813561301661301182613e57565b613db4565b9150808252602083016020830185838301111561303257600080fd5b61303d83828461407d565b50505092915050565b60008135905061305581614173565b92915050565b6000610440828403121561306e57600080fd5b613079610120613db4565b9050600061308984828501612f2a565b600083015250602061309d84828501612dbf565b60208301525061036082013567ffffffffffffffff8111156130be57600080fd5b6130ca84828501612f9e565b6040830152506103806130df848285016131df565b6060830152506103a06130f4848285016131b5565b6080830152506103c0613109848285016131b5565b60a0830152506103e061311e848285016131b5565b60c08301525061040061313384828501613046565b60e083015250610420613148848285016131b5565b6101008301525092915050565b60006060828403121561316757600080fd5b6131716060613db4565b90506000613181848285016131f4565b600083015250602061319584828501612f3f565b60208301525060406131a984828501612f3f565b60408301525092915050565b6000813590506131c481614183565b92915050565b6000815190506131d981614183565b92915050565b6000813590506131ee8161419a565b92915050565b6000815190506132038161419a565b92915050565b60006020828403121561321b57600080fd5b600082015167ffffffffffffffff81111561323557600080fd5b61324184828501612e33565b91505092915050565b60006020828403121561325c57600080fd5b600061326a84828501612f2a565b91505092915050565b60006020828403121561328557600080fd5b600061329384828501612f3f565b91505092915050565b6000806000604084860312156132b157600080fd5b60006132bf86828701612f2a565b935050602084013567ffffffffffffffff8111156132dc57600080fd5b6132e886828701612d75565b92509250509250925092565b60008060006040848603121561330957600080fd5b600061331786828701612f2a565b935050602084013567ffffffffffffffff81111561333457600080fd5b61334086828701612eb6565b92509250509250925092565b6000806000806060858703121561336257600080fd5b600061337087828801612f2a565b945050602061338187828801612f2a565b935050604085013567ffffffffffffffff81111561339e57600080fd5b6133aa87828801612f54565b925092505092959194509250565b6000806000606084860312156133cd57600080fd5b60006133db86828701612f2a565b93505060206133ec86828701612f2a565b92505060406133fd868287016131df565b9150509250925092565b60008060006040848603121561341c57600080fd5b600061342a86828701612f2a565b935050602084013567ffffffffffffffff81111561344757600080fd5b61345386828701612f54565b92509250509250925092565b60008060006060848603121561347457600080fd5b600061348286828701612f2a565b935050602061349386828701613046565b925050604084013567ffffffffffffffff8111156134b057600080fd5b6134bc86828701612ff2565b9150509250925092565b600080604083850312156134d957600080fd5b60006134e785828601612f2a565b92505060206134f8858286016131df565b9150509250929050565b60006020828403121561351457600080fd5b600082013567ffffffffffffffff81111561352e57600080fd5b61353a8482850161305b565b91505092915050565b6000806000806080858703121561355957600080fd5b6000613567878288016131ca565b9450506020613578878288016131ca565b935050604061358987828801612f3f565b925050606061359a87828801612f15565b91505092959194509250565b6000602082840312156135b857600080fd5b60006135c6848285016131df565b91505092915050565b60006135db83836135ff565b60208301905092915050565b60006135f38383613794565b60208301905092915050565b61360881613fd4565b82525050565b61361781613fd4565b82525050565b60006136298385613f38565b935061363482613e83565b8060005b8581101561366d5761364a8284613f9d565b61365488826135cf565b975061365f83613ef3565b925050600181019050613638565b5085925050509392505050565b600061368582613ebc565b61368f8185613f27565b935061369a83613e8d565b8060005b838110156136cb5781516136b288826135cf565b97506136bd83613f00565b92505060018101905061369e565b5085935050505092915050565b60006136e382613ec7565b6136ed8185613f38565b93506136f883613e9d565b8060005b838110156137305761370d826140e3565b61371788826135cf565b975061372283613f0d565b9250506001810190506136fc565b5085935050505092915050565b61374681613ed2565b6137508184613f49565b925061375b82613eb2565b8060005b8381101561378c57815161377387826135e7565b965061377e83613f1a565b92505060018101905061375f565b505050505050565b61379d81613fe6565b82525050565b6137ac81613ff2565b82525050565b6137bb81613ff2565b82525050565b6137d26137cd82613ff2565b6140d9565b82525050565b60006137e48385613f65565b93506137f183858461407d565b6137fa836140f6565b840190509392505050565b60006138118385613f76565b935061381e83858461407d565b82840190509392505050565b600061383582613edd565b61383f8185613f54565b935061384f81856020860161408c565b613858816140f6565b840191505092915050565b61386c81614059565b82525050565b61387b8161406b565b82525050565b61388a8161406b565b82525050565b600061389b82613ee8565b6138a58185613f92565b93506138b581856020860161408c565b80840191505092915050565b60006138ce600f83613f81565b91507f57726f6e67207369676e617475726500000000000000000000000000000000006000830152602082019050919050565b600061390e601183613f81565b91507f4e6f207465726d696e616c2073746174650000000000000000000000000000006000830152602082019050919050565b600061394e602b83613f81565b91507f546865726520617265206c6573732f6d6f7265207369676e617475726573207460008301527f68656e20706172746965730000000000000000000000000000000000000000006020830152604082019050919050565b6000610440830160008301516139c060008601826137a3565b5060208301516139d3602086018261373d565b5060408301518482036103608601526139ec828261382a565b9150506060830151613a02610380860182613afc565b506080830151613a166103a0860182613ade565b5060a0830151613a2a6103c0860182613ade565b5060c0830151613a3e6103e0860182613ade565b5060e0830151613a52610400860182613872565b50610100830151613a67610420860182613ade565b508091505092915050565b602082016000820151613a886000850182613ade565b50505050565b6000606083016000830151613aa66000860182613863565b506020830151613ab96020860182613ade565b5060408301518482036040860152613ad1828261367a565b9150508091505092915050565b613ae781614042565b82525050565b613af681614042565b82525050565b613b058161404c565b82525050565b613b148161404c565b82525050565b6000613b27828486613805565b91508190509392505050565b6000613b3f8285613890565b9150613b4b82846137c1565b6020820191508190509392505050565b6000604082019050613b70600083018561360e565b613b7d60208301846137b2565b9392505050565b6000606082019050613b99600083018661360e565b613ba660208301856137b2565b613bb36040830184613881565b949350505050565b6000606082019050613bd0600083018661360e565b613bdd60208301856137b2565b613bea6040830184613aed565b949350505050565b6000602082019050613c0760008301846137b2565b92915050565b6000604082019050613c2260008301866137b2565b8181036020830152613c3581848661361d565b9050949350505050565b6000604082019050613c5460008301856137b2565b8181036020830152613c6681846136d8565b90509392505050565b6000604082019050613c8460008301866137b2565b8181036020830152613c978184866137d8565b9050949350505050565b6000604082019050613cb660008301856137b2565b613cc36020830184613881565b9392505050565b6000608082019050613cdf60008301876137b2565b613cec6020830186613b0b565b613cf960408301856137b2565b613d0660608301846137b2565b95945050505050565b60006020820190508181036000830152613d28816138c1565b9050919050565b60006020820190508181036000830152613d4881613901565b9050919050565b60006020820190508181036000830152613d6881613941565b9050919050565b60006060820190508181036000830152613d898186613a8e565b90508181036020830152613d9d81856139a7565b9050613dac6040830184613a72565b949350505050565b6000604051905081810181811067ffffffffffffffff82111715613dd757600080fd5b8060405250919050565b600067ffffffffffffffff821115613df857600080fd5b602082029050919050565b600067ffffffffffffffff821115613e1a57600080fd5b602082029050602081019050919050565b600067ffffffffffffffff821115613e4257600080fd5b601f19601f8301169050602081019050919050565b600067ffffffffffffffff821115613e6e57600080fd5b601f19601f8301169050602081019050919050565b6000819050919050565b6000819050602082019050919050565b60008190508160005260206000209050919050565b6000819050919050565b600081519050919050565b600081549050919050565b6000601a9050919050565b600081519050919050565b600081519050919050565b6000602082019050919050565b6000602082019050919050565b6000600182019050919050565b6000602082019050919050565b600082825260208201905092915050565b600082825260208201905092915050565b600081905092915050565b600082825260208201905092915050565b600082825260208201905092915050565b600081905092915050565b600082825260208201905092915050565b600081905092915050565b6000613fac6020840184612d60565b905092915050565b600073ffffffffffffffffffffffffffffffffffffffff82169050919050565b6000613fdf82614022565b9050919050565b60008115159050919050565b6000819050919050565b600081905061400a82614114565b919050565b600081905061401d82614121565b919050565b600073ffffffffffffffffffffffffffffffffffffffff82169050919050565b6000819050919050565b600060ff82169050919050565b600061406482613ffc565b9050919050565b60006140768261400f565b9050919050565b82818337600083830152505050565b60005b838110156140aa57808201518184015260208101905061408f565b838111156140b9576000848401525b50505050565b60006140d26140cd83614107565b613fb4565b9050919050565b6000819050919050565b60006140ef82546140bf565b9050919050565b6000601f19601f8301169050919050565b60008160001c9050919050565b6005811061411e57fe5b50565b6006811061412b57fe5b50565b61413781613fd4565b811461414257600080fd5b50565b61414e81613fe6565b811461415957600080fd5b50565b61416581613ff2565b811461417057600080fd5b50565b6006811061418057600080fd5b50565b61418c81614042565b811461419757600080fd5b50565b6141a38161404c565b81146141ae57600080fd5b5056fea365627a7a723058203b35ea5df320cfe54bcb65986022f867609677bee6d122c1368e5e0f60e1b3f56c6578706572696d656e74616cf564736f6c634300050a0040",
  "source": "pragma solidity 0.5.10;\npragma experimental \"ABIEncoderV2\";\n\nimport \"contracts/hybridArchitecture/Relockable/HybridRelockableDisputeBoard.sol\";\nimport \"contracts/sharedCode/SigVerifier.sol\";\nimport \"contracts/sharedCode/AbstractHangmanSingleton.sol\";\n\n//We assume that players only sign / produce states that can occur in a proper execution\n//For example, they do not sign / produce a state in which a player has used all of his ten tries but still is in stage WaitingForGuess\ncontract HybridRelockableHangmanSingleton is SigVerifier, AbstractHangmanSingleton{\n    \n    //******************\n    // Variables, enums, structures\n    \n    //constant after initialization\n    HybridRelockableDisputeBoard db;\n    \n    //Channel Instances -> We divide the variables to be able to reuse the code\n    mapping(bytes32 => DisputeVariables) disputeState;\n    \n    struct DisputeVariables{\n        uint lockCount;\n    }\n    \n    //Events\n    event eventLocked(bytes32 id);\n    event eventUnlocked(bytes32 id);\n    \n    //The enus for the channel status ONCHAIN and OFFCHAIN would fit here better to UNLOCKED = ONCHAIN and LOCKED = OFFCHAIN\n    \n    //****************\n    //Constructor\n    constructor(uint _maxTries, uint _minFunding, uint _challengePeriod, address _db) public AbstractHangmanSingleton(_maxTries, _minFunding, _challengePeriod){\n        db = HybridRelockableDisputeBoard(_db);\n    }\n    \n    //****************\n    //Channel logic\n    \n    //Function called by the inherrited function \"createInstance\"\n    function setInitialDisputeState(bytes32 _id) internal {\n        disputeState[_id] = DisputeVariables(0);\n        db.initializeChannel(_id, instanceState[_id].parties);\n    }\n    \n    //Parties sign a lock request with a specific lockcount if they want to lock the application for off-chain execution\n        //We require parties to first create the next off-chain state and afterwards lock the application. Thus we do not have to deal with disputes without a state can simply ignore on-chain executions during lock-negotiations\n    function lock(bytes32 _id, bytes calldata _signatures) external isChannelStatus(_id, ChannelStatus.ONCHAIN){\n        \n        //Check signatures\n        verifySignatures(instanceState[_id].parties, abi.encode(address(this), _id, disputeState[_id].lockCount), _signatures);\n        \n        //Lock the application and reset challenges\n        instanceState[_id].status = ChannelStatus.OFFCHAIN;\n        applicationState[_id].challenged = 0;\n        \n        emit eventLocked(_id);\n    }\n    \n    //In the off-chain application they sign tuples of (address, lockCount, version, state-hash); the address uniquely identifies the instance, the lockCount is the lockCount used to lock the application, the version starts for each lock with 0 and is incremented with each state update\n    //The state-hash is constructed on the application contract's address and all state variables\n    function unlock(bytes32 _id, bytes calldata _encodedState) external isChannelStatus(_id, ChannelStatus.OFFCHAIN){\n        \n        //Read the current channel's information from the dispute board\n        (uint _unlockCount, ,bytes32 _stateHash, bool _unlockable) = db.getChannelInstance(keccak256(abi.encode(address(this), _id)));\n        \n        //Check that this state has not been unlocked before\n        require(_unlockCount == disputeState[_id].lockCount);\n        \n        //Check that instance is unlockable\n        require(_unlockable);\n        \n        //Check that the right state has been provided\n        require(_stateHash == keccak256(_encodedState));\n        \n        //Update state\n        applicationState[_id] = abi.decode(_encodedState,(ApplicationVariables));\n        \n        //Unlock the instance, icrement the lockcount to prevent replays and notify users\n        instanceState[_id].status = ChannelStatus.ONCHAIN;\n        disputeState[_id].lockCount++;\n        emit eventUnlocked(_id);\n    }\n    \n    //Function to close without a dispute: As this contact has no default funtionality to handle signed states we simply sign the address and the final stage / not state (dispute board handles signed hashes and this channel handles signed lock-requests)\n    function fastClose(bytes32 _id, Stage _stage, bytes memory _signatures) public {\n        \n        //Not when closed or not created\n        require(instanceState[_id].status == ChannelStatus.OFFCHAIN || instanceState[_id].status == ChannelStatus.ONCHAIN && instanceState[_id].status == ChannelStatus.DISPUTE);\n        \n        //Check signatures\n        verifySignatures(instanceState[_id].parties, abi.encode(address(this), _id, _stage), _signatures);\n        \n        //call close (checks stage and performs the closure)\n        internalClose(_id, _stage);\n    }\n    \n    //****************\n    //Application logic is inherited\n    \n    //******************\n    // Getter\n    function getInstance(bytes32 _id) external view returns (MaintainanceVariables memory, ApplicationVariables memory, DisputeVariables memory){\n        return (instanceState[_id], applicationState[_id], disputeState[_id]) ;\n    }\n\n}\n",
  "sourcePath": "/home/david/Desktop/implementation/truffle/contracts/hybridArchitecture/Relockable/HybridRelockableHangmanSingleton.sol",
  "compiler": {
    "name": "solc",
    "version": "0.5.10+commit.5a6ea5b1.Emscripten.clang"
  },
  "schemaVersion": "3.0.16",
  "updatedAt": "2019-12-12T13:13:42.232Z",
  "devdoc": {
    "methods": {}
  },
  "userdoc": {
    "methods": {}
  }
}