{
  "contractName": "HybridRelockableHangmanChannel",
  "abi": [
    {
      "constant": false,
      "inputs": [
        {
          "name": "_nonce",
          "type": "bytes32"
        },
        {
          "name": "_opening",
          "type": "bytes"
        }
      ],
      "name": "open",
      "outputs": [],
      "payable": false,
      "stateMutability": "nonpayable",
      "type": "function"
    },
    {
      "constant": false,
      "inputs": [],
      "name": "wrong",
      "outputs": [],
      "payable": false,
      "stateMutability": "nonpayable",
      "type": "function"
    },
    {
      "constant": false,
      "inputs": [
        {
          "name": "_hashedWord",
          "type": "bytes32"
        },
        {
          "name": "_wordLength",
          "type": "uint8"
        }
      ],
      "name": "commit",
      "outputs": [],
      "payable": false,
      "stateMutability": "nonpayable",
      "type": "function"
    },
    {
      "constant": false,
      "inputs": [
        {
          "name": "_hits",
          "type": "uint8[]"
        }
      ],
      "name": "correct",
      "outputs": [],
      "payable": false,
      "stateMutability": "nonpayable",
      "type": "function"
    },
    {
      "constant": false,
      "inputs": [],
      "name": "close",
      "outputs": [],
      "payable": false,
      "stateMutability": "nonpayable",
      "type": "function"
    },
    {
      "constant": false,
      "inputs": [
        {
          "name": "_letter",
          "type": "uint8"
        }
      ],
      "name": "guess",
      "outputs": [],
      "payable": false,
      "stateMutability": "nonpayable",
      "type": "function"
    },
    {
      "constant": false,
      "inputs": [],
      "name": "finalizeChallenge",
      "outputs": [],
      "payable": false,
      "stateMutability": "nonpayable",
      "type": "function"
    },
    {
      "constant": false,
      "inputs": [],
      "name": "challenge",
      "outputs": [],
      "payable": false,
      "stateMutability": "nonpayable",
      "type": "function"
    },
    {
      "inputs": [
        {
          "name": "_maxTries",
          "type": "uint256"
        },
        {
          "name": "_challengePeriod",
          "type": "uint256"
        },
        {
          "name": "_parties",
          "type": "address[]"
        },
        {
          "name": "_db",
          "type": "address"
        }
      ],
      "payable": true,
      "stateMutability": "payable",
      "type": "constructor"
    },
    {
      "anonymous": false,
      "inputs": [],
      "name": "eventLocked",
      "type": "event"
    },
    {
      "anonymous": false,
      "inputs": [],
      "name": "eventUnlocked",
      "type": "event"
    },
    {
      "anonymous": false,
      "inputs": [
        {
          "indexed": false,
          "name": "_text",
          "type": "string"
        },
        {
          "indexed": false,
          "name": "_status",
          "type": "uint8"
        }
      ],
      "name": "LogStatus",
      "type": "event"
    },
    {
      "anonymous": false,
      "inputs": [
        {
          "indexed": false,
          "name": "newStage",
          "type": "uint8"
        }
      ],
      "name": "movePerformed",
      "type": "event"
    },
    {
      "constant": false,
      "inputs": [
        {
          "name": "_signatures",
          "type": "bytes"
        }
      ],
      "name": "lock",
      "outputs": [],
      "payable": false,
      "stateMutability": "nonpayable",
      "type": "function"
    },
    {
      "constant": false,
      "inputs": [
        {
          "name": "_hashedWord",
          "type": "bytes32"
        },
        {
          "name": "_guessed",
          "type": "bool[26]"
        },
        {
          "name": "_word",
          "type": "bytes"
        },
        {
          "name": "_currentGuess",
          "type": "uint8"
        },
        {
          "name": "_wordLength",
          "type": "uint256"
        },
        {
          "name": "_missingLetters",
          "type": "uint256"
        },
        {
          "name": "_tries",
          "type": "uint256"
        },
        {
          "name": "_stage",
          "type": "uint8"
        }
      ],
      "name": "unlock",
      "outputs": [],
      "payable": false,
      "stateMutability": "nonpayable",
      "type": "function"
    },
    {
      "constant": false,
      "inputs": [
        {
          "name": "_stage",
          "type": "uint8"
        },
        {
          "name": "_signatures",
          "type": "bytes"
        }
      ],
      "name": "fastClose",
      "outputs": [],
      "payable": false,
      "stateMutability": "nonpayable",
      "type": "function"
    },
    {
      "constant": true,
      "inputs": [],
      "name": "getState",
      "outputs": [
        {
          "name": "",
          "type": "uint8"
        },
        {
          "name": "",
          "type": "uint256"
        },
        {
          "name": "",
          "type": "address[]"
        },
        {
          "name": "",
          "type": "bytes32"
        },
        {
          "name": "",
          "type": "bool[26]"
        },
        {
          "name": "",
          "type": "bytes"
        },
        {
          "name": "",
          "type": "uint8"
        },
        {
          "name": "",
          "type": "uint256"
        },
        {
          "name": "",
          "type": "uint256"
        },
        {
          "name": "",
          "type": "uint256"
        },
        {
          "name": "",
          "type": "uint8"
        }
      ],
      "payable": false,
      "stateMutability": "view",
      "type": "function"
    }
  ],
  "bytecode": "0x608060405260405162003d3e38038062003d3e83398181016040526200002991908101906200038e565b8383838260008190555081600181905550806002908051906020019062000052929190620001bb565b5060006004819055506000600b819055506000600c60006101000a81548160ff021916908360058111156200008357fe5b02179055505050506001600360006101000a81548160ff02191690836003811115620000ab57fe5b02179055506000600d8190555080600e60006101000a81548173ffffffffffffffffffffffffffffffffffffffff021916908373ffffffffffffffffffffffffffffffffffffffff160217905550600e60009054906101000a900473ffffffffffffffffffffffffffffffffffffffff1673ffffffffffffffffffffffffffffffffffffffff166348c2c212600060026040518363ffffffff1660e01b81526004016200015a929190620004c2565b602060405180830381600087803b1580156200017557600080fd5b505af11580156200018a573d6000803e3d6000fd5b505050506040513d601f19601f82011682018060405250620001b0919081019062000362565b5050505050620006b6565b82805482825590600052602060002090810192821562000237579160200282015b82811115620002365782518260006101000a81548173ffffffffffffffffffffffffffffffffffffffff021916908373ffffffffffffffffffffffffffffffffffffffff16021790555091602001919060010190620001dc565b5b5090506200024691906200024a565b5090565b6200028d91905b808211156200028957600081816101000a81549073ffffffffffffffffffffffffffffffffffffffff02191690555060010162000251565b5090565b90565b600081519050620002a18162000668565b92915050565b600082601f830112620002b957600080fd5b8151620002d0620002ca8262000524565b620004f6565b91508181835260208401935060208101905083856020840282011115620002f657600080fd5b60005b838110156200032a57816200030f888262000290565b845260208401935060208301925050600181019050620002f9565b5050505092915050565b600081519050620003458162000682565b92915050565b6000815190506200035c816200069c565b92915050565b6000602082840312156200037557600080fd5b6000620003858482850162000334565b91505092915050565b60008060008060808587031215620003a557600080fd5b6000620003b5878288016200034b565b9450506020620003c8878288016200034b565b935050604085015167ffffffffffffffff811115620003e657600080fd5b620003f487828801620002a7565b9250506060620004078782880162000290565b91505092959194509250565b60006200042183836200042d565b60208301905092915050565b6200043881620005ab565b82525050565b60006200044b8262000562565b6200045781856200057a565b935062000464836200054d565b8060005b83811015620004a4576200047c8262000639565b62000488888262000413565b975062000495836200056d565b92505060018101905062000468565b5085935050505092915050565b620004bc81620005fd565b82525050565b6000604082019050620004d96000830185620004b1565b8181036020830152620004ed81846200043e565b90509392505050565b6000604051905081810181811067ffffffffffffffff821117156200051a57600080fd5b8060405250919050565b600067ffffffffffffffff8211156200053c57600080fd5b602082029050602081019050919050565b60008190508160005260206000209050919050565b600081549050919050565b6000600182019050919050565b600082825260208201905092915050565b600073ffffffffffffffffffffffffffffffffffffffff82169050919050565b6000620005b882620005d3565b9050919050565b6000819050919050565b6000819050919050565b600073ffffffffffffffffffffffffffffffffffffffff82169050919050565b6000819050919050565b6000620006146200060e83620005c9565b6200064e565b9050919050565b6000620006326200062c836200065b565b6200058b565b9050919050565b60006200064782546200061b565b9050919050565b60008160001b9050919050565b60008160001c9050919050565b6200067381620005ab565b81146200067f57600080fd5b50565b6200068d81620005bf565b81146200069957600080fd5b50565b620006a781620005f3565b8114620006b357600080fd5b50565b61367880620006c66000396000f3fe608060405234801561001057600080fd5b50600436106100b45760003560e01c80634ba4c16b116100715780634ba4c16b1461014957806352d6ede8146101655780638154831914610181578063b78fe7341461019d578063d2ef7398146101a7578063dd5eca13146101b1576100b4565b806304e1df8b146100b95780631865c57d146100d55780632c23d2b4146100fd5780633a37bd3f14610107578063425b9bb91461012357806343d726d61461013f575b600080fd5b6100d360048036036100ce91908101906126b9565b6101cd565b005b6100dd6105ae565b6040516100f49b9a999897969594939291906130dd565b60405180910390f35b6101056107b7565b005b610121600480360361011c9190810190612711565b6109ec565b005b61013d600480360361013891908101906125a0565b610c00565b005b610147610ffc565b005b610163600480360361015e9190810190612849565b611080565b005b61017f600480360361017a91908101906125e5565b611301565b005b61019b6004803603610196919081019061274d565b61162e565b005b6101a56117ec565b005b6101af611a38565b005b6101cb60048036036101c69190810190612792565b611c46565b005b60026000815481106101db57fe5b9060005260206000200160009054906101000a900473ffffffffffffffffffffffffffffffffffffffff168073ffffffffffffffffffffffffffffffffffffffff163373ffffffffffffffffffffffffffffffffffffffff1614610274576040517f08c379a000000000000000000000000000000000000000000000000000000000815260040161026b906131f4565b60405180910390fd5b600380600581111561028257fe5b600c60009054906101000a900460ff16600581111561029d57fe5b146102dd576040517f08c379a00000000000000000000000000000000000000000000000000000000081526004016102d4906132d4565b60405180910390fd5b60038060038111156102eb57fe5b600360009054906101000a900460ff16600381111561030657fe5b14610346576040517f08c379a000000000000000000000000000000000000000000000000000000000815260040161033d906131b4565b60405180910390fd5b6003600581111561035357fe5b600c60009054906101000a900460ff16600581111561036e57fe5b146103ae576040517f08c379a00000000000000000000000000000000000000000000000000000000081526004016103a590613274565b60405180910390fd5b60095485859050146103bf57600080fd5b60008090505b60095481101561051b578585828181106103db57fe5b9050013560f81c60f81b7effffffffffffffffffffffffffffffffffffffffffffffffffffffffffffff191660078281546001816001161561010002031660029004811061042557fe5b8154600116156104445790600052602060002090602091828204019190065b9054901a7f0100000000000000000000000000000000000000000000000000000000000000027effffffffffffffffffffffffffffffffffffffffffffffffffffffffffffff1916141580156104d75750600660418787848181106104a557fe5b9050013560f81c60f81b60f81c0360ff16601a81106104c057fe5b602091828204019190069054906101000a900460ff165b1561050e576005600c60006101000a81548160ff021916908360058111156104fb57fe5b0217905550610508611d05565b506105a6565b80806001019150506103c5565b5060055486868660405160200161053493929190613066565b6040516020818303038152906040528051906020012014610578576005600c60006101000a81548160ff0219169083600581111561056e57fe5b021790555061059d565b6004600c60006101000a81548160ff0219169083600581111561059757fe5b02179055505b6105a5611d05565b5b505050505050565b600080606060006105bd6120a6565b60606000806000806000600360009054906101000a900460ff16600d54600260055460066007600860009054906101000a900460ff16600954600a54600b54600c60009054906101000a900460ff168880548060200260200160405190810160405280929190818152602001828054801561068d57602002820191906000526020600020905b8160009054906101000a900473ffffffffffffffffffffffffffffffffffffffff1673ffffffffffffffffffffffffffffffffffffffff1681526020019060010190808311610643575b5050505050985086601a806020026040519081016040528092919082601a80156106f1576020028201916000905b82829054906101000a900460ff161515815260200190600101906020826000010492830192600103820291508084116106bb5790505b50505050509650858054600181600116156101000203166002900480601f01602080910402602001604051908101604052809291908181526020018280546001816001161561010002031660029004801561078d5780601f106107625761010080835404028352916020019161078d565b820191906000526020600020905b81548152906001019060200180831161077057829003601f168201915b505050505095509a509a509a509a509a509a509a509a509a509a509a50909192939495969798999a565b60026000815481106107c557fe5b9060005260206000200160009054906101000a900473ffffffffffffffffffffffffffffffffffffffff168073ffffffffffffffffffffffffffffffffffffffff163373ffffffffffffffffffffffffffffffffffffffff161461085e576040517f08c379a0000000000000000000000000000000000000000000000000000000008152600401610855906131f4565b60405180910390fd5b600280600581111561086c57fe5b600c60009054906101000a900460ff16600581111561088757fe5b146108c7576040517f08c379a00000000000000000000000000000000000000000000000000000000081526004016108be906132d4565b60405180910390fd5b60038060038111156108d557fe5b600360009054906101000a900460ff1660038111156108f057fe5b14610930576040517f08c379a0000000000000000000000000000000000000000000000000000000008152600401610927906131b4565b60405180910390fd5b600160066041600860009054906101000a900460ff160360ff16601a811061095457fe5b602091828204019190066101000a81548160ff021916908315150217905550600b60008154809291906001019190505550600054600b5414156109ba576003600c60006101000a81548160ff021916908360058111156109b057fe5b02179055506109df565b6001600c60006101000a81548160ff021916908360058111156109d957fe5b02179055505b6109e7611d05565b505050565b60026000815481106109fa57fe5b9060005260206000200160009054906101000a900473ffffffffffffffffffffffffffffffffffffffff168073ffffffffffffffffffffffffffffffffffffffff163373ffffffffffffffffffffffffffffffffffffffff1614610a93576040517f08c379a0000000000000000000000000000000000000000000000000000000008152600401610a8a906131f4565b60405180910390fd5b6000806005811115610aa157fe5b600c60009054906101000a900460ff166005811115610abc57fe5b14610afc576040517f08c379a0000000000000000000000000000000000000000000000000000000008152600401610af3906132d4565b60405180910390fd5b6003806003811115610b0a57fe5b600360009054906101000a900460ff166003811115610b2557fe5b14610b65576040517f08c379a0000000000000000000000000000000000000000000000000000000008152600401610b5c906131b4565b60405180910390fd5b846005819055508360ff166009819055506001600c60006101000a81548160ff02191690836005811115610b9557fe5b02179055508360ff16600a819055508360ff166040519080825280601f01601f191660200182016040528015610bda5781602001600182028038833980820191505090505b5060079080519060200190610bf09291906120c9565b50610bf9611d05565b5050505050565b6002600081548110610c0e57fe5b9060005260206000200160009054906101000a900473ffffffffffffffffffffffffffffffffffffffff168073ffffffffffffffffffffffffffffffffffffffff163373ffffffffffffffffffffffffffffffffffffffff1614610ca7576040517f08c379a0000000000000000000000000000000000000000000000000000000008152600401610c9e906131f4565b60405180910390fd5b6002806005811115610cb557fe5b600c60009054906101000a900460ff166005811115610cd057fe5b14610d10576040517f08c379a0000000000000000000000000000000000000000000000000000000008152600401610d07906132d4565b60405180910390fd5b6003806003811115610d1e57fe5b600360009054906101000a900460ff166003811115610d3957fe5b14610d79576040517f08c379a0000000000000000000000000000000000000000000000000000000008152600401610d70906131b4565b60405180910390fd5b60008585905011610d8957600080fd5b60008090505b85859050811015610f4157600954868683818110610da957fe5b9050602002016020610dbe9190810190612849565b60ff16101580610e76575060006007878784818110610dd957fe5b9050602002016020610dee9190810190612849565b60ff16815460018160011615610100020316600290048110610e0c57fe5b815460011615610e2b5790600052602060002090602091828204019190065b9054901a7f0100000000000000000000000000000000000000000000000000000000000000027effffffffffffffffffffffffffffffffffffffffffffffffffffffffffffff191614155b15610e8957610e83611d05565b50610ff5565b600860009054906101000a900460ff1660f81b6007878784818110610eaa57fe5b9050602002016020610ebf9190810190612849565b60ff16815460018160011615610100020316600290048110610edd57fe5b815460011615610efc5790600052602060002090602091828204019190065b601f036101000a81548160ff021916907f0100000000000000000000000000000000000000000000000000000000000000840402179055508080600101915050610d8f565b5084849050600a5403600a81905550600160066041600860009054906101000a900460ff160360ff16601a8110610f7457fe5b602091828204019190066101000a81548160ff0219169083151502179055506001600a541015610fc7576005600c60006101000a81548160ff02191690836005811115610fbd57fe5b0217905550610fec565b6001600c60006101000a81548160ff02191690836005811115610fe657fe5b02179055505b610ff4611d05565b5b5050505050565b600380600381111561100a57fe5b600360009054906101000a900460ff16600381111561102557fe5b14611065576040517f08c379a000000000000000000000000000000000000000000000000000000000815260040161105c906131b4565b60405180910390fd5b61107d600c60009054906101000a900460ff16611d55565b50565b600260018154811061108e57fe5b9060005260206000200160009054906101000a900473ffffffffffffffffffffffffffffffffffffffff168073ffffffffffffffffffffffffffffffffffffffff163373ffffffffffffffffffffffffffffffffffffffff1614611127576040517f08c379a000000000000000000000000000000000000000000000000000000000815260040161111e906131f4565b60405180910390fd5b600180600581111561113557fe5b600c60009054906101000a900460ff16600581111561115057fe5b14611190576040517f08c379a0000000000000000000000000000000000000000000000000000000008152600401611187906132d4565b60405180910390fd5b600380600381111561119e57fe5b600360009054906101000a900460ff1660038111156111b957fe5b146111f9576040517f08c379a00000000000000000000000000000000000000000000000000000000081526004016111f0906131b4565b60405180910390fd5b6000604185039050601a8160ff1610611247576040517f08c379a000000000000000000000000000000000000000000000000000000000815260040161123e90613254565b60405180910390fd5b6000151560068260ff16601a811061125b57fe5b602091828204019190069054906101000a900460ff161515146112b3576040517f08c379a00000000000000000000000000000000000000000000000000000000081526004016112aa90613294565b60405180910390fd5b84600860006101000a81548160ff021916908360ff1602179055506002600c60006101000a81548160ff021916908360058111156112ed57fe5b02179055506112fa611d05565b5050505050565b600180600381111561130f57fe5b600360009054906101000a900460ff16600381111561132a57fe5b1461136a576040517f08c379a0000000000000000000000000000000000000000000000000000000008152600401611361906131b4565b60405180910390fd5b6000806000600e60009054906101000a900473ffffffffffffffffffffffffffffffffffffffff1673ffffffffffffffffffffffffffffffffffffffff1663d2966c143060006040516020016113c1929190612f6c565b604051602081830303815290604052805190602001206040518263ffffffff1660e01b81526004016113f39190612fbe565b60806040518083038186803b15801561140b57600080fd5b505afa15801561141f573d6000803e3d6000fd5b505050506040513d601f19601f8201168201806040525061144391908101906127e6565b93509350509250600d54831461148e576040517f08c379a000000000000000000000000000000000000000000000000000000000815260040161148590613234565b60405180910390fd5b806114ce576040517f08c379a00000000000000000000000000000000000000000000000000000000081526004016114c5906132b4565b60405180910390fd5b8c8c8c8c8c8c8c8c8c6040516020016114ef99989796959493929190612fd9565b604051602081830303815290604052805190602001208214611546576040517f08c379a000000000000000000000000000000000000000000000000000000000815260040161153d906132f4565b60405180910390fd5b8c6005819055508b600690601a61155e929190612149565b508a8a600791906115709291906121e4565b5088600860006101000a81548160ff021916908360ff1602179055508760098190555086600a8190555085600b8190555084600c60006101000a81548160ff021916908360058111156115bf57fe5b021790555060038060006101000a81548160ff021916908360038111156115e257fe5b02179055506001600d5401600d819055507f6e3bd3db4e4d52e58da7737c8c7b8d220d9b07f6fac7fc0e1c9689bbe799635a60405160405180910390a150505050505050505050505050565b600380600381111561163c57fe5b600360009054906101000a900460ff16600381111561165757fe5b14611697576040517f08c379a000000000000000000000000000000000000000000000000000000000815260040161168e906131b4565b60405180910390fd5b61178f600280548060200260200160405190810160405280929190818152602001828054801561171c57602002820191906000526020600020905b8160009054906101000a900473ffffffffffffffffffffffffffffffffffffffff1673ffffffffffffffffffffffffffffffffffffffff16815260200190600101908083116116d2575b505050505030600d54604051602001611736929190612f95565b60405160208183030381529060405285858080601f016020809104026020016040519081016040528093929190818152602001838380828437600081840152601f19601f82011690508083019250505050505050611e6f565b6001600360006101000a81548160ff021916908360038111156117ae57fe5b021790555060006004819055507f486108656b279136b8ef35a304d86df90f288f7342daf6536852944942f7b60f60405160405180910390a1505050565b60038060038111156117fa57fe5b600360009054906101000a900460ff16600381111561181557fe5b14611855576040517f08c379a000000000000000000000000000000000000000000000000000000000815260040161184c906131b4565b60405180910390fd5b42600454111561186457600080fd5b6004600581111561187157fe5b600c60009054906101000a900460ff16600581111561188c57fe5b141580156118bf57506005808111156118a157fe5b600c60009054906101000a900460ff1660058111156118bc57fe5b14155b6118c857600080fd5b60026000815481106118d657fe5b9060005260206000200160009054906101000a900473ffffffffffffffffffffffffffffffffffffffff1673ffffffffffffffffffffffffffffffffffffffff163373ffffffffffffffffffffffffffffffffffffffff16148061199d5750600260018154811061194357fe5b9060005260206000200160009054906101000a900473ffffffffffffffffffffffffffffffffffffffff1673ffffffffffffffffffffffffffffffffffffffff163373ffffffffffffffffffffffffffffffffffffffff16145b6119a657600080fd5b600160058111156119b357fe5b600c60009054906101000a900460ff1660058111156119ce57fe5b1415611a0357600460058111156119e157fe5b600c60009054906101000a900460ff1660058111156119fc57fe5b5050611a2d565b600580811115611a0f57fe5b600c60009054906101000a900460ff166005811115611a2a57fe5b50505b611a35611d05565b50565b6003806003811115611a4657fe5b600360009054906101000a900460ff166003811115611a6157fe5b14611aa1576040517f08c379a0000000000000000000000000000000000000000000000000000000008152600401611a98906131b4565b60405180910390fd5b600060045414611ab057600080fd5b60046005811115611abd57fe5b600c60009054906101000a900460ff166005811115611ad857fe5b14158015611b0b5750600580811115611aed57fe5b600c60009054906101000a900460ff166005811115611b0857fe5b14155b611b1457600080fd5b6002600081548110611b2257fe5b9060005260206000200160009054906101000a900473ffffffffffffffffffffffffffffffffffffffff1673ffffffffffffffffffffffffffffffffffffffff163373ffffffffffffffffffffffffffffffffffffffff161480611be957506002600181548110611b8f57fe5b9060005260206000200160009054906101000a900473ffffffffffffffffffffffffffffffffffffffff1673ffffffffffffffffffffffffffffffffffffffff163373ffffffffffffffffffffffffffffffffffffffff16145b611bf257600080fd5b60015442016004819055507fdc366cb1e2516aaf0bb450000834ee4209956a3889d1b518ec01475ec98ed521600c60009054906101000a900460ff16604051611c3b9190613199565b60405180910390a150565b611cf86002805480602002602001604051908101604052809291908181526020018280548015611ccb57602002820191906000526020600020905b8160009054906101000a900473ffffffffffffffffffffffffffffffffffffffff1673ffffffffffffffffffffffffffffffffffffffff1681526020019060010190808311611c81575b50505050503084604051602001611ce3929190612f43565b60405160208183030381529060405283611e6f565b611d0182611d55565b5050565b60006004819055507fdc366cb1e2516aaf0bb450000834ee4209956a3889d1b518ec01475ec98ed521600c60009054906101000a900460ff16604051611d4b9190613199565b60405180910390a1565b60046005811115611d6257fe5b816005811115611d6e57fe5b1415611dc5576002600081548110611d8257fe5b9060005260206000200160009054906101000a900473ffffffffffffffffffffffffffffffffffffffff1673ffffffffffffffffffffffffffffffffffffffff16ff5b600580811115611dd157fe5b816005811115611ddd57fe5b1415611e34576002600181548110611df157fe5b9060005260206000200160009054906101000a900473ffffffffffffffffffffffffffffffffffffffff1673ffffffffffffffffffffffffffffffffffffffff16ff5b6040517f08c379a0000000000000000000000000000000000000000000000000000000008152600401611e6690613214565b60405180910390fd5b611e8283611e7c84611e87565b83611ea0565b505050565b6000611e998280519060200120612033565b9050919050565b606081806020019051611eb6919081019061255f565b90508351815114611efc576040517f08c379a0000000000000000000000000000000000000000000000000000000008152600401611ef390613314565b60405180910390fd5b60008090505b845181101561202c57600184838381518110611f1a57fe5b602002602001015160000151848481518110611f3257fe5b602002602001015160200151858581518110611f4a57fe5b60200260200101516040015160405160008152602001604052604051611f739493929190613098565b6020604051602081039080840390855afa158015611f95573d6000803e3d6000fd5b5050506020604051035173ffffffffffffffffffffffffffffffffffffffff16858281518110611fc157fe5b602002602001015173ffffffffffffffffffffffffffffffffffffffff161461201f576040517f08c379a0000000000000000000000000000000000000000000000000000000008152600401612016906131d4565b60405180910390fd5b8080600101915050611f02565b5050505050565b600060606040518060400160405280601c81526020017f19457468657265756d205369676e6564204d6573736167653a0a333200000000815250905060008184604051602001612084929190612f1b565b6040516020818303038152906040528051906020012090508092505050919050565b604051806103400160405280601a90602082028038833980820191505090505090565b828054600181600116156101000203166002900490600052602060002090601f016020900481019282601f1061210a57805160ff1916838001178555612138565b82800160010185558215612138579182015b8281111561213757825182559160200191906001019061211c565b5b5090506121459190612264565b5090565b82601a601f016020900481019282156121d35791602002820160005b838211156121a4578335151583826101000a81548160ff0219169083151502179055509260200192600101602081600001049283019260010302612165565b80156121d15782816101000a81549060ff02191690556001016020816000010492830192600103026121a4565b505b5090506121e09190612289565b5090565b828054600181600116156101000203166002900490600052602060002090601f016020900481019282601f1061222557803560ff1916838001178555612253565b82800160010185558215612253579182015b82811115612252578235825591602001919060010190612237565b5b5090506122609190612264565b5090565b61228691905b8082111561228257600081600090555060010161226a565b5090565b90565b6122b691905b808211156122b257600081816101000a81549060ff02191690555060010161228f565b5090565b90565b6000819050826020601a02820111156122d157600080fd5b92915050565b600082601f8301126122e857600080fd5b81516122fb6122f682613361565b613334565b9150818183526020840193506020810190508385606084028201111561232057600080fd5b60005b83811015612350578161233688826124ab565b845260208401935060608301925050600181019050612323565b5050505092915050565b60008083601f84011261236c57600080fd5b8235905067ffffffffffffffff81111561238557600080fd5b60208301915083602082028301111561239d57600080fd5b9250929050565b6000813590506123b3816135c9565b92915050565b6000815190506123c8816135c9565b92915050565b6000813590506123dd816135e0565b92915050565b6000815190506123f2816135e0565b92915050565b60008083601f84011261240a57600080fd5b8235905067ffffffffffffffff81111561242357600080fd5b60208301915083600182028301111561243b57600080fd5b9250929050565b600082601f83011261245357600080fd5b813561246661246182613389565b613334565b9150808252602083016020830185838301111561248257600080fd5b61248d838284613552565b50505092915050565b6000813590506124a5816135f7565b92915050565b6000606082840312156124bd57600080fd5b6124c76060613334565b905060006124d78482850161254a565b60008301525060206124eb848285016123e3565b60208301525060406124ff848285016123e3565b60408301525092915050565b60008135905061251a81613607565b92915050565b60008151905061252f81613607565b92915050565b6000813590506125448161361e565b92915050565b6000815190506125598161361e565b92915050565b60006020828403121561257157600080fd5b600082015167ffffffffffffffff81111561258b57600080fd5b612597848285016122d7565b91505092915050565b600080602083850312156125b357600080fd5b600083013567ffffffffffffffff8111156125cd57600080fd5b6125d98582860161235a565b92509250509250929050565b60008060008060008060008060006104208a8c03121561260457600080fd5b60006126128c828d016123ce565b99505060206126238c828d016122b9565b9850506103608a013567ffffffffffffffff81111561264157600080fd5b61264d8c828d016123f8565b97509750506103806126618c828d01612535565b9550506103a06126738c828d0161250b565b9450506103c06126858c828d0161250b565b9350506103e06126978c828d0161250b565b9250506104006126a98c828d01612496565b9150509295985092959850929598565b6000806000604084860312156126ce57600080fd5b60006126dc868287016123ce565b935050602084013567ffffffffffffffff8111156126f957600080fd5b612705868287016123f8565b92509250509250925092565b6000806040838503121561272457600080fd5b6000612732858286016123ce565b925050602061274385828601612535565b9150509250929050565b6000806020838503121561276057600080fd5b600083013567ffffffffffffffff81111561277a57600080fd5b612786858286016123f8565b92509250509250929050565b600080604083850312156127a557600080fd5b60006127b385828601612496565b925050602083013567ffffffffffffffff8111156127d057600080fd5b6127dc85828601612442565b9150509250929050565b600080600080608085870312156127fc57600080fd5b600061280a87828801612520565b945050602061281b87828801612520565b935050604061282c878288016123e3565b925050606061283d878288016123b9565b91505092959194509250565b60006020828403121561285b57600080fd5b600061286984828501612535565b91505092915050565b600061287e83836128a2565b60208301905092915050565b600061289683836129d4565b60208301905092915050565b6128ab81613497565b82525050565b6128ba81613497565b82525050565b60006128cb826133d9565b6128d58185613437565b93506128e0836133b5565b8060005b838110156129115781516128f88882612872565b975061290383613410565b9250506001810190506128e4565b5085935050505092915050565b612927816133e4565b6129318184613448565b925061293c826133c5565b8060005b83811015612975576129528284613480565b61295c878261288a565b96506129678361341d565b925050600181019050612940565b505050505050565b612986816133ef565b6129908184613448565b925061299b826133cf565b8060005b838110156129cc5781516129b3878261288a565b96506129be8361342a565b92505060018101905061299f565b505050505050565b6129dd816134a9565b82525050565b6129ec816134b5565b82525050565b612a036129fe826134b5565b613594565b82525050565b6000612a158385613453565b9350612a22838584613552565b612a2b8361359e565b840190509392505050565b6000612a41826133fa565b612a4b8185613453565b9350612a5b818560208601613561565b612a648161359e565b840191505092915050565b612a788161351c565b82525050565b612a878161352e565b82525050565b612a9681613540565b82525050565b6000612aa782613405565b612ab18185613475565b9350612ac1818560208601613561565b80840191505092915050565b6000612ada603283613464565b91507f4e6f7420746865207269676874206368616e6e656c2073746174757320746f2060008301527f63616c6c20746869732066756e6374696f6e00000000000000000000000000006020830152604082019050919050565b6000612b40600f83613464565b91507f57726f6e67207369676e617475726500000000000000000000000000000000006000830152602082019050919050565b6000612b80602983613464565b91507f4e6f742074686520726967687420706172747920746f2063616c6c207468697360008301527f2066756e6374696f6e00000000000000000000000000000000000000000000006020830152604082019050919050565b6000612be6601183613464565b91507f4e6f207465726d696e616c2073746174650000000000000000000000000000006000830152602082019050919050565b6000612c26601f83613464565b91507f53746174652068617320616c7265616479206265656e20756e6c6f636b6564006000830152602082019050919050565b6000612c66601283613464565b91507f4e6f7420612076616c6964206c657474657200000000000000000000000000006000830152602082019050919050565b6000612ca6602583613464565b91507f4e6f7420696e2074686520726967687420737461676520666f7220616e206f7060008301527f656e696e670000000000000000000000000000000000000000000000000000006020830152604082019050919050565b6000612d0c601f83613464565b91507f4c65747465722068617320616c7265616479206265656e2067756573736564006000830152602082019050919050565b6000612d4c607883613464565b91507f496e7374616e6365206973206e6f7420756e6c6f636b61626c652c206569746860008301527f657220746865206c6174657374206469737075746520706572696f642068617360208301527f206e6f74206265656e2066696e6973686564206f722074686520696e7374616e60408301527f636520686173206e65766572206265656e206c6f636b656400000000000000006060830152608082019050919050565b6000612dfe602983613464565b91507f4e6f742074686520726967687420737461676520746f2063616c6c207468697360008301527f2066756e6374696f6e00000000000000000000000000000000000000000000006020830152604082019050919050565b6000612e64601d83613464565b91507f57726f6e6720737461746520686173206265656e2070726f76696465640000006000830152602082019050919050565b6000612ea4602b83613464565b91507f546865726520617265206c6573732f6d6f7265207369676e617475726573207460008301527f68656e20706172746965730000000000000000000000000000000000000000006020830152604082019050919050565b612f0681613505565b82525050565b612f158161350f565b82525050565b6000612f278285612a9c565b9150612f3382846129f2565b6020820191508190509392505050565b6000604082019050612f5860008301856128b1565b612f656020830184612a7e565b9392505050565b6000604082019050612f8160008301856128b1565b612f8e6020830184612a8d565b9392505050565b6000604082019050612faa60008301856128b1565b612fb76020830184612efd565b9392505050565b6000602082019050612fd360008301846129e3565b92915050565b600061042082019050612fef600083018c6129e3565b612ffc602083018b61291e565b81810361036083015261301081898b612a09565b9050613020610380830188612f0c565b61302e6103a0830187612efd565b61303c6103c0830186612efd565b61304a6103e0830185612efd565b613058610400830184612a7e565b9a9950505050505050505050565b600060408201905061307b60008301866129e3565b818103602083015261308e818486612a09565b9050949350505050565b60006080820190506130ad60008301876129e3565b6130ba6020830186612f0c565b6130c760408301856129e3565b6130d460608301846129e3565b95945050505050565b6000610480820190506130f3600083018e612a6f565b613100602083018d612efd565b8181036040830152613112818c6128c0565b9050613121606083018b6129e3565b61312e608083018a61297d565b8181036103c08301526131418189612a36565b90506131516103e0830188612f0c565b61315f610400830187612efd565b61316d610420830186612efd565b61317b610440830185612efd565b613189610460830184612a7e565b9c9b505050505050505050505050565b60006020820190506131ae6000830184612a7e565b92915050565b600060208201905081810360008301526131cd81612acd565b9050919050565b600060208201905081810360008301526131ed81612b33565b9050919050565b6000602082019050818103600083015261320d81612b73565b9050919050565b6000602082019050818103600083015261322d81612bd9565b9050919050565b6000602082019050818103600083015261324d81612c19565b9050919050565b6000602082019050818103600083015261326d81612c59565b9050919050565b6000602082019050818103600083015261328d81612c99565b9050919050565b600060208201905081810360008301526132ad81612cff565b9050919050565b600060208201905081810360008301526132cd81612d3f565b9050919050565b600060208201905081810360008301526132ed81612df1565b9050919050565b6000602082019050818103600083015261330d81612e57565b9050919050565b6000602082019050818103600083015261332d81612e97565b9050919050565b6000604051905081810181811067ffffffffffffffff8211171561335757600080fd5b8060405250919050565b600067ffffffffffffffff82111561337857600080fd5b602082029050602081019050919050565b600067ffffffffffffffff8211156133a057600080fd5b601f19601f8301169050602081019050919050565b6000819050602082019050919050565b6000819050919050565b6000819050919050565b600081519050919050565b6000601a9050919050565b6000601a9050919050565b600081519050919050565b600081519050919050565b6000602082019050919050565b6000602082019050919050565b6000602082019050919050565b600082825260208201905092915050565b600081905092915050565b600082825260208201905092915050565b600082825260208201905092915050565b600081905092915050565b600061348f60208401846123a4565b905092915050565b60006134a2826134e5565b9050919050565b60008115159050919050565b6000819050919050565b60008190506134cd826135af565b919050565b60008190506134e0826135bc565b919050565b600073ffffffffffffffffffffffffffffffffffffffff82169050919050565b6000819050919050565b600060ff82169050919050565b6000613527826134bf565b9050919050565b6000613539826134d2565b9050919050565b600061354b8261350f565b9050919050565b82818337600083830152505050565b60005b8381101561357f578082015181840152602081019050613564565b8381111561358e576000848401525b50505050565b6000819050919050565b6000601f19601f8301169050919050565b600481106135b957fe5b50565b600681106135c657fe5b50565b6135d2816134a9565b81146135dd57600080fd5b50565b6135e9816134b5565b81146135f457600080fd5b50565b6006811061360457600080fd5b50565b61361081613505565b811461361b57600080fd5b50565b6136278161350f565b811461363257600080fd5b5056fea365627a7a7230582031347572167a0033d8c6bacece506d86b0b0daa9159fcdb5812ec996e14e04e06c6578706572696d656e74616cf564736f6c634300050a0040",
  "source": "pragma solidity 0.5.10;\npragma experimental \"ABIEncoderV2\";\n\nimport \"contracts/hybridArchitecture/Relockable/HybridRelockableDisputeBoard.sol\";\nimport \"contracts/sharedCode/AbstractHangmanChannel.sol\";\nimport \"contracts/sharedCode/SigVerifier.sol\";\n\n//We assume that players only sign / produce states that can occur in a proper execution\n//For example, they do not sign / produce a state in which a player has used all of his ten tries but still is in stage WaitingForGuess\ncontract HybridRelockableHangmanChannel is AbstractHangmanChannel, SigVerifier{\n    \n    //******************\n    // Variables, enums, structures\n    \n    //Channel variables\n    uint lockCount;\n    HybridRelockableDisputeBoard db;\n    \n    //Events\n    event eventLocked();\n    event eventUnlocked();\n    \n    //The enums for the channel status ONCHAIN and OFFCHAIN would fit here better to UNLOCKED = ONCHAIN and LOCKED = OFFCHAIN\n    \n    //****************\n    //Constructor\n    constructor(uint _maxTries, uint _challengePeriod, address[] memory _parties, address _db) public payable AbstractHangmanChannel(_maxTries, _challengePeriod, _parties){\n        \n        //We are starting off-chain\n        status = ChannelStatus.OFFCHAIN;\n        lockCount = 0;\n        db = HybridRelockableDisputeBoard(_db);\n        db.initializeChannel(0, parties);   //Need to send a 0 as well, because dispute board is used by the singleton extension as well\n        \n    }\n    \n    //****************\n    //Lock/Unlock logic\n    \n    //Parties sign a lock request with a specific lockcount if they want to lock the application for off-chain execution\n        //We require parties to first create the next off-chain state and afterwards lock the application. Thus we do not have to deal with disputes without a state can simply ignore on-chain executions during lock-negotiations\n    function lock(bytes calldata _signatures) external isChannelStatus(ChannelStatus.ONCHAIN){\n        \n        //Check signatures\n        //!!! Signatures need to include the contracts address as well\n        verifySignatures(parties, abi.encode(address(this),lockCount), _signatures);\n\n        //Lock the application and reset challenges\n        status = ChannelStatus.OFFCHAIN;\n        challenged = 0;\n        \n        emit eventLocked();\n    }\n    \n    //In the off-chain application they sign tuples of (hash(0, address), lockCount, version, state-hash); the hash(0,address) uniquely identifies the instance, the lockCount is the lockCount used to lock the application, the version starts for each lock with 0 and is incremented with each state update\n    //The state-hash is constructed on the application contract's address and all state variables\n    function unlock(bytes32 _hashedWord, bool[26] calldata _guessed, bytes calldata _word, uint8 _currentGuess, uint _wordLength, uint _missingLetters, uint _tries, Stage _stage) external isChannelStatus(ChannelStatus.OFFCHAIN){\n        \n        //Read the current channel's information from the dispute board\n        (uint _unlockCount, ,bytes32 _stateHash, bool _unlockable) = db.getChannelInstance(keccak256(abi.encode(address(this), 0)));\n        \n        //Check that this state has not been unlocked before\n        require(_unlockCount == lockCount, \"State has already been unlocked\");\n        \n        //Check that instance is unlockable\n        require(_unlockable, \"Instance is not unlockable, either the latest dispute period has not been finished or the instance has never been locked\");\n        \n        //Check that the right state has been provided\n        require(_stateHash == keccak256(abi.encode(_hashedWord, _guessed, _word, _currentGuess, _wordLength, _missingLetters, _tries, _stage)), \"Wrong state has been provided\");\n        \n        //Update state\n        hashedWord = _hashedWord;\n        guessed = _guessed;\n        word = _word;\n        currentGuess = _currentGuess;\n        wordLength = _wordLength;\n        missingLetters = _missingLetters;\n        tries = _tries;\n        stage = _stage;\n        \n        //Unlock the instance, icrement the lockcount to prevent replays and notify users\n        status = ChannelStatus.ONCHAIN;\n        lockCount = lockCount + 1;\n        emit eventUnlocked();\n    }\n    \n    //Function to close without a dispute: As this contact has no default funtionality to handle signed states we simply sign the address and the final stage / not state (dispute board handles signed hashes and this channel handles signed lock-requests)\n    function fastClose(Stage _stage, bytes memory _signatures) public {\n        //Check signatures\n        verifySignatures(parties, abi.encode(address(this), _stage), _signatures);\n        //call close (checks stage and performs the closure)\n        internalClose(_stage);\n    }\n    \n    //****************\n    //Application logic is inherited\n    \n    //****************\n    //Getters\n    function getState() external view returns (ChannelStatus, uint, address[] memory, bytes32, bool[26] memory, bytes memory, uint8, uint, uint, uint, Stage){\n        return (status, lockCount, parties, hashedWord, guessed, word, currentGuess, wordLength, missingLetters, tries, stage);\n    }\n}\n",
  "sourcePath": "/media/shared/CAC/Projekte/2019_SC_Workshop_FinCrypto/publicImplementation/truffle/contracts/hybridArchitecture/Relockable/HybridRelockableHangmanChannel.sol",
  "compiler": {
    "name": "solc",
    "version": "0.5.10+commit.5a6ea5b1.Emscripten.clang"
  },
  "schemaVersion": "3.0.16",
  "updatedAt": "2019-12-13T14:08:12.373Z",
  "devdoc": {
    "methods": {}
  },
  "userdoc": {
    "methods": {}
  }
}