{
  "contractName": "MoneyDispatcher",
  "abi": [
    {
      "constant": false,
      "inputs": [
        {
          "name": "_parties",
          "type": "address[]"
        },
        {
          "name": "_balances",
          "type": "uint256[]"
        }
      ],
      "name": "dispatch",
      "outputs": [],
      "payable": true,
      "stateMutability": "payable",
      "type": "function"
    }
  ],
  "bytecode": "0x608060405234801561001057600080fd5b506102b0806100206000396000f3fe60806040526004361061001e5760003560e01c8063b9e9a5ef14610023575b600080fd5b61003d600480360361003891908101906101af565b61003f565b005b60008090505b828290508110156100d65784848281811061005c57fe5b90506020020160206100719190810190610186565b73ffffffffffffffffffffffffffffffffffffffff166108fc84848481811061009657fe5b905060200201359081150290604051600060405180830381858888f193505050501580156100c8573d6000803e3d6000fd5b508080600101915050610045565b5050505050565b6000813590506100ec81610256565b92915050565b60008083601f84011261010457600080fd5b8235905067ffffffffffffffff81111561011d57600080fd5b60208301915083602082028301111561013557600080fd5b9250929050565b60008083601f84011261014e57600080fd5b8235905067ffffffffffffffff81111561016757600080fd5b60208301915083602082028301111561017f57600080fd5b9250929050565b60006020828403121561019857600080fd5b60006101a6848285016100dd565b91505092915050565b600080600080604085870312156101c557600080fd5b600085013567ffffffffffffffff8111156101df57600080fd5b6101eb878288016100f2565b9450945050602085013567ffffffffffffffff81111561020a57600080fd5b6102168782880161013c565b925092505092959194509250565b600061022f82610236565b9050919050565b600073ffffffffffffffffffffffffffffffffffffffff82169050919050565b61025f81610224565b811461026a57600080fd5b5056fea365627a7a72305820a2e8f60f53eb37b348a055f76cc7229940a91b2f05c5ac62591348f2c8b5a5746c6578706572696d656e74616cf564736f6c634300050a0040",
  "source": "pragma solidity 0.5.10;\npragma experimental ABIEncoderV2;\n\n//Contract to send money to multiple addresses\ncontract MoneyDispatcher {\n    \n    //pays each party the specified funds\n    function dispatch(address[] calldata _parties, uint[] calldata _balances) external payable {\n        for(uint i = 0; i <_balances.length; i++){\n            address(uint160(_parties[i])).transfer(_balances[i]);\n        }\n    }\n}\n",
  "sourcePath": "/media/shared/CAC/Projekte/2019_SC_Workshop_FinCrypto/publicImplementation/truffle/contracts/multiAppChannels/MoneyDispatcher.sol",
  "compiler": {
    "name": "solc",
    "version": "0.5.10+commit.5a6ea5b1.Emscripten.clang"
  },
  "schemaVersion": "3.0.16",
  "updatedAt": "2019-12-13T14:08:35.960Z",
  "devdoc": {
    "methods": {}
  },
  "userdoc": {
    "methods": {}
  }
}