{
  "contractName": "OffchainRecovery",
  "abi": [
    {
      "inputs": [
        {
          "name": "_maxTries",
          "type": "uint256"
        },
        {
          "name": "_timeoutPeriod",
          "type": "uint256"
        },
        {
          "name": "_challengePeriod",
          "type": "uint256"
        },
        {
          "name": "_parties",
          "type": "address[]"
        }
      ],
      "payable": true,
      "stateMutability": "payable",
      "type": "constructor"
    },
    {
      "anonymous": false,
      "inputs": [],
      "name": "Dispute",
      "type": "event"
    },
    {
      "anonymous": false,
      "inputs": [],
      "name": "DisputeResolved",
      "type": "event"
    },
    {
      "constant": false,
      "inputs": [
        {
          "name": "_version",
          "type": "uint256"
        },
        {
          "name": "_hashedWord",
          "type": "bytes32"
        },
        {
          "name": "_guessed",
          "type": "bool[26]"
        },
        {
          "name": "_word",
          "type": "bytes"
        },
        {
          "name": "_currentGuess",
          "type": "uint8"
        },
        {
          "name": "_wordLength",
          "type": "uint256"
        },
        {
          "name": "_missingLetters",
          "type": "uint256"
        },
        {
          "name": "_tries",
          "type": "uint256"
        },
        {
          "name": "_stage",
          "type": "uint8"
        },
        {
          "name": "_signatures",
          "type": "bytes"
        }
      ],
      "name": "evidence",
      "outputs": [],
      "payable": false,
      "stateMutability": "nonpayable",
      "type": "function"
    },
    {
      "constant": false,
      "inputs": [],
      "name": "dispute",
      "outputs": [],
      "payable": false,
      "stateMutability": "nonpayable",
      "type": "function"
    },
    {
      "constant": false,
      "inputs": [],
      "name": "finalizeDispute",
      "outputs": [],
      "payable": false,
      "stateMutability": "nonpayable",
      "type": "function"
    },
    {
      "constant": false,
      "inputs": [],
      "name": "close",
      "outputs": [],
      "payable": false,
      "stateMutability": "nonpayable",
      "type": "function"
    },
    {
      "constant": false,
      "inputs": [
        {
          "name": "_version",
          "type": "uint256"
        },
        {
          "name": "_hashedWord",
          "type": "bytes32"
        },
        {
          "name": "_guessed",
          "type": "bool[26]"
        },
        {
          "name": "_word",
          "type": "bytes"
        },
        {
          "name": "_currentGuess",
          "type": "uint8"
        },
        {
          "name": "_wordLength",
          "type": "uint256"
        },
        {
          "name": "_missingLetters",
          "type": "uint256"
        },
        {
          "name": "_tries",
          "type": "uint256"
        },
        {
          "name": "_stage",
          "type": "uint8"
        },
        {
          "name": "_signatures",
          "type": "bytes"
        }
      ],
      "name": "fastClose",
      "outputs": [],
      "payable": false,
      "stateMutability": "nonpayable",
      "type": "function"
    },
    {
      "constant": false,
      "inputs": [
        {
          "name": "_hashedWord",
          "type": "bytes32"
        },
        {
          "name": "_wordLength",
          "type": "uint8"
        }
      ],
      "name": "commit",
      "outputs": [],
      "payable": false,
      "stateMutability": "nonpayable",
      "type": "function"
    },
    {
      "constant": false,
      "inputs": [
        {
          "name": "_letter",
          "type": "uint8"
        }
      ],
      "name": "guess",
      "outputs": [],
      "payable": false,
      "stateMutability": "nonpayable",
      "type": "function"
    },
    {
      "constant": false,
      "inputs": [
        {
          "name": "_hits",
          "type": "uint8[]"
        }
      ],
      "name": "correct",
      "outputs": [],
      "payable": false,
      "stateMutability": "nonpayable",
      "type": "function"
    },
    {
      "constant": false,
      "inputs": [],
      "name": "wrong",
      "outputs": [],
      "payable": false,
      "stateMutability": "nonpayable",
      "type": "function"
    },
    {
      "constant": false,
      "inputs": [
        {
          "name": "_nonce",
          "type": "bytes32"
        },
        {
          "name": "_opening",
          "type": "bytes"
        }
      ],
      "name": "open",
      "outputs": [],
      "payable": false,
      "stateMutability": "nonpayable",
      "type": "function"
    },
    {
      "constant": true,
      "inputs": [],
      "name": "getState",
      "outputs": [
        {
          "name": "",
          "type": "uint8"
        },
        {
          "name": "",
          "type": "uint256"
        },
        {
          "name": "",
          "type": "uint256"
        },
        {
          "name": "",
          "type": "address[]"
        },
        {
          "name": "",
          "type": "bytes32"
        },
        {
          "name": "",
          "type": "bool[26]"
        },
        {
          "name": "",
          "type": "bytes"
        },
        {
          "name": "",
          "type": "uint8"
        },
        {
          "name": "",
          "type": "uint256"
        },
        {
          "name": "",
          "type": "uint256"
        },
        {
          "name": "",
          "type": "uint256"
        },
        {
          "name": "",
          "type": "uint8"
        }
      ],
      "payable": false,
      "stateMutability": "view",
      "type": "function"
    }
  ],
  "bytecode": "0x6080604052604051620033f0380380620033f083398181016040526200002991908101906200024b565b836000819055508260018190555081600281905550806006908051906020019062000056929190620000bb565b506001600360006101000a81548160ff021916908360038111156200007757fe5b021790555060006005819055506000600d819055506000600e60006101000a81548160ff02191690836005811115620000ac57fe5b02179055505050505062000399565b82805482825590600052602060002090810192821562000137579160200282015b82811115620001365782518260006101000a81548173ffffffffffffffffffffffffffffffffffffffff021916908373ffffffffffffffffffffffffffffffffffffffff16021790555091602001919060010190620000dc565b5b5090506200014691906200014a565b5090565b6200018d91905b808211156200018957600081816101000a81549073ffffffffffffffffffffffffffffffffffffffff02191690555060010162000151565b5090565b90565b600081519050620001a18162000365565b92915050565b600082601f830112620001b957600080fd5b8151620001d0620001ca82620002fe565b620002d0565b91508181835260208401935060208101905083856020840282011115620001f657600080fd5b60005b838110156200022a57816200020f888262000190565b845260208401935060208301925050600181019050620001f9565b5050505092915050565b60008151905062000245816200037f565b92915050565b600080600080608085870312156200026257600080fd5b6000620002728782880162000234565b9450506020620002858782880162000234565b9350506040620002988782880162000234565b925050606085015167ffffffffffffffff811115620002b657600080fd5b620002c487828801620001a7565b91505092959194509250565b6000604051905081810181811067ffffffffffffffff82111715620002f457600080fd5b8060405250919050565b600067ffffffffffffffff8211156200031657600080fd5b602082029050602081019050919050565b600062000334826200033b565b9050919050565b600073ffffffffffffffffffffffffffffffffffffffff82169050919050565b6000819050919050565b620003708162000327565b81146200037c57600080fd5b50565b6200038a816200035b565b81146200039657600080fd5b50565b61304780620003a96000396000f3fe608060405234801561001057600080fd5b50600436106100a95760003560e01c806343d726d61161007157806343d726d6146101355780634ba4c16b1461013f578063a6caba8c1461015b578063cc724ed614610177578063ec77537b14610193578063f240f7c31461019d576100a9565b806304e1df8b146100ae5780631865c57d146100ca5780632c23d2b4146100f35780633a37bd3f146100fd578063425b9bb914610119575b600080fd5b6100c860048036036100c391908101906122a0565b6101a7565b005b6100d2610588565b6040516100ea9c9b9a99989796959493929190612b22565b60405180910390f35b6100fb610799565b005b610117600480360361011291908101906122f8565b6109ce565b005b610133600480360361012e919081019061225b565b610be2565b005b61013d610fde565b005b61015960048036036101549190810190612444565b611060565b005b61017560048036036101709190810190612334565b6112e1565b005b610191600480360361018c9190810190612334565b6113b8565b005b61019b6115cc565b005b6101a5611789565b005b60066000815481106101b557fe5b9060005260206000200160009054906101000a900473ffffffffffffffffffffffffffffffffffffffff168073ffffffffffffffffffffffffffffffffffffffff163373ffffffffffffffffffffffffffffffffffffffff161461024e576040517f08c379a000000000000000000000000000000000000000000000000000000000815260040161024590612c2c565b60405180910390fd5b600380600581111561025c57fe5b600e60009054906101000a900460ff16600581111561027757fe5b146102b7576040517f08c379a00000000000000000000000000000000000000000000000000000000081526004016102ae90612cec565b60405180910390fd5b60028060038111156102c557fe5b600360009054906101000a900460ff1660038111156102e057fe5b14610320576040517f08c379a000000000000000000000000000000000000000000000000000000000815260040161031790612bec565b60405180910390fd5b6003600581111561032d57fe5b600e60009054906101000a900460ff16600581111561034857fe5b14610388576040517f08c379a000000000000000000000000000000000000000000000000000000000815260040161037f90612cac565b60405180910390fd5b600b54858590501461039957600080fd5b60008090505b600b548110156104f5578585828181106103b557fe5b9050013560f81c60f81b7effffffffffffffffffffffffffffffffffffffffffffffffffffffffffffff19166009828154600181600116156101000203166002900481106103ff57fe5b81546001161561041e5790600052602060002090602091828204019190065b9054901a7f0100000000000000000000000000000000000000000000000000000000000000027effffffffffffffffffffffffffffffffffffffffffffffffffffffffffffff1916141580156104b157506008604187878481811061047f57fe5b9050013560f81c60f81b60f81c0360ff16601a811061049a57fe5b602091828204019190069054906101000a900460ff165b156104e8576005600e60006101000a81548160ff021916908360058111156104d557fe5b02179055506104e2611992565b50610580565b808060010191505061039f565b5060075486868660405160200161050e93929190612aab565b6040516020818303038152906040528051906020012014610552576005600e60006101000a81548160ff0219169083600581111561054857fe5b0217905550610577565b6004600e60006101000a81548160ff0219169083600581111561057157fe5b02179055505b61057f611992565b5b505050505050565b600080600060606000610599611db7565b60606000806000806000600360009054906101000a900460ff16600454600554600660075460086009600a60009054906101000a900460ff16600b54600c54600d54600e60009054906101000a900460ff168880548060200260200160405190810160405280929190818152602001828054801561066c57602002820191906000526020600020905b8160009054906101000a900473ffffffffffffffffffffffffffffffffffffffff1673ffffffffffffffffffffffffffffffffffffffff1681526020019060010190808311610622575b5050505050985086601a806020026040519081016040528092919082601a80156106d0576020028201916000905b82829054906101000a900460ff1615158152602001906001019060208260000104928301926001038202915080841161069a5790505b50505050509650858054600181600116156101000203166002900480601f01602080910402602001604051908101604052809291908181526020018280546001816001161561010002031660029004801561076c5780601f106107415761010080835404028352916020019161076c565b820191906000526020600020905b81548152906001019060200180831161074f57829003601f168201915b505050505095509b509b509b509b509b509b509b509b509b509b509b509b50909192939495969798999a9b565b60066000815481106107a757fe5b9060005260206000200160009054906101000a900473ffffffffffffffffffffffffffffffffffffffff168073ffffffffffffffffffffffffffffffffffffffff163373ffffffffffffffffffffffffffffffffffffffff1614610840576040517f08c379a000000000000000000000000000000000000000000000000000000000815260040161083790612c2c565b60405180910390fd5b600280600581111561084e57fe5b600e60009054906101000a900460ff16600581111561086957fe5b146108a9576040517f08c379a00000000000000000000000000000000000000000000000000000000081526004016108a090612cec565b60405180910390fd5b60028060038111156108b757fe5b600360009054906101000a900460ff1660038111156108d257fe5b14610912576040517f08c379a000000000000000000000000000000000000000000000000000000000815260040161090990612bec565b60405180910390fd5b600160086041600a60009054906101000a900460ff160360ff16601a811061093657fe5b602091828204019190066101000a81548160ff021916908315150217905550600d60008154809291906001019190505550600054600d54141561099c576003600e60006101000a81548160ff0219169083600581111561099257fe5b02179055506109c1565b6001600e60006101000a81548160ff021916908360058111156109bb57fe5b02179055505b6109c9611992565b505050565b60066000815481106109dc57fe5b9060005260206000200160009054906101000a900473ffffffffffffffffffffffffffffffffffffffff168073ffffffffffffffffffffffffffffffffffffffff163373ffffffffffffffffffffffffffffffffffffffff1614610a75576040517f08c379a0000000000000000000000000000000000000000000000000000000008152600401610a6c90612c2c565b60405180910390fd5b6000806005811115610a8357fe5b600e60009054906101000a900460ff166005811115610a9e57fe5b14610ade576040517f08c379a0000000000000000000000000000000000000000000000000000000008152600401610ad590612cec565b60405180910390fd5b6002806003811115610aec57fe5b600360009054906101000a900460ff166003811115610b0757fe5b14610b47576040517f08c379a0000000000000000000000000000000000000000000000000000000008152600401610b3e90612bec565b60405180910390fd5b846007819055508360ff16600b819055506001600e60006101000a81548160ff02191690836005811115610b7757fe5b02179055508360ff16600c819055508360ff166040519080825280601f01601f191660200182016040528015610bbc5781602001600182028038833980820191505090505b5060099080519060200190610bd2929190611dda565b50610bdb611992565b5050505050565b6006600081548110610bf057fe5b9060005260206000200160009054906101000a900473ffffffffffffffffffffffffffffffffffffffff168073ffffffffffffffffffffffffffffffffffffffff163373ffffffffffffffffffffffffffffffffffffffff1614610c89576040517f08c379a0000000000000000000000000000000000000000000000000000000008152600401610c8090612c2c565b60405180910390fd5b6002806005811115610c9757fe5b600e60009054906101000a900460ff166005811115610cb257fe5b14610cf2576040517f08c379a0000000000000000000000000000000000000000000000000000000008152600401610ce990612cec565b60405180910390fd5b6002806003811115610d0057fe5b600360009054906101000a900460ff166003811115610d1b57fe5b14610d5b576040517f08c379a0000000000000000000000000000000000000000000000000000000008152600401610d5290612bec565b60405180910390fd5b60008585905011610d6b57600080fd5b60008090505b85859050811015610f2357600b54868683818110610d8b57fe5b9050602002016020610da09190810190612444565b60ff16101580610e58575060006009878784818110610dbb57fe5b9050602002016020610dd09190810190612444565b60ff16815460018160011615610100020316600290048110610dee57fe5b815460011615610e0d5790600052602060002090602091828204019190065b9054901a7f0100000000000000000000000000000000000000000000000000000000000000027effffffffffffffffffffffffffffffffffffffffffffffffffffffffffffff191614155b15610e6b57610e65611992565b50610fd7565b600a60009054906101000a900460ff1660f81b6009878784818110610e8c57fe5b9050602002016020610ea19190810190612444565b60ff16815460018160011615610100020316600290048110610ebf57fe5b815460011615610ede5790600052602060002090602091828204019190065b601f036101000a81548160ff021916907f0100000000000000000000000000000000000000000000000000000000000000840402179055508080600101915050610d71565b5084849050600c5403600c81905550600160086041600a60009054906101000a900460ff160360ff16601a8110610f5657fe5b602091828204019190066101000a81548160ff0219169083151502179055506001600c541015610fa9576005600e60006101000a81548160ff02191690836005811115610f9f57fe5b0217905550610fce565b6001600e60006101000a81548160ff02191690836005811115610fc857fe5b02179055505b610fd6611992565b5b5050505050565b600380811115610fea57fe5b600360009054906101000a900460ff16600381111561100557fe5b1415611046576040517f08c379a000000000000000000000000000000000000000000000000000000000815260040161103d90612c6c565b60405180910390fd5b61105e600e60009054906101000a900460ff166119b7565b565b600660018154811061106e57fe5b9060005260206000200160009054906101000a900473ffffffffffffffffffffffffffffffffffffffff168073ffffffffffffffffffffffffffffffffffffffff163373ffffffffffffffffffffffffffffffffffffffff1614611107576040517f08c379a00000000000000000000000000000000000000000000000000000000081526004016110fe90612c2c565b60405180910390fd5b600180600581111561111557fe5b600e60009054906101000a900460ff16600581111561113057fe5b14611170576040517f08c379a000000000000000000000000000000000000000000000000000000000815260040161116790612cec565b60405180910390fd5b600280600381111561117e57fe5b600360009054906101000a900460ff16600381111561119957fe5b146111d9576040517f08c379a00000000000000000000000000000000000000000000000000000000081526004016111d090612bec565b60405180910390fd5b6000604185039050601a8160ff1610611227576040517f08c379a000000000000000000000000000000000000000000000000000000000815260040161121e90612c8c565b60405180910390fd5b6000151560088260ff16601a811061123b57fe5b602091828204019190069054906101000a900460ff16151514611293576040517f08c379a000000000000000000000000000000000000000000000000000000000815260040161128a90612ccc565b60405180910390fd5b84600a60006101000a81548160ff021916908360ff1602179055506002600e60006101000a81548160ff021916908360058111156112cd57fe5b02179055506112da611992565b5050505050565b6113a3600680548060200260200160405190810160405280929190818152602001828054801561136657602002820191906000526020600020905b8160009054906101000a900473ffffffffffffffffffffffffffffffffffffffff1673ffffffffffffffffffffffffffffffffffffffff168152602001906001019080831161131c575b5050505050308c8c8c8c8c8c8c8c8c60405160200161138e9a99989796959493929190612a04565b60405160208183030381529060405283611ad1565b6113ac826119b7565b50505050505050505050565b6005548a116113c657600080fd5b611488600680548060200260200160405190810160405280929190818152602001828054801561144b57602002820191906000526020600020905b8160009054906101000a900473ffffffffffffffffffffffffffffffffffffffff1673ffffffffffffffffffffffffffffffffffffffff1681526020019060010190808311611401575b5050505050308c8c8c8c8c8c8c8c8c6040516020016114739a99989796959493929190612a04565b60405160208183030381529060405283611ad1565b6002600381111561149557fe5b600360009054906101000a900460ff1660038111156114b057fe5b14806114e057506003808111156114c357fe5b600360009054906101000a900460ff1660038111156114de57fe5b145b15611536576001600360006101000a81548160ff0219169083600381111561150457fe5b02179055507f10cf2e6a49384e0817ef896233aca0b14f649b81e549f2e6ec5a023f4daf54c160405160405180910390a15b896005819055508860078190555087600890601a611555929190611e5a565b50866009908051906020019061156c929190611dda565b5085600a60006101000a81548160ff021916908360ff16021790555084600b8190555083600c8190555082600d8190555081600e60006101000a81548160ff021916908360058111156115bb57fe5b021790555050505050505050505050565b600260038111156115d957fe5b600360009054906101000a900460ff1660038111156115f457fe5b1480611624575060038081111561160757fe5b600360009054906101000a900460ff16600381111561162257fe5b145b801561163257504260045411155b61163b57600080fd5b6002600381111561164857fe5b600360009054906101000a900460ff16600381111561166357fe5b141561172b57600660008154811061167757fe5b9060005260206000200160009054906101000a900473ffffffffffffffffffffffffffffffffffffffff1673ffffffffffffffffffffffffffffffffffffffff166116c0611ae9565b73ffffffffffffffffffffffffffffffffffffffff161415611705576005600e60006101000a81548160ff021916908360058111156116fb57fe5b021790555061172a565b6004600e60006101000a81548160ff0219169083600581111561172457fe5b02179055505b5b6001600554016005819055506001600360006101000a81548160ff0219169083600381111561175657fe5b02179055507f10cf2e6a49384e0817ef896233aca0b14f649b81e549f2e6ec5a023f4daf54c160405160405180910390a1565b600180600381111561179757fe5b600360009054906101000a900460ff1660038111156117b257fe5b146117f2576040517f08c379a00000000000000000000000000000000000000000000000000000000081526004016117e990612bec565b60405180910390fd5b600660008154811061180057fe5b9060005260206000200160009054906101000a900473ffffffffffffffffffffffffffffffffffffffff1673ffffffffffffffffffffffffffffffffffffffff163373ffffffffffffffffffffffffffffffffffffffff1614806118c75750600660018154811061186d57fe5b9060005260206000200160009054906101000a900473ffffffffffffffffffffffffffffffffffffffff1673ffffffffffffffffffffffffffffffffffffffff163373ffffffffffffffffffffffffffffffffffffffff16145b6118d057600080fd5b6005808111156118dc57fe5b600e60009054906101000a900460ff1660058111156118f757fe5b1415801561192b57506004600581111561190d57fe5b600e60009054906101000a900460ff16600581111561192857fe5b14155b61193457600080fd5b6002600360006101000a81548160ff0219169083600381111561195357fe5b021790555060015442016004819055507f44691f2b3c418910891d38698452a9a5fb125e7a8147de7ab579ee626d7037cb60405160405180910390a150565b60038060006101000a81548160ff021916908360038111156119b057fe5b0217905550565b600460058111156119c457fe5b8160058111156119d057fe5b1415611a275760066000815481106119e457fe5b9060005260206000200160009054906101000a900473ffffffffffffffffffffffffffffffffffffffff1673ffffffffffffffffffffffffffffffffffffffff16ff5b600580811115611a3357fe5b816005811115611a3f57fe5b1415611a96576006600181548110611a5357fe5b9060005260206000200160009054906101000a900473ffffffffffffffffffffffffffffffffffffffff1673ffffffffffffffffffffffffffffffffffffffff16ff5b6040517f08c379a0000000000000000000000000000000000000000000000000000000008152600401611ac890612c4c565b60405180910390fd5b611ae483611ade84611b98565b83611bb1565b505050565b600060016005811115611af857fe5b600e60009054906101000a900460ff166005811115611b1357fe5b1415611b59576006600181548110611b2757fe5b9060005260206000200160009054906101000a900473ffffffffffffffffffffffffffffffffffffffff169050611b95565b6006600081548110611b6757fe5b9060005260206000200160009054906101000a900473ffffffffffffffffffffffffffffffffffffffff1690505b90565b6000611baa8280519060200120611d44565b9050919050565b606081806020019051611bc7919081019061221a565b90508351815114611c0d576040517f08c379a0000000000000000000000000000000000000000000000000000000008152600401611c0490612d0c565b60405180910390fd5b60008090505b8451811015611d3d57600184838381518110611c2b57fe5b602002602001015160000151848481518110611c4357fe5b602002602001015160200151858581518110611c5b57fe5b60200260200101516040015160405160008152602001604052604051611c849493929190612add565b6020604051602081039080840390855afa158015611ca6573d6000803e3d6000fd5b5050506020604051035173ffffffffffffffffffffffffffffffffffffffff16858281518110611cd257fe5b602002602001015173ffffffffffffffffffffffffffffffffffffffff1614611d30576040517f08c379a0000000000000000000000000000000000000000000000000000000008152600401611d2790612c0c565b60405180910390fd5b8080600101915050611c13565b5050505050565b600060606040518060400160405280601c81526020017f19457468657265756d205369676e6564204d6573736167653a0a333200000000815250905060008184604051602001611d959291906129dc565b6040516020818303038152906040528051906020012090508092505050919050565b604051806103400160405280601a90602082028038833980820191505090505090565b828054600181600116156101000203166002900490600052602060002090601f016020900481019282601f10611e1b57805160ff1916838001178555611e49565b82800160010185558215611e49579182015b82811115611e48578251825591602001919060010190611e2d565b5b509050611e569190611ef3565b5090565b82601a601f01602090048101928215611ee25791602002820160005b83821115611eb357835183826101000a81548160ff0219169083151502179055509260200192600101602081600001049283019260010302611e76565b8015611ee05782816101000a81549060ff0219169055600101602081600001049283019260010302611eb3565b505b509050611eef9190611f18565b5090565b611f1591905b80821115611f11576000816000905550600101611ef9565b5090565b90565b611f4591905b80821115611f4157600081816101000a81549060ff021916905550600101611f1e565b5090565b90565b600082601f830112611f5957600080fd5b601a611f6c611f6782612d59565b612d2c565b91508183856020840282011115611f8257600080fd5b60005b83811015611fb25781611f988882612089565b845260208401935060208301925050600181019050611f85565b5050505092915050565b600082601f830112611fcd57600080fd5b8151611fe0611fdb82612d7b565b612d2c565b9150818183526020840193506020810190508385606084028201111561200557600080fd5b60005b83811015612035578161201b888261217b565b845260208401935060608301925050600181019050612008565b5050505092915050565b60008083601f84011261205157600080fd5b8235905067ffffffffffffffff81111561206a57600080fd5b60208301915083602082028301111561208257600080fd5b9250929050565b60008135905061209881612f98565b92915050565b6000813590506120ad81612faf565b92915050565b6000815190506120c281612faf565b92915050565b60008083601f8401126120da57600080fd5b8235905067ffffffffffffffff8111156120f357600080fd5b60208301915083600182028301111561210b57600080fd5b9250929050565b600082601f83011261212357600080fd5b813561213661213182612da3565b612d2c565b9150808252602083016020830185838301111561215257600080fd5b61215d838284612f21565b50505092915050565b60008135905061217581612fc6565b92915050565b60006060828403121561218d57600080fd5b6121976060612d2c565b905060006121a784828501612205565b60008301525060206121bb848285016120b3565b60208301525060406121cf848285016120b3565b60408301525092915050565b6000813590506121ea81612fd6565b92915050565b6000813590506121ff81612fed565b92915050565b60008151905061221481612fed565b92915050565b60006020828403121561222c57600080fd5b600082015167ffffffffffffffff81111561224657600080fd5b61225284828501611fbc565b91505092915050565b6000806020838503121561226e57600080fd5b600083013567ffffffffffffffff81111561228857600080fd5b6122948582860161203f565b92509250509250929050565b6000806000604084860312156122b557600080fd5b60006122c38682870161209e565b935050602084013567ffffffffffffffff8111156122e057600080fd5b6122ec868287016120c8565b92509250509250925092565b6000806040838503121561230b57600080fd5b60006123198582860161209e565b925050602061232a858286016121f0565b9150509250929050565b6000806000806000806000806000806104608b8d03121561235457600080fd5b60006123628d828e016121db565b9a505060206123738d828e0161209e565b99505060406123848d828e01611f48565b9850506103808b013567ffffffffffffffff8111156123a257600080fd5b6123ae8d828e01612112565b9750506103a06123c08d828e016121f0565b9650506103c06123d28d828e016121db565b9550506103e06123e48d828e016121db565b9450506104006123f68d828e016121db565b9350506104206124088d828e01612166565b9250506104408b013567ffffffffffffffff81111561242657600080fd5b6124328d828e01612112565b9150509295989b9194979a5092959850565b60006020828403121561245657600080fd5b6000612464848285016121f0565b91505092915050565b6000612479838361249d565b60208301905092915050565b60006124918383612570565b60208301905092915050565b6124a681612e78565b82525050565b6124b581612e78565b82525050565b60006124c682612de9565b6124d08185612e2f565b93506124db83612dcf565b8060005b8381101561250c5781516124f3888261246d565b97506124fe83612e15565b9250506001810190506124df565b5085935050505092915050565b61252281612df4565b61252c8184612e40565b925061253782612ddf565b8060005b8381101561256857815161254f8782612485565b965061255a83612e22565b92505060018101905061253b565b505050505050565b61257981612e8a565b82525050565b61258881612e96565b82525050565b61259f61259a82612e96565b612f63565b82525050565b60006125b18385612e4b565b93506125be838584612f21565b6125c783612f6d565b840190509392505050565b60006125dd82612dff565b6125e78185612e4b565b93506125f7818560208601612f30565b61260081612f6d565b840191505092915050565b61261481612efd565b82525050565b61262381612f0f565b82525050565b600061263482612e0a565b61263e8185612e6d565b935061264e818560208601612f30565b80840191505092915050565b6000612667603283612e5c565b91507f4e6f7420746865207269676874206368616e6e656c2073746174757320746f2060008301527f63616c6c20746869732066756e6374696f6e00000000000000000000000000006020830152604082019050919050565b60006126cd600f83612e5c565b91507f57726f6e67207369676e617475726500000000000000000000000000000000006000830152602082019050919050565b600061270d602983612e5c565b91507f4e6f742074686520726967687420706172747920746f2063616c6c207468697360008301527f2066756e6374696f6e00000000000000000000000000000000000000000000006020830152604082019050919050565b6000612773601183612e5c565b91507f4e6f207465726d696e616c2073746174650000000000000000000000000000006000830152602082019050919050565b60006127b3603383612e5c565b91507f46696e616c697a65207468652064697370757465206265666f726520636c6f7360008301527f696e6720746865206170706c69636174696f6e000000000000000000000000006020830152604082019050919050565b6000612819601283612e5c565b91507f4e6f7420612076616c6964206c657474657200000000000000000000000000006000830152602082019050919050565b6000612859602583612e5c565b91507f4e6f7420696e2074686520726967687420737461676520666f7220616e206f7060008301527f656e696e670000000000000000000000000000000000000000000000000000006020830152604082019050919050565b60006128bf601f83612e5c565b91507f4c65747465722068617320616c7265616479206265656e2067756573736564006000830152602082019050919050565b60006128ff602983612e5c565b91507f4e6f742074686520726967687420737461676520746f2063616c6c207468697360008301527f2066756e6374696f6e00000000000000000000000000000000000000000000006020830152604082019050919050565b6000612965602b83612e5c565b91507f546865726520617265206c6573732f6d6f7265207369676e617475726573207460008301527f68656e20706172746965730000000000000000000000000000000000000000006020830152604082019050919050565b6129c781612ee6565b82525050565b6129d681612ef0565b82525050565b60006129e88285612629565b91506129f4828461258e565b6020820191508190509392505050565b600061046082019050612a1a600083018d6124ac565b612a27602083018c6129be565b612a34604083018b61257f565b612a41606083018a612519565b8181036103a0830152612a5481896125d2565b9050612a646103c08301886129cd565b612a726103e08301876129be565b612a806104008301866129be565b612a8e6104208301856129be565b612a9c61044083018461261a565b9b9a5050505050505050505050565b6000604082019050612ac0600083018661257f565b8181036020830152612ad38184866125a5565b9050949350505050565b6000608082019050612af2600083018761257f565b612aff60208301866129cd565b612b0c604083018561257f565b612b19606083018461257f565b95945050505050565b60006104a082019050612b38600083018f61260b565b612b45602083018e6129be565b612b52604083018d6129be565b8181036060830152612b64818c6124bb565b9050612b73608083018b61257f565b612b8060a083018a612519565b8181036103e0830152612b9381896125d2565b9050612ba36104008301886129cd565b612bb16104208301876129be565b612bbf6104408301866129be565b612bcd6104608301856129be565b612bdb61048083018461261a565b9d9c50505050505050505050505050565b60006020820190508181036000830152612c058161265a565b9050919050565b60006020820190508181036000830152612c25816126c0565b9050919050565b60006020820190508181036000830152612c4581612700565b9050919050565b60006020820190508181036000830152612c6581612766565b9050919050565b60006020820190508181036000830152612c85816127a6565b9050919050565b60006020820190508181036000830152612ca58161280c565b9050919050565b60006020820190508181036000830152612cc58161284c565b9050919050565b60006020820190508181036000830152612ce5816128b2565b9050919050565b60006020820190508181036000830152612d05816128f2565b9050919050565b60006020820190508181036000830152612d2581612958565b9050919050565b6000604051905081810181811067ffffffffffffffff82111715612d4f57600080fd5b8060405250919050565b600067ffffffffffffffff821115612d7057600080fd5b602082029050919050565b600067ffffffffffffffff821115612d9257600080fd5b602082029050602081019050919050565b600067ffffffffffffffff821115612dba57600080fd5b601f19601f8301169050602081019050919050565b6000819050602082019050919050565b6000819050919050565b600081519050919050565b6000601a9050919050565b600081519050919050565b600081519050919050565b6000602082019050919050565b6000602082019050919050565b600082825260208201905092915050565b600081905092915050565b600082825260208201905092915050565b600082825260208201905092915050565b600081905092915050565b6000612e8382612ec6565b9050919050565b60008115159050919050565b6000819050919050565b6000819050612eae82612f7e565b919050565b6000819050612ec182612f8b565b919050565b600073ffffffffffffffffffffffffffffffffffffffff82169050919050565b6000819050919050565b600060ff82169050919050565b6000612f0882612ea0565b9050919050565b6000612f1a82612eb3565b9050919050565b82818337600083830152505050565b60005b83811015612f4e578082015181840152602081019050612f33565b83811115612f5d576000848401525b50505050565b6000819050919050565b6000601f19601f8301169050919050565b60048110612f8857fe5b50565b60068110612f9557fe5b50565b612fa181612e8a565b8114612fac57600080fd5b50565b612fb881612e96565b8114612fc357600080fd5b50565b60068110612fd357600080fd5b50565b612fdf81612ee6565b8114612fea57600080fd5b50565b612ff681612ef0565b811461300157600080fd5b5056fea365627a7a723058209cbf7bee8d749b7ccf9c8e0f942a0f03bf2356b9c9071a27ae0c60406b0d95aa6c6578706572696d656e74616cf564736f6c634300050a0040",
  "source": "pragma solidity 0.5.10;\npragma experimental \"ABIEncoderV2\";\n\nimport \"contracts/sharedCode/SigVerifier.sol\";\n\n//We assume that players only sign / produce states that can occur in a proper execution\n//For example, they do not sign / produce a state in which a player has used all of his ten tries but still is in stage WaitingForGuess\ncontract OffchainRecovery is SigVerifier{\n    \n    //constant after initialization\n    uint maxTries;\n    uint timeoutPeriod;\n    uint challengePeriod;\n    \n    //Channel variables\n    ChannelStatus status;\n    uint timeout;\n    uint version;\n    address[] parties;\n    \n    //execution specific variables\n    bytes32 hashedWord;\n    bool[26] guessed; //Originally we used a mapping but we cant use mapping in memory-structures\n    bytes word;\n    uint8 currentGuess; //Uint representation of a capital letter's ascii byte\n    uint wordLength;\n    uint missingLetters;\n    uint tries ;\n    Stage stage;\n    \n    //Events\n    event Dispute();\n    event DisputeResolved();\n    \n    //Enums\n    enum Stage {\n      WaitingForCommit, WaitingForGuess, WaitingForResponse, WaitingForOpen, Failed, Success\n    }\n    \n    enum ChannelStatus {\n        NONE, OFFCHAIN, DISPUTE, EXECUTED\n    }\n    \n    //****************\n    //Constructor\n    constructor(uint _maxTries, uint _timeoutPeriod, uint _challengePeriod, address[] memory _parties) public payable{\n        //constants\n        maxTries = _maxTries;\n        timeoutPeriod = _timeoutPeriod;\n        challengePeriod = _challengePeriod;\n        \n        //channel initialuzation\n        parties = _parties;\n        status = ChannelStatus.OFFCHAIN;\n        version = 0;\n        \n        //Required application initializations\n        tries = 0;\n        stage = Stage.WaitingForCommit;\n    }\n    \n    //****************\n    //Channel logic\n    \n    //A party starts a dispute -> each party can call functions during dispute (only the acting party's function is accepted because of fixed move sequence)\n    // -> this directly updates the state but not the version (a more current evidence overwrites the move's result) -> One successful call locks the state until finalization of the dispute\n    // -> After the timeout the dispute can be finalized and the version is now incremented and can only be overwritten by 2 more current versions (does not happen if 1 party is honest)\n    \n    //Function to submit the latest evidence -> Can always be submitted\n    function evidence(uint _version, bytes32 _hashedWord, bool[26] memory _guessed, bytes memory _word, uint8 _currentGuess, uint _wordLength, uint _missingLetters, uint _tries, Stage _stage, bytes memory _signatures) public {\n        \n        require(_version > version);\n        \n        //Check signatures\n        verifySignatures(parties, abi.encode(address(this), _version, _hashedWord, _guessed, _word, _currentGuess, _wordLength, _missingLetters, _tries, _stage),_signatures);\n        \n        //If there is a dispute, it is directly resolved\n        if(status == ChannelStatus.DISPUTE || status == ChannelStatus.EXECUTED){\n            status = ChannelStatus.OFFCHAIN;\n            emit DisputeResolved();\n        }\n        \n        //Store the version as the most current one\n        version = _version;\n        \n        //Update state\n        hashedWord = _hashedWord;\n        guessed = _guessed;\n        word = _word;\n        currentGuess = _currentGuess;\n        wordLength = _wordLength;\n        missingLetters = _missingLetters;\n        tries = _tries;\n        stage = _stage;\n        \n    }\n    \n    //Function to start a dispute\n    function dispute() external isChannelStatus(ChannelStatus.OFFCHAIN){\n        \n        //Prevent any party from calling this\n        require(msg.sender == parties[0] || msg.sender == parties[1]);\n        \n        //Dispute can only be started if the current state is not terminal -> Allows a party to withdraw from a terminal state whenever it wants to\n        require(stage != Stage.Success && stage != Stage.Failed);\n        \n        //Change into dispute-mode -> Parties can invoke functions\n        status = ChannelStatus.DISPUTE;\n        timeout = now + timeoutPeriod;\n        emit Dispute();\n    }\n    \n    //Function to finalie a dispute\n    function finalizeDispute() external{\n        \n        //Check the status and that timeout has elapsed\n        require((status == ChannelStatus.DISPUTE || status == ChannelStatus.EXECUTED) && timeout <= now);\n        \n        //If no input has been submitted the current player loses -> application specific because we have a fixed move sequence\n        if(status == ChannelStatus.DISPUTE) {\n            if(getCurrentPlayer() == parties[0])\n                stage = Stage.Success; \n            else {\n                stage = Stage.Failed;\n            }\n        }\n        \n        //Finalize DISPUTE\n        //Increment version to prevent overwritting of the state with a possibly existing evidence for the next step (current version + 2 should not exist because an honest party signs only curent version + 1 and submits its most curent evidence in case of dispute)\n        version = version + 1;\n        status = ChannelStatus.OFFCHAIN;\n        emit DisputeResolved();\n    }\n    \n    //Computes the outcome -> Cannot be called when status is EXECUTED, because there may exist a more current valid evidence in this phase only\n    function close() external {\n        require(status != ChannelStatus.EXECUTED, \"Finalize the dispute before closing the application\");\n        internalClose(stage);\n    }\n    \n    //Invoke a fast closure if a terminal state is signed by each party\n    function fastClose(uint _version, bytes32 _hashedWord, bool[26] memory _guessed, bytes memory _word, uint8 _currentGuess, uint _wordLength, uint _missingLetters, uint _tries, Stage _stage, bytes memory _signatures) public {\n        //Check signatures\n        verifySignatures(parties, abi.encode(address(this), _version, _hashedWord, _guessed, _word, _currentGuess, _wordLength, _missingLetters, _tries, _stage),_signatures);\n        \n        //Call closing\n        internalClose(_stage);\n    }\n    \n    //Actual internal closing used by both closing procedures\n    function internalClose(Stage _stage) internal {\n        if(_stage == Stage.Failed){\n            selfdestruct(address(uint160(parties[0])));\n        } else if(_stage == Stage.Success){\n            selfdestruct(address(uint160(parties[1])));\n        } else {\n            revert(\"No terminal state\"); //No terminal state\n        }\n    }\n    \n    //****************\n    //Application logic\n\n    \n    //Commit to the word\n    function commit (bytes32 _hashedWord, uint8 _wordLength) external isParty(parties[0]) isStage(Stage.WaitingForCommit) isChannelStatus(ChannelStatus.DISPUTE) {\n        \n        //Set application variables\n        hashedWord = _hashedWord;\n        wordLength = _wordLength;\n        stage = Stage.WaitingForGuess;\n        missingLetters = _wordLength;\n        word = new bytes(_wordLength);\n        \n        endMove();\n    }\n    \n    //Guess a letter\n    function guess (uint8 _letter) external isParty(parties[1]) isStage(Stage.WaitingForGuess) isChannelStatus(ChannelStatus.DISPUTE) {\n        \n        //Convert byte to number\n        uint8 _position = _letter - 65;\n        \n        //Needs to be a capital letter: (ASCII-65 bis ASCII-90)\n        require(_position < 26, \"Not a valid letter\");\n        \n        //Check if letter has not been handled yet\n        require(guessed[_position] == false,\"Letter has already been guessed\");\n        \n        //Set state and return new state\n        currentGuess = _letter;\n        stage = Stage.WaitingForResponse;\n        \n        endMove();\n    }\n    \n    //The letter is part of the secret word\n    function correct (uint8[] calldata _hits) external isParty(parties[0]) isStage(Stage.WaitingForResponse) isChannelStatus(ChannelStatus.DISPUTE){\n        \n        //Check input\n        require(_hits.length > 0);\n        \n        //Set letters in the word\n        for(uint i = 0; i < _hits.length ; i++){\n            //Check that challenger behaves correct (no set letter, no index above maximal letters)\n            if(_hits[i] >= wordLength || word[_hits[i]] != \"\\x00\"){\n                endMove();\n                return;\n            }\n           \n            //Set letter for the active word\n            word[_hits[i]] = byte(currentGuess);\n        }\n        \n        //Decrement missing letters\n        missingLetters = missingLetters - _hits.length;\n        \n        //Set letter as guessed\n        guessed[currentGuess - 65] = true; //Shift from \"A\" (ASCII-65) to index 0\n        \n        //Set next stage\n        if (missingLetters < 1){\n            stage = Stage.Success;\n        } else {\n            stage = Stage.WaitingForGuess;\n        }\n        \n        endMove();\n    }\n    \n    //The letter is not part of the secret word\n    function wrong () external isParty(parties[0]) isStage(Stage.WaitingForResponse) isChannelStatus(ChannelStatus.DISPUTE){\n        \n        //Set letter as guessed\n        guessed[currentGuess - 65] = true; //Shift from \"A\" (ASCII-65) to index 0\n        \n        //Increment tries\n        tries++;\n        \n        //Set next stage\n        if(tries == maxTries){\n          stage = Stage.WaitingForOpen;\n        } else {\n          stage = Stage.WaitingForGuess;\n        }\n        \n        endMove();\n    }\n    \n    //Open the secret word after it has not been guessed successfully\n    function open (bytes32 _nonce, bytes calldata _opening) external isParty(parties[0]) isStage(Stage.WaitingForOpen) isChannelStatus(ChannelStatus.DISPUTE){\n    \n        //Check stage and input\n        require(stage == Stage.WaitingForOpen, \"Not in the right stage for an opening\");\n        require(_opening.length == wordLength);\n        \n        //Check that there are no letters that no letter has been opened wrong\n        for(uint i = 0; i < wordLength; i++){\n          //Missbehaviour if a solution-letter does not match the working letter although it has been guessed\n          if(word[i] != _opening[i] && guessed[uint8(_opening[i]) - 65]){\n              stage = Stage.Success;\n              endMove();\n              return;\n          }\n        }\n        \n        //Check that given opening corresponds to the comitted hash\n        if(keccak256(abi.encode(_nonce, _opening)) != hashedWord){\n            stage = Stage.Success;\n        } else {\n            stage = Stage.Failed;\n        }\n        \n        endMove();\n    }\n    \n    //After a successful function call the new status is EXECUTED\n    function endMove() private {\n        status = ChannelStatus.EXECUTED;\n    }\n    \n    //****************\n    //Helper\n    \n    function getCurrentPlayer() internal returns (address){\n        if(stage == Stage.WaitingForGuess){\n            return parties[1];\n        } else {\n            return parties[0];\n        }\n    }\n    \n    //****************\n    //Modifiers\n    \n    modifier isParty(address _party){\n        require(msg.sender == _party, \"Not the right party to call this function\");\n        _;\n    }\n    \n    modifier isStage(Stage _stage){\n        require(stage == _stage, \"Not the right stage to call this function\");\n        _;\n    }\n    \n    modifier isChannelStatus(ChannelStatus _status){\n        require(status == _status, \"Not the right channel status to call this function\");\n        _;\n    }\n    \n    //****************\n    //Getters\n    \n    function getState() external view returns (ChannelStatus, uint, uint, address[] memory, bytes32, bool[26] memory, bytes memory, uint8, uint, uint, uint, Stage){\n        return (status, timeout, version, parties, hashedWord, guessed, word, currentGuess, wordLength, missingLetters, tries, stage);\n    }\n}\n",
  "sourcePath": "/media/shared/CAC/Projekte/2019_SC_Workshop_FinCrypto/publicImplementation/truffle/contracts/recovery/OffchainRecovery.sol",
  "compiler": {
    "name": "solc",
    "version": "0.5.10+commit.5a6ea5b1.Emscripten.clang"
  },
  "schemaVersion": "3.0.16",
  "updatedAt": "2019-12-13T14:08:35.784Z",
  "devdoc": {
    "methods": {}
  },
  "userdoc": {
    "methods": {}
  }
}