{
  "contractName": "OffchainLibrary",
  "abi": [
    {
      "constant": true,
      "inputs": [
        {
          "name": "",
          "type": "bytes"
        },
        {
          "name": "",
          "type": "uint256"
        },
        {
          "name": "",
          "type": "bytes"
        },
        {
          "name": "",
          "type": "address[]"
        },
        {
          "name": "",
          "type": "address"
        }
      ],
      "name": "callAction",
      "outputs": [
        {
          "name": "",
          "type": "bytes"
        }
      ],
      "payable": false,
      "stateMutability": "view",
      "type": "function"
    },
    {
      "constant": true,
      "inputs": [
        {
          "name": "",
          "type": "bytes"
        },
        {
          "name": "",
          "type": "uint256"
        }
      ],
      "name": "getOutcome",
      "outputs": [
        {
          "name": "",
          "type": "uint256[]"
        }
      ],
      "payable": false,
      "stateMutability": "pure",
      "type": "function"
    }
  ],
  "bytecode": "0x608060405234801561001057600080fd5b5061065c806100206000396000f3fe608060405234801561001057600080fd5b50600436106100365760003560e01c8063ae08f4ef1461003b578063d76f28071461006b575b600080fd5b610055600480360361005091908101906101d3565b61009b565b6040516100629190610481565b60405180910390f35b6100856004803603610080919081019061022b565b6100d8565b60405161009291906104a3565b60405180910390f35b60606040517f08c379a00000000000000000000000000000000000000000000000000000000081526004016100cf906104c5565b60405180910390fd5b60606040517f08c379a000000000000000000000000000000000000000000000000000000000815260040161010c906104e5565b60405180910390fd5b600081359050610124816105eb565b92915050565b60008083601f84011261013c57600080fd5b8235905067ffffffffffffffff81111561015557600080fd5b60208301915083602082028301111561016d57600080fd5b9250929050565b60008083601f84011261018657600080fd5b8235905067ffffffffffffffff81111561019f57600080fd5b6020830191508360018202830111156101b757600080fd5b9250929050565b6000813590506101cd81610602565b92915050565b6000806000604084860312156101e857600080fd5b600084013567ffffffffffffffff81111561020257600080fd5b61020e86828701610174565b93509350506020610221868287016101be565b9150509250925092565b60008060008060008060008060a0898b03121561024757600080fd5b600089013567ffffffffffffffff81111561026157600080fd5b61026d8b828c01610174565b985098505060206102808b828c016101be565b965050604089013567ffffffffffffffff81111561029d57600080fd5b6102a98b828c01610174565b9550955050606089013567ffffffffffffffff8111156102c857600080fd5b6102d48b828c0161012a565b935093505060806102e78b828c01610115565b9150509295985092959890939650565b60006103038383610472565b60208301905092915050565b600061031a82610515565b6103248185610538565b935061032f83610505565b8060005b8381101561036057815161034788826102f7565b97506103528361052b565b925050600181019050610333565b5085935050505092915050565b600061037882610520565b6103828185610549565b93506103928185602086016105a7565b61039b816105da565b840191505092915050565b60006103b360388361055a565b91507f546865206765744f7574636f6d65206d6574686f6420686173206e6f20696d7060008301527f6c656d656e746174696f6e20666f7220746869732041707000000000000000006020830152604082019050919050565b600061041960348361055a565b91507f54686520616374696f6e206d6574686f6420686173206e6f20696d706c656d6560008301527f6e746174696f6e20666f722074686973204170700000000000000000000000006020830152604082019050919050565b61047b8161059d565b82525050565b6000602082019050818103600083015261049b818461030f565b905092915050565b600060208201905081810360008301526104bd818461036d565b905092915050565b600060208201905081810360008301526104de816103a6565b9050919050565b600060208201905081810360008301526104fe8161040c565b9050919050565b6000819050602082019050919050565b600081519050919050565b600081519050919050565b6000602082019050919050565b600082825260208201905092915050565b600082825260208201905092915050565b600082825260208201905092915050565b60006105768261057d565b9050919050565b600073ffffffffffffffffffffffffffffffffffffffff82169050919050565b6000819050919050565b60005b838110156105c55780820151818401526020810190506105aa565b838111156105d4576000848401525b50505050565b6000601f19601f8301169050919050565b6105f48161056b565b81146105ff57600080fd5b50565b61060b8161059d565b811461061657600080fd5b5056fea365627a7a72305820733d248a4aaa5bb4ebbad0c9a855c06d30fa36dcff11bf9cbb0d32d935037d4d6c6578706572696d656e74616cf564736f6c634300050a0040",
  "source": "pragma solidity 0.5.10;\npragma experimental \"ABIEncoderV2\";\n\n\ncontract OffchainLibrary {\n\n  function callAction(bytes calldata, uint, bytes calldata, address[] calldata, address)\n    external\n    view\n    returns (bytes memory)\n  {\n    revert(\"The action method has no implementation for this App\");\n  }\n  \n  function getOutcome(bytes calldata, uint)\n    external\n    pure\n    returns (uint[] memory)\n  {\n    revert(\"The getOutcome method has no implementation for this App\");\n  }\n\n}\n",
  "sourcePath": "/home/david/Desktop/implementation/truffle/contracts/agnosticArchitecture/OffchainLibrary.sol",
  "compiler": {
    "name": "solc",
    "version": "0.5.10+commit.5a6ea5b1.Emscripten.clang"
  },
  "schemaVersion": "3.0.16",
  "updatedAt": "2019-12-12T13:18:18.694Z",
  "devdoc": {
    "methods": {}
  },
  "userdoc": {
    "methods": {}
  }
}