{
  "contractName": "SpecificHangmanSingleton",
  "abi": [
    {
      "constant": false,
      "inputs": [
        {
          "name": "_id",
          "type": "bytes32"
        }
      ],
      "name": "wrong",
      "outputs": [],
      "payable": false,
      "stateMutability": "nonpayable",
      "type": "function"
    },
    {
      "constant": false,
      "inputs": [
        {
          "name": "_nonce",
          "type": "bytes32"
        },
        {
          "name": "_parties",
          "type": "address[]"
        }
      ],
      "name": "createInstance",
      "outputs": [],
      "payable": true,
      "stateMutability": "payable",
      "type": "function"
    },
    {
      "constant": false,
      "inputs": [
        {
          "name": "_id",
          "type": "bytes32"
        }
      ],
      "name": "close",
      "outputs": [],
      "payable": false,
      "stateMutability": "nonpayable",
      "type": "function"
    },
    {
      "constant": false,
      "inputs": [
        {
          "name": "_id",
          "type": "bytes32"
        },
        {
          "name": "_hits",
          "type": "uint8[]"
        }
      ],
      "name": "correct",
      "outputs": [],
      "payable": false,
      "stateMutability": "nonpayable",
      "type": "function"
    },
    {
      "constant": false,
      "inputs": [
        {
          "name": "_id",
          "type": "bytes32"
        },
        {
          "name": "_letter",
          "type": "uint8"
        }
      ],
      "name": "guess",
      "outputs": [],
      "payable": false,
      "stateMutability": "nonpayable",
      "type": "function"
    },
    {
      "constant": false,
      "inputs": [
        {
          "name": "_id",
          "type": "bytes32"
        }
      ],
      "name": "finalizeChallenge",
      "outputs": [],
      "payable": false,
      "stateMutability": "nonpayable",
      "type": "function"
    },
    {
      "constant": false,
      "inputs": [
        {
          "name": "_id",
          "type": "bytes32"
        }
      ],
      "name": "challenge",
      "outputs": [],
      "payable": false,
      "stateMutability": "nonpayable",
      "type": "function"
    },
    {
      "constant": false,
      "inputs": [
        {
          "name": "_id",
          "type": "bytes32"
        },
        {
          "name": "_hashedWord",
          "type": "bytes32"
        },
        {
          "name": "_wordLength",
          "type": "uint8"
        }
      ],
      "name": "commit",
      "outputs": [],
      "payable": false,
      "stateMutability": "nonpayable",
      "type": "function"
    },
    {
      "constant": false,
      "inputs": [
        {
          "name": "_id",
          "type": "bytes32"
        },
        {
          "name": "_nonce",
          "type": "bytes32"
        },
        {
          "name": "_opening",
          "type": "bytes"
        }
      ],
      "name": "open",
      "outputs": [],
      "payable": false,
      "stateMutability": "nonpayable",
      "type": "function"
    },
    {
      "inputs": [
        {
          "name": "_maxTries",
          "type": "uint256"
        },
        {
          "name": "_minFunding",
          "type": "uint256"
        },
        {
          "name": "_timeoutPeriod",
          "type": "uint256"
        },
        {
          "name": "_challengePeriod",
          "type": "uint256"
        }
      ],
      "payable": false,
      "stateMutability": "nonpayable",
      "type": "constructor"
    },
    {
      "anonymous": false,
      "inputs": [
        {
          "indexed": false,
          "name": "id",
          "type": "bytes32"
        }
      ],
      "name": "EventDispute",
      "type": "event"
    },
    {
      "anonymous": false,
      "inputs": [
        {
          "indexed": false,
          "name": "id",
          "type": "bytes32"
        }
      ],
      "name": "newChannel",
      "type": "event"
    },
    {
      "anonymous": false,
      "inputs": [
        {
          "indexed": false,
          "name": "id",
          "type": "bytes32"
        },
        {
          "indexed": false,
          "name": "newStage",
          "type": "uint8"
        }
      ],
      "name": "movePerformed",
      "type": "event"
    },
    {
      "constant": false,
      "inputs": [
        {
          "name": "_id",
          "type": "bytes32"
        },
        {
          "name": "_version",
          "type": "uint256"
        },
        {
          "name": "_encodedState",
          "type": "bytes"
        },
        {
          "name": "_signatures",
          "type": "bytes"
        }
      ],
      "name": "dispute",
      "outputs": [],
      "payable": false,
      "stateMutability": "nonpayable",
      "type": "function"
    },
    {
      "constant": false,
      "inputs": [
        {
          "name": "_id",
          "type": "bytes32"
        }
      ],
      "name": "finalizeDispute",
      "outputs": [],
      "payable": false,
      "stateMutability": "nonpayable",
      "type": "function"
    },
    {
      "constant": false,
      "inputs": [
        {
          "name": "_id",
          "type": "bytes32"
        },
        {
          "name": "_version",
          "type": "uint256"
        },
        {
          "name": "_encodedState",
          "type": "bytes"
        },
        {
          "name": "_signatures",
          "type": "bytes"
        }
      ],
      "name": "fastClose",
      "outputs": [],
      "payable": false,
      "stateMutability": "nonpayable",
      "type": "function"
    },
    {
      "constant": true,
      "inputs": [
        {
          "name": "_id",
          "type": "bytes32"
        }
      ],
      "name": "getInstance",
      "outputs": [
        {
          "components": [
            {
              "name": "status",
              "type": "uint8"
            },
            {
              "name": "funding",
              "type": "uint256"
            },
            {
              "name": "parties",
              "type": "address[]"
            }
          ],
          "name": "",
          "type": "tuple"
        },
        {
          "components": [
            {
              "name": "hashedWord",
              "type": "bytes32"
            },
            {
              "name": "guessed",
              "type": "bool[26]"
            },
            {
              "name": "word",
              "type": "bytes"
            },
            {
              "name": "currentGuess",
              "type": "uint8"
            },
            {
              "name": "wordLength",
              "type": "uint256"
            },
            {
              "name": "missingLetters",
              "type": "uint256"
            },
            {
              "name": "tries",
              "type": "uint256"
            },
            {
              "name": "stage",
              "type": "uint8"
            },
            {
              "name": "challenged",
              "type": "uint256"
            }
          ],
          "name": "",
          "type": "tuple"
        },
        {
          "components": [
            {
              "name": "timeout",
              "type": "uint256"
            },
            {
              "name": "version",
              "type": "uint256"
            }
          ],
          "name": "",
          "type": "tuple"
        }
      ],
      "payable": false,
      "stateMutability": "view",
      "type": "function"
    }
  ],
  "bytecode": "0x608060405260006005553480156200001657600080fd5b5060405162003f8f38038062003f8f83398181016040526200003c91908101906200007f565b83838282600081905550816001819055508060028190555050505081600681905550505050506200010f565b6000815190506200007981620000f5565b92915050565b600080600080608085870312156200009657600080fd5b6000620000a68782880162000068565b9450506020620000b98782880162000068565b9350506040620000cc8782880162000068565b9250506060620000df8782880162000068565b91505092959194509250565b6000819050919050565b6200010081620000eb565b81146200010c57600080fd5b50565b613e70806200011f6000396000f3fe6080604052600436106100c25760003560e01c8063624a23e01161007f578063cffd46dc11610059578063cffd46dc14610241578063d9865ba31461026a578063ed38c63e14610293578063ee1818f2146102bc576100c2565b8063624a23e0146101b057806368b3823e146101ef578063cd5c196614610218576100c2565b80632d0dd261146100c75780633452c29c146100f057806339c79e0c1461010c57806346b1fa0f146101355780634d900f0d1461015e578063596bca6814610187575b600080fd5b3480156100d357600080fd5b506100ee60048036036100e991908101906130d7565b6102e5565b005b61010a60048036036101059190810190613100565b610531565b005b34801561011857600080fd5b50610133600480360361012e91908101906130d7565b610817565b005b34801561014157600080fd5b5061015c60048036036101579190810190613158565b610891565b005b34801561016a57600080fd5b50610185600480360361018091908101906132fe565b610d0a565b005b34801561019357600080fd5b506101ae60048036036101a991908101906130d7565b610efb565b005b3480156101bc57600080fd5b506101d760048036036101d291908101906130d7565b610f9e565b6040516101e693929190613a72565b60405180910390f35b3480156101fb57600080fd5b50610216600480360361021191908101906130d7565b611288565b005b34801561022457600080fd5b5061023f600480360361023a919081019061326b565b611556565b005b34801561024d57600080fd5b50610268600480360361026391908101906130d7565b611722565b005b34801561027657600080fd5b50610291600480360361028c919081019061326b565b61199f565b005b34801561029f57600080fd5b506102ba60048036036102b5919081019061321c565b611d03565b005b3480156102c857600080fd5b506102e360048036036102de91908101906131b0565b611f1b565b005b6004600082815260200190815260200160002060020160008154811061030757fe5b9060005260206000200160009054906101000a900473ffffffffffffffffffffffffffffffffffffffff168073ffffffffffffffffffffffffffffffffffffffff163373ffffffffffffffffffffffffffffffffffffffff161461036a57600080fd5b81600280600581111561037957fe5b6003600084815260200190815260200160002060070160009054906101000a900460ff1660058111156103a857fe5b146103b257600080fd5b8360038060048111156103c157fe5b6004600084815260200190815260200160002060000160009054906101000a900460ff1660048111156103f057fe5b146103fa57600080fd5b6001600360008881526020019081526020016000206001016041600360008a815260200190815260200160002060030160009054906101000a900460ff160360ff16601a811061044657fe5b602091828204019190066101000a81548160ff0219169083151502179055506003600087815260200190815260200160002060060160008154809291906001019190505550600054600360008881526020019081526020016000206006015414156104e757600380600088815260200190815260200160002060070160006101000a81548160ff021916908360058111156104dd57fe5b0217905550610520565b60016003600088815260200190815260200160002060070160006101000a81548160ff0219169083600581111561051a57fe5b02179055505b6105298661231b565b505050505050565b600083838360405160200161054893929190613940565b6040516020818303038152906040528051906020012090506000600481111561056d57fe5b6004600083815260200190815260200160002060000160009054906101000a900460ff16600481111561059c57fe5b1480156105ad575060028383905010155b6105b657600080fd5b6001543410156105c557600080fd5b6105cd612858565b6040518060600160405280600160048111156105e557fe5b8152602001348152602001858580806020026020016040519081016040528093929190818152602001838360200280828437600081840152601f19601f820116905080830192505050505050508152506004600084815260200190815260200160002060008201518160000160006101000a81548160ff0219169083600481111561066c57fe5b021790555060208201518160010155604082015181600201908051906020019061069792919061287b565b509050506040518061012001604052806000801b815260200182815260200160405180604001604052806001815260200160008152508152602001600060ff168152602001600081526020016000815260200160008152602001600060058111156106fe57fe5b81526020016000815250600360008481526020019081526020016000206000820151816000015560208201518160010190601a61073c929190612905565b50604082015181600201908051906020019061075992919061299e565b5060608201518160030160006101000a81548160ff021916908360ff1602179055506080820151816004015560a0820151816005015560c0820151816006015560e08201518160070160006101000a81548160ff021916908360058111156107bd57fe5b021790555061010082015181600801559050506107d982612396565b7f02f9de3174ba1908545e7eaf47a7106ea2a5a3e73ec257d673c8dbdacc8b555d826040516108089190613925565b60405180910390a15050505050565b80600380600481111561082657fe5b6004600084815260200190815260200160002060000160009054906101000a900460ff16600481111561085557fe5b1461085f57600080fd5b61088c836003600086815260200190815260200160002060070160009054906101000a900460ff166123da565b505050565b600460008481526020019081526020016000206002016000815481106108b357fe5b9060005260206000200160009054906101000a900473ffffffffffffffffffffffffffffffffffffffff168073ffffffffffffffffffffffffffffffffffffffff163373ffffffffffffffffffffffffffffffffffffffff161461091657600080fd5b83600280600581111561092557fe5b6003600084815260200190815260200160002060070160009054906101000a900460ff16600581111561095457fe5b1461095e57600080fd5b85600380600481111561096d57fe5b6004600084815260200190815260200160002060000160009054906101000a900460ff16600481111561099c57fe5b146109a657600080fd5b600087879050116109b657600080fd5b60008090505b87879050811015610bbf57600360008a8152602001908152602001600020600401548888838181106109ea57fe5b90506020020160206109ff919081019061337b565b60ff16101580610acb57506000600360008b8152602001908152602001600020600201898984818110610a2e57fe5b9050602002016020610a43919081019061337b565b60ff16815460018160011615610100020316600290048110610a6157fe5b815460011615610a805790600052602060002090602091828204019190065b9054901a7f0100000000000000000000000000000000000000000000000000000000000000027effffffffffffffffffffffffffffffffffffffffffffffffffffffffffffff191614155b15610adf57610ad98961231b565b50610d00565b600360008a815260200190815260200160002060030160009054906101000a900460ff1660f81b600360008b8152602001908152602001600020600201898984818110610b2857fe5b9050602002016020610b3d919081019061337b565b60ff16815460018160011615610100020316600290048110610b5b57fe5b815460011615610b7a5790600052602060002090602091828204019190065b601f036101000a81548160ff021916907f01000000000000000000000000000000000000000000000000000000000000008404021790555080806001019150506109bc565b5086869050600360008a81526020019081526020016000206005015403600360008a8152602001908152602001600020600501819055506001600360008a81526020019081526020016000206001016041600360008c815260200190815260200160002060030160009054906101000a900460ff160360ff16601a8110610c4257fe5b602091828204019190066101000a81548160ff0219169083151502179055506001600360008a8152602001908152602001600020600501541015610cbd576005600360008a815260200190815260200160002060070160006101000a81548160ff02191690836005811115610cb357fe5b0217905550610cf6565b6001600360008a815260200190815260200160002060070160006101000a81548160ff02191690836005811115610cf057fe5b02179055505b610cff8861231b565b5b5050505050505050565b60046000838152602001908152602001600020600201600181548110610d2c57fe5b9060005260206000200160009054906101000a900473ffffffffffffffffffffffffffffffffffffffff168073ffffffffffffffffffffffffffffffffffffffff163373ffffffffffffffffffffffffffffffffffffffff1614610d8f57600080fd5b826001806005811115610d9e57fe5b6003600084815260200190815260200160002060070160009054906101000a900460ff166005811115610dcd57fe5b14610dd757600080fd5b846003806004811115610de657fe5b6004600084815260200190815260200160002060000160009054906101000a900460ff166004811115610e1557fe5b14610e1f57600080fd5b6000604187039050601a8160ff1610610e3757600080fd5b60001515600360008a81526020019081526020016000206001018260ff16601a8110610e5f57fe5b602091828204019190069054906101000a900460ff16151514610e8157600080fd5b86600360008a815260200190815260200160002060030160006101000a81548160ff021916908360ff1602179055506002600360008a815260200190815260200160002060070160006101000a81548160ff02191690836005811115610ee357fe5b0217905550610ef18861231b565b5050505050505050565b60026004811115610f0857fe5b6004600083815260200190815260200160002060000160009054906101000a900460ff166004811115610f3757fe5b148015610f5a575042600760008381526020019081526020016000206000015411155b610f6357600080fd5b60036004600083815260200190815260200160002060000160006101000a81548160ff02191690836004811115610f9657fe5b021790555050565b610fa6612a1e565b610fae612a4a565b610fb6612aad565b600460008581526020019081526020016000206003600086815260200190815260200160002060076000878152602001908152602001600020826040518060600160405290816000820160009054906101000a900460ff16600481111561101957fe5b600481111561102457fe5b815260200160018201548152602001600282018054806020026020016040519081016040528092919081815260200182805480156110b757602002820191906000526020600020905b8160009054906101000a900473ffffffffffffffffffffffffffffffffffffffff1673ffffffffffffffffffffffffffffffffffffffff168152602001906001019080831161106d575b505050505081525050925081604051806101200160405290816000820154815260200160018201601a806020026040519081016040528092919082601a801561113a576020028201916000905b82829054906101000a900460ff161515815260200190600101906020826000010492830192600103820291508084116111045790505b50505050508152602001600282018054600181600116156101000203166002900480601f0160208091040260200160405190810160405280929190818152602001828054600181600116156101000203166002900480156111dc5780601f106111b1576101008083540402835291602001916111dc565b820191906000526020600020905b8154815290600101906020018083116111bf57829003601f168201915b505050505081526020016003820160009054906101000a900460ff1660ff1660ff1681526020016004820154815260200160058201548152602001600682015481526020016007820160009054906101000a900460ff16600581111561123e57fe5b600581111561124957fe5b81526020016008820154815250509150806040518060400160405290816000820154815260200160018201548152505090509250925092509193909250565b80600380600481111561129757fe5b6004600084815260200190815260200160002060000160009054906101000a900460ff1660048111156112c657fe5b146112d057600080fd5b42600360008581526020019081526020016000206008015411156112f357600080fd5b6004600581111561130057fe5b6003600085815260200190815260200160002060070160009054906101000a900460ff16600581111561132f57fe5b14158015611376575060058081111561134457fe5b6003600085815260200190815260200160002060070160009054906101000a900460ff16600581111561137357fe5b14155b61137f57600080fd5b600460008481526020019081526020016000206002016000815481106113a157fe5b9060005260206000200160009054906101000a900473ffffffffffffffffffffffffffffffffffffffff1673ffffffffffffffffffffffffffffffffffffffff163373ffffffffffffffffffffffffffffffffffffffff16148061147c57506004600084815260200190815260200160002060020160018154811061142257fe5b9060005260206000200160009054906101000a900473ffffffffffffffffffffffffffffffffffffffff1673ffffffffffffffffffffffffffffffffffffffff163373ffffffffffffffffffffffffffffffffffffffff16145b61148557600080fd5b6001600581111561149257fe5b6003600085815260200190815260200160002060070160009054906101000a900460ff1660058111156114c157fe5b141561150a57600460058111156114d457fe5b6003600085815260200190815260200160002060070160009054906101000a900460ff16600581111561150357fe5b5050611548565b60058081111561151657fe5b6003600085815260200190815260200160002060070160009054906101000a900460ff16600581111561154557fe5b50505b6115518361231b565b505050565b6001600481111561156357fe5b6004600086815260200190815260200160002060000160009054906101000a900460ff16600481111561159257fe5b148061161c5750600360048111156115a657fe5b6004600086815260200190815260200160002060000160009054906101000a900460ff1660048111156115d557fe5b14801561161b5750600260048111156115ea57fe5b6004600086815260200190815260200160002060000160009054906101000a900460ff16600481111561161957fe5b145b5b61162557600080fd5b6116ef600460008681526020019081526020016000206002018054806020026020016040519081016040528092919081815260200182805480156116be57602002820191906000526020600020905b8160009054906101000a900473ffffffffffffffffffffffffffffffffffffffff1673ffffffffffffffffffffffffffffffffffffffff1681526020019060010190808311611674575b5050505050308686866040516020016116da94939291906138d9565b60405160208183030381529060405283612621565b6116f7612a4a565b8280602001905161170b919081019061333a565b905061171b858260e001516123da565b5050505050565b80600380600481111561173157fe5b6004600084815260200190815260200160002060000160009054906101000a900460ff16600481111561176057fe5b1461176a57600080fd5b600060036000858152602001908152602001600020600801541461178d57600080fd5b6004600581111561179a57fe5b6003600085815260200190815260200160002060070160009054906101000a900460ff1660058111156117c957fe5b1415801561181057506005808111156117de57fe5b6003600085815260200190815260200160002060070160009054906101000a900460ff16600581111561180d57fe5b14155b61181957600080fd5b6004600084815260200190815260200160002060020160008154811061183b57fe5b9060005260206000200160009054906101000a900473ffffffffffffffffffffffffffffffffffffffff1673ffffffffffffffffffffffffffffffffffffffff163373ffffffffffffffffffffffffffffffffffffffff1614806119165750600460008481526020019081526020016000206002016001815481106118bc57fe5b9060005260206000200160009054906101000a900473ffffffffffffffffffffffffffffffffffffffff1673ffffffffffffffffffffffffffffffffffffffff163373ffffffffffffffffffffffffffffffffffffffff16145b61191f57600080fd5b600254420160036000858152602001908152602001600020600801819055507f611949c64c66225766b6e6d1154d802a31872f5d8e94bdcac954806b8376fbb9836003600086815260200190815260200160002060070160009054906101000a900460ff166040516119929291906139a4565b60405180910390a1505050565b600160048111156119ac57fe5b6004600086815260200190815260200160002060000160009054906101000a900460ff1660048111156119db57fe5b1480611a625750600260048111156119ef57fe5b6004600086815260200190815260200160002060000160009054906101000a900460ff166004811115611a1e57fe5b148015611a405750426007600086815260200190815260200160002060000154115b8015611a615750600760008581526020019081526020016000206001015483115b5b611a6b57600080fd5b611b3560046000868152602001908152602001600020600201805480602002602001604051908101604052809291908181526020018280548015611b0457602002820191906000526020600020905b8160009054906101000a900473ffffffffffffffffffffffffffffffffffffffff1673ffffffffffffffffffffffffffffffffffffffff1681526020019060010190808311611aba575b505050505030868686604051602001611b2094939291906138d9565b60405160208183030381529060405283612621565b60016004811115611b4257fe5b6004600086815260200190815260200160002060000160009054906101000a900460ff166004811115611b7157fe5b1415611c065760026004600086815260200190815260200160002060000160006101000a81548160ff02191690836004811115611baa57fe5b0217905550600654420160076000868152602001908152602001600020600001819055507f4c871862155c443c6718dddabe053063168abac54b2e51ad370b7de75839ec5284604051611bfd9190613925565b60405180910390a15b82600760008681526020019081526020016000206001018190555081806020019051611c35919081019061333a565b600360008681526020019081526020016000206000820151816000015560208201518160010190601a611c69929190612905565b506040820151816002019080519060200190611c8692919061299e565b5060608201518160030160006101000a81548160ff021916908360ff1602179055506080820151816004015560a0820151816005015560c0820151816006015560e08201518160070160006101000a81548160ff02191690836005811115611cea57fe5b0217905550610100820151816008015590505050505050565b60046000848152602001908152602001600020600201600081548110611d2557fe5b9060005260206000200160009054906101000a900473ffffffffffffffffffffffffffffffffffffffff168073ffffffffffffffffffffffffffffffffffffffff163373ffffffffffffffffffffffffffffffffffffffff1614611d8857600080fd5b836000806005811115611d9757fe5b6003600084815260200190815260200160002060070160009054906101000a900460ff166005811115611dc657fe5b14611dd057600080fd5b856003806004811115611ddf57fe5b6004600084815260200190815260200160002060000160009054906101000a900460ff166004811115611e0e57fe5b14611e1857600080fd5b86600360008a8152602001908152602001600020600001819055508560ff16600360008a8152602001908152602001600020600401819055506001600360008a815260200190815260200160002060070160006101000a81548160ff02191690836005811115611e8457fe5b02179055508560ff16600360008a8152602001908152602001600020600501819055508560ff166040519080825280601f01601f191660200182016040528015611edd5781602001600182028038833980820191505090505b50600360008a81526020019081526020016000206002019080519060200190611f07929190612ac7565b50611f118861231b565b5050505050505050565b60046000858152602001908152602001600020600201600081548110611f3d57fe5b9060005260206000200160009054906101000a900473ffffffffffffffffffffffffffffffffffffffff168073ffffffffffffffffffffffffffffffffffffffff163373ffffffffffffffffffffffffffffffffffffffff1614611fa057600080fd5b846003806005811115611faf57fe5b6003600084815260200190815260200160002060070160009054906101000a900460ff166005811115611fde57fe5b14611fe857600080fd5b866003806004811115611ff757fe5b6004600084815260200190815260200160002060000160009054906101000a900460ff16600481111561202657fe5b1461203057600080fd5b6003600581111561203d57fe5b600360008b815260200190815260200160002060070160009054906101000a900460ff16600581111561206c57fe5b1461207657600080fd5b600360008a815260200190815260200160002060040154878790501461209b57600080fd5b60008090505b600360008b815260200190815260200160002060040154811015612248578787828181106120cb57fe5b9050013560f81c60f81b7effffffffffffffffffffffffffffffffffffffffffffffffffffffffffffff1916600360008c81526020019081526020016000206002018281546001816001161561010002031660029004811061212957fe5b8154600116156121485790600052602060002090602091828204019190065b9054901a7f0100000000000000000000000000000000000000000000000000000000000000027effffffffffffffffffffffffffffffffffffffffffffffffffffffffffffff1916141580156121ef5750600360008b815260200190815260200160002060010160418989848181106121bd57fe5b9050013560f81c60f81b60f81c0360ff16601a81106121d857fe5b602091828204019190069054906101000a900460ff165b1561223b576005600360008c815260200190815260200160002060070160006101000a81548160ff0219169083600581111561222757fe5b02179055506122358a61231b565b50612310565b80806001019150506120a1565b50600360008a81526020019081526020016000206000015488888860405160200161227593929190613972565b60405160208183030381529060405280519060200120146122cd576005600360008b815260200190815260200160002060070160006101000a81548160ff021916908360058111156122c357fe5b0217905550612306565b6004600360008b815260200190815260200160002060070160006101000a81548160ff0219169083600581111561230057fe5b02179055505b61230f8961231b565b5b505050505050505050565b600060036000838152602001908152602001600020600801819055507f611949c64c66225766b6e6d1154d802a31872f5d8e94bdcac954806b8376fbb9816003600084815260200190815260200160002060070160009054906101000a900460ff1660405161238b9291906139a4565b60405180910390a150565b604051806040016040528060008152602001600081525060076000838152602001908152602001600020600082015181600001556020820151816001015590505050565b600460058111156123e757fe5b8160058111156123f357fe5b14156124de576004600083815260200190815260200160002060020160008154811061241b57fe5b9060005260206000200160009054906101000a900473ffffffffffffffffffffffffffffffffffffffff1673ffffffffffffffffffffffffffffffffffffffff166108fc60046000858152602001908152602001600020600101549081150290604051600060405180830381858888f193505050501580156124a1573d6000803e3d6000fd5b50600480600084815260200190815260200160002060000160006101000a81548160ff021916908360048111156124d457fe5b021790555061261d565b6005808111156124ea57fe5b8160058111156124f657fe5b14156125e1576004600083815260200190815260200160002060020160018154811061251e57fe5b9060005260206000200160009054906101000a900473ffffffffffffffffffffffffffffffffffffffff1673ffffffffffffffffffffffffffffffffffffffff166108fc60046000858152602001908152602001600020600101549081150290604051600060405180830381858888f193505050501580156125a4573d6000803e3d6000fd5b50600480600084815260200190815260200160002060000160006101000a81548160ff021916908360048111156125d757fe5b021790555061261c565b6040517f08c379a000000000000000000000000000000000000000000000000000000000815260040161261390613a32565b60405180910390fd5b5b5050565b6126348361262e84612639565b83612652565b505050565b600061264b82805190602001206127e5565b9050919050565b6060818060200190516126689190810190613096565b905083518151146126ae576040517f08c379a00000000000000000000000000000000000000000000000000000000081526004016126a590613a52565b60405180910390fd5b60008090505b84518110156127de576001848383815181106126cc57fe5b6020026020010151600001518484815181106126e457fe5b6020026020010151602001518585815181106126fc57fe5b6020026020010151604001516040516000815260200160405260405161272594939291906139cd565b6020604051602081039080840390855afa158015612747573d6000803e3d6000fd5b5050506020604051035173ffffffffffffffffffffffffffffffffffffffff1685828151811061277357fe5b602002602001015173ffffffffffffffffffffffffffffffffffffffff16146127d1576040517f08c379a00000000000000000000000000000000000000000000000000000000081526004016127c890613a12565b60405180910390fd5b80806001019150506126b4565b5050505050565b600060606040518060400160405280601c81526020017f19457468657265756d205369676e6564204d6573736167653a0a3332000000008152509050600081846040516020016128369291906138b1565b6040516020818303038152906040528051906020012090508092505050919050565b604051806103400160405280601a90602082028038833980820191505090505090565b8280548282559060005260206000209081019282156128f4579160200282015b828111156128f35782518260006101000a81548173ffffffffffffffffffffffffffffffffffffffff021916908373ffffffffffffffffffffffffffffffffffffffff1602179055509160200191906001019061289b565b5b5090506129019190612b47565b5090565b82601a601f0160209004810192821561298d5791602002820160005b8382111561295e57835183826101000a81548160ff0219169083151502179055509260200192600101602081600001049283019260010302612921565b801561298b5782816101000a81549060ff021916905560010160208160000104928301926001030261295e565b505b50905061299a9190612b8a565b5090565b828054600181600116156101000203166002900490600052602060002090601f016020900481019282601f106129df57805160ff1916838001178555612a0d565b82800160010185558215612a0d579182015b82811115612a0c5782518255916020019190600101906129f1565b5b509050612a1a9190612bba565b5090565b604051806060016040528060006004811115612a3657fe5b815260200160008152602001606081525090565b60405180610440016040528060008019168152602001612a68612bdf565b815260200160608152602001600060ff16815260200160008152602001600081526020016000815260200160006005811115612aa057fe5b8152602001600081525090565b604051806040016040528060008152602001600081525090565b828054600181600116156101000203166002900490600052602060002090601f016020900481019282601f10612b0857805160ff1916838001178555612b36565b82800160010185558215612b36579182015b82811115612b35578251825591602001919060010190612b1a565b5b509050612b439190612bba565b5090565b612b8791905b80821115612b8357600081816101000a81549073ffffffffffffffffffffffffffffffffffffffff021916905550600101612b4d565b5090565b90565b612bb791905b80821115612bb357600081816101000a81549060ff021916905550600101612b90565b5090565b90565b612bdc91905b80821115612bd8576000816000905550600101612bc0565b5090565b90565b604051806103400160405280601a90602082028038833980820191505090505090565b600081359050612c1181613daa565b92915050565b60008083601f840112612c2957600080fd5b8235905067ffffffffffffffff811115612c4257600080fd5b602083019150836020820283011115612c5a57600080fd5b9250929050565b600082601f830112612c7257600080fd5b601a612c85612c8082613ae4565b613ab7565b91508183856020840282011115612c9b57600080fd5b60005b83811015612ccb5781612cb18882612da2565b845260208401935060208301925050600181019050612c9e565b5050505092915050565b600082601f830112612ce657600080fd5b8151612cf9612cf482613b06565b613ab7565b91508181835260208401935060208101905083856060840282011115612d1e57600080fd5b60005b83811015612d4e5781612d348882612fe2565b845260208401935060608301925050600181019050612d21565b5050505092915050565b60008083601f840112612d6a57600080fd5b8235905067ffffffffffffffff811115612d8357600080fd5b602083019150836020820283011115612d9b57600080fd5b9250929050565b600081519050612db181613dc1565b92915050565b600081359050612dc681613dd8565b92915050565b600081519050612ddb81613dd8565b92915050565b60008083601f840112612df357600080fd5b8235905067ffffffffffffffff811115612e0c57600080fd5b602083019150836001820283011115612e2457600080fd5b9250929050565b600082601f830112612e3c57600080fd5b8151612e4f612e4a82613b2e565b613ab7565b91508082526020830160208301858383011115612e6b57600080fd5b612e76838284613d42565b50505092915050565b600082601f830112612e9057600080fd5b8135612ea3612e9e82613b5a565b613ab7565b91508082526020830160208301858383011115612ebf57600080fd5b612eca838284613d33565b50505092915050565b600081519050612ee281613def565b92915050565b60006104408284031215612efb57600080fd5b612f06610120613ab7565b90506000612f1684828501612dcc565b6000830152506020612f2a84828501612c61565b60208301525061036082015167ffffffffffffffff811115612f4b57600080fd5b612f5784828501612e2b565b604083015250610380612f6c84828501613081565b6060830152506103a0612f8184828501613057565b6080830152506103c0612f9684828501613057565b60a0830152506103e0612fab84828501613057565b60c083015250610400612fc084828501612ed3565b60e083015250610420612fd584828501613057565b6101008301525092915050565b600060608284031215612ff457600080fd5b612ffe6060613ab7565b9050600061300e84828501613081565b600083015250602061302284828501612dcc565b602083015250604061303684828501612dcc565b60408301525092915050565b60008135905061305181613dff565b92915050565b60008151905061306681613dff565b92915050565b60008135905061307b81613e16565b92915050565b60008151905061309081613e16565b92915050565b6000602082840312156130a857600080fd5b600082015167ffffffffffffffff8111156130c257600080fd5b6130ce84828501612cd5565b91505092915050565b6000602082840312156130e957600080fd5b60006130f784828501612db7565b91505092915050565b60008060006040848603121561311557600080fd5b600061312386828701612db7565b935050602084013567ffffffffffffffff81111561314057600080fd5b61314c86828701612c17565b92509250509250925092565b60008060006040848603121561316d57600080fd5b600061317b86828701612db7565b935050602084013567ffffffffffffffff81111561319857600080fd5b6131a486828701612d58565b92509250509250925092565b600080600080606085870312156131c657600080fd5b60006131d487828801612db7565b94505060206131e587828801612db7565b935050604085013567ffffffffffffffff81111561320257600080fd5b61320e87828801612de1565b925092505092959194509250565b60008060006060848603121561323157600080fd5b600061323f86828701612db7565b935050602061325086828701612db7565b92505060406132618682870161306c565b9150509250925092565b6000806000806080858703121561328157600080fd5b600061328f87828801612db7565b94505060206132a087828801613042565b935050604085013567ffffffffffffffff8111156132bd57600080fd5b6132c987828801612e7f565b925050606085013567ffffffffffffffff8111156132e657600080fd5b6132f287828801612e7f565b91505092959194509250565b6000806040838503121561331157600080fd5b600061331f85828601612db7565b92505060206133308582860161306c565b9150509250929050565b60006020828403121561334c57600080fd5b600082015167ffffffffffffffff81111561336657600080fd5b61337284828501612ee8565b91505092915050565b60006020828403121561338d57600080fd5b600061339b8482850161306c565b91505092915050565b60006133b083836133d4565b60208301905092915050565b60006133c88383613504565b60208301905092915050565b6133dd81613c8a565b82525050565b6133ec81613c8a565b82525050565b60006133fe8385613c19565b935061340982613b86565b8060005b858110156134425761341f8284613c73565b61342988826133a4565b975061343483613be1565b92505060018101905061340d565b5085925050509392505050565b600061345a82613baa565b6134648185613c08565b935061346f83613b90565b8060005b838110156134a057815161348788826133a4565b975061349283613bee565b925050600181019050613473565b5085935050505092915050565b6134b681613bb5565b6134c08184613c2a565b92506134cb82613ba0565b8060005b838110156134fc5781516134e387826133bc565b96506134ee83613bfb565b9250506001810190506134cf565b505050505050565b61350d81613c9c565b82525050565b61351c81613ca8565b82525050565b61352b81613ca8565b82525050565b61354261353d82613ca8565b613d75565b82525050565b60006135548385613c46565b9350613561838584613d33565b61356a83613d7f565b840190509392505050565b600061358082613bcb565b61358a8185613c46565b935061359a818560208601613d42565b6135a381613d7f565b840191505092915050565b60006135b982613bc0565b6135c38185613c35565b93506135d3818560208601613d42565b6135dc81613d7f565b840191505092915050565b6135f081613d0f565b82525050565b6135ff81613d21565b82525050565b61360e81613d21565b82525050565b600061361f82613bd6565b6136298185613c68565b9350613639818560208601613d42565b80840191505092915050565b6000613652600f83613c57565b91507f57726f6e67207369676e617475726500000000000000000000000000000000006000830152602082019050919050565b6000613692601183613c57565b91507f4e6f207465726d696e616c2073746174650000000000000000000000000000006000830152602082019050919050565b60006136d2602b83613c57565b91507f546865726520617265206c6573732f6d6f7265207369676e617475726573207460008301527f68656e20706172746965730000000000000000000000000000000000000000006020830152604082019050919050565b6000610440830160008301516137446000860182613513565b50602083015161375760208601826134ad565b50604083015184820361036086015261377082826135ae565b9150506060830151613786610380860182613893565b50608083015161379a6103a0860182613875565b5060a08301516137ae6103c0860182613875565b5060c08301516137c26103e0860182613875565b5060e08301516137d66104008601826135f6565b506101008301516137eb610420860182613875565b508091505092915050565b60408201600082015161380c6000850182613875565b50602082015161381f6020850182613875565b50505050565b600060608301600083015161383d60008601826135e7565b5060208301516138506020860182613875565b5060408301518482036040860152613868828261344f565b9150508091505092915050565b61387e81613cf8565b82525050565b61388d81613cf8565b82525050565b61389c81613d02565b82525050565b6138ab81613d02565b82525050565b60006138bd8285613614565b91506138c98284613531565b6020820191508190509392505050565b60006080820190506138ee60008301876133e3565b6138fb6020830186613522565b6139086040830185613884565b818103606083015261391a8184613575565b905095945050505050565b600060208201905061393a6000830184613522565b92915050565b60006040820190506139556000830186613522565b81810360208301526139688184866133f2565b9050949350505050565b60006040820190506139876000830186613522565b818103602083015261399a818486613548565b9050949350505050565b60006040820190506139b96000830185613522565b6139c66020830184613605565b9392505050565b60006080820190506139e26000830187613522565b6139ef60208301866138a2565b6139fc6040830185613522565b613a096060830184613522565b95945050505050565b60006020820190508181036000830152613a2b81613645565b9050919050565b60006020820190508181036000830152613a4b81613685565b9050919050565b60006020820190508181036000830152613a6b816136c5565b9050919050565b60006080820190508181036000830152613a8c8186613825565b90508181036020830152613aa0818561372b565b9050613aaf60408301846137f6565b949350505050565b6000604051905081810181811067ffffffffffffffff82111715613ada57600080fd5b8060405250919050565b600067ffffffffffffffff821115613afb57600080fd5b602082029050919050565b600067ffffffffffffffff821115613b1d57600080fd5b602082029050602081019050919050565b600067ffffffffffffffff821115613b4557600080fd5b601f19601f8301169050602081019050919050565b600067ffffffffffffffff821115613b7157600080fd5b601f19601f8301169050602081019050919050565b6000819050919050565b6000819050602082019050919050565b6000819050919050565b600081519050919050565b6000601a9050919050565b600081519050919050565b600081519050919050565b600081519050919050565b6000602082019050919050565b6000602082019050919050565b6000602082019050919050565b600082825260208201905092915050565b600082825260208201905092915050565b600081905092915050565b600082825260208201905092915050565b600082825260208201905092915050565b600082825260208201905092915050565b600081905092915050565b6000613c826020840184612c02565b905092915050565b6000613c9582613cd8565b9050919050565b60008115159050919050565b6000819050919050565b6000819050613cc082613d90565b919050565b6000819050613cd382613d9d565b919050565b600073ffffffffffffffffffffffffffffffffffffffff82169050919050565b6000819050919050565b600060ff82169050919050565b6000613d1a82613cb2565b9050919050565b6000613d2c82613cc5565b9050919050565b82818337600083830152505050565b60005b83811015613d60578082015181840152602081019050613d45565b83811115613d6f576000848401525b50505050565b6000819050919050565b6000601f19601f8301169050919050565b60058110613d9a57fe5b50565b60068110613da757fe5b50565b613db381613c8a565b8114613dbe57600080fd5b50565b613dca81613c9c565b8114613dd557600080fd5b50565b613de181613ca8565b8114613dec57600080fd5b50565b60068110613dfc57600080fd5b50565b613e0881613cf8565b8114613e1357600080fd5b50565b613e1f81613d02565b8114613e2a57600080fd5b5056fea365627a7a72305820591ec716fb0480e7886eced0eb566a09183fe98c3e08140b9d47f78a3dfb303d6c6578706572696d656e74616cf564736f6c634300050a0040",
  "source": "pragma solidity 0.5.10;\npragma experimental \"ABIEncoderV2\";\n\nimport \"contracts/sharedCode/SigVerifier.sol\";\nimport \"contracts/sharedCode/AbstractHangmanSingleton.sol\";\n\n//We assume that players only sign / produce states that can occur in a proper execution\n//For example, they do not sign / produce a state in which a player has used all of his ten tries but still is in stage WaitingForGuess\ncontract SpecificHangmanSingleton is SigVerifier, AbstractHangmanSingleton{\n    \n    //******************\n    // Variables, enums, structures\n    \n    //Model specific dispute constants\n    uint timeoutPeriod;\n    \n    //Channel Instances -> We divide the variables to be able to reuse the code\n    mapping(bytes32 => DisputeVariables) disputeState;\n    \n    //Events\n    event EventDispute(bytes32 id);\n    \n    //Structures\n    struct DisputeVariables {\n        uint timeout;\n        uint version;\n    }\n    \n    //****************\n    //Constructor\n    constructor(uint _maxTries, uint _minFunding, uint _timeoutPeriod, uint _challengePeriod) public AbstractHangmanSingleton(_maxTries, _minFunding, _challengePeriod){\n        timeoutPeriod = _timeoutPeriod;\n    }\n    \n    \n    //****************\n    //Channel logic\n    \n    //Function called by the inherrited function \"createInstance\"\n    function setInitialDisputeState(bytes32 _id) internal {\n        disputeState[_id] = DisputeVariables(0,0);\n    }\n\n    //Function to start a dispute\n    function dispute(bytes32 _id, uint _version, bytes memory _encodedState, bytes memory _signatures) public {\n        \n        //Can only be called if channel has been created and dispute timeout has not elapsed yet and version is larger than the submitted one\n        require(instanceState[_id].status == ChannelStatus.OFFCHAIN || (instanceState[_id].status == ChannelStatus.DISPUTE && disputeState[_id].timeout > now && _version > disputeState[_id].version));\n\n        //Check signatures:\n        verifySignatures(instanceState[_id].parties, abi.encode(address(this), _id, _version, _encodedState), _signatures);\n        \n        //Set timeout, status and emit event if this is the first call\n        if(instanceState[_id].status == ChannelStatus.OFFCHAIN){\n            instanceState[_id].status = ChannelStatus.DISPUTE;\n            disputeState[_id].timeout = now + timeoutPeriod;\n            emit EventDispute(_id);\n        }\n        \n        //Store the version as the most current one\n        disputeState[_id].version = _version;\n        \n        //Decode the state\n        applicationState[_id] = abi.decode(_encodedState,(ApplicationVariables));\n    }\n    \n    //Function to finalie a dispute\n    function finalizeDispute(bytes32 _id) external{\n        require(instanceState[_id].status == ChannelStatus.DISPUTE && disputeState[_id].timeout <= now);\n        instanceState[_id].status = ChannelStatus.ONCHAIN;\n    }\n    \n    //Function to perform a fast closing (without dispute)\n    function fastClose(bytes32 _id, uint _version, bytes memory _encodedState, bytes memory _signatures) public {\n        \n        //Not when closed or not created\n        require(instanceState[_id].status == ChannelStatus.OFFCHAIN || instanceState[_id].status == ChannelStatus.ONCHAIN && instanceState[_id].status == ChannelStatus.DISPUTE);\n        \n        //Check signatures\n        verifySignatures(instanceState[_id].parties, abi.encode(address(this), _id, _version, _encodedState), _signatures);\n        \n        //Decode state and pass stage to the closing procedure\n        ApplicationVariables memory _appState = abi.decode(_encodedState,(ApplicationVariables));\n        internalClose(_id, _appState.stage);\n    }\n    \n    //******************\n    // Getter\n    \n    function getInstance(bytes32 _id) external view returns (MaintainanceVariables memory, ApplicationVariables memory, DisputeVariables memory){\n        return (instanceState[_id], applicationState[_id], disputeState[_id]) ;\n    }\n}\n",
  "sourcePath": "/home/david/Desktop/implementation/truffle/contracts/standaloneArchitecture/SpecificHangmanSingleton.sol",
  "compiler": {
    "name": "solc",
    "version": "0.5.10+commit.5a6ea5b1.Emscripten.clang"
  },
  "schemaVersion": "3.0.16",
  "updatedAt": "2019-12-12T13:18:24.637Z",
  "devdoc": {
    "methods": {}
  },
  "userdoc": {
    "methods": {}
  }
}