{
  "contractName": "SpecificHangmanChannel",
  "abi": [
    {
      "constant": false,
      "inputs": [
        {
          "name": "_nonce",
          "type": "bytes32"
        },
        {
          "name": "_opening",
          "type": "bytes"
        }
      ],
      "name": "open",
      "outputs": [],
      "payable": false,
      "stateMutability": "nonpayable",
      "type": "function"
    },
    {
      "constant": false,
      "inputs": [],
      "name": "wrong",
      "outputs": [],
      "payable": false,
      "stateMutability": "nonpayable",
      "type": "function"
    },
    {
      "constant": false,
      "inputs": [
        {
          "name": "_hashedWord",
          "type": "bytes32"
        },
        {
          "name": "_wordLength",
          "type": "uint8"
        }
      ],
      "name": "commit",
      "outputs": [],
      "payable": false,
      "stateMutability": "nonpayable",
      "type": "function"
    },
    {
      "constant": false,
      "inputs": [
        {
          "name": "_hits",
          "type": "uint8[]"
        }
      ],
      "name": "correct",
      "outputs": [],
      "payable": false,
      "stateMutability": "nonpayable",
      "type": "function"
    },
    {
      "constant": false,
      "inputs": [],
      "name": "close",
      "outputs": [],
      "payable": false,
      "stateMutability": "nonpayable",
      "type": "function"
    },
    {
      "constant": false,
      "inputs": [
        {
          "name": "_letter",
          "type": "uint8"
        }
      ],
      "name": "guess",
      "outputs": [],
      "payable": false,
      "stateMutability": "nonpayable",
      "type": "function"
    },
    {
      "constant": false,
      "inputs": [],
      "name": "finalizeChallenge",
      "outputs": [],
      "payable": false,
      "stateMutability": "nonpayable",
      "type": "function"
    },
    {
      "constant": false,
      "inputs": [],
      "name": "challenge",
      "outputs": [],
      "payable": false,
      "stateMutability": "nonpayable",
      "type": "function"
    },
    {
      "inputs": [
        {
          "name": "_maxTries",
          "type": "uint256"
        },
        {
          "name": "_timeoutPeriod",
          "type": "uint256"
        },
        {
          "name": "_challengePeriod",
          "type": "uint256"
        },
        {
          "name": "_parties",
          "type": "address[]"
        }
      ],
      "payable": true,
      "stateMutability": "payable",
      "type": "constructor"
    },
    {
      "anonymous": false,
      "inputs": [],
      "name": "EventDispute",
      "type": "event"
    },
    {
      "anonymous": false,
      "inputs": [
        {
          "indexed": false,
          "name": "_length",
          "type": "uint256"
        },
        {
          "indexed": false,
          "name": "message",
          "type": "string"
        }
      ],
      "name": "Log",
      "type": "event"
    },
    {
      "anonymous": false,
      "inputs": [
        {
          "indexed": false,
          "name": "_text",
          "type": "string"
        },
        {
          "indexed": false,
          "name": "_status",
          "type": "uint8"
        }
      ],
      "name": "LogStatus",
      "type": "event"
    },
    {
      "anonymous": false,
      "inputs": [
        {
          "indexed": false,
          "name": "newStage",
          "type": "uint8"
        }
      ],
      "name": "movePerformed",
      "type": "event"
    },
    {
      "constant": false,
      "inputs": [
        {
          "name": "_version",
          "type": "uint256"
        },
        {
          "name": "_hashedWord",
          "type": "bytes32"
        },
        {
          "name": "_guessed",
          "type": "bool[26]"
        },
        {
          "name": "_word",
          "type": "bytes"
        },
        {
          "name": "_currentGuess",
          "type": "uint8"
        },
        {
          "name": "_wordLength",
          "type": "uint256"
        },
        {
          "name": "_missingLetters",
          "type": "uint256"
        },
        {
          "name": "_tries",
          "type": "uint256"
        },
        {
          "name": "_stage",
          "type": "uint8"
        },
        {
          "name": "_signatures",
          "type": "bytes"
        }
      ],
      "name": "dispute",
      "outputs": [],
      "payable": false,
      "stateMutability": "nonpayable",
      "type": "function"
    },
    {
      "constant": false,
      "inputs": [],
      "name": "finalizeDispute",
      "outputs": [],
      "payable": false,
      "stateMutability": "nonpayable",
      "type": "function"
    },
    {
      "constant": false,
      "inputs": [
        {
          "name": "_version",
          "type": "uint256"
        },
        {
          "name": "_hashedWord",
          "type": "bytes32"
        },
        {
          "name": "_guessed",
          "type": "bool[26]"
        },
        {
          "name": "_word",
          "type": "bytes"
        },
        {
          "name": "_currentGuess",
          "type": "uint8"
        },
        {
          "name": "_wordLength",
          "type": "uint256"
        },
        {
          "name": "_missingLetters",
          "type": "uint256"
        },
        {
          "name": "_tries",
          "type": "uint256"
        },
        {
          "name": "_stage",
          "type": "uint8"
        },
        {
          "name": "_signatures",
          "type": "bytes"
        }
      ],
      "name": "fastClose",
      "outputs": [],
      "payable": false,
      "stateMutability": "nonpayable",
      "type": "function"
    },
    {
      "constant": true,
      "inputs": [],
      "name": "getState",
      "outputs": [
        {
          "name": "",
          "type": "uint8"
        },
        {
          "name": "",
          "type": "uint256"
        },
        {
          "name": "",
          "type": "uint256"
        },
        {
          "name": "",
          "type": "address[]"
        },
        {
          "name": "",
          "type": "bytes32"
        },
        {
          "name": "",
          "type": "bool[26]"
        },
        {
          "name": "",
          "type": "bytes"
        },
        {
          "name": "",
          "type": "uint8"
        },
        {
          "name": "",
          "type": "uint256"
        },
        {
          "name": "",
          "type": "uint256"
        },
        {
          "name": "",
          "type": "uint256"
        },
        {
          "name": "",
          "type": "uint8"
        }
      ],
      "payable": false,
      "stateMutability": "view",
      "type": "function"
    }
  ],
  "bytecode": "0x6080604052604051620034ff380380620034ff833981810160405262000029919081019062000259565b8382828260008190555081600181905550806002908051906020019062000052929190620000c9565b5060006004819055506000600b819055506000600c60006101000a81548160ff021916908360058111156200008357fe5b021790555050505082600d819055506001600360006101000a81548160ff02191690836003811115620000b257fe5b02179055506000600f8190555050505050620003a7565b82805482825590600052602060002090810192821562000145579160200282015b82811115620001445782518260006101000a81548173ffffffffffffffffffffffffffffffffffffffff021916908373ffffffffffffffffffffffffffffffffffffffff16021790555091602001919060010190620000ea565b5b50905062000154919062000158565b5090565b6200019b91905b808211156200019757600081816101000a81549073ffffffffffffffffffffffffffffffffffffffff0219169055506001016200015f565b5090565b90565b600081519050620001af8162000373565b92915050565b600082601f830112620001c757600080fd5b8151620001de620001d8826200030c565b620002de565b915081818352602084019350602081019050838560208402820111156200020457600080fd5b60005b838110156200023857816200021d88826200019e565b84526020840193506020830192505060018101905062000207565b5050505092915050565b60008151905062000253816200038d565b92915050565b600080600080608085870312156200027057600080fd5b6000620002808782880162000242565b9450506020620002938782880162000242565b9350506040620002a68782880162000242565b925050606085015167ffffffffffffffff811115620002c457600080fd5b620002d287828801620001b5565b91505092959194509250565b6000604051905081810181811067ffffffffffffffff821117156200030257600080fd5b8060405250919050565b600067ffffffffffffffff8211156200032457600080fd5b602082029050602081019050919050565b6000620003428262000349565b9050919050565b600073ffffffffffffffffffffffffffffffffffffffff82169050919050565b6000819050919050565b6200037e8162000335565b81146200038a57600080fd5b50565b620003988162000369565b8114620003a457600080fd5b50565b61314880620003b76000396000f3fe608060405234801561001057600080fd5b50600436106100b45760003560e01c80634ba4c16b116100715780634ba4c16b1461014a57806398d109da14610166578063a6caba8c14610182578063b78fe7341461019e578063d2ef7398146101a8578063ec77537b146101b2576100b4565b806304e1df8b146100b95780631865c57d146100d55780632c23d2b4146100fe5780633a37bd3f14610108578063425b9bb91461012457806343d726d614610140575b600080fd5b6100d360048036036100ce91908101906123ac565b6101bc565b005b6100dd61059d565b6040516100f59c9b9a99989796959493929190612c08565b60405180910390f35b6101066107ae565b005b610122600480360361011d9190810190612404565b6109e3565b005b61013e60048036036101399190810190612367565b610bf7565b005b610148610ff3565b005b610164600480360361015f9190810190612550565b611077565b005b610180600480360361017b9190810190612440565b6112f8565b005b61019c60048036036101979190810190612440565b61158c565b005b6101a6611663565b005b6101b06118af565b005b6101ba611abd565b005b60026000815481106101ca57fe5b9060005260206000200160009054906101000a900473ffffffffffffffffffffffffffffffffffffffff168073ffffffffffffffffffffffffffffffffffffffff163373ffffffffffffffffffffffffffffffffffffffff1614610263576040517f08c379a000000000000000000000000000000000000000000000000000000000815260040161025a90612d2d565b60405180910390fd5b600380600581111561027157fe5b600c60009054906101000a900460ff16600581111561028c57fe5b146102cc576040517f08c379a00000000000000000000000000000000000000000000000000000000081526004016102c390612ded565b60405180910390fd5b60038060038111156102da57fe5b600360009054906101000a900460ff1660038111156102f557fe5b14610335576040517f08c379a000000000000000000000000000000000000000000000000000000000815260040161032c90612ced565b60405180910390fd5b6003600581111561034257fe5b600c60009054906101000a900460ff16600581111561035d57fe5b1461039d576040517f08c379a000000000000000000000000000000000000000000000000000000000815260040161039490612d8d565b60405180910390fd5b60095485859050146103ae57600080fd5b60008090505b60095481101561050a578585828181106103ca57fe5b9050013560f81c60f81b7effffffffffffffffffffffffffffffffffffffffffffffffffffffffffffff191660078281546001816001161561010002031660029004811061041457fe5b8154600116156104335790600052602060002090602091828204019190065b9054901a7f0100000000000000000000000000000000000000000000000000000000000000027effffffffffffffffffffffffffffffffffffffffffffffffffffffffffffff1916141580156104c657506006604187878481811061049457fe5b9050013560f81c60f81b60f81c0360ff16601a81106104af57fe5b602091828204019190069054906101000a900460ff165b156104fd576005600c60006101000a81548160ff021916908360058111156104ea57fe5b02179055506104f7611b22565b50610595565b80806001019150506103b4565b5060055486868660405160200161052393929190612b91565b6040516020818303038152906040528051906020012014610567576005600c60006101000a81548160ff0219169083600581111561055d57fe5b021790555061058c565b6004600c60006101000a81548160ff0219169083600581111561058657fe5b02179055505b610594611b22565b5b505050505050565b6000806000606060006105ae611ec3565b60606000806000806000600360009054906101000a900460ff16600e54600f54600260055460066007600860009054906101000a900460ff16600954600a54600b54600c60009054906101000a900460ff168880548060200260200160405190810160405280929190818152602001828054801561068157602002820191906000526020600020905b8160009054906101000a900473ffffffffffffffffffffffffffffffffffffffff1673ffffffffffffffffffffffffffffffffffffffff1681526020019060010190808311610637575b5050505050985086601a806020026040519081016040528092919082601a80156106e5576020028201916000905b82829054906101000a900460ff161515815260200190600101906020826000010492830192600103820291508084116106af5790505b50505050509650858054600181600116156101000203166002900480601f0160208091040260200160405190810160405280929190818152602001828054600181600116156101000203166002900480156107815780601f1061075657610100808354040283529160200191610781565b820191906000526020600020905b81548152906001019060200180831161076457829003601f168201915b505050505095509b509b509b509b509b509b509b509b509b509b509b509b50909192939495969798999a9b565b60026000815481106107bc57fe5b9060005260206000200160009054906101000a900473ffffffffffffffffffffffffffffffffffffffff168073ffffffffffffffffffffffffffffffffffffffff163373ffffffffffffffffffffffffffffffffffffffff1614610855576040517f08c379a000000000000000000000000000000000000000000000000000000000815260040161084c90612d2d565b60405180910390fd5b600280600581111561086357fe5b600c60009054906101000a900460ff16600581111561087e57fe5b146108be576040517f08c379a00000000000000000000000000000000000000000000000000000000081526004016108b590612ded565b60405180910390fd5b60038060038111156108cc57fe5b600360009054906101000a900460ff1660038111156108e757fe5b14610927576040517f08c379a000000000000000000000000000000000000000000000000000000000815260040161091e90612ced565b60405180910390fd5b600160066041600860009054906101000a900460ff160360ff16601a811061094b57fe5b602091828204019190066101000a81548160ff021916908315150217905550600b60008154809291906001019190505550600054600b5414156109b1576003600c60006101000a81548160ff021916908360058111156109a757fe5b02179055506109d6565b6001600c60006101000a81548160ff021916908360058111156109d057fe5b02179055505b6109de611b22565b505050565b60026000815481106109f157fe5b9060005260206000200160009054906101000a900473ffffffffffffffffffffffffffffffffffffffff168073ffffffffffffffffffffffffffffffffffffffff163373ffffffffffffffffffffffffffffffffffffffff1614610a8a576040517f08c379a0000000000000000000000000000000000000000000000000000000008152600401610a8190612d2d565b60405180910390fd5b6000806005811115610a9857fe5b600c60009054906101000a900460ff166005811115610ab357fe5b14610af3576040517f08c379a0000000000000000000000000000000000000000000000000000000008152600401610aea90612ded565b60405180910390fd5b6003806003811115610b0157fe5b600360009054906101000a900460ff166003811115610b1c57fe5b14610b5c576040517f08c379a0000000000000000000000000000000000000000000000000000000008152600401610b5390612ced565b60405180910390fd5b846005819055508360ff166009819055506001600c60006101000a81548160ff02191690836005811115610b8c57fe5b02179055508360ff16600a819055508360ff166040519080825280601f01601f191660200182016040528015610bd15781602001600182028038833980820191505090505b5060079080519060200190610be7929190611ee6565b50610bf0611b22565b5050505050565b6002600081548110610c0557fe5b9060005260206000200160009054906101000a900473ffffffffffffffffffffffffffffffffffffffff168073ffffffffffffffffffffffffffffffffffffffff163373ffffffffffffffffffffffffffffffffffffffff1614610c9e576040517f08c379a0000000000000000000000000000000000000000000000000000000008152600401610c9590612d2d565b60405180910390fd5b6002806005811115610cac57fe5b600c60009054906101000a900460ff166005811115610cc757fe5b14610d07576040517f08c379a0000000000000000000000000000000000000000000000000000000008152600401610cfe90612ded565b60405180910390fd5b6003806003811115610d1557fe5b600360009054906101000a900460ff166003811115610d3057fe5b14610d70576040517f08c379a0000000000000000000000000000000000000000000000000000000008152600401610d6790612ced565b60405180910390fd5b60008585905011610d8057600080fd5b60008090505b85859050811015610f3857600954868683818110610da057fe5b9050602002016020610db59190810190612550565b60ff16101580610e6d575060006007878784818110610dd057fe5b9050602002016020610de59190810190612550565b60ff16815460018160011615610100020316600290048110610e0357fe5b815460011615610e225790600052602060002090602091828204019190065b9054901a7f0100000000000000000000000000000000000000000000000000000000000000027effffffffffffffffffffffffffffffffffffffffffffffffffffffffffffff191614155b15610e8057610e7a611b22565b50610fec565b600860009054906101000a900460ff1660f81b6007878784818110610ea157fe5b9050602002016020610eb69190810190612550565b60ff16815460018160011615610100020316600290048110610ed457fe5b815460011615610ef35790600052602060002090602091828204019190065b601f036101000a81548160ff021916907f0100000000000000000000000000000000000000000000000000000000000000840402179055508080600101915050610d86565b5084849050600a5403600a81905550600160066041600860009054906101000a900460ff160360ff16601a8110610f6b57fe5b602091828204019190066101000a81548160ff0219169083151502179055506001600a541015610fbe576005600c60006101000a81548160ff02191690836005811115610fb457fe5b0217905550610fe3565b6001600c60006101000a81548160ff02191690836005811115610fdd57fe5b02179055505b610feb611b22565b5b5050505050565b600380600381111561100157fe5b600360009054906101000a900460ff16600381111561101c57fe5b1461105c576040517f08c379a000000000000000000000000000000000000000000000000000000000815260040161105390612ced565b60405180910390fd5b611074600c60009054906101000a900460ff16611b72565b50565b600260018154811061108557fe5b9060005260206000200160009054906101000a900473ffffffffffffffffffffffffffffffffffffffff168073ffffffffffffffffffffffffffffffffffffffff163373ffffffffffffffffffffffffffffffffffffffff161461111e576040517f08c379a000000000000000000000000000000000000000000000000000000000815260040161111590612d2d565b60405180910390fd5b600180600581111561112c57fe5b600c60009054906101000a900460ff16600581111561114757fe5b14611187576040517f08c379a000000000000000000000000000000000000000000000000000000000815260040161117e90612ded565b60405180910390fd5b600380600381111561119557fe5b600360009054906101000a900460ff1660038111156111b057fe5b146111f0576040517f08c379a00000000000000000000000000000000000000000000000000000000081526004016111e790612ced565b60405180910390fd5b6000604185039050601a8160ff161061123e576040517f08c379a000000000000000000000000000000000000000000000000000000000815260040161123590612d6d565b60405180910390fd5b6000151560068260ff16601a811061125257fe5b602091828204019190069054906101000a900460ff161515146112aa576040517f08c379a00000000000000000000000000000000000000000000000000000000081526004016112a190612dcd565b60405180910390fd5b84600860006101000a81548160ff021916908360ff1602179055506002600c60006101000a81548160ff021916908360058111156112e457fe5b02179055506112f1611b22565b5050505050565b6001600381111561130557fe5b600360009054906101000a900460ff16600381111561132057fe5b148061136b57506002600381111561133457fe5b600360009054906101000a900460ff16600381111561134f57fe5b14801561135d575042600e54115b801561136a5750600f548a115b5b6113aa576040517f08c379a00000000000000000000000000000000000000000000000000000000081526004016113a190612dad565b60405180910390fd5b61146c600280548060200260200160405190810160405280929190818152602001828054801561142f57602002820191906000526020600020905b8160009054906101000a900473ffffffffffffffffffffffffffffffffffffffff1673ffffffffffffffffffffffffffffffffffffffff16815260200190600101908083116113e5575b5050505050308c8c8c8c8c8c8c8c8c6040516020016114579a99989796959493929190612aea565b60405160208183030381529060405283611c8c565b6001600381111561147957fe5b600360009054906101000a900460ff16600381111561149457fe5b14156114f6576002600360006101000a81548160ff021916908360038111156114b957fe5b0217905550600d544201600e819055507fcc3746f77343a76a254de5b906f2551a54f03e039a597fe09e24f4ab63cf015b60405160405180910390a15b89600f819055508860058190555087600690601a611515929190611f66565b50866007908051906020019061152c929190611ee6565b5085600860006101000a81548160ff021916908360ff1602179055508460098190555083600a8190555082600b8190555081600c60006101000a81548160ff0219169083600581111561157b57fe5b021790555050505050505050505050565b61164e600280548060200260200160405190810160405280929190818152602001828054801561161157602002820191906000526020600020905b8160009054906101000a900473ffffffffffffffffffffffffffffffffffffffff1673ffffffffffffffffffffffffffffffffffffffff16815260200190600101908083116115c7575b5050505050308c8c8c8c8c8c8c8c8c6040516020016116399a99989796959493929190612aea565b60405160208183030381529060405283611c8c565b61165782611b72565b50505050505050505050565b600380600381111561167157fe5b600360009054906101000a900460ff16600381111561168c57fe5b146116cc576040517f08c379a00000000000000000000000000000000000000000000000000000000081526004016116c390612ced565b60405180910390fd5b4260045411156116db57600080fd5b600460058111156116e857fe5b600c60009054906101000a900460ff16600581111561170357fe5b14158015611736575060058081111561171857fe5b600c60009054906101000a900460ff16600581111561173357fe5b14155b61173f57600080fd5b600260008154811061174d57fe5b9060005260206000200160009054906101000a900473ffffffffffffffffffffffffffffffffffffffff1673ffffffffffffffffffffffffffffffffffffffff163373ffffffffffffffffffffffffffffffffffffffff161480611814575060026001815481106117ba57fe5b9060005260206000200160009054906101000a900473ffffffffffffffffffffffffffffffffffffffff1673ffffffffffffffffffffffffffffffffffffffff163373ffffffffffffffffffffffffffffffffffffffff16145b61181d57600080fd5b6001600581111561182a57fe5b600c60009054906101000a900460ff16600581111561184557fe5b141561187a576004600581111561185857fe5b600c60009054906101000a900460ff16600581111561187357fe5b50506118a4565b60058081111561188657fe5b600c60009054906101000a900460ff1660058111156118a157fe5b50505b6118ac611b22565b50565b60038060038111156118bd57fe5b600360009054906101000a900460ff1660038111156118d857fe5b14611918576040517f08c379a000000000000000000000000000000000000000000000000000000000815260040161190f90612ced565b60405180910390fd5b60006004541461192757600080fd5b6004600581111561193457fe5b600c60009054906101000a900460ff16600581111561194f57fe5b14158015611982575060058081111561196457fe5b600c60009054906101000a900460ff16600581111561197f57fe5b14155b61198b57600080fd5b600260008154811061199957fe5b9060005260206000200160009054906101000a900473ffffffffffffffffffffffffffffffffffffffff1673ffffffffffffffffffffffffffffffffffffffff163373ffffffffffffffffffffffffffffffffffffffff161480611a6057506002600181548110611a0657fe5b9060005260206000200160009054906101000a900473ffffffffffffffffffffffffffffffffffffffff1673ffffffffffffffffffffffffffffffffffffffff163373ffffffffffffffffffffffffffffffffffffffff16145b611a6957600080fd5b60015442016004819055507fdc366cb1e2516aaf0bb450000834ee4209956a3889d1b518ec01475ec98ed521600c60009054906101000a900460ff16604051611ab29190612cd2565b60405180910390a150565b60026003811115611aca57fe5b600360009054906101000a900460ff166003811115611ae557fe5b148015611af4575042600e5411155b611afd57600080fd5b60038060006101000a81548160ff02191690836003811115611b1b57fe5b0217905550565b60006004819055507fdc366cb1e2516aaf0bb450000834ee4209956a3889d1b518ec01475ec98ed521600c60009054906101000a900460ff16604051611b689190612cd2565b60405180910390a1565b60046005811115611b7f57fe5b816005811115611b8b57fe5b1415611be2576002600081548110611b9f57fe5b9060005260206000200160009054906101000a900473ffffffffffffffffffffffffffffffffffffffff1673ffffffffffffffffffffffffffffffffffffffff16ff5b600580811115611bee57fe5b816005811115611bfa57fe5b1415611c51576002600181548110611c0e57fe5b9060005260206000200160009054906101000a900473ffffffffffffffffffffffffffffffffffffffff1673ffffffffffffffffffffffffffffffffffffffff16ff5b6040517f08c379a0000000000000000000000000000000000000000000000000000000008152600401611c8390612d4d565b60405180910390fd5b611c9f83611c9984611ca4565b83611cbd565b505050565b6000611cb68280519060200120611e50565b9050919050565b606081806020019051611cd39190810190612326565b90508351815114611d19576040517f08c379a0000000000000000000000000000000000000000000000000000000008152600401611d1090612e0d565b60405180910390fd5b60008090505b8451811015611e4957600184838381518110611d3757fe5b602002602001015160000151848481518110611d4f57fe5b602002602001015160200151858581518110611d6757fe5b60200260200101516040015160405160008152602001604052604051611d909493929190612bc3565b6020604051602081039080840390855afa158015611db2573d6000803e3d6000fd5b5050506020604051035173ffffffffffffffffffffffffffffffffffffffff16858281518110611dde57fe5b602002602001015173ffffffffffffffffffffffffffffffffffffffff1614611e3c576040517f08c379a0000000000000000000000000000000000000000000000000000000008152600401611e3390612d0d565b60405180910390fd5b8080600101915050611d1f565b5050505050565b600060606040518060400160405280601c81526020017f19457468657265756d205369676e6564204d6573736167653a0a333200000000815250905060008184604051602001611ea1929190612ac2565b6040516020818303038152906040528051906020012090508092505050919050565b604051806103400160405280601a90602082028038833980820191505090505090565b828054600181600116156101000203166002900490600052602060002090601f016020900481019282601f10611f2757805160ff1916838001178555611f55565b82800160010185558215611f55579182015b82811115611f54578251825591602001919060010190611f39565b5b509050611f629190611fff565b5090565b82601a601f01602090048101928215611fee5791602002820160005b83821115611fbf57835183826101000a81548160ff0219169083151502179055509260200192600101602081600001049283019260010302611f82565b8015611fec5782816101000a81549060ff0219169055600101602081600001049283019260010302611fbf565b505b509050611ffb9190612024565b5090565b61202191905b8082111561201d576000816000905550600101612005565b5090565b90565b61205191905b8082111561204d57600081816101000a81549060ff02191690555060010161202a565b5090565b90565b600082601f83011261206557600080fd5b601a61207861207382612e5a565b612e2d565b9150818385602084028201111561208e57600080fd5b60005b838110156120be57816120a48882612195565b845260208401935060208301925050600181019050612091565b5050505092915050565b600082601f8301126120d957600080fd5b81516120ec6120e782612e7c565b612e2d565b9150818183526020840193506020810190508385606084028201111561211157600080fd5b60005b8381101561214157816121278882612287565b845260208401935060608301925050600181019050612114565b5050505092915050565b60008083601f84011261215d57600080fd5b8235905067ffffffffffffffff81111561217657600080fd5b60208301915083602082028301111561218e57600080fd5b9250929050565b6000813590506121a481613099565b92915050565b6000813590506121b9816130b0565b92915050565b6000815190506121ce816130b0565b92915050565b60008083601f8401126121e657600080fd5b8235905067ffffffffffffffff8111156121ff57600080fd5b60208301915083600182028301111561221757600080fd5b9250929050565b600082601f83011261222f57600080fd5b813561224261223d82612ea4565b612e2d565b9150808252602083016020830185838301111561225e57600080fd5b612269838284613022565b50505092915050565b600081359050612281816130c7565b92915050565b60006060828403121561229957600080fd5b6122a36060612e2d565b905060006122b384828501612311565b60008301525060206122c7848285016121bf565b60208301525060406122db848285016121bf565b60408301525092915050565b6000813590506122f6816130d7565b92915050565b60008135905061230b816130ee565b92915050565b600081519050612320816130ee565b92915050565b60006020828403121561233857600080fd5b600082015167ffffffffffffffff81111561235257600080fd5b61235e848285016120c8565b91505092915050565b6000806020838503121561237a57600080fd5b600083013567ffffffffffffffff81111561239457600080fd5b6123a08582860161214b565b92509250509250929050565b6000806000604084860312156123c157600080fd5b60006123cf868287016121aa565b935050602084013567ffffffffffffffff8111156123ec57600080fd5b6123f8868287016121d4565b92509250509250925092565b6000806040838503121561241757600080fd5b6000612425858286016121aa565b9250506020612436858286016122fc565b9150509250929050565b6000806000806000806000806000806104608b8d03121561246057600080fd5b600061246e8d828e016122e7565b9a5050602061247f8d828e016121aa565b99505060406124908d828e01612054565b9850506103808b013567ffffffffffffffff8111156124ae57600080fd5b6124ba8d828e0161221e565b9750506103a06124cc8d828e016122fc565b9650506103c06124de8d828e016122e7565b9550506103e06124f08d828e016122e7565b9450506104006125028d828e016122e7565b9350506104206125148d828e01612272565b9250506104408b013567ffffffffffffffff81111561253257600080fd5b61253e8d828e0161221e565b9150509295989b9194979a5092959850565b60006020828403121561256257600080fd5b6000612570848285016122fc565b91505092915050565b600061258583836125a9565b60208301905092915050565b600061259d838361267c565b60208301905092915050565b6125b281612f79565b82525050565b6125c181612f79565b82525050565b60006125d282612eea565b6125dc8185612f30565b93506125e783612ed0565b8060005b838110156126185781516125ff8882612579565b975061260a83612f16565b9250506001810190506125eb565b5085935050505092915050565b61262e81612ef5565b6126388184612f41565b925061264382612ee0565b8060005b8381101561267457815161265b8782612591565b965061266683612f23565b925050600181019050612647565b505050505050565b61268581612f8b565b82525050565b61269481612f97565b82525050565b6126ab6126a682612f97565b613064565b82525050565b60006126bd8385612f4c565b93506126ca838584613022565b6126d38361306e565b840190509392505050565b60006126e982612f00565b6126f38185612f4c565b9350612703818560208601613031565b61270c8161306e565b840191505092915050565b61272081612ffe565b82525050565b61272f81613010565b82525050565b600061274082612f0b565b61274a8185612f6e565b935061275a818560208601613031565b80840191505092915050565b6000612773603283612f5d565b91507f4e6f7420746865207269676874206368616e6e656c2073746174757320746f2060008301527f63616c6c20746869732066756e6374696f6e00000000000000000000000000006020830152604082019050919050565b60006127d9600f83612f5d565b91507f57726f6e67207369676e617475726500000000000000000000000000000000006000830152602082019050919050565b6000612819602983612f5d565b91507f4e6f742074686520726967687420706172747920746f2063616c6c207468697360008301527f2066756e6374696f6e00000000000000000000000000000000000000000000006020830152604082019050919050565b600061287f601183612f5d565b91507f4e6f207465726d696e616c2073746174650000000000000000000000000000006000830152602082019050919050565b60006128bf601283612f5d565b91507f4e6f7420612076616c6964206c657474657200000000000000000000000000006000830152602082019050919050565b60006128ff602583612f5d565b91507f4e6f7420696e2074686520726967687420737461676520666f7220616e206f7060008301527f656e696e670000000000000000000000000000000000000000000000000000006020830152604082019050919050565b6000612965601a83612f5d565b91507f5374617475732c2074696d656f7574206f722076657273696f6e0000000000006000830152602082019050919050565b60006129a5601f83612f5d565b91507f4c65747465722068617320616c7265616479206265656e2067756573736564006000830152602082019050919050565b60006129e5602983612f5d565b91507f4e6f742074686520726967687420737461676520746f2063616c6c207468697360008301527f2066756e6374696f6e00000000000000000000000000000000000000000000006020830152604082019050919050565b6000612a4b602b83612f5d565b91507f546865726520617265206c6573732f6d6f7265207369676e617475726573207460008301527f68656e20706172746965730000000000000000000000000000000000000000006020830152604082019050919050565b612aad81612fe7565b82525050565b612abc81612ff1565b82525050565b6000612ace8285612735565b9150612ada828461269a565b6020820191508190509392505050565b600061046082019050612b00600083018d6125b8565b612b0d602083018c612aa4565b612b1a604083018b61268b565b612b27606083018a612625565b8181036103a0830152612b3a81896126de565b9050612b4a6103c0830188612ab3565b612b586103e0830187612aa4565b612b66610400830186612aa4565b612b74610420830185612aa4565b612b82610440830184612726565b9b9a5050505050505050505050565b6000604082019050612ba6600083018661268b565b8181036020830152612bb98184866126b1565b9050949350505050565b6000608082019050612bd8600083018761268b565b612be56020830186612ab3565b612bf2604083018561268b565b612bff606083018461268b565b95945050505050565b60006104a082019050612c1e600083018f612717565b612c2b602083018e612aa4565b612c38604083018d612aa4565b8181036060830152612c4a818c6125c7565b9050612c59608083018b61268b565b612c6660a083018a612625565b8181036103e0830152612c7981896126de565b9050612c89610400830188612ab3565b612c97610420830187612aa4565b612ca5610440830186612aa4565b612cb3610460830185612aa4565b612cc1610480830184612726565b9d9c50505050505050505050505050565b6000602082019050612ce76000830184612726565b92915050565b60006020820190508181036000830152612d0681612766565b9050919050565b60006020820190508181036000830152612d26816127cc565b9050919050565b60006020820190508181036000830152612d468161280c565b9050919050565b60006020820190508181036000830152612d6681612872565b9050919050565b60006020820190508181036000830152612d86816128b2565b9050919050565b60006020820190508181036000830152612da6816128f2565b9050919050565b60006020820190508181036000830152612dc681612958565b9050919050565b60006020820190508181036000830152612de681612998565b9050919050565b60006020820190508181036000830152612e06816129d8565b9050919050565b60006020820190508181036000830152612e2681612a3e565b9050919050565b6000604051905081810181811067ffffffffffffffff82111715612e5057600080fd5b8060405250919050565b600067ffffffffffffffff821115612e7157600080fd5b602082029050919050565b600067ffffffffffffffff821115612e9357600080fd5b602082029050602081019050919050565b600067ffffffffffffffff821115612ebb57600080fd5b601f19601f8301169050602081019050919050565b6000819050602082019050919050565b6000819050919050565b600081519050919050565b6000601a9050919050565b600081519050919050565b600081519050919050565b6000602082019050919050565b6000602082019050919050565b600082825260208201905092915050565b600081905092915050565b600082825260208201905092915050565b600082825260208201905092915050565b600081905092915050565b6000612f8482612fc7565b9050919050565b60008115159050919050565b6000819050919050565b6000819050612faf8261307f565b919050565b6000819050612fc28261308c565b919050565b600073ffffffffffffffffffffffffffffffffffffffff82169050919050565b6000819050919050565b600060ff82169050919050565b600061300982612fa1565b9050919050565b600061301b82612fb4565b9050919050565b82818337600083830152505050565b60005b8381101561304f578082015181840152602081019050613034565b8381111561305e576000848401525b50505050565b6000819050919050565b6000601f19601f8301169050919050565b6004811061308957fe5b50565b6006811061309657fe5b50565b6130a281612f8b565b81146130ad57600080fd5b50565b6130b981612f97565b81146130c457600080fd5b50565b600681106130d457600080fd5b50565b6130e081612fe7565b81146130eb57600080fd5b50565b6130f781612ff1565b811461310257600080fd5b5056fea365627a7a72305820d783fa239d20218115e8648117ea0a170df3354460cbfa4a5697aec4375a92c16c6578706572696d656e74616cf564736f6c634300050a0040",
  "source": "pragma solidity 0.5.10;\npragma experimental \"ABIEncoderV2\";\n\nimport \"contracts/sharedCode/SigVerifier.sol\";\nimport \"contracts/sharedCode/AbstractHangmanChannel.sol\";\n\n//We assume that players only sign / produce states that can occur in a proper execution\n//For example, they do not sign / produce a state in which a player has used all of his ten tries but still is in stage WaitingForGuess\ncontract SpecificHangmanChannel is AbstractHangmanChannel, SigVerifier{\n    \n    //******************\n    // Variables, enums, structures\n    \n    //constant after initialization\n    uint timeoutPeriod;\n\n    //Channel variables\n    uint timeout;\n    uint version;\n    \n    //Events\n    event EventDispute();\n    event Log(uint _length, string message);\n    \n    //****************\n    //Constructor\n    constructor(uint _maxTries, uint _timeoutPeriod, uint _challengePeriod, address[] memory _parties) public payable AbstractHangmanChannel(_maxTries, _challengePeriod, _parties){\n        //constants\n        timeoutPeriod = _timeoutPeriod;\n        \n        //channel initialuzation\n        status = ChannelStatus.OFFCHAIN;\n        version = 0;\n    }\n    \n    //****************\n    //Channel logic\n    \n    //Function to start a dispute -> Parties should always sign a first initial offchain-state (version 1) before they deploy this contract \n    function dispute(uint _version, bytes32 _hashedWord, bool[26] memory _guessed, bytes memory _word, uint8 _currentGuess, uint _wordLength, uint _missingLetters, uint _tries, Stage _stage, bytes memory _signatures) public {\n        \n        //Can only be called if channel has been created and dispute timeout has not elapsed yet and version is larger than the submitted one\n        require(status == ChannelStatus.OFFCHAIN || (status == ChannelStatus.DISPUTE && timeout > now && _version > version), \"Status, timeout or version\");\n\n        //Check signatures\n        verifySignatures(parties, abi.encode(address(this), _version, _hashedWord, _guessed, _word, _currentGuess, _wordLength, _missingLetters, _tries, _stage), _signatures);\n        \n        //Set timeout, status and emit event if this is the first call\n        if(status == ChannelStatus.OFFCHAIN){\n            status =ChannelStatus.DISPUTE;\n            timeout = now + timeoutPeriod;\n            emit EventDispute();\n        }\n        \n        //Store the version as the most current one\n        version = _version;\n        \n        //Update state\n        hashedWord = _hashedWord;\n        guessed = _guessed;\n        word = _word;\n        currentGuess = _currentGuess;\n        wordLength = _wordLength;\n        missingLetters = _missingLetters;\n        tries = _tries;\n        stage = _stage;\n    }\n    \n    //Function to finalie a dispute\n    function finalizeDispute() external{\n        require(status == ChannelStatus.DISPUTE && timeout <= now);\n        status = ChannelStatus.ONCHAIN;\n    }\n    \n    //Function to close without a dispute\n    function fastClose(uint _version, bytes32 _hashedWord, bool[26] memory _guessed, bytes memory _word, uint8 _currentGuess, uint _wordLength, uint _missingLetters, uint _tries, Stage _stage, bytes memory _signatures) public {\n        //Check signatures\n        verifySignatures(parties, abi.encode(address(this), _version, _hashedWord, _guessed, _word, _currentGuess, _wordLength, _missingLetters, _tries, _stage), _signatures);\n        //call close (checks stage and performs the closure)\n        internalClose(_stage);\n    }\n    \n    //****************\n    //Application logic is inherited\n    \n    //****************\n    //Getters\n    function getState() external view returns (ChannelStatus, uint, uint, address[] memory, bytes32, bool[26] memory, bytes memory, uint8, uint, uint, uint, Stage){\n        return (status, timeout, version, parties, hashedWord, guessed, word, currentGuess, wordLength, missingLetters, tries, stage);\n    }\n\n}\n",
  "sourcePath": "/media/shared/CAC/Projekte/2019_SC_Workshop_FinCrypto/publicImplementation/truffle/contracts/standaloneArchitecture/SpecificHangmanChannel.sol",
  "compiler": {
    "name": "solc",
    "version": "0.5.10+commit.5a6ea5b1.Emscripten.clang"
  },
  "schemaVersion": "3.0.16",
  "updatedAt": "2019-12-13T14:08:35.824Z",
  "devdoc": {
    "methods": {}
  },
  "userdoc": {
    "methods": {}
  }
}