{
  "contractName": "SpecificHangmanSingleton",
  "abi": [
    {
      "constant": false,
      "inputs": [
        {
          "name": "_id",
          "type": "bytes32"
        }
      ],
      "name": "wrong",
      "outputs": [],
      "payable": false,
      "stateMutability": "nonpayable",
      "type": "function"
    },
    {
      "constant": false,
      "inputs": [
        {
          "name": "_nonce",
          "type": "bytes32"
        },
        {
          "name": "_parties",
          "type": "address[]"
        }
      ],
      "name": "createInstance",
      "outputs": [],
      "payable": true,
      "stateMutability": "payable",
      "type": "function"
    },
    {
      "constant": false,
      "inputs": [
        {
          "name": "_id",
          "type": "bytes32"
        }
      ],
      "name": "close",
      "outputs": [],
      "payable": false,
      "stateMutability": "nonpayable",
      "type": "function"
    },
    {
      "constant": false,
      "inputs": [
        {
          "name": "_id",
          "type": "bytes32"
        },
        {
          "name": "_hits",
          "type": "uint8[]"
        }
      ],
      "name": "correct",
      "outputs": [],
      "payable": false,
      "stateMutability": "nonpayable",
      "type": "function"
    },
    {
      "constant": false,
      "inputs": [
        {
          "name": "_id",
          "type": "bytes32"
        },
        {
          "name": "_letter",
          "type": "uint8"
        }
      ],
      "name": "guess",
      "outputs": [],
      "payable": false,
      "stateMutability": "nonpayable",
      "type": "function"
    },
    {
      "constant": false,
      "inputs": [
        {
          "name": "_id",
          "type": "bytes32"
        }
      ],
      "name": "finalizeChallenge",
      "outputs": [],
      "payable": false,
      "stateMutability": "nonpayable",
      "type": "function"
    },
    {
      "constant": false,
      "inputs": [
        {
          "name": "_id",
          "type": "bytes32"
        }
      ],
      "name": "challenge",
      "outputs": [],
      "payable": false,
      "stateMutability": "nonpayable",
      "type": "function"
    },
    {
      "constant": false,
      "inputs": [
        {
          "name": "_id",
          "type": "bytes32"
        },
        {
          "name": "_hashedWord",
          "type": "bytes32"
        },
        {
          "name": "_wordLength",
          "type": "uint8"
        }
      ],
      "name": "commit",
      "outputs": [],
      "payable": false,
      "stateMutability": "nonpayable",
      "type": "function"
    },
    {
      "constant": false,
      "inputs": [
        {
          "name": "_id",
          "type": "bytes32"
        },
        {
          "name": "_nonce",
          "type": "bytes32"
        },
        {
          "name": "_opening",
          "type": "bytes"
        }
      ],
      "name": "open",
      "outputs": [],
      "payable": false,
      "stateMutability": "nonpayable",
      "type": "function"
    },
    {
      "inputs": [
        {
          "name": "_maxTries",
          "type": "uint256"
        },
        {
          "name": "_minFunding",
          "type": "uint256"
        },
        {
          "name": "_timeoutPeriod",
          "type": "uint256"
        },
        {
          "name": "_challengePeriod",
          "type": "uint256"
        }
      ],
      "payable": false,
      "stateMutability": "nonpayable",
      "type": "constructor"
    },
    {
      "anonymous": false,
      "inputs": [
        {
          "indexed": false,
          "name": "id",
          "type": "bytes32"
        }
      ],
      "name": "EventDispute",
      "type": "event"
    },
    {
      "anonymous": false,
      "inputs": [
        {
          "indexed": false,
          "name": "id",
          "type": "bytes32"
        }
      ],
      "name": "newChannel",
      "type": "event"
    },
    {
      "anonymous": false,
      "inputs": [
        {
          "indexed": false,
          "name": "id",
          "type": "bytes32"
        },
        {
          "indexed": false,
          "name": "newStage",
          "type": "uint8"
        }
      ],
      "name": "movePerformed",
      "type": "event"
    },
    {
      "constant": false,
      "inputs": [
        {
          "name": "_id",
          "type": "bytes32"
        },
        {
          "name": "_version",
          "type": "uint256"
        },
        {
          "name": "_encodedState",
          "type": "bytes"
        },
        {
          "name": "_signatures",
          "type": "bytes"
        }
      ],
      "name": "dispute",
      "outputs": [],
      "payable": false,
      "stateMutability": "nonpayable",
      "type": "function"
    },
    {
      "constant": false,
      "inputs": [
        {
          "name": "_id",
          "type": "bytes32"
        }
      ],
      "name": "finalizeDispute",
      "outputs": [],
      "payable": false,
      "stateMutability": "nonpayable",
      "type": "function"
    },
    {
      "constant": false,
      "inputs": [
        {
          "name": "_id",
          "type": "bytes32"
        },
        {
          "name": "_version",
          "type": "uint256"
        },
        {
          "name": "_encodedState",
          "type": "bytes"
        },
        {
          "name": "_signatures",
          "type": "bytes"
        }
      ],
      "name": "fastClose",
      "outputs": [],
      "payable": false,
      "stateMutability": "nonpayable",
      "type": "function"
    },
    {
      "constant": true,
      "inputs": [
        {
          "name": "_id",
          "type": "bytes32"
        }
      ],
      "name": "getInstance",
      "outputs": [
        {
          "components": [
            {
              "name": "status",
              "type": "uint8"
            },
            {
              "name": "funding",
              "type": "uint256"
            },
            {
              "name": "parties",
              "type": "address[]"
            }
          ],
          "name": "",
          "type": "tuple"
        },
        {
          "components": [
            {
              "name": "hashedWord",
              "type": "bytes32"
            },
            {
              "name": "guessed",
              "type": "bool[26]"
            },
            {
              "name": "word",
              "type": "bytes"
            },
            {
              "name": "currentGuess",
              "type": "uint8"
            },
            {
              "name": "wordLength",
              "type": "uint256"
            },
            {
              "name": "missingLetters",
              "type": "uint256"
            },
            {
              "name": "tries",
              "type": "uint256"
            },
            {
              "name": "stage",
              "type": "uint8"
            },
            {
              "name": "challenged",
              "type": "uint256"
            }
          ],
          "name": "",
          "type": "tuple"
        },
        {
          "components": [
            {
              "name": "timeout",
              "type": "uint256"
            },
            {
              "name": "version",
              "type": "uint256"
            }
          ],
          "name": "",
          "type": "tuple"
        }
      ],
      "payable": false,
      "stateMutability": "view",
      "type": "function"
    }
  ],
  "bytecode": "0x608060405260006005553480156200001657600080fd5b5060405162003fd038038062003fd083398181016040526200003c91908101906200007f565b83838282600081905550816001819055508060028190555050505081600681905550505050506200010f565b6000815190506200007981620000f5565b92915050565b600080600080608085870312156200009657600080fd5b6000620000a68782880162000068565b9450506020620000b98782880162000068565b9350506040620000cc8782880162000068565b9250506060620000df8782880162000068565b91505092959194509250565b6000819050919050565b6200010081620000eb565b81146200010c57600080fd5b50565b613eb1806200011f6000396000f3fe6080604052600436106100c25760003560e01c8063624a23e01161007f578063cffd46dc11610059578063cffd46dc14610241578063d9865ba31461026a578063ed38c63e14610293578063ee1818f2146102bc576100c2565b8063624a23e0146101b057806368b3823e146101ef578063cd5c196614610218576100c2565b80632d0dd261146100c75780633452c29c146100f057806339c79e0c1461010c57806346b1fa0f146101355780634d900f0d1461015e578063596bca6814610187575b600080fd5b3480156100d357600080fd5b506100ee60048036036100e991908101906130db565b6102e5565b005b61010a60048036036101059190810190613104565b610531565b005b34801561011857600080fd5b50610133600480360361012e91908101906130db565b61081b565b005b34801561014157600080fd5b5061015c6004803603610157919081019061315c565b610895565b005b34801561016a57600080fd5b5061018560048036036101809190810190613302565b610d0e565b005b34801561019357600080fd5b506101ae60048036036101a991908101906130db565b610eff565b005b3480156101bc57600080fd5b506101d760048036036101d291908101906130db565b610fa2565b6040516101e693929190613aa1565b60405180910390f35b3480156101fb57600080fd5b50610216600480360361021191908101906130db565b61128c565b005b34801561022457600080fd5b5061023f600480360361023a919081019061326f565b61155a565b005b34801561024d57600080fd5b50610268600480360361026391908101906130db565b611726565b005b34801561027657600080fd5b50610291600480360361028c919081019061326f565b6119a3565b005b34801561029f57600080fd5b506102ba60048036036102b59190810190613220565b611d07565b005b3480156102c857600080fd5b506102e360048036036102de91908101906131b4565b611f1f565b005b6004600082815260200190815260200160002060020160008154811061030757fe5b9060005260206000200160009054906101000a900473ffffffffffffffffffffffffffffffffffffffff168073ffffffffffffffffffffffffffffffffffffffff163373ffffffffffffffffffffffffffffffffffffffff161461036a57600080fd5b81600280600581111561037957fe5b6003600084815260200190815260200160002060070160009054906101000a900460ff1660058111156103a857fe5b146103b257600080fd5b8360038060048111156103c157fe5b6004600084815260200190815260200160002060000160009054906101000a900460ff1660048111156103f057fe5b146103fa57600080fd5b6001600360008881526020019081526020016000206001016041600360008a815260200190815260200160002060030160009054906101000a900460ff160360ff16601a811061044657fe5b602091828204019190066101000a81548160ff0219169083151502179055506003600087815260200190815260200160002060060160008154809291906001019190505550600054600360008881526020019081526020016000206006015414156104e757600380600088815260200190815260200160002060070160006101000a81548160ff021916908360058111156104dd57fe5b0217905550610520565b60016003600088815260200190815260200160002060070160006101000a81548160ff0219169083600581111561051a57fe5b02179055505b6105298661231f565b505050505050565b6000833334858560405160200161054c959493929190613953565b6040516020818303038152906040528051906020012090506000600481111561057157fe5b6004600083815260200190815260200160002060000160009054906101000a900460ff1660048111156105a057fe5b1480156105b1575060028383905010155b6105ba57600080fd5b6001543410156105c957600080fd5b6105d161285c565b6040518060600160405280600160048111156105e957fe5b8152602001348152602001858580806020026020016040519081016040528093929190818152602001838360200280828437600081840152601f19601f820116905080830192505050505050508152506004600084815260200190815260200160002060008201518160000160006101000a81548160ff0219169083600481111561067057fe5b021790555060208201518160010155604082015181600201908051906020019061069b92919061287f565b509050506040518061012001604052806000801b815260200182815260200160405180604001604052806001815260200160008152508152602001600060ff1681526020016000815260200160008152602001600081526020016000600581111561070257fe5b81526020016000815250600360008481526020019081526020016000206000820151816000015560208201518160010190601a610740929190612909565b50604082015181600201908051906020019061075d9291906129a2565b5060608201518160030160006101000a81548160ff021916908360ff1602179055506080820151816004015560a0820151816005015560c0820151816006015560e08201518160070160006101000a81548160ff021916908360058111156107c157fe5b021790555061010082015181600801559050506107dd8261239a565b7f02f9de3174ba1908545e7eaf47a7106ea2a5a3e73ec257d673c8dbdacc8b555d8260405161080c9190613938565b60405180910390a15050505050565b80600380600481111561082a57fe5b6004600084815260200190815260200160002060000160009054906101000a900460ff16600481111561085957fe5b1461086357600080fd5b610890836003600086815260200190815260200160002060070160009054906101000a900460ff166123de565b505050565b600460008481526020019081526020016000206002016000815481106108b757fe5b9060005260206000200160009054906101000a900473ffffffffffffffffffffffffffffffffffffffff168073ffffffffffffffffffffffffffffffffffffffff163373ffffffffffffffffffffffffffffffffffffffff161461091a57600080fd5b83600280600581111561092957fe5b6003600084815260200190815260200160002060070160009054906101000a900460ff16600581111561095857fe5b1461096257600080fd5b85600380600481111561097157fe5b6004600084815260200190815260200160002060000160009054906101000a900460ff1660048111156109a057fe5b146109aa57600080fd5b600087879050116109ba57600080fd5b60008090505b87879050811015610bc357600360008a8152602001908152602001600020600401548888838181106109ee57fe5b9050602002016020610a03919081019061337f565b60ff16101580610acf57506000600360008b8152602001908152602001600020600201898984818110610a3257fe5b9050602002016020610a47919081019061337f565b60ff16815460018160011615610100020316600290048110610a6557fe5b815460011615610a845790600052602060002090602091828204019190065b9054901a7f0100000000000000000000000000000000000000000000000000000000000000027effffffffffffffffffffffffffffffffffffffffffffffffffffffffffffff191614155b15610ae357610add8961231f565b50610d04565b600360008a815260200190815260200160002060030160009054906101000a900460ff1660f81b600360008b8152602001908152602001600020600201898984818110610b2c57fe5b9050602002016020610b41919081019061337f565b60ff16815460018160011615610100020316600290048110610b5f57fe5b815460011615610b7e5790600052602060002090602091828204019190065b601f036101000a81548160ff021916907f01000000000000000000000000000000000000000000000000000000000000008404021790555080806001019150506109c0565b5086869050600360008a81526020019081526020016000206005015403600360008a8152602001908152602001600020600501819055506001600360008a81526020019081526020016000206001016041600360008c815260200190815260200160002060030160009054906101000a900460ff160360ff16601a8110610c4657fe5b602091828204019190066101000a81548160ff0219169083151502179055506001600360008a8152602001908152602001600020600501541015610cc1576005600360008a815260200190815260200160002060070160006101000a81548160ff02191690836005811115610cb757fe5b0217905550610cfa565b6001600360008a815260200190815260200160002060070160006101000a81548160ff02191690836005811115610cf457fe5b02179055505b610d038861231f565b5b5050505050505050565b60046000838152602001908152602001600020600201600181548110610d3057fe5b9060005260206000200160009054906101000a900473ffffffffffffffffffffffffffffffffffffffff168073ffffffffffffffffffffffffffffffffffffffff163373ffffffffffffffffffffffffffffffffffffffff1614610d9357600080fd5b826001806005811115610da257fe5b6003600084815260200190815260200160002060070160009054906101000a900460ff166005811115610dd157fe5b14610ddb57600080fd5b846003806004811115610dea57fe5b6004600084815260200190815260200160002060000160009054906101000a900460ff166004811115610e1957fe5b14610e2357600080fd5b6000604187039050601a8160ff1610610e3b57600080fd5b60001515600360008a81526020019081526020016000206001018260ff16601a8110610e6357fe5b602091828204019190069054906101000a900460ff16151514610e8557600080fd5b86600360008a815260200190815260200160002060030160006101000a81548160ff021916908360ff1602179055506002600360008a815260200190815260200160002060070160006101000a81548160ff02191690836005811115610ee757fe5b0217905550610ef58861231f565b5050505050505050565b60026004811115610f0c57fe5b6004600083815260200190815260200160002060000160009054906101000a900460ff166004811115610f3b57fe5b148015610f5e575042600760008381526020019081526020016000206000015411155b610f6757600080fd5b60036004600083815260200190815260200160002060000160006101000a81548160ff02191690836004811115610f9a57fe5b021790555050565b610faa612a22565b610fb2612a4e565b610fba612ab1565b600460008581526020019081526020016000206003600086815260200190815260200160002060076000878152602001908152602001600020826040518060600160405290816000820160009054906101000a900460ff16600481111561101d57fe5b600481111561102857fe5b815260200160018201548152602001600282018054806020026020016040519081016040528092919081815260200182805480156110bb57602002820191906000526020600020905b8160009054906101000a900473ffffffffffffffffffffffffffffffffffffffff1673ffffffffffffffffffffffffffffffffffffffff1681526020019060010190808311611071575b505050505081525050925081604051806101200160405290816000820154815260200160018201601a806020026040519081016040528092919082601a801561113e576020028201916000905b82829054906101000a900460ff161515815260200190600101906020826000010492830192600103820291508084116111085790505b50505050508152602001600282018054600181600116156101000203166002900480601f0160208091040260200160405190810160405280929190818152602001828054600181600116156101000203166002900480156111e05780601f106111b5576101008083540402835291602001916111e0565b820191906000526020600020905b8154815290600101906020018083116111c357829003601f168201915b505050505081526020016003820160009054906101000a900460ff1660ff1660ff1681526020016004820154815260200160058201548152602001600682015481526020016007820160009054906101000a900460ff16600581111561124257fe5b600581111561124d57fe5b81526020016008820154815250509150806040518060400160405290816000820154815260200160018201548152505090509250925092509193909250565b80600380600481111561129b57fe5b6004600084815260200190815260200160002060000160009054906101000a900460ff1660048111156112ca57fe5b146112d457600080fd5b42600360008581526020019081526020016000206008015411156112f757600080fd5b6004600581111561130457fe5b6003600085815260200190815260200160002060070160009054906101000a900460ff16600581111561133357fe5b1415801561137a575060058081111561134857fe5b6003600085815260200190815260200160002060070160009054906101000a900460ff16600581111561137757fe5b14155b61138357600080fd5b600460008481526020019081526020016000206002016000815481106113a557fe5b9060005260206000200160009054906101000a900473ffffffffffffffffffffffffffffffffffffffff1673ffffffffffffffffffffffffffffffffffffffff163373ffffffffffffffffffffffffffffffffffffffff16148061148057506004600084815260200190815260200160002060020160018154811061142657fe5b9060005260206000200160009054906101000a900473ffffffffffffffffffffffffffffffffffffffff1673ffffffffffffffffffffffffffffffffffffffff163373ffffffffffffffffffffffffffffffffffffffff16145b61148957600080fd5b6001600581111561149657fe5b6003600085815260200190815260200160002060070160009054906101000a900460ff1660058111156114c557fe5b141561150e57600460058111156114d857fe5b6003600085815260200190815260200160002060070160009054906101000a900460ff16600581111561150757fe5b505061154c565b60058081111561151a57fe5b6003600085815260200190815260200160002060070160009054906101000a900460ff16600581111561154957fe5b50505b6115558361231f565b505050565b6001600481111561156757fe5b6004600086815260200190815260200160002060000160009054906101000a900460ff16600481111561159657fe5b14806116205750600360048111156115aa57fe5b6004600086815260200190815260200160002060000160009054906101000a900460ff1660048111156115d957fe5b14801561161f5750600260048111156115ee57fe5b6004600086815260200190815260200160002060000160009054906101000a900460ff16600481111561161d57fe5b145b5b61162957600080fd5b6116f3600460008681526020019081526020016000206002018054806020026020016040519081016040528092919081815260200182805480156116c257602002820191906000526020600020905b8160009054906101000a900473ffffffffffffffffffffffffffffffffffffffff1673ffffffffffffffffffffffffffffffffffffffff1681526020019060010190808311611678575b5050505050308686866040516020016116de94939291906138ec565b60405160208183030381529060405283612625565b6116fb612a4e565b8280602001905161170f919081019061333e565b905061171f858260e001516123de565b5050505050565b80600380600481111561173557fe5b6004600084815260200190815260200160002060000160009054906101000a900460ff16600481111561176457fe5b1461176e57600080fd5b600060036000858152602001908152602001600020600801541461179157600080fd5b6004600581111561179e57fe5b6003600085815260200190815260200160002060070160009054906101000a900460ff1660058111156117cd57fe5b1415801561181457506005808111156117e257fe5b6003600085815260200190815260200160002060070160009054906101000a900460ff16600581111561181157fe5b14155b61181d57600080fd5b6004600084815260200190815260200160002060020160008154811061183f57fe5b9060005260206000200160009054906101000a900473ffffffffffffffffffffffffffffffffffffffff1673ffffffffffffffffffffffffffffffffffffffff163373ffffffffffffffffffffffffffffffffffffffff16148061191a5750600460008481526020019081526020016000206002016001815481106118c057fe5b9060005260206000200160009054906101000a900473ffffffffffffffffffffffffffffffffffffffff1673ffffffffffffffffffffffffffffffffffffffff163373ffffffffffffffffffffffffffffffffffffffff16145b61192357600080fd5b600254420160036000858152602001908152602001600020600801819055507f611949c64c66225766b6e6d1154d802a31872f5d8e94bdcac954806b8376fbb9836003600086815260200190815260200160002060070160009054906101000a900460ff166040516119969291906139d3565b60405180910390a1505050565b600160048111156119b057fe5b6004600086815260200190815260200160002060000160009054906101000a900460ff1660048111156119df57fe5b1480611a665750600260048111156119f357fe5b6004600086815260200190815260200160002060000160009054906101000a900460ff166004811115611a2257fe5b148015611a445750426007600086815260200190815260200160002060000154115b8015611a655750600760008581526020019081526020016000206001015483115b5b611a6f57600080fd5b611b3960046000868152602001908152602001600020600201805480602002602001604051908101604052809291908181526020018280548015611b0857602002820191906000526020600020905b8160009054906101000a900473ffffffffffffffffffffffffffffffffffffffff1673ffffffffffffffffffffffffffffffffffffffff1681526020019060010190808311611abe575b505050505030868686604051602001611b2494939291906138ec565b60405160208183030381529060405283612625565b60016004811115611b4657fe5b6004600086815260200190815260200160002060000160009054906101000a900460ff166004811115611b7557fe5b1415611c0a5760026004600086815260200190815260200160002060000160006101000a81548160ff02191690836004811115611bae57fe5b0217905550600654420160076000868152602001908152602001600020600001819055507f4c871862155c443c6718dddabe053063168abac54b2e51ad370b7de75839ec5284604051611c019190613938565b60405180910390a15b82600760008681526020019081526020016000206001018190555081806020019051611c39919081019061333e565b600360008681526020019081526020016000206000820151816000015560208201518160010190601a611c6d929190612909565b506040820151816002019080519060200190611c8a9291906129a2565b5060608201518160030160006101000a81548160ff021916908360ff1602179055506080820151816004015560a0820151816005015560c0820151816006015560e08201518160070160006101000a81548160ff02191690836005811115611cee57fe5b0217905550610100820151816008015590505050505050565b60046000848152602001908152602001600020600201600081548110611d2957fe5b9060005260206000200160009054906101000a900473ffffffffffffffffffffffffffffffffffffffff168073ffffffffffffffffffffffffffffffffffffffff163373ffffffffffffffffffffffffffffffffffffffff1614611d8c57600080fd5b836000806005811115611d9b57fe5b6003600084815260200190815260200160002060070160009054906101000a900460ff166005811115611dca57fe5b14611dd457600080fd5b856003806004811115611de357fe5b6004600084815260200190815260200160002060000160009054906101000a900460ff166004811115611e1257fe5b14611e1c57600080fd5b86600360008a8152602001908152602001600020600001819055508560ff16600360008a8152602001908152602001600020600401819055506001600360008a815260200190815260200160002060070160006101000a81548160ff02191690836005811115611e8857fe5b02179055508560ff16600360008a8152602001908152602001600020600501819055508560ff166040519080825280601f01601f191660200182016040528015611ee15781602001600182028038833980820191505090505b50600360008a81526020019081526020016000206002019080519060200190611f0b929190612acb565b50611f158861231f565b5050505050505050565b60046000858152602001908152602001600020600201600081548110611f4157fe5b9060005260206000200160009054906101000a900473ffffffffffffffffffffffffffffffffffffffff168073ffffffffffffffffffffffffffffffffffffffff163373ffffffffffffffffffffffffffffffffffffffff1614611fa457600080fd5b846003806005811115611fb357fe5b6003600084815260200190815260200160002060070160009054906101000a900460ff166005811115611fe257fe5b14611fec57600080fd5b866003806004811115611ffb57fe5b6004600084815260200190815260200160002060000160009054906101000a900460ff16600481111561202a57fe5b1461203457600080fd5b6003600581111561204157fe5b600360008b815260200190815260200160002060070160009054906101000a900460ff16600581111561207057fe5b1461207a57600080fd5b600360008a815260200190815260200160002060040154878790501461209f57600080fd5b60008090505b600360008b81526020019081526020016000206004015481101561224c578787828181106120cf57fe5b9050013560f81c60f81b7effffffffffffffffffffffffffffffffffffffffffffffffffffffffffffff1916600360008c81526020019081526020016000206002018281546001816001161561010002031660029004811061212d57fe5b81546001161561214c5790600052602060002090602091828204019190065b9054901a7f0100000000000000000000000000000000000000000000000000000000000000027effffffffffffffffffffffffffffffffffffffffffffffffffffffffffffff1916141580156121f35750600360008b815260200190815260200160002060010160418989848181106121c157fe5b9050013560f81c60f81b60f81c0360ff16601a81106121dc57fe5b602091828204019190069054906101000a900460ff165b1561223f576005600360008c815260200190815260200160002060070160006101000a81548160ff0219169083600581111561222b57fe5b02179055506122398a61231f565b50612314565b80806001019150506120a5565b50600360008a815260200190815260200160002060000154888888604051602001612279939291906139a1565b60405160208183030381529060405280519060200120146122d1576005600360008b815260200190815260200160002060070160006101000a81548160ff021916908360058111156122c757fe5b021790555061230a565b6004600360008b815260200190815260200160002060070160006101000a81548160ff0219169083600581111561230457fe5b02179055505b6123138961231f565b5b505050505050505050565b600060036000838152602001908152602001600020600801819055507f611949c64c66225766b6e6d1154d802a31872f5d8e94bdcac954806b8376fbb9816003600084815260200190815260200160002060070160009054906101000a900460ff1660405161238f9291906139d3565b60405180910390a150565b604051806040016040528060008152602001600081525060076000838152602001908152602001600020600082015181600001556020820151816001015590505050565b600460058111156123eb57fe5b8160058111156123f757fe5b14156124e2576004600083815260200190815260200160002060020160008154811061241f57fe5b9060005260206000200160009054906101000a900473ffffffffffffffffffffffffffffffffffffffff1673ffffffffffffffffffffffffffffffffffffffff166108fc60046000858152602001908152602001600020600101549081150290604051600060405180830381858888f193505050501580156124a5573d6000803e3d6000fd5b50600480600084815260200190815260200160002060000160006101000a81548160ff021916908360048111156124d857fe5b0217905550612621565b6005808111156124ee57fe5b8160058111156124fa57fe5b14156125e5576004600083815260200190815260200160002060020160018154811061252257fe5b9060005260206000200160009054906101000a900473ffffffffffffffffffffffffffffffffffffffff1673ffffffffffffffffffffffffffffffffffffffff166108fc60046000858152602001908152602001600020600101549081150290604051600060405180830381858888f193505050501580156125a8573d6000803e3d6000fd5b50600480600084815260200190815260200160002060000160006101000a81548160ff021916908360048111156125db57fe5b0217905550612620565b6040517f08c379a000000000000000000000000000000000000000000000000000000000815260040161261790613a61565b60405180910390fd5b5b5050565b612638836126328461263d565b83612656565b505050565b600061264f82805190602001206127e9565b9050919050565b60608180602001905161266c919081019061309a565b905083518151146126b2576040517f08c379a00000000000000000000000000000000000000000000000000000000081526004016126a990613a81565b60405180910390fd5b60008090505b84518110156127e2576001848383815181106126d057fe5b6020026020010151600001518484815181106126e857fe5b60200260200101516020015185858151811061270057fe5b6020026020010151604001516040516000815260200160405260405161272994939291906139fc565b6020604051602081039080840390855afa15801561274b573d6000803e3d6000fd5b5050506020604051035173ffffffffffffffffffffffffffffffffffffffff1685828151811061277757fe5b602002602001015173ffffffffffffffffffffffffffffffffffffffff16146127d5576040517f08c379a00000000000000000000000000000000000000000000000000000000081526004016127cc90613a41565b60405180910390fd5b80806001019150506126b8565b5050505050565b600060606040518060400160405280601c81526020017f19457468657265756d205369676e6564204d6573736167653a0a33320000000081525090506000818460405160200161283a9291906138c4565b6040516020818303038152906040528051906020012090508092505050919050565b604051806103400160405280601a90602082028038833980820191505090505090565b8280548282559060005260206000209081019282156128f8579160200282015b828111156128f75782518260006101000a81548173ffffffffffffffffffffffffffffffffffffffff021916908373ffffffffffffffffffffffffffffffffffffffff1602179055509160200191906001019061289f565b5b5090506129059190612b4b565b5090565b82601a601f016020900481019282156129915791602002820160005b8382111561296257835183826101000a81548160ff0219169083151502179055509260200192600101602081600001049283019260010302612925565b801561298f5782816101000a81549060ff0219169055600101602081600001049283019260010302612962565b505b50905061299e9190612b8e565b5090565b828054600181600116156101000203166002900490600052602060002090601f016020900481019282601f106129e357805160ff1916838001178555612a11565b82800160010185558215612a11579182015b82811115612a105782518255916020019190600101906129f5565b5b509050612a1e9190612bbe565b5090565b604051806060016040528060006004811115612a3a57fe5b815260200160008152602001606081525090565b60405180610440016040528060008019168152602001612a6c612be3565b815260200160608152602001600060ff16815260200160008152602001600081526020016000815260200160006005811115612aa457fe5b8152602001600081525090565b604051806040016040528060008152602001600081525090565b828054600181600116156101000203166002900490600052602060002090601f016020900481019282601f10612b0c57805160ff1916838001178555612b3a565b82800160010185558215612b3a579182015b82811115612b39578251825591602001919060010190612b1e565b5b509050612b479190612bbe565b5090565b612b8b91905b80821115612b8757600081816101000a81549073ffffffffffffffffffffffffffffffffffffffff021916905550600101612b51565b5090565b90565b612bbb91905b80821115612bb757600081816101000a81549060ff021916905550600101612b94565b5090565b90565b612be091905b80821115612bdc576000816000905550600101612bc4565b5090565b90565b604051806103400160405280601a90602082028038833980820191505090505090565b600081359050612c1581613deb565b92915050565b60008083601f840112612c2d57600080fd5b8235905067ffffffffffffffff811115612c4657600080fd5b602083019150836020820283011115612c5e57600080fd5b9250929050565b600082601f830112612c7657600080fd5b601a612c89612c8482613b13565b613ae6565b91508183856020840282011115612c9f57600080fd5b60005b83811015612ccf5781612cb58882612da6565b845260208401935060208301925050600181019050612ca2565b5050505092915050565b600082601f830112612cea57600080fd5b8151612cfd612cf882613b35565b613ae6565b91508181835260208401935060208101905083856060840282011115612d2257600080fd5b60005b83811015612d525781612d388882612fe6565b845260208401935060608301925050600181019050612d25565b5050505092915050565b60008083601f840112612d6e57600080fd5b8235905067ffffffffffffffff811115612d8757600080fd5b602083019150836020820283011115612d9f57600080fd5b9250929050565b600081519050612db581613e02565b92915050565b600081359050612dca81613e19565b92915050565b600081519050612ddf81613e19565b92915050565b60008083601f840112612df757600080fd5b8235905067ffffffffffffffff811115612e1057600080fd5b602083019150836001820283011115612e2857600080fd5b9250929050565b600082601f830112612e4057600080fd5b8151612e53612e4e82613b5d565b613ae6565b91508082526020830160208301858383011115612e6f57600080fd5b612e7a838284613d83565b50505092915050565b600082601f830112612e9457600080fd5b8135612ea7612ea282613b89565b613ae6565b91508082526020830160208301858383011115612ec357600080fd5b612ece838284613d74565b50505092915050565b600081519050612ee681613e30565b92915050565b60006104408284031215612eff57600080fd5b612f0a610120613ae6565b90506000612f1a84828501612dd0565b6000830152506020612f2e84828501612c65565b60208301525061036082015167ffffffffffffffff811115612f4f57600080fd5b612f5b84828501612e2f565b604083015250610380612f7084828501613085565b6060830152506103a0612f858482850161305b565b6080830152506103c0612f9a8482850161305b565b60a0830152506103e0612faf8482850161305b565b60c083015250610400612fc484828501612ed7565b60e083015250610420612fd98482850161305b565b6101008301525092915050565b600060608284031215612ff857600080fd5b6130026060613ae6565b9050600061301284828501613085565b600083015250602061302684828501612dd0565b602083015250604061303a84828501612dd0565b60408301525092915050565b60008135905061305581613e40565b92915050565b60008151905061306a81613e40565b92915050565b60008135905061307f81613e57565b92915050565b60008151905061309481613e57565b92915050565b6000602082840312156130ac57600080fd5b600082015167ffffffffffffffff8111156130c657600080fd5b6130d284828501612cd9565b91505092915050565b6000602082840312156130ed57600080fd5b60006130fb84828501612dbb565b91505092915050565b60008060006040848603121561311957600080fd5b600061312786828701612dbb565b935050602084013567ffffffffffffffff81111561314457600080fd5b61315086828701612c1b565b92509250509250925092565b60008060006040848603121561317157600080fd5b600061317f86828701612dbb565b935050602084013567ffffffffffffffff81111561319c57600080fd5b6131a886828701612d5c565b92509250509250925092565b600080600080606085870312156131ca57600080fd5b60006131d887828801612dbb565b94505060206131e987828801612dbb565b935050604085013567ffffffffffffffff81111561320657600080fd5b61321287828801612de5565b925092505092959194509250565b60008060006060848603121561323557600080fd5b600061324386828701612dbb565b935050602061325486828701612dbb565b925050604061326586828701613070565b9150509250925092565b6000806000806080858703121561328557600080fd5b600061329387828801612dbb565b94505060206132a487828801613046565b935050604085013567ffffffffffffffff8111156132c157600080fd5b6132cd87828801612e83565b925050606085013567ffffffffffffffff8111156132ea57600080fd5b6132f687828801612e83565b91505092959194509250565b6000806040838503121561331557600080fd5b600061332385828601612dbb565b925050602061333485828601613070565b9150509250929050565b60006020828403121561335057600080fd5b600082015167ffffffffffffffff81111561336a57600080fd5b61337684828501612eec565b91505092915050565b60006020828403121561339157600080fd5b600061339f84828501613070565b91505092915050565b60006133b483836133e7565b60208301905092915050565b60006133cc8383613517565b60208301905092915050565b6133e181613ccb565b82525050565b6133f081613cb9565b82525050565b6133ff81613cb9565b82525050565b60006134118385613c48565b935061341c82613bb5565b8060005b85811015613455576134328284613ca2565b61343c88826133a8565b975061344783613c10565b925050600181019050613420565b5085925050509392505050565b600061346d82613bd9565b6134778185613c37565b935061348283613bbf565b8060005b838110156134b357815161349a88826133a8565b97506134a583613c1d565b925050600181019050613486565b5085935050505092915050565b6134c981613be4565b6134d38184613c59565b92506134de82613bcf565b8060005b8381101561350f5781516134f687826133c0565b965061350183613c2a565b9250506001810190506134e2565b505050505050565b61352081613cdd565b82525050565b61352f81613ce9565b82525050565b61353e81613ce9565b82525050565b61355561355082613ce9565b613db6565b82525050565b60006135678385613c75565b9350613574838584613d74565b61357d83613dc0565b840190509392505050565b600061359382613bfa565b61359d8185613c75565b93506135ad818560208601613d83565b6135b681613dc0565b840191505092915050565b60006135cc82613bef565b6135d68185613c64565b93506135e6818560208601613d83565b6135ef81613dc0565b840191505092915050565b61360381613d50565b82525050565b61361281613d62565b82525050565b61362181613d62565b82525050565b600061363282613c05565b61363c8185613c97565b935061364c818560208601613d83565b80840191505092915050565b6000613665600f83613c86565b91507f57726f6e67207369676e617475726500000000000000000000000000000000006000830152602082019050919050565b60006136a5601183613c86565b91507f4e6f207465726d696e616c2073746174650000000000000000000000000000006000830152602082019050919050565b60006136e5602b83613c86565b91507f546865726520617265206c6573732f6d6f7265207369676e617475726573207460008301527f68656e20706172746965730000000000000000000000000000000000000000006020830152604082019050919050565b6000610440830160008301516137576000860182613526565b50602083015161376a60208601826134c0565b50604083015184820361036086015261378382826135c1565b91505060608301516137996103808601826138a6565b5060808301516137ad6103a0860182613888565b5060a08301516137c16103c0860182613888565b5060c08301516137d56103e0860182613888565b5060e08301516137e9610400860182613609565b506101008301516137fe610420860182613888565b508091505092915050565b60408201600082015161381f6000850182613888565b5060208201516138326020850182613888565b50505050565b600060608301600083015161385060008601826135fa565b5060208301516138636020860182613888565b506040830151848203604086015261387b8282613462565b9150508091505092915050565b61389181613d39565b82525050565b6138a081613d39565b82525050565b6138af81613d43565b82525050565b6138be81613d43565b82525050565b60006138d08285613627565b91506138dc8284613544565b6020820191508190509392505050565b600060808201905061390160008301876133f6565b61390e6020830186613535565b61391b6040830185613897565b818103606083015261392d8184613588565b905095945050505050565b600060208201905061394d6000830184613535565b92915050565b60006080820190506139686000830188613535565b61397560208301876133d8565b6139826040830186613897565b8181036060830152613995818486613405565b90509695505050505050565b60006040820190506139b66000830186613535565b81810360208301526139c981848661355b565b9050949350505050565b60006040820190506139e86000830185613535565b6139f56020830184613618565b9392505050565b6000608082019050613a116000830187613535565b613a1e60208301866138b5565b613a2b6040830185613535565b613a386060830184613535565b95945050505050565b60006020820190508181036000830152613a5a81613658565b9050919050565b60006020820190508181036000830152613a7a81613698565b9050919050565b60006020820190508181036000830152613a9a816136d8565b9050919050565b60006080820190508181036000830152613abb8186613838565b90508181036020830152613acf818561373e565b9050613ade6040830184613809565b949350505050565b6000604051905081810181811067ffffffffffffffff82111715613b0957600080fd5b8060405250919050565b600067ffffffffffffffff821115613b2a57600080fd5b602082029050919050565b600067ffffffffffffffff821115613b4c57600080fd5b602082029050602081019050919050565b600067ffffffffffffffff821115613b7457600080fd5b601f19601f8301169050602081019050919050565b600067ffffffffffffffff821115613ba057600080fd5b601f19601f8301169050602081019050919050565b6000819050919050565b6000819050602082019050919050565b6000819050919050565b600081519050919050565b6000601a9050919050565b600081519050919050565b600081519050919050565b600081519050919050565b6000602082019050919050565b6000602082019050919050565b6000602082019050919050565b600082825260208201905092915050565b600082825260208201905092915050565b600081905092915050565b600082825260208201905092915050565b600082825260208201905092915050565b600082825260208201905092915050565b600081905092915050565b6000613cb16020840184612c06565b905092915050565b6000613cc482613d19565b9050919050565b6000613cd682613d19565b9050919050565b60008115159050919050565b6000819050919050565b6000819050613d0182613dd1565b919050565b6000819050613d1482613dde565b919050565b600073ffffffffffffffffffffffffffffffffffffffff82169050919050565b6000819050919050565b600060ff82169050919050565b6000613d5b82613cf3565b9050919050565b6000613d6d82613d06565b9050919050565b82818337600083830152505050565b60005b83811015613da1578082015181840152602081019050613d86565b83811115613db0576000848401525b50505050565b6000819050919050565b6000601f19601f8301169050919050565b60058110613ddb57fe5b50565b60068110613de857fe5b50565b613df481613cb9565b8114613dff57600080fd5b50565b613e0b81613cdd565b8114613e1657600080fd5b50565b613e2281613ce9565b8114613e2d57600080fd5b50565b60068110613e3d57600080fd5b50565b613e4981613d39565b8114613e5457600080fd5b50565b613e6081613d43565b8114613e6b57600080fd5b5056fea365627a7a72305820dae69e227f83d19dbfbedbe57c6df213bbbc324b2a90109651d505d52f0cb21d6c6578706572696d656e74616cf564736f6c634300050a0040",
  "source": "pragma solidity 0.5.10;\npragma experimental \"ABIEncoderV2\";\n\nimport \"contracts/sharedCode/SigVerifier.sol\";\nimport \"contracts/sharedCode/AbstractHangmanSingleton.sol\";\n\n//We assume that players only sign / produce states that can occur in a proper execution\n//For example, they do not sign / produce a state in which a player has used all of his ten tries but still is in stage WaitingForGuess\ncontract SpecificHangmanSingleton is SigVerifier, AbstractHangmanSingleton{\n    \n    //******************\n    // Variables, enums, structures\n    \n    //Model specific dispute constants\n    uint timeoutPeriod;\n    \n    //Channel Instances -> We divide the variables to be able to reuse the code\n    mapping(bytes32 => DisputeVariables) disputeState;\n    \n    //Events\n    event EventDispute(bytes32 id);\n    \n    //Structures\n    struct DisputeVariables {\n        uint timeout;\n        uint version;\n    }\n    \n    //****************\n    //Constructor\n    constructor(uint _maxTries, uint _minFunding, uint _timeoutPeriod, uint _challengePeriod) public AbstractHangmanSingleton(_maxTries, _minFunding, _challengePeriod){\n        timeoutPeriod = _timeoutPeriod;\n    }\n    \n    \n    //****************\n    //Channel logic\n    \n    //Function called by the inherrited function \"createInstance\"\n    function setInitialDisputeState(bytes32 _id) internal {\n        disputeState[_id] = DisputeVariables(0,0);\n    }\n\n    //Function to start a dispute\n    function dispute(bytes32 _id, uint _version, bytes memory _encodedState, bytes memory _signatures) public {\n        \n        //Can only be called if channel has been created and dispute timeout has not elapsed yet and version is larger than the submitted one\n        require(instanceState[_id].status == ChannelStatus.OFFCHAIN || (instanceState[_id].status == ChannelStatus.DISPUTE && disputeState[_id].timeout > now && _version > disputeState[_id].version));\n\n        //Check signatures:\n        verifySignatures(instanceState[_id].parties, abi.encode(address(this), _id, _version, _encodedState), _signatures);\n        \n        //Set timeout, status and emit event if this is the first call\n        if(instanceState[_id].status == ChannelStatus.OFFCHAIN){\n            instanceState[_id].status = ChannelStatus.DISPUTE;\n            disputeState[_id].timeout = now + timeoutPeriod;\n            emit EventDispute(_id);\n        }\n        \n        //Store the version as the most current one\n        disputeState[_id].version = _version;\n        \n        //Decode the state\n        applicationState[_id] = abi.decode(_encodedState,(ApplicationVariables));\n    }\n    \n    //Function to finalie a dispute\n    function finalizeDispute(bytes32 _id) external{\n        require(instanceState[_id].status == ChannelStatus.DISPUTE && disputeState[_id].timeout <= now);\n        instanceState[_id].status = ChannelStatus.ONCHAIN;\n    }\n    \n    //Function to perform a fast closing (without dispute)\n    function fastClose(bytes32 _id, uint _version, bytes memory _encodedState, bytes memory _signatures) public {\n        \n        //Not when closed or not created\n        require(instanceState[_id].status == ChannelStatus.OFFCHAIN || instanceState[_id].status == ChannelStatus.ONCHAIN && instanceState[_id].status == ChannelStatus.DISPUTE);\n        \n        //Check signatures\n        verifySignatures(instanceState[_id].parties, abi.encode(address(this), _id, _version, _encodedState), _signatures);\n        \n        //Decode state and pass stage to the closing procedure\n        ApplicationVariables memory _appState = abi.decode(_encodedState,(ApplicationVariables));\n        internalClose(_id, _appState.stage);\n    }\n    \n    //******************\n    // Getter\n    \n    function getInstance(bytes32 _id) external view returns (MaintainanceVariables memory, ApplicationVariables memory, DisputeVariables memory){\n        return (instanceState[_id], applicationState[_id], disputeState[_id]) ;\n    }\n}\n",
  "sourcePath": "/media/shared/CAC/Projekte/2019_SC_Workshop_FinCrypto/publicImplementation/truffle/contracts/standaloneArchitecture/SpecificHangmanSingleton.sol",
  "compiler": {
    "name": "solc",
    "version": "0.5.10+commit.5a6ea5b1.Emscripten.clang"
  },
  "schemaVersion": "3.0.16",
  "updatedAt": "2019-12-13T14:08:35.877Z",
  "devdoc": {
    "methods": {}
  },
  "userdoc": {
    "methods": {}
  }
}